{"abi":[{"type":"function","name":"isVerified","inputs":[{"name":"","type":"bytes32","internalType":"bytes32"}],"outputs":[{"name":"","type":"bool","internalType":"bool"}],"stateMutability":"view"},{"type":"function","name":"owner","inputs":[],"outputs":[{"name":"","type":"address","internalType":"address"}],"stateMutability":"view"},{"type":"function","name":"submitAttestation","inputs":[{"name":"messageId","type":"bytes32","internalType":"bytes32"}],"outputs":[],"stateMutability":"nonpayable"},{"type":"function","name":"transferOwnership","inputs":[{"name":"newOwner","type":"address","internalType":"address"}],"outputs":[],"stateMutability":"nonpayable"},{"type":"event","name":"OwnershipTransferred","inputs":[{"name":"previousOwner","type":"address","indexed":true,"internalType":"address"},{"name":"newOwner","type":"address","indexed":true,"internalType":"address"}],"anonymous":false},{"type":"event","name":"Verified","inputs":[{"name":"messageId","type":"bytes32","indexed":true,"internalType":"bytes32"},{"name":"submitter","type":"address","indexed":true,"internalType":"address"}],"anonymous":false}],"bytecode":{"object":"0x60808060405234604d575f80546001600160a01b031916339081178255907f8be0079c531659141344cd1fd0a4f28419497f9722a3daafe3b4186f6b6457e08180a361023590816100528239f35b5f80fdfe60806040526004361015610011575f80fd5b5f3560e01c80634506b5c5146101ac5780638da5cb5b14610185578063c181b273146101565763f2fde38b14610045575f80fd5b34610152576020366003190112610152576004356001600160a01b03811690819003610152575f546001600160a01b0381163381900361010e5782156100ba5782907f8be0079c531659141344cd1fd0a4f28419497f9722a3daafe3b4186f6b6457e05f80a36001600160a01b031916175f55005b60405162461bcd60e51b815260206004820152602660248201527f4f776e61626c653a206e6577206f776e657220697320746865207a65726f206160448201526564647265737360d01b6064820152608490fd5b606460405162461bcd60e51b815260206004820152602060248201527f4f776e61626c653a2063616c6c6572206973206e6f7420746865206f776e65726044820152fd5b5f80fd5b34610152576020366003190112610152576004355f526001602052602060ff60405f2054166040519015158152f35b34610152575f366003190112610152575f546040516001600160a01b039091168152602090f35b3461015257602036600319011261015257600435805f52600160205260405f20600160ff1982541617905533907fa9876a484ea4114b13008f98e07c2e907b22d1f73353badc831b48c45c86630d5f80a300fea2646970667358221220d6d5ab581a807ee783b1c2a5a985aae82e3284a02f657de8c0859d6ce7c821e464736f6c634300081a0033","linkReferences":{}},"methodIdentifiers":{"isVerified(bytes32)":"c181b273","owner()":"8da5cb5b","submitAttestation(bytes32)":"4506b5c5","transferOwnership(address)":"f2fde38b"},"id":28}