{"abi":[{"type":"function","name":"isVerified","inputs":[{"name":"","type":"bytes32","internalType":"bytes32"}],"outputs":[{"name":"","type":"bool","internalType":"bool"}],"stateMutability":"view"},{"type":"function","name":"owner","inputs":[],"outputs":[{"name":"","type":"address","internalType":"address"}],"stateMutability":"view"},{"type":"function","name":"submitAttestation","inputs":[{"name":"messageId","type":"bytes32","internalType":"bytes32"}],"outputs":[],"stateMutability":"nonpayable"},{"type":"function","name":"transferOwnership","inputs":[{"name":"newOwner","type":"address","internalType":"address"}],"outputs":[],"stateMutability":"nonpayable"},{"type":"event","name":"OwnershipTransferred","inputs":[{"name":"previousOwner","type":"address","indexed":true,"internalType":"address"},{"name":"newOwner","type":"address","indexed":true,"internalType":"address"}],"anonymous":false},{"type":"event","name":"Verified","inputs":[{"name":"messageId","type":"bytes32","indexed":true,"internalType":"bytes32"},{"name":"submitter","type":"address","indexed":true,"internalType":"address"}],"anonymous":false}],"bytecode":{"object":"0x6080604052348015600e575f80fd5b50335f806101000a81548173ffffffffffffffffffffffffffffffffffffffff021916908373ffffffffffffffffffffffffffffffffffffffff1602179055503373ffffffffffffffffffffffffffffffffffffffff165f73ffffffffffffffffffffffffffffffffffffffff167f8be0079c531659141344cd1fd0a4f28419497f9722a3daafe3b4186f6b6457e060405160405180910390a36105b7806100b55f395ff3fe608060405234801561000f575f80fd5b506004361061004a575f3560e01c80634506b5c51461004e5780638da5cb5b1461006a578063c181b27314610088578063f2fde38b146100b8575b5f80fd5b61006860048036038101906100639190610370565b6100d4565b005b610072610143565b60405161007f91906103da565b60405180910390f35b6100a2600480360381019061009d9190610370565b610166565b6040516100af919061040d565b60405180910390f35b6100d260048036038101906100cd9190610450565b610183565b005b6001805f8381526020019081526020015f205f6101000a81548160ff0219169083151502179055503373ffffffffffffffffffffffffffffffffffffffff16817fa9876a484ea4114b13008f98e07c2e907b22d1f73353badc831b48c45c86630d60405160405180910390a350565b5f8054906101000a900473ffffffffffffffffffffffffffffffffffffffff1681565b6001602052805f5260405f205f915054906101000a900460ff1681565b5f8054906101000a900473ffffffffffffffffffffffffffffffffffffffff1673ffffffffffffffffffffffffffffffffffffffff163373ffffffffffffffffffffffffffffffffffffffff1614610210576040517f08c379a0000000000000000000000000000000000000000000000000000000008152600401610207906104d5565b60405180910390fd5b5f73ffffffffffffffffffffffffffffffffffffffff168173ffffffffffffffffffffffffffffffffffffffff160361027e576040517f08c379a000000000000000000000000000000000000000000000000000000000815260040161027590610563565b60405180910390fd5b8073ffffffffffffffffffffffffffffffffffffffff165f8054906101000a900473ffffffffffffffffffffffffffffffffffffffff1673ffffffffffffffffffffffffffffffffffffffff167f8be0079c531659141344cd1fd0a4f28419497f9722a3daafe3b4186f6b6457e060405160405180910390a3805f806101000a81548173ffffffffffffffffffffffffffffffffffffffff021916908373ffffffffffffffffffffffffffffffffffffffff16021790555050565b5f80fd5b5f819050919050565b61034f8161033d565b8114610359575f80fd5b50565b5f8135905061036a81610346565b92915050565b5f6020828403121561038557610384610339565b5b5f6103928482850161035c565b91505092915050565b5f73ffffffffffffffffffffffffffffffffffffffff82169050919050565b5f6103c48261039b565b9050919050565b6103d4816103ba565b82525050565b5f6020820190506103ed5f8301846103cb565b92915050565b5f8115159050919050565b610407816103f3565b82525050565b5f6020820190506104205f8301846103fe565b92915050565b61042f816103ba565b8114610439575f80fd5b50565b5f8135905061044a81610426565b92915050565b5f6020828403121561046557610464610339565b5b5f6104728482850161043c565b91505092915050565b5f82825260208201905092915050565b7f4f776e61626c653a2063616c6c6572206973206e6f7420746865206f776e65725f82015250565b5f6104bf60208361047b565b91506104ca8261048b565b602082019050919050565b5f6020820190508181035f8301526104ec816104b3565b9050919050565b7f4f776e61626c653a206e6577206f776e657220697320746865207a65726f20615f8201527f6464726573730000000000000000000000000000000000000000000000000000602082015250565b5f61054d60268361047b565b9150610558826104f3565b604082019050919050565b5f6020820190508181035f83015261057a81610541565b905091905056fea2646970667358221220669550789b18569822e5c2e58adbea11cc8cadf9e9bfba964696f7f55feafc0464736f6c634300081a0033","linkReferences":{}},"methodIdentifiers":{"isVerified(bytes32)":"c181b273","owner()":"8da5cb5b","submitAttestation(bytes32)":"4506b5c5","transferOwnership(address)":"f2fde38b"},"id":28}