{"abi":[{"type":"constructor","inputs":[{"name":"_chainId","type":"uint16","internalType":"uint16"}],"stateMutability":"nonpayable"},{"type":"function","name":"defaultAdapterParams","inputs":[],"outputs":[{"name":"","type":"bytes","internalType":"bytes"}],"stateMutability":"view"},{"type":"function","name":"deliver","inputs":[{"name":"messageId","type":"bytes32","internalType":"bytes32"}],"outputs":[],"stateMutability":"nonpayable"},{"type":"function","name":"estimateFees","inputs":[{"name":"_dstChainId","type":"uint16","internalType":"uint16"},{"name":"_userApplication","type":"address","internalType":"address"},{"name":"_payload","type":"bytes","internalType":"bytes"},{"name":"_payInZRO","type":"bool","internalType":"bool"},{"name":"_adapterParams","type":"bytes","internalType":"bytes"}],"outputs":[{"name":"nativeFee","type":"uint256","internalType":"uint256"},{"name":"zroFee","type":"uint256","internalType":"uint256"}],"stateMutability":"view"},{"type":"function","name":"executor","inputs":[],"outputs":[{"name":"","type":"address","internalType":"address"}],"stateMutability":"view"},{"type":"function","name":"forceResumeReceive","inputs":[{"name":"","type":"uint16","internalType":"uint16"},{"name":"","type":"bytes","internalType":"bytes"}],"outputs":[],"stateMutability":"nonpayable"},{"type":"function","name":"getChainId","inputs":[],"outputs":[{"name":"","type":"uint16","internalType":"uint16"}],"stateMutability":"view"},{"type":"function","name":"getConfig","inputs":[{"name":"","type":"uint16","internalType":"uint16"},{"name":"","type":"uint16","internalType":"uint16"},{"name":"","type":"address","internalType":"address"},{"name":"","type":"uint256","internalType":"uint256"}],"outputs":[{"name":"","type":"bytes","internalType":"bytes"}],"stateMutability":"pure"},{"type":"function","name":"getInboundNonce","inputs":[{"name":"_chainID","type":"uint16","internalType":"uint16"},{"name":"_path","type":"bytes","internalType":"bytes"}],"outputs":[{"name":"","type":"uint64","internalType":"uint64"}],"stateMutability":"view"},{"type":"function","name":"getOutboundNonce","inputs":[{"name":"_chainID","type":"uint16","internalType":"uint16"},{"name":"_srcAddress","type":"address","internalType":"address"}],"outputs":[{"name":"","type":"uint64","internalType":"uint64"}],"stateMutability":"view"},{"type":"function","name":"getReceiveLibraryAddress","inputs":[{"name":"","type":"address","internalType":"address"}],"outputs":[{"name":"","type":"address","internalType":"address"}],"stateMutability":"view"},{"type":"function","name":"getReceiveVersion","inputs":[{"name":"","type":"address","internalType":"address"}],"outputs":[{"name":"","type":"uint16","internalType":"uint16"}],"stateMutability":"pure"},{"type":"function","name":"getSendLibraryAddress","inputs":[{"name":"","type":"address","internalType":"address"}],"outputs":[{"name":"","type":"address","internalType":"address"}],"stateMutability":"view"},{"type":"function","name":"getSendVersion","inputs":[{"name":"","type":"address","internalType":"address"}],"outputs":[{"name":"","type":"uint16","internalType":"uint16"}],"stateMutability":"pure"},{"type":"function","name":"hasStoredPayload","inputs":[{"name":"","type":"uint16","internalType":"uint16"},{"name":"","type":"bytes","internalType":"bytes"}],"outputs":[{"name":"","type":"bool","internalType":"bool"}],"stateMutability":"pure"},{"type":"function","name":"inboundNonce","inputs":[{"name":"","type":"uint16","internalType":"uint16"},{"name":"","type":"bytes","internalType":"bytes"}],"outputs":[{"name":"","type":"uint64","internalType":"uint64"}],"stateMutability":"view"},{"type":"function","name":"isReceivingPayload","inputs":[],"outputs":[{"name":"","type":"bool","internalType":"bool"}],"stateMutability":"view"},{"type":"function","name":"isSendingPayload","inputs":[],"outputs":[{"name":"","type":"bool","internalType":"bool"}],"stateMutability":"view"},{"type":"function","name":"lzEndpointLookup","inputs":[{"name":"","type":"address","internalType":"address"}],"outputs":[{"name":"","type":"address","internalType":"address"}],"stateMutability":"view"},{"type":"function","name":"messageIds","inputs":[{"name":"","type":"address","internalType":"address"},{"name":"","type":"address","internalType":"address"},{"name":"","type":"uint64","internalType":"uint64"}],"outputs":[{"name":"","type":"bytes32","internalType":"bytes32"}],"stateMutability":"view"},{"type":"function","name":"mockChainId","inputs":[],"outputs":[{"name":"","type":"uint16","internalType":"uint16"}],"stateMutability":"view"},{"type":"function","name":"oracleFee","inputs":[],"outputs":[{"name":"","type":"uint256","internalType":"uint256"}],"stateMutability":"view"},{"type":"function","name":"outboundNonce","inputs":[{"name":"","type":"uint16","internalType":"uint16"},{"name":"","type":"address","internalType":"address"}],"outputs":[{"name":"","type":"uint64","internalType":"uint64"}],"stateMutability":"view"},{"type":"function","name":"owner","inputs":[],"outputs":[{"name":"","type":"address","internalType":"address"}],"stateMutability":"view"},{"type":"function","name":"pending","inputs":[{"name":"","type":"bytes32","internalType":"bytes32"}],"outputs":[{"name":"dstChainId","type":"uint16","internalType":"uint16"},{"name":"srcChainId","type":"uint16","internalType":"uint16"},{"name":"srcUa","type":"address","internalType":"address"},{"name":"dstUa","type":"address","internalType":"address"},{"name":"nonce","type":"uint64","internalType":"uint64"},{"name":"extraGas","type":"uint256","internalType":"uint256"},{"name":"path","type":"bytes","internalType":"bytes"},{"name":"payload","type":"bytes","internalType":"bytes"},{"name":"payloadHash","type":"bytes32","internalType":"bytes32"},{"name":"delivered","type":"bool","internalType":"bool"}],"stateMutability":"view"},{"type":"function","name":"protocolFeeConfig","inputs":[],"outputs":[{"name":"zroFee","type":"uint256","internalType":"uint256"},{"name":"nativeBP","type":"uint256","internalType":"uint256"}],"stateMutability":"view"},{"type":"function","name":"receivePayload","inputs":[{"name":"_srcChainId","type":"uint16","internalType":"uint16"},{"name":"_path","type":"bytes","internalType":"bytes"},{"name":"_dstAddress","type":"address","internalType":"address"},{"name":"_nonce","type":"uint64","internalType":"uint64"},{"name":"_gasLimit","type":"uint256","internalType":"uint256"},{"name":"_payload","type":"bytes","internalType":"bytes"}],"outputs":[],"stateMutability":"nonpayable"},{"type":"function","name":"relayerFeeConfig","inputs":[],"outputs":[{"name":"dstPriceRatio","type":"uint128","internalType":"uint128"},{"name":"dstGasPriceInWei","type":"uint128","internalType":"uint128"},{"name":"dstNativeAmtCap","type":"uint128","internalType":"uint128"},{"name":"baseGas","type":"uint64","internalType":"uint64"},{"name":"gasPerByte","type":"uint64","internalType":"uint64"}],"stateMutability":"view"},{"type":"function","name":"retryPayload","inputs":[{"name":"","type":"uint16","internalType":"uint16"},{"name":"","type":"bytes","internalType":"bytes"},{"name":"","type":"bytes","internalType":"bytes"}],"outputs":[],"stateMutability":"pure"},{"type":"function","name":"send","inputs":[{"name":"_dstChainId","type":"uint16","internalType":"uint16"},{"name":"_path","type":"bytes","internalType":"bytes"},{"name":"_payload","type":"bytes","internalType":"bytes"},{"name":"_refundAddress","type":"address","internalType":"address payable"},{"name":"_zroPaymentAddress","type":"address","internalType":"address"},{"name":"_adapterParams","type":"bytes","internalType":"bytes"}],"outputs":[],"stateMutability":"payable"},{"type":"function","name":"setConfig","inputs":[{"name":"","type":"uint16","internalType":"uint16"},{"name":"","type":"uint16","internalType":"uint16"},{"name":"","type":"uint256","internalType":"uint256"},{"name":"","type":"bytes","internalType":"bytes"}],"outputs":[],"stateMutability":"nonpayable"},{"type":"function","name":"setDefaultAdapterParams","inputs":[{"name":"_adapterParams","type":"bytes","internalType":"bytes"}],"outputs":[],"stateMutability":"nonpayable"},{"type":"function","name":"setDestLzEndpoint","inputs":[{"name":"destAddr","type":"address","internalType":"address"},{"name":"lzEndpointAddr","type":"address","internalType":"address"}],"outputs":[],"stateMutability":"nonpayable"},{"type":"function","name":"setExecutor","inputs":[{"name":"_executor","type":"address","internalType":"address"}],"outputs":[],"stateMutability":"nonpayable"},{"type":"function","name":"setOracleFee","inputs":[{"name":"_oracleFee","type":"uint256","internalType":"uint256"}],"outputs":[],"stateMutability":"nonpayable"},{"type":"function","name":"setProtocolFee","inputs":[{"name":"_zroFee","type":"uint256","internalType":"uint256"},{"name":"_nativeBP","type":"uint256","internalType":"uint256"}],"outputs":[],"stateMutability":"nonpayable"},{"type":"function","name":"setReceiveVersion","inputs":[{"name":"","type":"uint16","internalType":"uint16"}],"outputs":[],"stateMutability":"nonpayable"},{"type":"function","name":"setRelayerPrice","inputs":[{"name":"_dstPriceRatio","type":"uint128","internalType":"uint128"},{"name":"_dstGasPriceInWei","type":"uint128","internalType":"uint128"},{"name":"_dstNativeAmtCap","type":"uint128","internalType":"uint128"},{"name":"_baseGas","type":"uint64","internalType":"uint64"},{"name":"_gasPerByte","type":"uint64","internalType":"uint64"}],"outputs":[],"stateMutability":"nonpayable"},{"type":"function","name":"setSendVersion","inputs":[{"name":"","type":"uint16","internalType":"uint16"}],"outputs":[],"stateMutability":"nonpayable"},{"type":"function","name":"setVerifier","inputs":[{"name":"_verifier","type":"address","internalType":"address"}],"outputs":[],"stateMutability":"nonpayable"},{"type":"function","name":"transferOwnership","inputs":[{"name":"newOwner","type":"address","internalType":"address"}],"outputs":[],"stateMutability":"nonpayable"},{"type":"function","name":"verifier","inputs":[],"outputs":[{"name":"","type":"address","internalType":"address"}],"stateMutability":"view"},{"type":"event","name":"ExecutorUpdated","inputs":[{"name":"executor","type":"address","indexed":true,"internalType":"address"}],"anonymous":false},{"type":"event","name":"MessageDelivered","inputs":[{"name":"messageId","type":"bytes32","indexed":true,"internalType":"bytes32"},{"name":"executor","type":"address","indexed":true,"internalType":"address"}],"anonymous":false},{"type":"event","name":"MessageQueued","inputs":[{"name":"messageId","type":"bytes32","indexed":true,"internalType":"bytes32"},{"name":"srcChainId","type":"uint16","indexed":true,"internalType":"uint16"},{"name":"dstChainId","type":"uint16","indexed":true,"internalType":"uint16"},{"name":"srcUa","type":"address","indexed":false,"internalType":"address"},{"name":"dstUa","type":"address","indexed":false,"internalType":"address"},{"name":"nonce","type":"uint64","indexed":false,"internalType":"uint64"},{"name":"payloadHash","type":"bytes32","indexed":false,"internalType":"bytes32"}],"anonymous":false},{"type":"event","name":"OwnershipTransferred","inputs":[{"name":"previousOwner","type":"address","indexed":true,"internalType":"address"},{"name":"newOwner","type":"address","indexed":true,"internalType":"address"}],"anonymous":false},{"type":"event","name":"VerifierUpdated","inputs":[{"name":"verifier","type":"address","indexed":true,"internalType":"address"}],"anonymous":false}],"bytecode":{"object":"0x608080604052346102ea57602081612866803803809161001f82856102ee565b8339810103126102ea575161ffff81168091036102ea575f80546001600160a01b03191633908117825560405192917f8be0079c531659141344cd1fd0a4f28419497f9722a3daafe3b4186f6b6457e08180a361010161ffff19600b541617600b5561ffff19600254161760025560a0810181811060018060401b038211176102d65760409081526402540be4008083526020830152678ac7230489e80000818301526064606083015260016080909201919091527402540be400000000000000000000000002540be4006003557801000000000000006400000000000000008ac7230489e8000060045580519081016001600160401b038111828210176102d6576103e891602091604052670de0b6b3a764000081520152670de0b6b3a76400006005556103e8600655662386f26fc10000600755604051600160f01b602082015262030d4060228201526022815261017a6042826102ee565b80516001600160401b0381116102d657600854600181811c911680156102cc575b60208210146102b857601f8111610255575b50602091601f82116001146101f5579181925f926101ea575b50508160011b915f199060031b1c1916176008555b60405161255490816103128239f35b015190505f806101c6565b601f1982169260085f52805f20915f5b85811061023d57508360019510610225575b505050811b016008556101db565b01515f1960f88460031b161c191690555f8080610217565b91926020600181928685015181550194019201610205565b60085f527ff3f7a9fe364faab93b216da50a3214154f22a0a2b415b23a84c8169e8b636ee3601f830160051c810191602084106102ae575b601f0160051c01905b8181106102a357506101ad565b5f8155600101610296565b909150819061028d565b634e487b7160e01b5f52602260045260245ffd5b90607f169061019b565b634e487b7160e01b5f52604160045260245ffd5b5f80fd5b601f909101601f19168101906001600160401b038211908210176102d65760405256fe60806040526004361015610011575f80fd5b5f3560e01c806307d3277f1461028b57806307e0db171461027c578063096568f6146101ff5780630eaf6ea6146102865780630fa566fa1461028157806310ddb1371461027c5780631808eeb8146102775780631c3c0ea814610272578063240de2771461026d578063272bd384146102685780632b7ac3f3146102635780632c365e251461025e5780633408e470146101fa57806340a7bb101461025957806342d65a8d14610254578063437c1dfd1461024f5780635437988d1461024a57806371ba2fd6146102365780637a1457481461022c5780638da5cb5b14610245578063907c5e7e146102405780639924d33b1461023b5780639c729da114610236578063aaff5f1614610231578063b20864991461022c578063b6d9ef6014610227578063c08f15a114610222578063c2fa48131461021d578063c34c08e514610218578063c580310014610213578063c81b383a1461020e578063ca066b3514610209578063cbed8b9c14610204578063da1a7c9a146101ff578063db14f305146101fa578063e97a448a146101f5578063f2fde38b146101f0578063f5ecbdbc146101eb578063f9cd3ceb146101e6578063fbba623b146101e15763fdc07c70146101dc575f80fd5b6115c8565b6114bb565b61149e565b611448565b61135f565b61133c565b610aca565b610318565b6112fa565b6112d4565b611291565b6111fb565b6111d3565b610fb1565b610f54565b610f3b565b610d44565b610eb1565b610d1e565b610e26565b610dcb565b610da4565b610c9b565b610c0f565b610c01565b610b74565b610a33565b6109af565b610980565b610961565b6108eb565b610859565b6102ec565b6103d7565b6103aa565b61029e565b5f91031261029a57565b5f80fd5b3461029a575f36600319011261029a5760055460065460408051928352602083019190915290f35b0390f35b6004359061ffff8216820361029a57565b6024359061ffff8216820361029a57565b3461029a57602036600319011261029a576103056102ca565b005b6001600160a01b0381160361029a57565b3461029a57602036600319011261029a57610334600435610307565b602060405160018152f35b9181601f8401121561029a578235916001600160401b03831161029a576020838186019501011161029a57565b90604060031983011261029a5760043561ffff8116810361029a5791602435906001600160401b03821161029a576103a69160040161033f565b9091565b3461029a576103b83661036c565b50505060206040515f8152f35b602090600319011261029a5760043590565b3461029a576103e5366103c5565b600c5461040d90610406906001600160a01b03165b6001600160a01b031690565b331461160e565b61041f815f52600d60205260405f2090565b6006810161043d610438610434835460ff1690565b1590565b611649565b600482019161045661044f84546105ef565b1515611689565b600b54610481906103fa9060101c6001600160a01b03166103fa6001600160a01b03821615156116c3565b60405163c181b27360e01b81526004810186905290602090829060249082905afa80156105bb576104b9915f916105c0575b5061171d565b60018101546001600160a01b0381166001600160a01b038082165f9081526001602052604090209195916104f5905b546001600160a01b031690565b1690610502821515611758565b835461051f9060101c61ffff169360a01c6001600160401b031690565b93600281015490833b1561029a576105576003935f979388946040519b8c998a98899763c2fa481360e01b895201906004880161181d565b03925af19182156105bb57610579926105a1575b50805460ff19166001179055565b33907fd94698a25cf4e3e5170689d076df31e0c73fabd5b56539892e7ae8216c594b185f80a3005b806105af5f6105b59361063b565b80610290565b5f61056b565b611712565b6105e2915060203d6020116105e8575b6105da818361063b565b8101906116fd565b5f6104b3565b503d6105d0565b90600182811c9216801561061d575b602083101461060957565b634e487b7160e01b5f52602260045260245ffd5b91607f16916105fe565b634e487b7160e01b5f52604160045260245ffd5b90601f801991011681019081106001600160401b0382111761065c57604052565b610627565b604051905f8260085491610674836105ef565b80835292600181169081156106f9575060011461069a575b6106989250038361063b565b565b5060085f90815290917ff3f7a9fe364faab93b216da50a3214154f22a0a2b415b23a84c8169e8b636ee35b8183106106dd5750509060206106989282010161068c565b60209193508060019154838589010152019101909184926106c5565b6020925061069894915060ff191682840152151560051b82010161068c565b9060405191825f82549261072b846105ef565b80845293600181169081156107945750600114610750575b506106989250038361063b565b90505f9291925260205f20905f915b818310610778575050906020610698928201015f610743565b602091935080600191548385890101520191019091849261075f565b90506020925061069894915060ff191682840152151560051b8201015f610743565b805180835260209291819084018484015e5f828201840152601f01601f1916010190565b989a9996929461083d94610120999661ffff61084b99958d826001600160401b03971690521660208d015260018060a01b031660408c015260018060a01b031660608b015216608089015260a088015261014060c08801526101408701906107b6565b9085820360e08701526107b6565b946101008401521515910152565b3461029a57610867366103c5565b5f52600d60205260405f2080546102c660018301549260028101549061088f60038201610718565b61089b60048301610718565b906108af6006600585015494015460ff1690565b936040519788976001600160401b038260a01c169160018060a01b03169060018060a01b038160201c169061ffff808260101c1691168b6107da565b3461029a57602036600319011261029a5760043561090881610307565b61091c60018060a01b035f54163314611873565b600c80546001600160a01b0319166001600160a01b039290921691821790557fd9436ef9ce00ffeabc5da2489701502d3bd1a5ed7b254a1981fc5ffef9828e115f80a2005b3461029a57604036600319011261029a57600435600555602435600655005b3461029a575f36600319011261029a576102c661099b610661565b6040519182916020835260208301906107b6565b3461029a575f36600319011261029a57600b5460405160109190911c6001600160a01b03168152602090f35b602435906001600160801b038216820361029a57565b604435906001600160801b038216820361029a57565b606435906001600160401b038216820361029a57565b608435906001600160401b038216820361029a57565b3461029a5760a036600319011261029a576004356001600160801b038116810361029a5761030590610a636109db565b90610a6c6109f1565b90610a75610a07565b906001600160801b03610a86610a1d565b8119608096871b1691909216176003556001600160c01b031960c09190911b1667ffffffffffffffff60801b9190931b166001600160801b03919091161717600455565b3461029a575f36600319011261029a57602061ffff60025416604051908152f35b604051906106986101408361063b565b6001600160401b03811161065c57601f01601f191660200190565b929192610b2282610afb565b91610b30604051938461063b565b82948184528183011161029a578281602093845f960137010152565b9080601f8301121561029a57816020610b6793359101610b16565b90565b8015150361029a57565b3461029a5760a036600319011261029a57610b8d6102ca565b60243590610b9a82610307565b6044356001600160401b03811161029a57610bb9903690600401610b4c565b60643590610bc682610b6a565b608435936001600160401b03851161029a57610be9610bef953690600401610b4c565b936118e4565b60408051928352602083019190915290f35b3461029a576103053661036c565b3461029a57606036600319011261029a57600435610c2c81610307565b602435610c3881610307565b6044356001600160401b038116810361029a57610c7c610c929260209460018060a01b03165f52600e855260405f209060018060a01b03165f5260205260405f2090565b906001600160401b03165f5260205260405f2090565b54604051908152f35b3461029a57602036600319011261029a57600435610cb881610307565b610ccc60018060a01b035f54163314611873565b600b805462010000600160b01b031916601083901b62010000600160b01b03161790556001600160a01b03167fd24015cc99cc1700cafca3042840a1d8ac1e3964fd2e0e37ea29c654056ee3275f80a2005b3461029a57602036600319011261029a57610d3a600435610307565b6020604051308152f35b3461029a57604036600319011261029a5760206001600160401b03610d9a610d6a6102ca565b61ffff60243591610d7a83610307565b165f52600a845260405f209060018060a01b03165f5260205260405f2090565b5416604051908152f35b3461029a575f36600319011261029a575f546040516001600160a01b039091168152602090f35b3461029a575f36600319011261029a5760a0600354600454604051916001600160801b038116835260801c60208301526001600160801b03811660408301526001600160401b038160801c16606083015260c01c6080820152f35b3461029a57604036600319011261029a57610e3f6102ca565b6024356001600160401b03811161029a576020806102c69361ffff610e706001600160401b03953690600401610b4c565b91165f526009825260405f20604051938285935191829101845e8201908152030190205416604051918291829190916001600160401b036020820193169052565b3461029a57606036600319011261029a57610eca6102ca565b506024356001600160401b03811161029a57610eea90369060040161033f565b50506044356001600160401b03811161029a57610f0b90369060040161033f565b505060405162461bcd60e51b81526020600482015260066024820152651d5b9d5cd95960d21b6044820152606490fd5b3461029a57602036600319011261029a57600435600755005b3461029a57604036600319011261029a57610305600435610f7481610307565b60243590610f8182610307565b6001600160a01b039081165f90815260016020526040902080546001600160a01b03191692909116919091179055565b3461029a5760c036600319011261029a57610fca6102ca565b6024356001600160401b03811161029a57610fe990369060040161033f565b60449291923591610ff983610307565b611001610a07565b936084359160a4356001600160401b03811161029a5761102590369060040161033f565b919095600160ff600b5460081c160361118e5761104c61020061ff0019600b541617600b55565b6110c16001600160401b036110776110708561ffff165f52600960205260405f2090565b8988611a4d565b6110b061109361108e83546001600160401b031690565b611a66565b825467ffffffffffffffff19166001600160401b03821617909255565b166001600160401b038a1614611a83565b6001600160a01b031693843b1561029a575f868992868389876110fb8a8f6040519a8b998a988996621d356760e01b885260048801611ae5565b0393f1908161117a575b5061116e57833b1561029a576111355f96928793604051998a9889978896621d356760e01b885260048801611ae5565b03925af180156105bb5761115a575b505b61030561010061ff0019600b541617600b55565b806105af5f6111689361063b565b5f611144565b50505050505050611146565b806105af5f6111889361063b565b5f611105565b60405162461bcd60e51b815260206004820152601d60248201527f4c5a4d6f636b3a206e6f2072656365697665207265656e7472616e63790000006044820152606490fd5b3461029a575f36600319011261029a57600c546040516001600160a01b039091168152602090f35b60c036600319011261029a5761120f6102ca565b6024356001600160401b03811161029a5761122e903690600401610b4c565b906044356001600160401b03811161029a5761124e90369060040161033f565b6064359061125b82610307565b6084359261126884610307565b60a435956001600160401b03871161029a5761128b610305973690600401610b4c565b95611b25565b3461029a57602036600319011261029a576004356112ae81610307565b60018060a01b03165f526001602052602060018060a01b0360405f205416604051908152f35b3461029a575f36600319011261029a576020600260ff600b5460081c1614604051908152f35b3461029a57608036600319011261029a576113136102ca565b5061131c6102db565b506064356001600160401b03811161029a57610305903690600401610b4c565b3461029a575f36600319011261029a576020600260ff600b541614604051908152f35b3461029a57602036600319011261029a5760043561137c81610307565b5f5490611393336001600160a01b03841614611873565b6001600160a01b03811680156113f457610305926001600160a01b03167f8be0079c531659141344cd1fd0a4f28419497f9722a3daafe3b4186f6b6457e05f80a360018060a01b03166bffffffffffffffffffffffff60a01b5f5416175f55565b60405162461bcd60e51b815260206004820152602660248201527f4f776e61626c653a206e6577206f776e657220697320746865207a65726f206160448201526564647265737360d01b6064820152608490fd5b3461029a57608036600319011261029a576114616102ca565b5061146a6102db565b50611476604435610307565b6102c660405161148760208261063b565b5f81526040519182916020835260208301906107b6565b3461029a575f36600319011261029a576020600754604051908152f35b3461029a57602036600319011261029a576004356001600160401b03811161029a576114eb903690600401610b4c565b80516001600160401b03811161065c5761150f8161150a6008546105ef565b611ee3565b602091601f821160011461154d5761153d925f9183611542575b50508160011b915f199060031b1c19161790565b600855005b015190505f80611529565b60085f52601f198216927ff3f7a9fe364faab93b216da50a3214154f22a0a2b415b23a84c8169e8b636ee3915f5b8581106115b057508360019510611598575b505050811b01600855005b01515f1960f88460031b161c191690555f808061158d565b9192602060018192868501518155019401920161157b565b3461029a5760206001600160401b0361ffff826115e43661036c565b939091165f526009825260405f208360405194859384378201908152030190205416604051908152f35b1561161557565b60405162461bcd60e51b815260206004820152600c60248201526b3737ba1032bc32b1baba37b960a11b6044820152606490fd5b1561165057565b60405162461bcd60e51b8152602060048201526011602482015270185b1c9958591e4819195b1a5d995c9959607a1b6044820152606490fd5b1561169057565b60405162461bcd60e51b815260206004820152600b60248201526a756e6b6e6f776e206d736760a81b6044820152606490fd5b156116ca57565b60405162461bcd60e51b815260206004820152600b60248201526a3737903b32b934b334b2b960a91b6044820152606490fd5b9081602091031261029a5751610b6781610b6a565b6040513d5f823e3d90fd5b1561172457565b60405162461bcd60e51b815260206004820152600c60248201526b1b9bdd081d995c9a599a595960a21b6044820152606490fd5b1561175f57565b60405162461bcd60e51b81526020600482015260156024820152746465737420656e64706f696e74206d697373696e6760581b6044820152606490fd5b5f92918154916117ab836105ef565b808352926001811690811561180057506001146117c757505050565b5f9081526020812093945091925b8383106117e6575060209250010190565b6001816020929493945483858701015201910191906117d5565b915050602093945060ff929192191683830152151560051b010190565b92949193611849610b67979561ffff6001600160401b039416865260c0602087015260c086019061179c565b6001600160a01b039096166040850152166060830152608082015280830360a0919091015261179c565b1561187a57565b606460405162461bcd60e51b815260206004820152602060248201527f4f776e61626c653a2063616c6c6572206973206e6f7420746865206f776e65726044820152fd5b634e487b7160e01b5f52601160045260245ffd5b919082018092116118df57565b6118be565b5050825191925f928392919015611a3b5761190290915b51916123ee565b509092915f919061ffff16600214611a1c575b50600354906119248260801c90565b906004549461193d866001600160401b039060801c1690565b6001600160401b031690611950916118d2565b611963906001600160801b03841661208d565b61196c916118d2565b916001600160801b0316916001600160801b03831661198a9161208d565b6402540be40090049360c01c6001600160401b03166119a8916120a0565b906119b2916120a0565b6402540be4006001600160801b03909116046001600160801b03166119d69161208d565b6119df916118d2565b92600754916119ef8386846120c3565b9115611a0d5750611a0a9293611a0591946118d2565b6118d2565b91565b93611a0a9350611a05916118d2565b9050611a35816001600160801b03600454161015612041565b5f611915565b50611902611a47610661565b916118fb565b6020919283604051948593843782019081520301902090565b6001600160401b03166001600160401b0381146118df5760010190565b15611a8a57565b60405162461bcd60e51b81526020600482015260136024820152724c5a4d6f636b3a2077726f6e67206e6f6e636560681b6044820152606490fd5b908060209392818452848401375f828201840152601f01601f1916010190565b91611b1190610b679795969461ffff6001600160401b0394168552608060208601526080850191611ac5565b941660408201526060818503910152611ac5565b9392600b5492600160ff851603611d3a5761108e977f0f037e2d9c1ddba5f262d70e61fa62a63b1bd3810430376762e5467aec4a06ef95611c52611bdd6014611c7297600261ffff9a60ff191617600b55611b836028825114611d7f565b01516001600160a01b038082165f908152600160205260409020919c91611bb69190611bae906104e8565b161515611dcb565b845115611d2c5784905b6001600160a01b03161515611bd6368989610b16565b338d6118e4565b50611bea81341015611e17565b611c4c611c2f611c208c611c0b339161ffff165f52600a60205260405f2090565b9060018060a01b03165f5260205260405f2090565b9d8e546001600160401b031690565b8d5467ffffffffffffffff19166001600160401b03821617909d55565b34611e63565b80611d00575b5050805115611cef57611c6a906120ef565b888789612245565b92611cda611c8360025461ffff1690565b966005611c98875f52600d60205260405f2090565b0154604080513381526001600160a01b0390991660208a01526001600160401b0390921691880191909152606087015290821695909116939081906080820190565b0390a4610698600160ff19600b541617600b55565b50611c6a611cfb610661565b6120ef565b611d25915f918291829182916001600160a01b03165af1611d1f611e70565b50611e9f565b5f80611c58565b611d34610661565b90611bc0565b60405162461bcd60e51b815260206004820152601a60248201527f4c5a4d6f636b3a206e6f2073656e64207265656e7472616e63790000000000006044820152606490fd5b15611d8657565b60405162461bcd60e51b815260206004820152601b60248201527f4c5a4d6f636b3a20696e636f727265637420706174682073697a6500000000006044820152606490fd5b15611dd257565b60405162461bcd60e51b815260206004820152601f60248201527f4c5a4d6f636b3a206465737420656e64706f696e74206e6f7420666f756e64006044820152606490fd5b15611e1e57565b60405162461bcd60e51b815260206004820152601860248201527f4c5a4d6f636b3a20696e73756666696369656e742066656500000000000000006044820152606490fd5b919082039182116118df57565b3d15611e9a573d90611e8182610afb565b91611e8f604051938461063b565b82523d5f602084013e565b606090565b15611ea657565b60405162461bcd60e51b81526020600482015260156024820152741316935bd8dace881c99599d5b990819985a5b1959605a1b6044820152606490fd5b601f8111611eef575050565b60085f5260205f20906020601f840160051c83019310611f29575b601f0160051c01905b818110611f1e575050565b5f8155600101611f13565b9091508190611f0a565b601f8211611f4057505050565b5f5260205f20906020601f840160051c83019310611f78575b601f0160051c01905b818110611f6d575050565b5f8155600101611f62565b9091508190611f59565b91909182516001600160401b03811161065c57611fa981611fa384546105ef565b84611f33565b6020601f8211600114611fdc578190611fd89394955f926115425750508160011b915f199060031b1c19161790565b9055565b601f19821690611fef845f5260205f2090565b915f5b81811061202957509583600195969710612011575b505050811b019055565b01515f1960f88460031b161c191690555f8080612007565b9192602060018192868b015181550194019201611ff2565b1561204857565b60405162461bcd60e51b815260206004820152601e60248201527f4c5a4d6f636b3a206473744e6174697665416d7420746f6f206c6172676500006044820152606490fd5b818102929181159184041417156118df57565b906001600160801b03809116911602906001600160801b0382169182036118df57565b9190916120e75781018091116118df576120e3612710916006549061208d565b0490565b505060055490565b6120f8906123ee565b939250909281612106575050565b5f918291829182916001600160a01b03165af150612122611e70565b50565b600661223261012061069894612152612140825161ffff1690565b865461ffff191661ffff909116178655565b61217e612164602083015161ffff1690565b865463ffff0000191660109190911b63ffff000016178655565b60408101516121b8906001600160a01b03168654640100000000600160c01b03191660209190911b640100000000600160c01b0316178655565b606081015160018601805460808401516001600160a01b039093166001600160e01b03199091161760a092831b67ffffffffffffffff60a01b16179055810151600286015560c081015161220f9060038701611f82565b61222060e082015160048701611f82565b61010081015160058601550151151590565b91019060ff801983541691151516179055565b91929395949536612257908883610b16565b805190602001209060025461226d9061ffff1690565b9761227c838787878d336124a0565b6040516bffffffffffffffffffffffff1933606090811b8216602084015288901b1660348201526028815290998a98906122b760488461063b565b6122bf610aeb565b61ffff909716875261ffff1660208701523360408701526001600160a01b03871660608701526001600160401b038816608087015260a086015260c0850152369061230992610b16565b60e083015261010082015261012081015f905261232e845f52600d60205260405f2090565b9061233891612125565b335f908152600e602090815260408083206001600160a01b039490941683529281528282206001600160401b03909416825292909252902055565b1561237a57565b60405162461bcd60e51b8152602060048201526012602482015271556e737570706f727465642074785479706560701b6044820152606490fd5b156123bb57565b60405162461bcd60e51b815260206004820152600b60248201526a47617320746f6f206c6f7760a81b6044820152606490fd5b5f80825160228114908115612495575b501561245857600283015193602284015193600261ffff871660018114801561244f575b61242b90612373565b6124368715156123b4565b1461243e5750565b925090506056604283015192015190565b50808214612422565b60405162461bcd60e51b8152602060048201526015602482015274496e76616c69642061646170746572506172616d7360581b6044820152606490fd5b60429150115f6123fe565b60405160f092831b6001600160f01b031990811660208301908152606093841b6bffffffffffffffffffffffff1990811660228501529590941b16603682015293901b909116603883015260c09290921b6001600160c01b031916604c8201526054808201939093529182529061251860748261063b565b5190209056fea2646970667358221220a1db9c3e287896538d35fe0b5c12d3120a7e9a4d317140a18c592e9d90d44a7e64736f6c634300081a0033","linkReferences":{}},"methodIdentifiers":{"defaultAdapterParams()":"272bd384","deliver(bytes32)":"0fa566fa","estimateFees(uint16,address,bytes,bool,bytes)":"40a7bb10","executor()":"c34c08e5","forceResumeReceive(uint16,bytes)":"42d65a8d","getChainId()":"3408e470","getConfig(uint16,uint16,address,uint256)":"f5ecbdbc","getInboundNonce(uint16,bytes)":"fdc07c70","getOutboundNonce(uint16,address)":"7a145748","getReceiveLibraryAddress(address)":"71ba2fd6","getReceiveVersion(address)":"da1a7c9a","getSendLibraryAddress(address)":"9c729da1","getSendVersion(address)":"096568f6","hasStoredPayload(uint16,bytes)":"0eaf6ea6","inboundNonce(uint16,bytes)":"9924d33b","isReceivingPayload()":"ca066b35","isSendingPayload()":"e97a448a","lzEndpointLookup(address)":"c81b383a","messageIds(address,address,uint64)":"437c1dfd","mockChainId()":"db14f305","oracleFee()":"f9cd3ceb","outboundNonce(uint16,address)":"b2086499","owner()":"8da5cb5b","pending(bytes32)":"1808eeb8","protocolFeeConfig()":"07d3277f","receivePayload(uint16,bytes,address,uint64,uint256,bytes)":"c2fa4813","relayerFeeConfig()":"907c5e7e","retryPayload(uint16,bytes,bytes)":"aaff5f16","send(uint16,bytes,bytes,address,address,bytes)":"c5803100","setConfig(uint16,uint16,uint256,bytes)":"cbed8b9c","setDefaultAdapterParams(bytes)":"fbba623b","setDestLzEndpoint(address,address)":"c08f15a1","setExecutor(address)":"1c3c0ea8","setOracleFee(uint256)":"b6d9ef60","setProtocolFee(uint256,uint256)":"240de277","setReceiveVersion(uint16)":"10ddb137","setRelayerPrice(uint128,uint128,uint128,uint64,uint64)":"2c365e25","setSendVersion(uint16)":"07e0db17","setVerifier(address)":"5437988d","transferOwnership(address)":"f2fde38b","verifier()":"2b7ac3f3"},"id":29}