{"abi":[{"type":"constructor","inputs":[{"name":"_chainId","type":"uint16","internalType":"uint16"}],"stateMutability":"nonpayable"},{"type":"function","name":"defaultAdapterParams","inputs":[],"outputs":[{"name":"","type":"bytes","internalType":"bytes"}],"stateMutability":"view"},{"type":"function","name":"deliver","inputs":[{"name":"messageId","type":"bytes32","internalType":"bytes32"}],"outputs":[],"stateMutability":"nonpayable"},{"type":"function","name":"estimateFees","inputs":[{"name":"_dstChainId","type":"uint16","internalType":"uint16"},{"name":"_userApplication","type":"address","internalType":"address"},{"name":"_payload","type":"bytes","internalType":"bytes"},{"name":"_payInZRO","type":"bool","internalType":"bool"},{"name":"_adapterParams","type":"bytes","internalType":"bytes"}],"outputs":[{"name":"nativeFee","type":"uint256","internalType":"uint256"},{"name":"zroFee","type":"uint256","internalType":"uint256"}],"stateMutability":"view"},{"type":"function","name":"executor","inputs":[],"outputs":[{"name":"","type":"address","internalType":"address"}],"stateMutability":"view"},{"type":"function","name":"forceResumeReceive","inputs":[{"name":"","type":"uint16","internalType":"uint16"},{"name":"","type":"bytes","internalType":"bytes"}],"outputs":[],"stateMutability":"nonpayable"},{"type":"function","name":"getChainId","inputs":[],"outputs":[{"name":"","type":"uint16","internalType":"uint16"}],"stateMutability":"view"},{"type":"function","name":"getConfig","inputs":[{"name":"","type":"uint16","internalType":"uint16"},{"name":"","type":"uint16","internalType":"uint16"},{"name":"","type":"address","internalType":"address"},{"name":"","type":"uint256","internalType":"uint256"}],"outputs":[{"name":"","type":"bytes","internalType":"bytes"}],"stateMutability":"pure"},{"type":"function","name":"getInboundNonce","inputs":[{"name":"_chainID","type":"uint16","internalType":"uint16"},{"name":"_path","type":"bytes","internalType":"bytes"}],"outputs":[{"name":"","type":"uint64","internalType":"uint64"}],"stateMutability":"view"},{"type":"function","name":"getOutboundNonce","inputs":[{"name":"_chainID","type":"uint16","internalType":"uint16"},{"name":"_srcAddress","type":"address","internalType":"address"}],"outputs":[{"name":"","type":"uint64","internalType":"uint64"}],"stateMutability":"view"},{"type":"function","name":"getReceiveLibraryAddress","inputs":[{"name":"","type":"address","internalType":"address"}],"outputs":[{"name":"","type":"address","internalType":"address"}],"stateMutability":"view"},{"type":"function","name":"getReceiveVersion","inputs":[{"name":"","type":"address","internalType":"address"}],"outputs":[{"name":"","type":"uint16","internalType":"uint16"}],"stateMutability":"pure"},{"type":"function","name":"getSendLibraryAddress","inputs":[{"name":"","type":"address","internalType":"address"}],"outputs":[{"name":"","type":"address","internalType":"address"}],"stateMutability":"view"},{"type":"function","name":"getSendVersion","inputs":[{"name":"","type":"address","internalType":"address"}],"outputs":[{"name":"","type":"uint16","internalType":"uint16"}],"stateMutability":"pure"},{"type":"function","name":"hasStoredPayload","inputs":[{"name":"","type":"uint16","internalType":"uint16"},{"name":"","type":"bytes","internalType":"bytes"}],"outputs":[{"name":"","type":"bool","internalType":"bool"}],"stateMutability":"pure"},{"type":"function","name":"inboundNonce","inputs":[{"name":"","type":"uint16","internalType":"uint16"},{"name":"","type":"bytes","internalType":"bytes"}],"outputs":[{"name":"","type":"uint64","internalType":"uint64"}],"stateMutability":"view"},{"type":"function","name":"isReceivingPayload","inputs":[],"outputs":[{"name":"","type":"bool","internalType":"bool"}],"stateMutability":"view"},{"type":"function","name":"isSendingPayload","inputs":[],"outputs":[{"name":"","type":"bool","internalType":"bool"}],"stateMutability":"view"},{"type":"function","name":"lzEndpointLookup","inputs":[{"name":"","type":"address","internalType":"address"}],"outputs":[{"name":"","type":"address","internalType":"address"}],"stateMutability":"view"},{"type":"function","name":"messageIds","inputs":[{"name":"","type":"address","internalType":"address"},{"name":"","type":"address","internalType":"address"},{"name":"","type":"uint64","internalType":"uint64"}],"outputs":[{"name":"","type":"bytes32","internalType":"bytes32"}],"stateMutability":"view"},{"type":"function","name":"mockChainId","inputs":[],"outputs":[{"name":"","type":"uint16","internalType":"uint16"}],"stateMutability":"view"},{"type":"function","name":"oracleFee","inputs":[],"outputs":[{"name":"","type":"uint256","internalType":"uint256"}],"stateMutability":"view"},{"type":"function","name":"outboundNonce","inputs":[{"name":"","type":"uint16","internalType":"uint16"},{"name":"","type":"address","internalType":"address"}],"outputs":[{"name":"","type":"uint64","internalType":"uint64"}],"stateMutability":"view"},{"type":"function","name":"owner","inputs":[],"outputs":[{"name":"","type":"address","internalType":"address"}],"stateMutability":"view"},{"type":"function","name":"pending","inputs":[{"name":"","type":"bytes32","internalType":"bytes32"}],"outputs":[{"name":"dstChainId","type":"uint16","internalType":"uint16"},{"name":"srcChainId","type":"uint16","internalType":"uint16"},{"name":"srcUa","type":"address","internalType":"address"},{"name":"dstUa","type":"address","internalType":"address"},{"name":"nonce","type":"uint64","internalType":"uint64"},{"name":"extraGas","type":"uint256","internalType":"uint256"},{"name":"path","type":"bytes","internalType":"bytes"},{"name":"payload","type":"bytes","internalType":"bytes"},{"name":"payloadHash","type":"bytes32","internalType":"bytes32"},{"name":"delivered","type":"bool","internalType":"bool"}],"stateMutability":"view"},{"type":"function","name":"protocolFeeConfig","inputs":[],"outputs":[{"name":"zroFee","type":"uint256","internalType":"uint256"},{"name":"nativeBP","type":"uint256","internalType":"uint256"}],"stateMutability":"view"},{"type":"function","name":"receivePayload","inputs":[{"name":"_srcChainId","type":"uint16","internalType":"uint16"},{"name":"_path","type":"bytes","internalType":"bytes"},{"name":"_dstAddress","type":"address","internalType":"address"},{"name":"_nonce","type":"uint64","internalType":"uint64"},{"name":"_gasLimit","type":"uint256","internalType":"uint256"},{"name":"_payload","type":"bytes","internalType":"bytes"}],"outputs":[],"stateMutability":"nonpayable"},{"type":"function","name":"relayerFeeConfig","inputs":[],"outputs":[{"name":"dstPriceRatio","type":"uint128","internalType":"uint128"},{"name":"dstGasPriceInWei","type":"uint128","internalType":"uint128"},{"name":"dstNativeAmtCap","type":"uint128","internalType":"uint128"},{"name":"baseGas","type":"uint64","internalType":"uint64"},{"name":"gasPerByte","type":"uint64","internalType":"uint64"}],"stateMutability":"view"},{"type":"function","name":"retryPayload","inputs":[{"name":"","type":"uint16","internalType":"uint16"},{"name":"","type":"bytes","internalType":"bytes"},{"name":"","type":"bytes","internalType":"bytes"}],"outputs":[],"stateMutability":"pure"},{"type":"function","name":"send","inputs":[{"name":"_dstChainId","type":"uint16","internalType":"uint16"},{"name":"_path","type":"bytes","internalType":"bytes"},{"name":"_payload","type":"bytes","internalType":"bytes"},{"name":"_refundAddress","type":"address","internalType":"address payable"},{"name":"_zroPaymentAddress","type":"address","internalType":"address"},{"name":"_adapterParams","type":"bytes","internalType":"bytes"}],"outputs":[],"stateMutability":"payable"},{"type":"function","name":"setConfig","inputs":[{"name":"","type":"uint16","internalType":"uint16"},{"name":"","type":"uint16","internalType":"uint16"},{"name":"","type":"uint256","internalType":"uint256"},{"name":"","type":"bytes","internalType":"bytes"}],"outputs":[],"stateMutability":"nonpayable"},{"type":"function","name":"setDefaultAdapterParams","inputs":[{"name":"_adapterParams","type":"bytes","internalType":"bytes"}],"outputs":[],"stateMutability":"nonpayable"},{"type":"function","name":"setDestLzEndpoint","inputs":[{"name":"destAddr","type":"address","internalType":"address"},{"name":"lzEndpointAddr","type":"address","internalType":"address"}],"outputs":[],"stateMutability":"nonpayable"},{"type":"function","name":"setExecutor","inputs":[{"name":"_executor","type":"address","internalType":"address"}],"outputs":[],"stateMutability":"nonpayable"},{"type":"function","name":"setOracleFee","inputs":[{"name":"_oracleFee","type":"uint256","internalType":"uint256"}],"outputs":[],"stateMutability":"nonpayable"},{"type":"function","name":"setProtocolFee","inputs":[{"name":"_zroFee","type":"uint256","internalType":"uint256"},{"name":"_nativeBP","type":"uint256","internalType":"uint256"}],"outputs":[],"stateMutability":"nonpayable"},{"type":"function","name":"setReceiveVersion","inputs":[{"name":"","type":"uint16","internalType":"uint16"}],"outputs":[],"stateMutability":"nonpayable"},{"type":"function","name":"setRelayerPrice","inputs":[{"name":"_dstPriceRatio","type":"uint128","internalType":"uint128"},{"name":"_dstGasPriceInWei","type":"uint128","internalType":"uint128"},{"name":"_dstNativeAmtCap","type":"uint128","internalType":"uint128"},{"name":"_baseGas","type":"uint64","internalType":"uint64"},{"name":"_gasPerByte","type":"uint64","internalType":"uint64"}],"outputs":[],"stateMutability":"nonpayable"},{"type":"function","name":"setSendVersion","inputs":[{"name":"","type":"uint16","internalType":"uint16"}],"outputs":[],"stateMutability":"nonpayable"},{"type":"function","name":"setVerifier","inputs":[{"name":"_verifier","type":"address","internalType":"address"}],"outputs":[],"stateMutability":"nonpayable"},{"type":"function","name":"transferOwnership","inputs":[{"name":"newOwner","type":"address","internalType":"address"}],"outputs":[],"stateMutability":"nonpayable"},{"type":"function","name":"verifier","inputs":[],"outputs":[{"name":"","type":"address","internalType":"address"}],"stateMutability":"view"},{"type":"event","name":"ExecutorUpdated","inputs":[{"name":"executor","type":"address","indexed":true,"internalType":"address"}],"anonymous":false},{"type":"event","name":"MessageDelivered","inputs":[{"name":"messageId","type":"bytes32","indexed":true,"internalType":"bytes32"},{"name":"executor","type":"address","indexed":true,"internalType":"address"}],"anonymous":false},{"type":"event","name":"MessageQueued","inputs":[{"name":"messageId","type":"bytes32","indexed":true,"internalType":"bytes32"},{"name":"srcChainId","type":"uint16","indexed":true,"internalType":"uint16"},{"name":"dstChainId","type":"uint16","indexed":true,"internalType":"uint16"},{"name":"srcUa","type":"address","indexed":false,"internalType":"address"},{"name":"dstUa","type":"address","indexed":false,"internalType":"address"},{"name":"nonce","type":"uint64","indexed":false,"internalType":"uint64"},{"name":"payloadHash","type":"bytes32","indexed":false,"internalType":"bytes32"}],"anonymous":false},{"type":"event","name":"OwnershipTransferred","inputs":[{"name":"previousOwner","type":"address","indexed":true,"internalType":"address"},{"name":"newOwner","type":"address","indexed":true,"internalType":"address"}],"anonymous":false},{"type":"event","name":"VerifierUpdated","inputs":[{"name":"verifier","type":"address","indexed":true,"internalType":"address"}],"anonymous":false}],"bytecode":{"object":"0x60806040526001600b5f6101000a81548160ff021916908360ff1602179055506001600b60016101000a81548160ff021916908360ff160217905550348015610046575f80fd5b506040516150683803806150688339818101604052810190610068919061038f565b335f806101000a81548173ffffffffffffffffffffffffffffffffffffffff021916908373ffffffffffffffffffffffffffffffffffffffff1602179055503373ffffffffffffffffffffffffffffffffffffffff165f73ffffffffffffffffffffffffffffffffffffffff167f8be0079c531659141344cd1fd0a4f28419497f9722a3daafe3b4186f6b6457e060405160405180910390a38060025f6101000a81548161ffff021916908361ffff1602179055506040518060a001604052806402540be4006fffffffffffffffffffffffffffffffff1681526020016402540be4006fffffffffffffffffffffffffffffffff168152602001678ac7230489e800006fffffffffffffffffffffffffffffffff168152602001606467ffffffffffffffff168152602001600167ffffffffffffffff1681525060035f820151815f015f6101000a8154816fffffffffffffffffffffffffffffffff02191690836fffffffffffffffffffffffffffffffff1602179055506020820151815f0160106101000a8154816fffffffffffffffffffffffffffffffff02191690836fffffffffffffffffffffffffffffffff1602179055506040820151816001015f6101000a8154816fffffffffffffffffffffffffffffffff02191690836fffffffffffffffffffffffffffffffff16021790555060608201518160010160106101000a81548167ffffffffffffffff021916908367ffffffffffffffff16021790555060808201518160010160186101000a81548167ffffffffffffffff021916908367ffffffffffffffff1602179055509050506040518060400160405280670de0b6b3a764000081526020016103e881525060055f820151815f015560208201518160010155905050662386f26fc1000060078190555061031362030d4061032860201b60201c565b6008908161032191906105f4565b5050610742565b606060018260405160200161033e929190610717565b6040516020818303038152906040529050919050565b5f80fd5b5f61ffff82169050919050565b61036e81610358565b8114610378575f80fd5b50565b5f8151905061038981610365565b92915050565b5f602082840312156103a4576103a3610354565b5b5f6103b18482850161037b565b91505092915050565b5f81519050919050565b7f4e487b71000000000000000000000000000000000000000000000000000000005f52604160045260245ffd5b7f4e487b71000000000000000000000000000000000000000000000000000000005f52602260045260245ffd5b5f600282049050600182168061043557607f821691505b602082108103610448576104476103f1565b5b50919050565b5f819050815f5260205f209050919050565b5f6020601f8301049050919050565b5f82821b905092915050565b5f600883026104aa7fffffffffffffffffffffffffffffffffffffffffffffffffffffffffffffffff8261046f565b6104b4868361046f565b95508019841693508086168417925050509392505050565b5f819050919050565b5f819050919050565b5f6104f86104f36104ee846104cc565b6104d5565b6104cc565b9050919050565b5f819050919050565b610511836104de565b61052561051d826104ff565b84845461047b565b825550505050565b5f90565b61053961052d565b610544818484610508565b505050565b5b818110156105675761055c5f82610531565b60018101905061054a565b5050565b601f8211156105ac5761057d8161044e565b61058684610460565b81016020851015610595578190505b6105a96105a185610460565b830182610549565b50505b505050565b5f82821c905092915050565b5f6105cc5f19846008026105b1565b1980831691505092915050565b5f6105e483836105bd565b9150826002028217905092915050565b6105fd826103ba565b67ffffffffffffffff811115610616576106156103c4565b5b610620825461041e565b61062b82828561056b565b5f60209050601f83116001811461065c575f841561064a578287015190505b61065485826105d9565b8655506106bb565b601f19841661066a8661044e565b5f5b828110156106915784890151825560018201915060208501945060208101905061066c565b868310156106ae57848901516106aa601f8916826105bd565b8355505b6001600288020188555050505b505050505050565b5f8160f01b9050919050565b5f6106d9826106c3565b9050919050565b6106f16106ec82610358565b6106cf565b82525050565b5f819050919050565b61071161070c826104cc565b6106f7565b82525050565b5f61072282856106e0565b6002820191506107328284610700565b6020820191508190509392505050565b6149198061074f5f395ff3fe608060405260043610610245575f3560e01c8063907c5e7e11610138578063c81b383a116100b5578063e97a448a11610079578063e97a448a146108c6578063f2fde38b146108f0578063f5ecbdbc14610918578063f9cd3ceb14610954578063fbba623b1461097e578063fdc07c70146109a657610245565b8063c81b383a146107d2578063ca066b351461080e578063cbed8b9c14610838578063da1a7c9a14610860578063db14f3051461089c57610245565b8063b6d9ef60116100fc578063b6d9ef6014610714578063c08f15a11461073c578063c2fa481314610764578063c34c08e51461078c578063c5803100146107b657610245565b8063907c5e7e1461060a5780639924d33b146106385780639c729da114610674578063aaff5f16146106b0578063b2086499146106d857610245565b80632b7ac3f3116101c6578063437c1dfd1161018a578063437c1dfd146105045780635437988d1461054057806371ba2fd6146105685780637a145748146105a45780638da5cb5b146105e057610245565b80632b7ac3f3146104235780632c365e251461044d5780633408e4701461047557806340a7bb101461049f57806342d65a8d146104dc57610245565b806310ddb1371161020d57806310ddb1371461033c5780631808eeb8146103645780631c3c0ea8146103a9578063240de277146103d1578063272bd384146103f957610245565b806307d3277f1461024957806307e0db1714610274578063096568f61461029c5780630eaf6ea6146102d85780630fa566fa14610314575b5f80fd5b348015610254575f80fd5b5061025d6109e2565b60405161026b929190612b0e565b60405180910390f35b34801561027f575f80fd5b5061029a60048036038101906102959190612b7d565b6109f3565b005b3480156102a7575f80fd5b506102c260048036038101906102bd9190612c02565b6109f6565b6040516102cf9190612c3c565b60405180910390f35b3480156102e3575f80fd5b506102fe60048036038101906102f99190612cb6565b610a00565b60405161030b9190612d2d565b60405180910390f35b34801561031f575f80fd5b5061033a60048036038101906103359190612d79565b610a08565b005b348015610347575f80fd5b50610362600480360381019061035d9190612b7d565b610ed3565b005b34801561036f575f80fd5b5061038a60048036038101906103859190612d79565b610ed6565b6040516103a09a99989796959493929190612e54565b60405180910390f35b3480156103b4575f80fd5b506103cf60048036038101906103ca9190612c02565b6110aa565b005b3480156103dc575f80fd5b506103f760048036038101906103f29190612f26565b6111bd565b005b348015610404575f80fd5b5061040d6111d4565b60405161041a9190612f64565b60405180910390f35b34801561042e575f80fd5b50610437611260565b6040516104449190612f84565b60405180910390f35b348015610458575f80fd5b50610473600480360381019061046e919061300c565b611286565b005b348015610480575f80fd5b50610489611395565b6040516104969190612c3c565b60405180910390f35b3480156104aa575f80fd5b506104c560048036038101906104c091906131d5565b6113ab565b6040516104d3929190612b0e565b60405180910390f35b3480156104e7575f80fd5b5061050260048036038101906104fd9190612cb6565b6114a6565b005b34801561050f575f80fd5b5061052a60048036038101906105259190613284565b6114ab565b60405161053791906132d4565b60405180910390f35b34801561054b575f80fd5b5061056660048036038101906105619190612c02565b6114d6565b005b348015610573575f80fd5b5061058e60048036038101906105899190612c02565b6115ea565b60405161059b9190612f84565b60405180910390f35b3480156105af575f80fd5b506105ca60048036038101906105c591906132ed565b6115f3565b6040516105d7919061332b565b60405180910390f35b3480156105eb575f80fd5b506105f4611664565b6040516106019190612f84565b60405180910390f35b348015610615575f80fd5b5061061e611687565b60405161062f959493929190613353565b60405180910390f35b348015610643575f80fd5b5061065e600480360381019061065991906133a4565b611723565b60405161066b919061332b565b60405180910390f35b34801561067f575f80fd5b5061069a60048036038101906106959190612c02565b61176c565b6040516106a79190612f84565b60405180910390f35b3480156106bb575f80fd5b506106d660048036038101906106d191906133fe565b611775565b005b3480156106e3575f80fd5b506106fe60048036038101906106f991906132ed565b6117b0565b60405161070b919061332b565b60405180910390f35b34801561071f575f80fd5b5061073a6004803603810190610735919061348f565b6117e1565b005b348015610747575f80fd5b50610762600480360381019061075d91906134ba565b6117eb565b005b34801561076f575f80fd5b5061078a600480360381019061078591906134f8565b61186a565b005b348015610797575f80fd5b506107a0611ab9565b6040516107ad9190612f84565b60405180910390f35b6107d060048036038101906107cb91906135fd565b611ade565b005b3480156107dd575f80fd5b506107f860048036038101906107f39190612c02565b612068565b6040516108059190612f84565b60405180910390f35b348015610819575f80fd5b50610822612098565b60405161082f9190612d2d565b60405180910390f35b348015610843575f80fd5b5061085e600480360381019061085991906136df565b6120b7565b005b34801561086b575f80fd5b5061088660048036038101906108819190612c02565b6120bd565b6040516108939190612c3c565b60405180910390f35b3480156108a7575f80fd5b506108b06120c7565b6040516108bd9190612c3c565b60405180910390f35b3480156108d1575f80fd5b506108da6120da565b6040516108e79190612d2d565b60405180910390f35b3480156108fb575f80fd5b5061091660048036038101906109119190612c02565b6120f8565b005b348015610923575f80fd5b5061093e6004803603810190610939919061375f565b6122ae565b60405161094b9190612f64565b60405180910390f35b34801561095f575f80fd5b506109686122c9565b60405161097591906137c3565b60405180910390f35b348015610989575f80fd5b506109a4600480360381019061099f91906137dc565b6122cf565b005b3480156109b1575f80fd5b506109cc60048036038101906109c79190612cb6565b6122e2565b6040516109d9919061332b565b60405180910390f35b6005805f0154908060010154905082565b50565b5f60019050919050565b5f9392505050565b600c5f9054906101000a900473ffffffffffffffffffffffffffffffffffffffff1673ffffffffffffffffffffffffffffffffffffffff163373ffffffffffffffffffffffffffffffffffffffff1614610a97576040517f08c379a0000000000000000000000000000000000000000000000000000000008152600401610a8e9061387d565b60405180910390fd5b5f600d5f8381526020019081526020015f209050806006015f9054906101000a900460ff1615610afc576040517f08c379a0000000000000000000000000000000000000000000000000000000008152600401610af3906138e5565b60405180910390fd5b5f816004018054610b0c90613930565b905011610b4e576040517f08c379a0000000000000000000000000000000000000000000000000000000008152600401610b45906139aa565b60405180910390fd5b5f73ffffffffffffffffffffffffffffffffffffffff16600b60029054906101000a900473ffffffffffffffffffffffffffffffffffffffff1673ffffffffffffffffffffffffffffffffffffffff1603610bde576040517f08c379a0000000000000000000000000000000000000000000000000000000008152600401610bd590613a12565b60405180910390fd5b600b60029054906101000a900473ffffffffffffffffffffffffffffffffffffffff1673ffffffffffffffffffffffffffffffffffffffff1663c181b273836040518263ffffffff1660e01b8152600401610c3991906132d4565b602060405180830381865afa158015610c54573d5f803e3d5ffd5b505050506040513d601f19601f82011682018060405250810190610c789190613a44565b610cb7576040517f08c379a0000000000000000000000000000000000000000000000000000000008152600401610cae90613ab9565b60405180910390fd5b5f60015f836001015f9054906101000a900473ffffffffffffffffffffffffffffffffffffffff1673ffffffffffffffffffffffffffffffffffffffff1673ffffffffffffffffffffffffffffffffffffffff1681526020019081526020015f205f9054906101000a900473ffffffffffffffffffffffffffffffffffffffff1690505f73ffffffffffffffffffffffffffffffffffffffff168173ffffffffffffffffffffffffffffffffffffffff1603610da8576040517f08c379a0000000000000000000000000000000000000000000000000000000008152600401610d9f90613b21565b60405180910390fd5b8073ffffffffffffffffffffffffffffffffffffffff1663c2fa4813835f0160029054906101000a900461ffff1684600301856001015f9054906101000a900473ffffffffffffffffffffffffffffffffffffffff168660010160149054906101000a900467ffffffffffffffff168760020154886004016040518763ffffffff1660e01b8152600401610e4196959493929190613bd2565b5f604051808303815f87803b158015610e58575f80fd5b505af1158015610e6a573d5f803e3d5ffd5b505050506001826006015f6101000a81548160ff0219169083151502179055503373ffffffffffffffffffffffffffffffffffffffff16837fd94698a25cf4e3e5170689d076df31e0c73fabd5b56539892e7ae8216c594b1860405160405180910390a3505050565b50565b600d602052805f5260405f205f91509050805f015f9054906101000a900461ffff1690805f0160029054906101000a900461ffff1690805f0160049054906101000a900473ffffffffffffffffffffffffffffffffffffffff1690806001015f9054906101000a900473ffffffffffffffffffffffffffffffffffffffff16908060010160149054906101000a900467ffffffffffffffff1690806002015490806003018054610f8590613930565b80601f0160208091040260200160405190810160405280929190818152602001828054610fb190613930565b8015610ffc5780601f10610fd357610100808354040283529160200191610ffc565b820191905f5260205f20905b815481529060010190602001808311610fdf57829003601f168201915b50505050509080600401805461101190613930565b80601f016020809104026020016040519081016040528092919081815260200182805461103d90613930565b80156110885780601f1061105f57610100808354040283529160200191611088565b820191905f5260205f20905b81548152906001019060200180831161106b57829003601f168201915b505050505090806005015490806006015f9054906101000a900460ff1690508a565b5f8054906101000a900473ffffffffffffffffffffffffffffffffffffffff1673ffffffffffffffffffffffffffffffffffffffff163373ffffffffffffffffffffffffffffffffffffffff1614611137576040517f08c379a000000000000000000000000000000000000000000000000000000000815260040161112e90613c89565b60405180910390fd5b80600c5f6101000a81548173ffffffffffffffffffffffffffffffffffffffff021916908373ffffffffffffffffffffffffffffffffffffffff1602179055508073ffffffffffffffffffffffffffffffffffffffff167fd9436ef9ce00ffeabc5da2489701502d3bd1a5ed7b254a1981fc5ffef9828e1160405160405180910390a250565b8160055f0181905550806005600101819055505050565b600880546111e190613930565b80601f016020809104026020016040519081016040528092919081815260200182805461120d90613930565b80156112585780601f1061122f57610100808354040283529160200191611258565b820191905f5260205f20905b81548152906001019060200180831161123b57829003601f168201915b505050505081565b600b60029054906101000a900473ffffffffffffffffffffffffffffffffffffffff1681565b8460035f015f6101000a8154816fffffffffffffffffffffffffffffffff02191690836fffffffffffffffffffffffffffffffff1602179055508360035f0160106101000a8154816fffffffffffffffffffffffffffffffff02191690836fffffffffffffffffffffffffffffffff1602179055508260036001015f6101000a8154816fffffffffffffffffffffffffffffffff02191690836fffffffffffffffffffffffffffffffff16021790555081600360010160106101000a81548167ffffffffffffffff021916908367ffffffffffffffff16021790555080600360010160186101000a81548167ffffffffffffffff021916908367ffffffffffffffff1602179055505050505050565b5f60025f9054906101000a900461ffff16905090565b5f805f8084511161144457600880546113c390613930565b80601f01602080910402602001604051908101604052809291908181526020018280546113ef90613930565b801561143a5780601f106114115761010080835404028352916020019161143a565b820191905f5260205f20905b81548152906001019060200180831161141d57829003601f168201915b5050505050611446565b835b90505f6114588960018a8a5186612337565b90505f6114688783600754612570565b905086611478578094508461147d565b809350835b50600754828661148d9190613cd4565b6114979190613cd4565b94505050509550959350505050565b505050565b600e602052825f5260405f20602052815f5260405f20602052805f5260405f205f9250925050505481565b5f8054906101000a900473ffffffffffffffffffffffffffffffffffffffff1673ffffffffffffffffffffffffffffffffffffffff163373ffffffffffffffffffffffffffffffffffffffff1614611563576040517f08c379a000000000000000000000000000000000000000000000000000000000815260040161155a90613c89565b60405180910390fd5b80600b60026101000a81548173ffffffffffffffffffffffffffffffffffffffff021916908373ffffffffffffffffffffffffffffffffffffffff1602179055508073ffffffffffffffffffffffffffffffffffffffff167fd24015cc99cc1700cafca3042840a1d8ac1e3964fd2e0e37ea29c654056ee32760405160405180910390a250565b5f309050919050565b5f600a5f8461ffff1661ffff1681526020019081526020015f205f8373ffffffffffffffffffffffffffffffffffffffff1673ffffffffffffffffffffffffffffffffffffffff1681526020019081526020015f205f9054906101000a900467ffffffffffffffff16905092915050565b5f8054906101000a900473ffffffffffffffffffffffffffffffffffffffff1681565b6003805f015f9054906101000a90046fffffffffffffffffffffffffffffffff1690805f0160109054906101000a90046fffffffffffffffffffffffffffffffff1690806001015f9054906101000a90046fffffffffffffffffffffffffffffffff16908060010160109054906101000a900467ffffffffffffffff16908060010160189054906101000a900467ffffffffffffffff16905085565b6009602052815f5260405f20818051602081018201805184825260208301602085012081835280955050505050505f915091509054906101000a900467ffffffffffffffff1681565b5f309050919050565b6040517f08c379a00000000000000000000000000000000000000000000000000000000081526004016117a790613d51565b60405180910390fd5b600a602052815f5260405f20602052805f5260405f205f915091509054906101000a900467ffffffffffffffff1681565b8060078190555050565b8060015f8473ffffffffffffffffffffffffffffffffffffffff1673ffffffffffffffffffffffffffffffffffffffff1681526020019081526020015f205f6101000a81548173ffffffffffffffffffffffffffffffffffffffff021916908373ffffffffffffffffffffffffffffffffffffffff1602179055505050565b600160ff16600b60019054906101000a900460ff1660ff16146118c2576040517f08c379a00000000000000000000000000000000000000000000000000000000081526004016118b990613db9565b60405180910390fd5b6002600b60016101000a81548160ff021916908360ff16021790555060095f8961ffff1661ffff1681526020019081526020015f208787604051611907929190613e05565b90815260200160405180910390205f81819054906101000a900467ffffffffffffffff1661193490613e1d565b91906101000a81548167ffffffffffffffff021916908367ffffffffffffffff160217905567ffffffffffffffff168467ffffffffffffffff16146119ae576040517f08c379a00000000000000000000000000000000000000000000000000000000081526004016119a590613e96565b60405180910390fd5b8473ffffffffffffffffffffffffffffffffffffffff16621d3567848a8a8a8988886040518863ffffffff1660e01b81526004016119f196959493929190613ee0565b5f604051808303815f88803b158015611a08575f80fd5b5087f193505050508015611a1a575060015b611a92578473ffffffffffffffffffffffffffffffffffffffff16621d35678989898887876040518763ffffffff1660e01b8152600401611a6096959493929190613ee0565b5f604051808303815f87803b158015611a77575f80fd5b505af1158015611a89573d5f803e3d5ffd5b50505050611a93565b5b6001600b60016101000a81548160ff021916908360ff1602179055505050505050505050565b600c5f9054906101000a900473ffffffffffffffffffffffffffffffffffffffff1681565b600160ff16600b5f9054906101000a900460ff1660ff1614611b35576040517f08c379a0000000000000000000000000000000000000000000000000000000008152600401611b2c90613f7f565b60405180910390fd5b6002600b5f6101000a81548160ff021916908360ff1602179055506028865114611b94576040517f08c379a0000000000000000000000000000000000000000000000000000000008152600401611b8b90613fe7565b60405180910390fd5b5f601487015190505f73ffffffffffffffffffffffffffffffffffffffff1660015f8373ffffffffffffffffffffffffffffffffffffffff1673ffffffffffffffffffffffffffffffffffffffff1681526020019081526020015f205f9054906101000a900473ffffffffffffffffffffffffffffffffffffffff1673ffffffffffffffffffffffffffffffffffffffff1603611c66576040517f08c379a0000000000000000000000000000000000000000000000000000000008152600401611c5d9061404f565b60405180910390fd5b5f611d7d893389898080601f0160208091040260200160405190810160405280939291908181526020018383808284375f81840152601f19601f820116905080830192505050505050505f73ffffffffffffffffffffffffffffffffffffffff168873ffffffffffffffffffffffffffffffffffffffff1614155f885111611d765760088054611cf590613930565b80601f0160208091040260200160405190810160405280929190818152602001828054611d2190613930565b8015611d6c5780601f10611d4357610100808354040283529160200191611d6c565b820191905f5260205f20905b815481529060010190602001808311611d4f57829003601f168201915b5050505050611d78565b875b6113ab565b50905080341015611dc3576040517f08c379a0000000000000000000000000000000000000000000000000000000008152600401611dba906140b7565b60405180910390fd5b5f600a5f8b61ffff1661ffff1681526020019081526020015f205f3373ffffffffffffffffffffffffffffffffffffffff1673ffffffffffffffffffffffffffffffffffffffff1681526020019081526020015f205f81819054906101000a900467ffffffffffffffff16611e3790613e1d565b91906101000a81548167ffffffffffffffff021916908367ffffffffffffffff160217905590505f8234611e6b91906140d5565b90505f811115611f1f575f8773ffffffffffffffffffffffffffffffffffffffff1682604051611e9a9061412b565b5f6040518083038185875af1925050503d805f8114611ed4576040519150601f19603f3d011682016040523d82523d5f602084013e611ed9565b606091505b5050905080611f1d576040517f08c379a0000000000000000000000000000000000000000000000000000000008152600401611f1490614189565b60405180910390fd5b505b505f611fc15f865111611fba5760088054611f3990613930565b80601f0160208091040260200160405190810160405280929190818152602001828054611f6590613930565b8015611fb05780601f10611f8757610100808354040283529160200191611fb0565b820191905f5260205f20905b815481529060010190602001808311611f9357829003601f168201915b5050505050611fbc565b855b6125b6565b90505f611fd2858d85858e8e61264b565b90508b61ffff1660025f9054906101000a900461ffff1661ffff16827f0f037e2d9c1ddba5f262d70e61fa62a63b1bd3810430376762e5467aec4a06ef338988600d5f8981526020019081526020015f206005015460405161203794939291906141a7565b60405180910390a450505050506001600b5f6101000a81548160ff021916908360ff16021790555050505050505050565b6001602052805f5260405f205f915054906101000a900473ffffffffffffffffffffffffffffffffffffffff1681565b5f600260ff16600b60019054906101000a900460ff1660ff1614905090565b50505050565b5f60019050919050565b60025f9054906101000a900461ffff1681565b5f600260ff16600b5f9054906101000a900460ff1660ff1614905090565b5f8054906101000a900473ffffffffffffffffffffffffffffffffffffffff1673ffffffffffffffffffffffffffffffffffffffff163373ffffffffffffffffffffffffffffffffffffffff1614612185576040517f08c379a000000000000000000000000000000000000000000000000000000000815260040161217c90613c89565b60405180910390fd5b5f73ffffffffffffffffffffffffffffffffffffffff168173ffffffffffffffffffffffffffffffffffffffff16036121f3576040517f08c379a00000000000000000000000000000000000000000000000000000000081526004016121ea9061425a565b60405180910390fd5b8073ffffffffffffffffffffffffffffffffffffffff165f8054906101000a900473ffffffffffffffffffffffffffffffffffffffff1673ffffffffffffffffffffffffffffffffffffffff167f8be0079c531659141344cd1fd0a4f28419497f9722a3daafe3b4186f6b6457e060405160405180910390a3805f806101000a81548173ffffffffffffffffffffffffffffffffffffffff021916908373ffffffffffffffffffffffffffffffffffffffff16021790555050565b606060405180602001604052805f8152509050949350505050565b60075481565b80600890816122de9190614403565b5050565b5f60095f8561ffff1661ffff1681526020019081526020015f20838360405161230c929190613e05565b90815260200160405180910390205f9054906101000a900467ffffffffffffffff1690509392505050565b5f805f806123448561299c565b509250925092505f60028461ffff16036123dc578160036001015f9054906101000a90046fffffffffffffffffffffffffffffffff166fffffffffffffffffffffffffffffffff1610156123cd576040517f08c379a00000000000000000000000000000000000000000000000000000000081526004016123c49061451c565b60405180910390fd5b81816123d99190613cd4565b90505b5f83600360010160109054906101000a900467ffffffffffffffff1667ffffffffffffffff1661240c9190613cd4565b60035f0160109054906101000a90046fffffffffffffffffffffffffffffffff166fffffffffffffffffffffffffffffffff16612449919061453a565b905080826124579190613cd4565b91505f6402540be40060035f015f9054906101000a90046fffffffffffffffffffffffffffffffff166fffffffffffffffffffffffffffffffff168461249d919061453a565b6124a791906145a8565b90505f6402540be40060035f015f9054906101000a90046fffffffffffffffffffffffffffffffff16600360010160189054906101000a900467ffffffffffffffff1667ffffffffffffffff1660035f0160109054906101000a90046fffffffffffffffffffffffffffffffff1661251f91906145d8565b61252991906145d8565b6125339190614614565b6fffffffffffffffffffffffffffffffff169050808a612553919061453a565b8261255e9190613cd4565b97505050505050505095945050505050565b5f83156125835760055f015490506125af565b61271060056001015483856125989190613cd4565b6125a2919061453a565b6125ac91906145a8565b90505b9392505050565b5f805f6125c28461299c565b909192508093508194508295505050505f821115612644575f8173ffffffffffffffffffffffffffffffffffffffff16836040516125ff9061412b565b5f6040518083038185875af1925050503d805f8114612639576040519150601f19603f3d011682016040523d82523d5f602084013e61263e565b606091505b50509050505b5050919050565b5f80838360405161265d929190613e05565b604051809103902090506126843360025f9054906101000a900461ffff16898b8a86612ab8565b91506040518061014001604052808861ffff16815260200160025f9054906101000a900461ffff1661ffff1681526020013373ffffffffffffffffffffffffffffffffffffffff1681526020018973ffffffffffffffffffffffffffffffffffffffff1681526020018767ffffffffffffffff168152602001868152602001338a604051602001612716929190614689565b604051602081830303815290604052815260200185858080601f0160208091040260200160405190810160405280939291908181526020018383808284375f81840152601f19601f8201169050808301925050505050505081526020018281526020015f1515815250600d5f8481526020019081526020015f205f820151815f015f6101000a81548161ffff021916908361ffff1602179055506020820151815f0160026101000a81548161ffff021916908361ffff1602179055506040820151815f0160046101000a81548173ffffffffffffffffffffffffffffffffffffffff021916908373ffffffffffffffffffffffffffffffffffffffff1602179055506060820151816001015f6101000a81548173ffffffffffffffffffffffffffffffffffffffff021916908373ffffffffffffffffffffffffffffffffffffffff16021790555060808201518160010160146101000a81548167ffffffffffffffff021916908367ffffffffffffffff16021790555060a0820151816002015560c08201518160030190816128ac9190614403565b5060e08201518160040190816128c29190614403565b506101008201518160050155610120820151816006015f6101000a81548160ff02191690831515021790555090505081600e5f3373ffffffffffffffffffffffffffffffffffffffff1673ffffffffffffffffffffffffffffffffffffffff1681526020019081526020015f205f8a73ffffffffffffffffffffffffffffffffffffffff1673ffffffffffffffffffffffffffffffffffffffff1681526020019081526020015f205f8867ffffffffffffffff1667ffffffffffffffff1681526020019081526020015f2081905550509695505050505050565b5f805f806022855114806129b1575060428551115b6129f0576040517f08c379a00000000000000000000000000000000000000000000000000000000081526004016129e7906146fe565b60405180910390fd5b600285015193506022850151925060018461ffff161480612a15575060028461ffff16145b612a54576040517f08c379a0000000000000000000000000000000000000000000000000000000008152600401612a4b90614766565b60405180910390fd5b5f8311612a96576040517f08c379a0000000000000000000000000000000000000000000000000000000008152600401612a8d906147ce565b60405180910390fd5b60028461ffff1603612ab15760428501519150605685015190505b9193509193565b5f858786868686604051602001612ad496959493929190614874565b6040516020818303038152906040528051906020012090509695505050505050565b5f819050919050565b612b0881612af6565b82525050565b5f604082019050612b215f830185612aff565b612b2e6020830184612aff565b9392505050565b5f604051905090565b5f80fd5b5f80fd5b5f61ffff82169050919050565b612b5c81612b46565b8114612b66575f80fd5b50565b5f81359050612b7781612b53565b92915050565b5f60208284031215612b9257612b91612b3e565b5b5f612b9f84828501612b69565b91505092915050565b5f73ffffffffffffffffffffffffffffffffffffffff82169050919050565b5f612bd182612ba8565b9050919050565b612be181612bc7565b8114612beb575f80fd5b50565b5f81359050612bfc81612bd8565b92915050565b5f60208284031215612c1757612c16612b3e565b5b5f612c2484828501612bee565b91505092915050565b612c3681612b46565b82525050565b5f602082019050612c4f5f830184612c2d565b92915050565b5f80fd5b5f80fd5b5f80fd5b5f8083601f840112612c7657612c75612c55565b5b8235905067ffffffffffffffff811115612c9357612c92612c59565b5b602083019150836001820283011115612caf57612cae612c5d565b5b9250929050565b5f805f60408486031215612ccd57612ccc612b3e565b5b5f612cda86828701612b69565b935050602084013567ffffffffffffffff811115612cfb57612cfa612b42565b5b612d0786828701612c61565b92509250509250925092565b5f8115159050919050565b612d2781612d13565b82525050565b5f602082019050612d405f830184612d1e565b92915050565b5f819050919050565b612d5881612d46565b8114612d62575f80fd5b50565b5f81359050612d7381612d4f565b92915050565b5f60208284031215612d8e57612d8d612b3e565b5b5f612d9b84828501612d65565b91505092915050565b612dad81612bc7565b82525050565b5f67ffffffffffffffff82169050919050565b612dcf81612db3565b82525050565b5f81519050919050565b5f82825260208201905092915050565b8281835e5f83830152505050565b5f601f19601f8301169050919050565b5f612e1782612dd5565b612e218185612ddf565b9350612e31818560208601612def565b612e3a81612dfd565b840191505092915050565b612e4e81612d46565b82525050565b5f61014082019050612e685f83018d612c2d565b612e75602083018c612c2d565b612e82604083018b612da4565b612e8f606083018a612da4565b612e9c6080830189612dc6565b612ea960a0830188612aff565b81810360c0830152612ebb8187612e0d565b905081810360e0830152612ecf8186612e0d565b9050612edf610100830185612e45565b612eed610120830184612d1e565b9b9a5050505050505050505050565b612f0581612af6565b8114612f0f575f80fd5b50565b5f81359050612f2081612efc565b92915050565b5f8060408385031215612f3c57612f3b612b3e565b5b5f612f4985828601612f12565b9250506020612f5a85828601612f12565b9150509250929050565b5f6020820190508181035f830152612f7c8184612e0d565b905092915050565b5f602082019050612f975f830184612da4565b92915050565b5f6fffffffffffffffffffffffffffffffff82169050919050565b612fc181612f9d565b8114612fcb575f80fd5b50565b5f81359050612fdc81612fb8565b92915050565b612feb81612db3565b8114612ff5575f80fd5b50565b5f8135905061300681612fe2565b92915050565b5f805f805f60a0868803121561302557613024612b3e565b5b5f61303288828901612fce565b955050602061304388828901612fce565b945050604061305488828901612fce565b935050606061306588828901612ff8565b925050608061307688828901612ff8565b9150509295509295909350565b5f80fd5b7f4e487b71000000000000000000000000000000000000000000000000000000005f52604160045260245ffd5b6130bd82612dfd565b810181811067ffffffffffffffff821117156130dc576130db613087565b5b80604052505050565b5f6130ee612b35565b90506130fa82826130b4565b919050565b5f67ffffffffffffffff82111561311957613118613087565b5b61312282612dfd565b9050602081019050919050565b828183375f83830152505050565b5f61314f61314a846130ff565b6130e5565b90508281526020810184848401111561316b5761316a613083565b5b61317684828561312f565b509392505050565b5f82601f83011261319257613191612c55565b5b81356131a284826020860161313d565b91505092915050565b6131b481612d13565b81146131be575f80fd5b50565b5f813590506131cf816131ab565b92915050565b5f805f805f60a086880312156131ee576131ed612b3e565b5b5f6131fb88828901612b69565b955050602061320c88828901612bee565b945050604086013567ffffffffffffffff81111561322d5761322c612b42565b5b6132398882890161317e565b935050606061324a888289016131c1565b925050608086013567ffffffffffffffff81111561326b5761326a612b42565b5b6132778882890161317e565b9150509295509295909350565b5f805f6060848603121561329b5761329a612b3e565b5b5f6132a886828701612bee565b93505060206132b986828701612bee565b92505060406132ca86828701612ff8565b9150509250925092565b5f6020820190506132e75f830184612e45565b92915050565b5f806040838503121561330357613302612b3e565b5b5f61331085828601612b69565b925050602061332185828601612bee565b9150509250929050565b5f60208201905061333e5f830184612dc6565b92915050565b61334d81612f9d565b82525050565b5f60a0820190506133665f830188613344565b6133736020830187613344565b6133806040830186613344565b61338d6060830185612dc6565b61339a6080830184612dc6565b9695505050505050565b5f80604083850312156133ba576133b9612b3e565b5b5f6133c785828601612b69565b925050602083013567ffffffffffffffff8111156133e8576133e7612b42565b5b6133f48582860161317e565b9150509250929050565b5f805f805f6060868803121561341757613416612b3e565b5b5f61342488828901612b69565b955050602086013567ffffffffffffffff81111561344557613444612b42565b5b61345188828901612c61565b9450945050604086013567ffffffffffffffff81111561347457613473612b42565b5b61348088828901612c61565b92509250509295509295909350565b5f602082840312156134a4576134a3612b3e565b5b5f6134b184828501612f12565b91505092915050565b5f80604083850312156134d0576134cf612b3e565b5b5f6134dd85828601612bee565b92505060206134ee85828601612bee565b9150509250929050565b5f805f805f805f8060c0898b03121561351457613513612b3e565b5b5f6135218b828c01612b69565b985050602089013567ffffffffffffffff81111561354257613541612b42565b5b61354e8b828c01612c61565b975097505060406135618b828c01612bee565b95505060606135728b828c01612ff8565b94505060806135838b828c01612f12565b93505060a089013567ffffffffffffffff8111156135a4576135a3612b42565b5b6135b08b828c01612c61565b92509250509295985092959890939650565b5f6135cc82612ba8565b9050919050565b6135dc816135c2565b81146135e6575f80fd5b50565b5f813590506135f7816135d3565b92915050565b5f805f805f805f60c0888a03121561361857613617612b3e565b5b5f6136258a828b01612b69565b975050602088013567ffffffffffffffff81111561364657613645612b42565b5b6136528a828b0161317e565b965050604088013567ffffffffffffffff81111561367357613672612b42565b5b61367f8a828b01612c61565b955095505060606136928a828b016135e9565b93505060806136a38a828b01612bee565b92505060a088013567ffffffffffffffff8111156136c4576136c3612b42565b5b6136d08a828b0161317e565b91505092959891949750929550565b5f805f80608085870312156136f7576136f6612b3e565b5b5f61370487828801612b69565b945050602061371587828801612b69565b935050604061372687828801612f12565b925050606085013567ffffffffffffffff81111561374757613746612b42565b5b6137538782880161317e565b91505092959194509250565b5f805f806080858703121561377757613776612b3e565b5b5f61378487828801612b69565b945050602061379587828801612b69565b93505060406137a687828801612bee565b92505060606137b787828801612f12565b91505092959194509250565b5f6020820190506137d65f830184612aff565b92915050565b5f602082840312156137f1576137f0612b3e565b5b5f82013567ffffffffffffffff81111561380e5761380d612b42565b5b61381a8482850161317e565b91505092915050565b5f82825260208201905092915050565b7f6e6f74206578656375746f7200000000000000000000000000000000000000005f82015250565b5f613867600c83613823565b915061387282613833565b602082019050919050565b5f6020820190508181035f8301526138948161385b565b9050919050565b7f616c72656164792064656c6976657265640000000000000000000000000000005f82015250565b5f6138cf601183613823565b91506138da8261389b565b602082019050919050565b5f6020820190508181035f8301526138fc816138c3565b9050919050565b7f4e487b71000000000000000000000000000000000000000000000000000000005f52602260045260245ffd5b5f600282049050600182168061394757607f821691505b60208210810361395a57613959613903565b5b50919050565b7f756e6b6e6f776e206d73670000000000000000000000000000000000000000005f82015250565b5f613994600b83613823565b915061399f82613960565b602082019050919050565b5f6020820190508181035f8301526139c181613988565b9050919050565b7f6e6f2076657269666965720000000000000000000000000000000000000000005f82015250565b5f6139fc600b83613823565b9150613a07826139c8565b602082019050919050565b5f6020820190508181035f830152613a29816139f0565b9050919050565b5f81519050613a3e816131ab565b92915050565b5f60208284031215613a5957613a58612b3e565b5b5f613a6684828501613a30565b91505092915050565b7f6e6f7420766572696669656400000000000000000000000000000000000000005f82015250565b5f613aa3600c83613823565b9150613aae82613a6f565b602082019050919050565b5f6020820190508181035f830152613ad081613a97565b9050919050565b7f6465737420656e64706f696e74206d697373696e6700000000000000000000005f82015250565b5f613b0b601583613823565b9150613b1682613ad7565b602082019050919050565b5f6020820190508181035f830152613b3881613aff565b9050919050565b5f819050815f5260205f209050919050565b5f8154613b5d81613930565b613b678186612ddf565b9450600182165f8114613b815760018114613b9757613bc9565b60ff198316865281151560200286019350613bc9565b613ba085613b3f565b5f5b83811015613bc157815481890152600182019150602081019050613ba2565b808801955050505b50505092915050565b5f60c082019050613be55f830189612c2d565b8181036020830152613bf78188613b51565b9050613c066040830187612da4565b613c136060830186612dc6565b613c206080830185612aff565b81810360a0830152613c328184613b51565b9050979650505050505050565b7f4f776e61626c653a2063616c6c6572206973206e6f7420746865206f776e65725f82015250565b5f613c73602083613823565b9150613c7e82613c3f565b602082019050919050565b5f6020820190508181035f830152613ca081613c67565b9050919050565b7f4e487b71000000000000000000000000000000000000000000000000000000005f52601160045260245ffd5b5f613cde82612af6565b9150613ce983612af6565b9250828201905080821115613d0157613d00613ca7565b5b92915050565b7f756e7573656400000000000000000000000000000000000000000000000000005f82015250565b5f613d3b600683613823565b9150613d4682613d07565b602082019050919050565b5f6020820190508181035f830152613d6881613d2f565b9050919050565b7f4c5a4d6f636b3a206e6f2072656365697665207265656e7472616e63790000005f82015250565b5f613da3601d83613823565b9150613dae82613d6f565b602082019050919050565b5f6020820190508181035f830152613dd081613d97565b9050919050565b5f81905092915050565b5f613dec8385613dd7565b9350613df983858461312f565b82840190509392505050565b5f613e11828486613de1565b91508190509392505050565b5f613e2782612db3565b915067ffffffffffffffff8203613e4157613e40613ca7565b5b600182019050919050565b7f4c5a4d6f636b3a2077726f6e67206e6f6e6365000000000000000000000000005f82015250565b5f613e80601383613823565b9150613e8b82613e4c565b602082019050919050565b5f6020820190508181035f830152613ead81613e74565b9050919050565b5f613ebf8385612ddf565b9350613ecc83858461312f565b613ed583612dfd565b840190509392505050565b5f608082019050613ef35f830189612c2d565b8181036020830152613f06818789613eb4565b9050613f156040830186612dc6565b8181036060830152613f28818486613eb4565b9050979650505050505050565b7f4c5a4d6f636b3a206e6f2073656e64207265656e7472616e63790000000000005f82015250565b5f613f69601a83613823565b9150613f7482613f35565b602082019050919050565b5f6020820190508181035f830152613f9681613f5d565b9050919050565b7f4c5a4d6f636b3a20696e636f727265637420706174682073697a6500000000005f82015250565b5f613fd1601b83613823565b9150613fdc82613f9d565b602082019050919050565b5f6020820190508181035f830152613ffe81613fc5565b9050919050565b7f4c5a4d6f636b3a206465737420656e64706f696e74206e6f7420666f756e64005f82015250565b5f614039601f83613823565b915061404482614005565b602082019050919050565b5f6020820190508181035f8301526140668161402d565b9050919050565b7f4c5a4d6f636b3a20696e73756666696369656e742066656500000000000000005f82015250565b5f6140a1601883613823565b91506140ac8261406d565b602082019050919050565b5f6020820190508181035f8301526140ce81614095565b9050919050565b5f6140df82612af6565b91506140ea83612af6565b925082820390508181111561410257614101613ca7565b5b92915050565b50565b5f6141165f83613dd7565b915061412182614108565b5f82019050919050565b5f6141358261410b565b9150819050919050565b7f4c5a4d6f636b3a20726566756e64206661696c656400000000000000000000005f82015250565b5f614173601583613823565b915061417e8261413f565b602082019050919050565b5f6020820190508181035f8301526141a081614167565b9050919050565b5f6080820190506141ba5f830187612da4565b6141c76020830186612da4565b6141d46040830185612dc6565b6141e16060830184612e45565b95945050505050565b7f4f776e61626c653a206e6577206f776e657220697320746865207a65726f20615f8201527f6464726573730000000000000000000000000000000000000000000000000000602082015250565b5f614244602683613823565b915061424f826141ea565b604082019050919050565b5f6020820190508181035f83015261427181614238565b9050919050565b5f6020601f8301049050919050565b5f82821b905092915050565b5f600883026142c27fffffffffffffffffffffffffffffffffffffffffffffffffffffffffffffffff82614287565b6142cc8683614287565b95508019841693508086168417925050509392505050565b5f819050919050565b5f6143076143026142fd84612af6565b6142e4565b612af6565b9050919050565b5f819050919050565b614320836142ed565b61433461432c8261430e565b848454614293565b825550505050565b5f90565b61434861433c565b614353818484614317565b505050565b5b818110156143765761436b5f82614340565b600181019050614359565b5050565b601f8211156143bb5761438c81613b3f565b61439584614278565b810160208510156143a4578190505b6143b86143b085614278565b830182614358565b50505b505050565b5f82821c905092915050565b5f6143db5f19846008026143c0565b1980831691505092915050565b5f6143f383836143cc565b9150826002028217905092915050565b61440c82612dd5565b67ffffffffffffffff81111561442557614424613087565b5b61442f8254613930565b61443a82828561437a565b5f60209050601f83116001811461446b575f8415614459578287015190505b61446385826143e8565b8655506144ca565b601f19841661447986613b3f565b5f5b828110156144a05784890151825560018201915060208501945060208101905061447b565b868310156144bd57848901516144b9601f8916826143cc565b8355505b6001600288020188555050505b505050505050565b7f4c5a4d6f636b3a206473744e6174697665416d7420746f6f206c6172676500005f82015250565b5f614506601e83613823565b9150614511826144d2565b602082019050919050565b5f6020820190508181035f830152614533816144fa565b9050919050565b5f61454482612af6565b915061454f83612af6565b925082820261455d81612af6565b9150828204841483151761457457614573613ca7565b5b5092915050565b7f4e487b71000000000000000000000000000000000000000000000000000000005f52601260045260245ffd5b5f6145b282612af6565b91506145bd83612af6565b9250826145cd576145cc61457b565b5b828204905092915050565b5f6145e282612f9d565b91506145ed83612f9d565b92508282026145fb81612f9d565b915080821461460d5761460c613ca7565b5b5092915050565b5f61461e82612f9d565b915061462983612f9d565b9250826146395761463861457b565b5b828204905092915050565b5f8160601b9050919050565b5f61465a82614644565b9050919050565b5f61466b82614650565b9050919050565b61468361467e82612bc7565b614661565b82525050565b5f6146948285614672565b6014820191506146a48284614672565b6014820191508190509392505050565b7f496e76616c69642061646170746572506172616d7300000000000000000000005f82015250565b5f6146e8601583613823565b91506146f3826146b4565b602082019050919050565b5f6020820190508181035f830152614715816146dc565b9050919050565b7f556e737570706f727465642074785479706500000000000000000000000000005f82015250565b5f614750601283613823565b915061475b8261471c565b602082019050919050565b5f6020820190508181035f83015261477d81614744565b9050919050565b7f47617320746f6f206c6f770000000000000000000000000000000000000000005f82015250565b5f6147b8600b83613823565b91506147c382614784565b602082019050919050565b5f6020820190508181035f8301526147e5816147ac565b9050919050565b5f8160f01b9050919050565b5f614802826147ec565b9050919050565b61481a61481582612b46565b6147f8565b82525050565b5f8160c01b9050919050565b5f61483682614820565b9050919050565b61484e61484982612db3565b61482c565b82525050565b5f819050919050565b61486e61486982612d46565b614854565b82525050565b5f61487f8289614809565b60028201915061488f8288614672565b60148201915061489f8287614809565b6002820191506148af8286614672565b6014820191506148bf828561483d565b6008820191506148cf828461485d565b60208201915081905097965050505050505056fea2646970667358221220cc942395045a8452475615f574f233504fae5e17d56e8046ea82cc517d9d1c1d64736f6c634300081a0033","linkReferences":{}},"methodIdentifiers":{"defaultAdapterParams()":"272bd384","deliver(bytes32)":"0fa566fa","estimateFees(uint16,address,bytes,bool,bytes)":"40a7bb10","executor()":"c34c08e5","forceResumeReceive(uint16,bytes)":"42d65a8d","getChainId()":"3408e470","getConfig(uint16,uint16,address,uint256)":"f5ecbdbc","getInboundNonce(uint16,bytes)":"fdc07c70","getOutboundNonce(uint16,address)":"7a145748","getReceiveLibraryAddress(address)":"71ba2fd6","getReceiveVersion(address)":"da1a7c9a","getSendLibraryAddress(address)":"9c729da1","getSendVersion(address)":"096568f6","hasStoredPayload(uint16,bytes)":"0eaf6ea6","inboundNonce(uint16,bytes)":"9924d33b","isReceivingPayload()":"ca066b35","isSendingPayload()":"e97a448a","lzEndpointLookup(address)":"c81b383a","messageIds(address,address,uint64)":"437c1dfd","mockChainId()":"db14f305","oracleFee()":"f9cd3ceb","outboundNonce(uint16,address)":"b2086499","owner()":"8da5cb5b","pending(bytes32)":"1808eeb8","protocolFeeConfig()":"07d3277f","receivePayload(uint16,bytes,address,uint64,uint256,bytes)":"c2fa4813","relayerFeeConfig()":"907c5e7e","retryPayload(uint16,bytes,bytes)":"aaff5f16","send(uint16,bytes,bytes,address,address,bytes)":"c5803100","setConfig(uint16,uint16,uint256,bytes)":"cbed8b9c","setDefaultAdapterParams(bytes)":"fbba623b","setDestLzEndpoint(address,address)":"c08f15a1","setExecutor(address)":"1c3c0ea8","setOracleFee(uint256)":"b6d9ef60","setProtocolFee(uint256,uint256)":"240de277","setReceiveVersion(uint16)":"10ddb137","setRelayerPrice(uint128,uint128,uint128,uint64,uint64)":"2c365e25","setSendVersion(uint16)":"07e0db17","setVerifier(address)":"5437988d","transferOwnership(address)":"f2fde38b","verifier()":"2b7ac3f3"},"id":29}