{"abi":[{"type":"constructor","inputs":[{"name":"_name","type":"string","internalType":"string"},{"name":"_symbol","type":"string","internalType":"string"}],"stateMutability":"nonpayable"},{"type":"function","name":"allowance","inputs":[{"name":"","type":"address","internalType":"address"},{"name":"","type":"address","internalType":"address"}],"outputs":[{"name":"","type":"uint256","internalType":"uint256"}],"stateMutability":"view"},{"type":"function","name":"approve","inputs":[{"name":"spender","type":"address","internalType":"address"},{"name":"value","type":"uint256","internalType":"uint256"}],"outputs":[{"name":"","type":"bool","internalType":"bool"}],"stateMutability":"nonpayable"},{"type":"function","name":"balanceOf","inputs":[{"name":"","type":"address","internalType":"address"}],"outputs":[{"name":"","type":"uint256","internalType":"uint256"}],"stateMutability":"view"},{"type":"function","name":"burnFrom","inputs":[{"name":"from","type":"address","internalType":"address"},{"name":"value","type":"uint256","internalType":"uint256"}],"outputs":[],"stateMutability":"nonpayable"},{"type":"function","name":"decimals","inputs":[],"outputs":[{"name":"","type":"uint8","internalType":"uint8"}],"stateMutability":"view"},{"type":"function","name":"mint","inputs":[{"name":"to","type":"address","internalType":"address"},{"name":"value","type":"uint256","internalType":"uint256"}],"outputs":[],"stateMutability":"nonpayable"},{"type":"function","name":"minter","inputs":[],"outputs":[{"name":"","type":"address","internalType":"address"}],"stateMutability":"view"},{"type":"function","name":"name","inputs":[],"outputs":[{"name":"","type":"string","internalType":"string"}],"stateMutability":"view"},{"type":"function","name":"owner","inputs":[],"outputs":[{"name":"","type":"address","internalType":"address"}],"stateMutability":"view"},{"type":"function","name":"ownerMint","inputs":[{"name":"to","type":"address","internalType":"address"},{"name":"value","type":"uint256","internalType":"uint256"}],"outputs":[],"stateMutability":"nonpayable"},{"type":"function","name":"setMinter","inputs":[{"name":"_minter","type":"address","internalType":"address"}],"outputs":[],"stateMutability":"nonpayable"},{"type":"function","name":"symbol","inputs":[],"outputs":[{"name":"","type":"string","internalType":"string"}],"stateMutability":"view"},{"type":"function","name":"totalSupply","inputs":[],"outputs":[{"name":"","type":"uint256","internalType":"uint256"}],"stateMutability":"view"},{"type":"function","name":"transfer","inputs":[{"name":"to","type":"address","internalType":"address"},{"name":"value","type":"uint256","internalType":"uint256"}],"outputs":[{"name":"","type":"bool","internalType":"bool"}],"stateMutability":"nonpayable"},{"type":"function","name":"transferFrom","inputs":[{"name":"from","type":"address","internalType":"address"},{"name":"to","type":"address","internalType":"address"},{"name":"value","type":"uint256","internalType":"uint256"}],"outputs":[{"name":"","type":"bool","internalType":"bool"}],"stateMutability":"nonpayable"},{"type":"function","name":"transferOwnership","inputs":[{"name":"newOwner","type":"address","internalType":"address"}],"outputs":[],"stateMutability":"nonpayable"},{"type":"event","name":"Approval","inputs":[{"name":"owner","type":"address","indexed":true,"internalType":"address"},{"name":"spender","type":"address","indexed":true,"internalType":"address"},{"name":"value","type":"uint256","indexed":false,"internalType":"uint256"}],"anonymous":false},{"type":"event","name":"MinterUpdated","inputs":[{"name":"minter","type":"address","indexed":true,"internalType":"address"}],"anonymous":false},{"type":"event","name":"OwnershipTransferred","inputs":[{"name":"previousOwner","type":"address","indexed":true,"internalType":"address"},{"name":"newOwner","type":"address","indexed":true,"internalType":"address"}],"anonymous":false},{"type":"event","name":"Transfer","inputs":[{"name":"from","type":"address","indexed":true,"internalType":"address"},{"name":"to","type":"address","indexed":true,"internalType":"address"},{"name":"value","type":"uint256","indexed":false,"internalType":"uint256"}],"anonymous":false}],"bytecode":{"object":"0x60a0604052601260ff1660809060ff1681525034801561001d575f80fd5b50604051611ddc380380611ddc833981810160405281019061003f919061024c565b335f806101000a81548173ffffffffffffffffffffffffffffffffffffffff021916908373ffffffffffffffffffffffffffffffffffffffff1602179055503373ffffffffffffffffffffffffffffffffffffffff165f73ffffffffffffffffffffffffffffffffffffffff167f8be0079c531659141344cd1fd0a4f28419497f9722a3daafe3b4186f6b6457e060405160405180910390a381600190816100e791906104cf565b5080600290816100f791906104cf565b50505061059e565b5f604051905090565b5f80fd5b5f80fd5b5f80fd5b5f80fd5b5f601f19601f8301169050919050565b7f4e487b71000000000000000000000000000000000000000000000000000000005f52604160045260245ffd5b61015e82610118565b810181811067ffffffffffffffff8211171561017d5761017c610128565b5b80604052505050565b5f61018f6100ff565b905061019b8282610155565b919050565b5f67ffffffffffffffff8211156101ba576101b9610128565b5b6101c382610118565b9050602081019050919050565b8281835e5f83830152505050565b5f6101f06101eb846101a0565b610186565b90508281526020810184848401111561020c5761020b610114565b5b6102178482856101d0565b509392505050565b5f82601f83011261023357610232610110565b5b81516102438482602086016101de565b91505092915050565b5f806040838503121561026257610261610108565b5b5f83015167ffffffffffffffff81111561027f5761027e61010c565b5b61028b8582860161021f565b925050602083015167ffffffffffffffff8111156102ac576102ab61010c565b5b6102b88582860161021f565b9150509250929050565b5f81519050919050565b7f4e487b71000000000000000000000000000000000000000000000000000000005f52602260045260245ffd5b5f600282049050600182168061031057607f821691505b602082108103610323576103226102cc565b5b50919050565b5f819050815f5260205f209050919050565b5f6020601f8301049050919050565b5f82821b905092915050565b5f600883026103857fffffffffffffffffffffffffffffffffffffffffffffffffffffffffffffffff8261034a565b61038f868361034a565b95508019841693508086168417925050509392505050565b5f819050919050565b5f819050919050565b5f6103d36103ce6103c9846103a7565b6103b0565b6103a7565b9050919050565b5f819050919050565b6103ec836103b9565b6104006103f8826103da565b848454610356565b825550505050565b5f90565b610414610408565b61041f8184846103e3565b505050565b5b81811015610442576104375f8261040c565b600181019050610425565b5050565b601f8211156104875761045881610329565b6104618461033b565b81016020851015610470578190505b61048461047c8561033b565b830182610424565b50505b505050565b5f82821c905092915050565b5f6104a75f198460080261048c565b1980831691505092915050565b5f6104bf8383610498565b9150826002028217905092915050565b6104d8826102c2565b67ffffffffffffffff8111156104f1576104f0610128565b5b6104fb82546102f9565b610506828285610446565b5f60209050601f831160018114610537575f8415610525578287015190505b61052f85826104b4565b865550610596565b601f19841661054586610329565b5f5b8281101561056c57848901518255600182019150602085019450602081019050610547565b868310156105895784890151610585601f891682610498565b8355505b6001600288020188555050505b505050505050565b6080516118266105b65f395f61065f01526118265ff3fe608060405234801561000f575f80fd5b50600436106100fe575f3560e01c806370a0823111610095578063a9059cbb11610064578063a9059cbb1461029a578063dd62ed3e146102ca578063f2fde38b146102fa578063fca3b5aa14610316576100fe565b806370a082311461021257806379cc6790146102425780638da5cb5b1461025e57806395d89b411461027c576100fe565b806323b872dd116100d157806323b872dd1461018c578063313ce567146101bc57806340c10f19146101da578063484b973c146101f6576100fe565b806306fdde03146101025780630754617214610120578063095ea7b31461013e57806318160ddd1461016e575b5f80fd5b61010a610332565b6040516101179190611157565b60405180910390f35b6101286103be565b60405161013591906111b6565b60405180910390f35b61015860048036038101906101539190611230565b6103e3565b6040516101659190611288565b60405180910390f35b6101766104d0565b60405161018391906112b0565b60405180910390f35b6101a660048036038101906101a191906112c9565b6104d6565b6040516101b39190611288565b60405180910390f35b6101c461065d565b6040516101d19190611334565b60405180910390f35b6101f460048036038101906101ef9190611230565b610681565b005b610210600480360381019061020b9190611230565b6107e4565b005b61022c6004803603810190610227919061134d565b610945565b60405161023991906112b0565b60405180910390f35b61025c60048036038101906102579190611230565b61095a565b005b610266610b3c565b60405161027391906111b6565b60405180910390f35b610284610b5f565b6040516102919190611157565b60405180910390f35b6102b460048036038101906102af9190611230565b610beb565b6040516102c19190611288565b60405180910390f35b6102e460048036038101906102df9190611378565b610c01565b6040516102f191906112b0565b60405180910390f35b610314600480360381019061030f919061134d565b610c21565b005b610330600480360381019061032b919061134d565b610dd7565b005b6001805461033f906113e3565b80601f016020809104026020016040519081016040528092919081815260200182805461036b906113e3565b80156103b65780601f1061038d576101008083540402835291602001916103b6565b820191905f5260205f20905b81548152906001019060200180831161039957829003601f168201915b505050505081565b60065f9054906101000a900473ffffffffffffffffffffffffffffffffffffffff1681565b5f8160055f3373ffffffffffffffffffffffffffffffffffffffff1673ffffffffffffffffffffffffffffffffffffffff1681526020019081526020015f205f8573ffffffffffffffffffffffffffffffffffffffff1673ffffffffffffffffffffffffffffffffffffffff1681526020019081526020015f20819055508273ffffffffffffffffffffffffffffffffffffffff163373ffffffffffffffffffffffffffffffffffffffff167f8c5be1e5ebec7d5bd14f71427d1e84f3dd0314c0f7b2291e5b200ac8c7c3b925846040516104be91906112b0565b60405180910390a36001905092915050565b60035481565b5f8060055f8673ffffffffffffffffffffffffffffffffffffffff1673ffffffffffffffffffffffffffffffffffffffff1681526020019081526020015f205f3373ffffffffffffffffffffffffffffffffffffffff1673ffffffffffffffffffffffffffffffffffffffff1681526020019081526020015f2054905082811015610596576040517f08c379a000000000000000000000000000000000000000000000000000000000815260040161058d9061145d565b60405180910390fd5b7fffffffffffffffffffffffffffffffffffffffffffffffffffffffffffffffff81146106465782816105c991906114a8565b60055f8773ffffffffffffffffffffffffffffffffffffffff1673ffffffffffffffffffffffffffffffffffffffff1681526020019081526020015f205f3373ffffffffffffffffffffffffffffffffffffffff1673ffffffffffffffffffffffffffffffffffffffff1681526020019081526020015f20819055505b610651858585610eea565b60019150509392505050565b7f000000000000000000000000000000000000000000000000000000000000000081565b60065f9054906101000a900473ffffffffffffffffffffffffffffffffffffffff1673ffffffffffffffffffffffffffffffffffffffff163373ffffffffffffffffffffffffffffffffffffffff1614610710576040517f08c379a000000000000000000000000000000000000000000000000000000000815260040161070790611525565b60405180910390fd5b8060035f8282546107219190611543565b925050819055508060045f8473ffffffffffffffffffffffffffffffffffffffff1673ffffffffffffffffffffffffffffffffffffffff1681526020019081526020015f205f8282546107749190611543565b925050819055508173ffffffffffffffffffffffffffffffffffffffff165f73ffffffffffffffffffffffffffffffffffffffff167fddf252ad1be2c89b69c2b068fc378daa952ba7f163c4a11628f55a4df523b3ef836040516107d891906112b0565b60405180910390a35050565b5f8054906101000a900473ffffffffffffffffffffffffffffffffffffffff1673ffffffffffffffffffffffffffffffffffffffff163373ffffffffffffffffffffffffffffffffffffffff1614610871576040517f08c379a0000000000000000000000000000000000000000000000000000000008152600401610868906115c0565b60405180910390fd5b8060035f8282546108829190611543565b925050819055508060045f8473ffffffffffffffffffffffffffffffffffffffff1673ffffffffffffffffffffffffffffffffffffffff1681526020019081526020015f205f8282546108d59190611543565b925050819055508173ffffffffffffffffffffffffffffffffffffffff165f73ffffffffffffffffffffffffffffffffffffffff167fddf252ad1be2c89b69c2b068fc378daa952ba7f163c4a11628f55a4df523b3ef8360405161093991906112b0565b60405180910390a35050565b6004602052805f5260405f205f915090505481565b60065f9054906101000a900473ffffffffffffffffffffffffffffffffffffffff1673ffffffffffffffffffffffffffffffffffffffff163373ffffffffffffffffffffffffffffffffffffffff16146109e9576040517f08c379a00000000000000000000000000000000000000000000000000000000081526004016109e090611525565b60405180910390fd5b5f60045f8473ffffffffffffffffffffffffffffffffffffffff1673ffffffffffffffffffffffffffffffffffffffff1681526020019081526020015f2054905081811015610a6d576040517f08c379a0000000000000000000000000000000000000000000000000000000008152600401610a649061164e565b60405180910390fd5b8181610a7991906114a8565b60045f8573ffffffffffffffffffffffffffffffffffffffff1673ffffffffffffffffffffffffffffffffffffffff1681526020019081526020015f20819055508160035f828254610acb91906114a8565b925050819055505f73ffffffffffffffffffffffffffffffffffffffff168373ffffffffffffffffffffffffffffffffffffffff167fddf252ad1be2c89b69c2b068fc378daa952ba7f163c4a11628f55a4df523b3ef84604051610b2f91906112b0565b60405180910390a3505050565b5f8054906101000a900473ffffffffffffffffffffffffffffffffffffffff1681565b60028054610b6c906113e3565b80601f0160208091040260200160405190810160405280929190818152602001828054610b98906113e3565b8015610be35780601f10610bba57610100808354040283529160200191610be3565b820191905f5260205f20905b815481529060010190602001808311610bc657829003601f168201915b505050505081565b5f610bf7338484610eea565b6001905092915050565b6005602052815f5260405f20602052805f5260405f205f91509150505481565b5f8054906101000a900473ffffffffffffffffffffffffffffffffffffffff1673ffffffffffffffffffffffffffffffffffffffff163373ffffffffffffffffffffffffffffffffffffffff1614610cae576040517f08c379a0000000000000000000000000000000000000000000000000000000008152600401610ca5906115c0565b60405180910390fd5b5f73ffffffffffffffffffffffffffffffffffffffff168173ffffffffffffffffffffffffffffffffffffffff1603610d1c576040517f08c379a0000000000000000000000000000000000000000000000000000000008152600401610d13906116dc565b60405180910390fd5b8073ffffffffffffffffffffffffffffffffffffffff165f8054906101000a900473ffffffffffffffffffffffffffffffffffffffff1673ffffffffffffffffffffffffffffffffffffffff167f8be0079c531659141344cd1fd0a4f28419497f9722a3daafe3b4186f6b6457e060405160405180910390a3805f806101000a81548173ffffffffffffffffffffffffffffffffffffffff021916908373ffffffffffffffffffffffffffffffffffffffff16021790555050565b5f8054906101000a900473ffffffffffffffffffffffffffffffffffffffff1673ffffffffffffffffffffffffffffffffffffffff163373ffffffffffffffffffffffffffffffffffffffff1614610e64576040517f08c379a0000000000000000000000000000000000000000000000000000000008152600401610e5b906115c0565b60405180910390fd5b8060065f6101000a81548173ffffffffffffffffffffffffffffffffffffffff021916908373ffffffffffffffffffffffffffffffffffffffff1602179055508073ffffffffffffffffffffffffffffffffffffffff167fad0f299ec81a386c98df0ac27dae11dd020ed1b56963c53a7292e7a3a314539a60405160405180910390a250565b5f73ffffffffffffffffffffffffffffffffffffffff168273ffffffffffffffffffffffffffffffffffffffff1603610f58576040517f08c379a0000000000000000000000000000000000000000000000000000000008152600401610f4f90611744565b60405180910390fd5b5f60045f8573ffffffffffffffffffffffffffffffffffffffff1673ffffffffffffffffffffffffffffffffffffffff1681526020019081526020015f2054905081811015610fdc576040517f08c379a0000000000000000000000000000000000000000000000000000000008152600401610fd3906117d2565b60405180910390fd5b8181610fe891906114a8565b60045f8673ffffffffffffffffffffffffffffffffffffffff1673ffffffffffffffffffffffffffffffffffffffff1681526020019081526020015f20819055508160045f8573ffffffffffffffffffffffffffffffffffffffff1673ffffffffffffffffffffffffffffffffffffffff1681526020019081526020015f205f8282546110759190611543565b925050819055508273ffffffffffffffffffffffffffffffffffffffff168473ffffffffffffffffffffffffffffffffffffffff167fddf252ad1be2c89b69c2b068fc378daa952ba7f163c4a11628f55a4df523b3ef846040516110d991906112b0565b60405180910390a350505050565b5f81519050919050565b5f82825260208201905092915050565b8281835e5f83830152505050565b5f601f19601f8301169050919050565b5f611129826110e7565b61113381856110f1565b9350611143818560208601611101565b61114c8161110f565b840191505092915050565b5f6020820190508181035f83015261116f818461111f565b905092915050565b5f73ffffffffffffffffffffffffffffffffffffffff82169050919050565b5f6111a082611177565b9050919050565b6111b081611196565b82525050565b5f6020820190506111c95f8301846111a7565b92915050565b5f80fd5b6111dc81611196565b81146111e6575f80fd5b50565b5f813590506111f7816111d3565b92915050565b5f819050919050565b61120f816111fd565b8114611219575f80fd5b50565b5f8135905061122a81611206565b92915050565b5f8060408385031215611246576112456111cf565b5b5f611253858286016111e9565b92505060206112648582860161121c565b9150509250929050565b5f8115159050919050565b6112828161126e565b82525050565b5f60208201905061129b5f830184611279565b92915050565b6112aa816111fd565b82525050565b5f6020820190506112c35f8301846112a1565b92915050565b5f805f606084860312156112e0576112df6111cf565b5b5f6112ed868287016111e9565b93505060206112fe868287016111e9565b925050604061130f8682870161121c565b9150509250925092565b5f60ff82169050919050565b61132e81611319565b82525050565b5f6020820190506113475f830184611325565b92915050565b5f60208284031215611362576113616111cf565b5b5f61136f848285016111e9565b91505092915050565b5f806040838503121561138e5761138d6111cf565b5b5f61139b858286016111e9565b92505060206113ac858286016111e9565b9150509250929050565b7f4e487b71000000000000000000000000000000000000000000000000000000005f52602260045260245ffd5b5f60028204905060018216806113fa57607f821691505b60208210810361140d5761140c6113b6565b5b50919050565b7f45524332303a20696e73756666696369656e7420616c6c6f77616e63650000005f82015250565b5f611447601d836110f1565b915061145282611413565b602082019050919050565b5f6020820190508181035f8301526114748161143b565b9050919050565b7f4e487b71000000000000000000000000000000000000000000000000000000005f52601160045260245ffd5b5f6114b2826111fd565b91506114bd836111fd565b92508282039050818111156114d5576114d461147b565b5b92915050565b7f45524332303a206e6f74206d696e7465720000000000000000000000000000005f82015250565b5f61150f6011836110f1565b915061151a826114db565b602082019050919050565b5f6020820190508181035f83015261153c81611503565b9050919050565b5f61154d826111fd565b9150611558836111fd565b92508282019050808211156115705761156f61147b565b5b92915050565b7f4f776e61626c653a2063616c6c6572206973206e6f7420746865206f776e65725f82015250565b5f6115aa6020836110f1565b91506115b582611576565b602082019050919050565b5f6020820190508181035f8301526115d78161159e565b9050919050565b7f45524332303a206275726e20616d6f756e7420657863656564732062616c616e5f8201527f6365000000000000000000000000000000000000000000000000000000000000602082015250565b5f6116386022836110f1565b9150611643826115de565b604082019050919050565b5f6020820190508181035f8301526116658161162c565b9050919050565b7f4f776e61626c653a206e6577206f776e657220697320746865207a65726f20615f8201527f6464726573730000000000000000000000000000000000000000000000000000602082015250565b5f6116c66026836110f1565b91506116d18261166c565b604082019050919050565b5f6020820190508181035f8301526116f3816116ba565b9050919050565b7f45524332303a207472616e7366657220746f207a65726f0000000000000000005f82015250565b5f61172e6017836110f1565b9150611739826116fa565b602082019050919050565b5f6020820190508181035f83015261175b81611722565b9050919050565b7f45524332303a207472616e7366657220616d6f756e74206578636565647320625f8201527f616c616e63650000000000000000000000000000000000000000000000000000602082015250565b5f6117bc6026836110f1565b91506117c782611762565b604082019050919050565b5f6020820190508181035f8301526117e9816117b0565b905091905056fea26469706673582212202eaae777374a72f6c898a3c33cb101ff160e46f3c149eee262e368cfa170d97164736f6c634300081a0033","linkReferences":{}},"methodIdentifiers":{"allowance(address,address)":"dd62ed3e","approve(address,uint256)":"095ea7b3","balanceOf(address)":"70a08231","burnFrom(address,uint256)":"79cc6790","decimals()":"313ce567","mint(address,uint256)":"40c10f19","minter()":"07546172","name()":"06fdde03","owner()":"8da5cb5b","ownerMint(address,uint256)":"484b973c","setMinter(address)":"fca3b5aa","symbol()":"95d89b41","totalSupply()":"18160ddd","transfer(address,uint256)":"a9059cbb","transferFrom(address,address,uint256)":"23b872dd","transferOwnership(address)":"f2fde38b"},"id":6}