{"abi":[{"type":"constructor","inputs":[{"name":"_chainId","type":"uint16","internalType":"uint16"}],"stateMutability":"nonpayable"},{"type":"function","name":"blockNextMsg","inputs":[],"outputs":[],"stateMutability":"nonpayable"},{"type":"function","name":"defaultAdapterParams","inputs":[],"outputs":[{"name":"","type":"bytes","internalType":"bytes"}],"stateMutability":"view"},{"type":"function","name":"estimateFees","inputs":[{"name":"_dstChainId","type":"uint16","internalType":"uint16"},{"name":"_userApplication","type":"address","internalType":"address"},{"name":"_payload","type":"bytes","internalType":"bytes"},{"name":"_payInZRO","type":"bool","internalType":"bool"},{"name":"_adapterParams","type":"bytes","internalType":"bytes"}],"outputs":[{"name":"nativeFee","type":"uint256","internalType":"uint256"},{"name":"zroFee","type":"uint256","internalType":"uint256"}],"stateMutability":"view"},{"type":"function","name":"forceResumeReceive","inputs":[{"name":"_srcChainId","type":"uint16","internalType":"uint16"},{"name":"_path","type":"bytes","internalType":"bytes"}],"outputs":[],"stateMutability":"nonpayable"},{"type":"function","name":"getChainId","inputs":[],"outputs":[{"name":"","type":"uint16","internalType":"uint16"}],"stateMutability":"view"},{"type":"function","name":"getConfig","inputs":[{"name":"","type":"uint16","internalType":"uint16"},{"name":"","type":"uint16","internalType":"uint16"},{"name":"","type":"address","internalType":"address"},{"name":"","type":"uint256","internalType":"uint256"}],"outputs":[{"name":"","type":"bytes","internalType":"bytes"}],"stateMutability":"pure"},{"type":"function","name":"getInboundNonce","inputs":[{"name":"_chainID","type":"uint16","internalType":"uint16"},{"name":"_path","type":"bytes","internalType":"bytes"}],"outputs":[{"name":"","type":"uint64","internalType":"uint64"}],"stateMutability":"view"},{"type":"function","name":"getLengthOfQueue","inputs":[{"name":"_srcChainId","type":"uint16","internalType":"uint16"},{"name":"_srcAddress","type":"bytes","internalType":"bytes"}],"outputs":[{"name":"","type":"uint256","internalType":"uint256"}],"stateMutability":"view"},{"type":"function","name":"getOutboundNonce","inputs":[{"name":"_chainID","type":"uint16","internalType":"uint16"},{"name":"_srcAddress","type":"address","internalType":"address"}],"outputs":[{"name":"","type":"uint64","internalType":"uint64"}],"stateMutability":"view"},{"type":"function","name":"getReceiveLibraryAddress","inputs":[{"name":"","type":"address","internalType":"address"}],"outputs":[{"name":"","type":"address","internalType":"address"}],"stateMutability":"view"},{"type":"function","name":"getReceiveVersion","inputs":[{"name":"","type":"address","internalType":"address"}],"outputs":[{"name":"","type":"uint16","internalType":"uint16"}],"stateMutability":"pure"},{"type":"function","name":"getSendLibraryAddress","inputs":[{"name":"","type":"address","internalType":"address"}],"outputs":[{"name":"","type":"address","internalType":"address"}],"stateMutability":"view"},{"type":"function","name":"getSendVersion","inputs":[{"name":"","type":"address","internalType":"address"}],"outputs":[{"name":"","type":"uint16","internalType":"uint16"}],"stateMutability":"pure"},{"type":"function","name":"hasStoredPayload","inputs":[{"name":"_srcChainId","type":"uint16","internalType":"uint16"},{"name":"_path","type":"bytes","internalType":"bytes"}],"outputs":[{"name":"","type":"bool","internalType":"bool"}],"stateMutability":"view"},{"type":"function","name":"inboundNonce","inputs":[{"name":"","type":"uint16","internalType":"uint16"},{"name":"","type":"bytes","internalType":"bytes"}],"outputs":[{"name":"","type":"uint64","internalType":"uint64"}],"stateMutability":"view"},{"type":"function","name":"isReceivingPayload","inputs":[],"outputs":[{"name":"","type":"bool","internalType":"bool"}],"stateMutability":"view"},{"type":"function","name":"isSendingPayload","inputs":[],"outputs":[{"name":"","type":"bool","internalType":"bool"}],"stateMutability":"view"},{"type":"function","name":"lzEndpointLookup","inputs":[{"name":"","type":"address","internalType":"address"}],"outputs":[{"name":"","type":"address","internalType":"address"}],"stateMutability":"view"},{"type":"function","name":"mockChainId","inputs":[],"outputs":[{"name":"","type":"uint16","internalType":"uint16"}],"stateMutability":"view"},{"type":"function","name":"msgsToDeliver","inputs":[{"name":"","type":"uint16","internalType":"uint16"},{"name":"","type":"bytes","internalType":"bytes"},{"name":"","type":"uint256","internalType":"uint256"}],"outputs":[{"name":"dstAddress","type":"address","internalType":"address"},{"name":"nonce","type":"uint64","internalType":"uint64"},{"name":"payload","type":"bytes","internalType":"bytes"}],"stateMutability":"view"},{"type":"function","name":"nextMsgBlocked","inputs":[],"outputs":[{"name":"","type":"bool","internalType":"bool"}],"stateMutability":"view"},{"type":"function","name":"oracleFee","inputs":[],"outputs":[{"name":"","type":"uint256","internalType":"uint256"}],"stateMutability":"view"},{"type":"function","name":"outboundNonce","inputs":[{"name":"","type":"uint16","internalType":"uint16"},{"name":"","type":"address","internalType":"address"}],"outputs":[{"name":"","type":"uint64","internalType":"uint64"}],"stateMutability":"view"},{"type":"function","name":"protocolFeeConfig","inputs":[],"outputs":[{"name":"zroFee","type":"uint256","internalType":"uint256"},{"name":"nativeBP","type":"uint256","internalType":"uint256"}],"stateMutability":"view"},{"type":"function","name":"receivePayload","inputs":[{"name":"_srcChainId","type":"uint16","internalType":"uint16"},{"name":"_path","type":"bytes","internalType":"bytes"},{"name":"_dstAddress","type":"address","internalType":"address"},{"name":"_nonce","type":"uint64","internalType":"uint64"},{"name":"_gasLimit","type":"uint256","internalType":"uint256"},{"name":"_payload","type":"bytes","internalType":"bytes"}],"outputs":[],"stateMutability":"nonpayable"},{"type":"function","name":"relayerFeeConfig","inputs":[],"outputs":[{"name":"dstPriceRatio","type":"uint128","internalType":"uint128"},{"name":"dstGasPriceInWei","type":"uint128","internalType":"uint128"},{"name":"dstNativeAmtCap","type":"uint128","internalType":"uint128"},{"name":"baseGas","type":"uint64","internalType":"uint64"},{"name":"gasPerByte","type":"uint64","internalType":"uint64"}],"stateMutability":"view"},{"type":"function","name":"retryPayload","inputs":[{"name":"_srcChainId","type":"uint16","internalType":"uint16"},{"name":"_path","type":"bytes","internalType":"bytes"},{"name":"_payload","type":"bytes","internalType":"bytes"}],"outputs":[],"stateMutability":"nonpayable"},{"type":"function","name":"send","inputs":[{"name":"_chainId","type":"uint16","internalType":"uint16"},{"name":"_path","type":"bytes","internalType":"bytes"},{"name":"_payload","type":"bytes","internalType":"bytes"},{"name":"_refundAddress","type":"address","internalType":"address payable"},{"name":"_zroPaymentAddress","type":"address","internalType":"address"},{"name":"_adapterParams","type":"bytes","internalType":"bytes"}],"outputs":[],"stateMutability":"payable"},{"type":"function","name":"setConfig","inputs":[{"name":"","type":"uint16","internalType":"uint16"},{"name":"","type":"uint16","internalType":"uint16"},{"name":"","type":"uint256","internalType":"uint256"},{"name":"","type":"bytes","internalType":"bytes"}],"outputs":[],"stateMutability":"nonpayable"},{"type":"function","name":"setDefaultAdapterParams","inputs":[{"name":"_adapterParams","type":"bytes","internalType":"bytes"}],"outputs":[],"stateMutability":"nonpayable"},{"type":"function","name":"setDestLzEndpoint","inputs":[{"name":"destAddr","type":"address","internalType":"address"},{"name":"lzEndpointAddr","type":"address","internalType":"address"}],"outputs":[],"stateMutability":"nonpayable"},{"type":"function","name":"setOracleFee","inputs":[{"name":"_oracleFee","type":"uint256","internalType":"uint256"}],"outputs":[],"stateMutability":"nonpayable"},{"type":"function","name":"setProtocolFee","inputs":[{"name":"_zroFee","type":"uint256","internalType":"uint256"},{"name":"_nativeBP","type":"uint256","internalType":"uint256"}],"outputs":[],"stateMutability":"nonpayable"},{"type":"function","name":"setReceiveVersion","inputs":[{"name":"","type":"uint16","internalType":"uint16"}],"outputs":[],"stateMutability":"nonpayable"},{"type":"function","name":"setRelayerPrice","inputs":[{"name":"_dstPriceRatio","type":"uint128","internalType":"uint128"},{"name":"_dstGasPriceInWei","type":"uint128","internalType":"uint128"},{"name":"_dstNativeAmtCap","type":"uint128","internalType":"uint128"},{"name":"_baseGas","type":"uint64","internalType":"uint64"},{"name":"_gasPerByte","type":"uint64","internalType":"uint64"}],"outputs":[],"stateMutability":"nonpayable"},{"type":"function","name":"setSendVersion","inputs":[{"name":"","type":"uint16","internalType":"uint16"}],"outputs":[],"stateMutability":"nonpayable"},{"type":"function","name":"storedPayload","inputs":[{"name":"","type":"uint16","internalType":"uint16"},{"name":"","type":"bytes","internalType":"bytes"}],"outputs":[{"name":"payloadLength","type":"uint64","internalType":"uint64"},{"name":"dstAddress","type":"address","internalType":"address"},{"name":"payloadHash","type":"bytes32","internalType":"bytes32"}],"stateMutability":"view"},{"type":"event","name":"PayloadCleared","inputs":[{"name":"srcChainId","type":"uint16","indexed":false,"internalType":"uint16"},{"name":"srcAddress","type":"bytes","indexed":false,"internalType":"bytes"},{"name":"nonce","type":"uint64","indexed":false,"internalType":"uint64"},{"name":"dstAddress","type":"address","indexed":false,"internalType":"address"}],"anonymous":false},{"type":"event","name":"PayloadStored","inputs":[{"name":"srcChainId","type":"uint16","indexed":false,"internalType":"uint16"},{"name":"srcAddress","type":"bytes","indexed":false,"internalType":"bytes"},{"name":"dstAddress","type":"address","indexed":false,"internalType":"address"},{"name":"nonce","type":"uint64","indexed":false,"internalType":"uint64"},{"name":"payload","type":"bytes","indexed":false,"internalType":"bytes"},{"name":"reason","type":"bytes","indexed":false,"internalType":"bytes"}],"anonymous":false},{"type":"event","name":"UaForceResumeReceive","inputs":[{"name":"chainId","type":"uint16","indexed":false,"internalType":"uint16"},{"name":"srcAddress","type":"bytes","indexed":false,"internalType":"bytes"}],"anonymous":false},{"type":"event","name":"ValueTransferFailed","inputs":[{"name":"to","type":"address","indexed":true,"internalType":"address"},{"name":"quantity","type":"uint256","indexed":true,"internalType":"uint256"}],"anonymous":false}],"bytecode":{"object":"0x60806040526001600c5f6101000a81548160ff021916908360ff1602179055506001600c60016101000a81548160ff021916908360ff160217905550348015610046575f80fd5b50604051614f68380380614f68833981810160405281019061006891906102f6565b8060015f6101000a81548161ffff021916908361ffff1602179055506040518060a001604052806402540be4006fffffffffffffffffffffffffffffffff1681526020016402540be4006fffffffffffffffffffffffffffffffff168152602001678ac7230489e800006fffffffffffffffffffffffffffffffff168152602001606467ffffffffffffffff168152602001600167ffffffffffffffff1681525060025f820151815f015f6101000a8154816fffffffffffffffffffffffffffffffff02191690836fffffffffffffffffffffffffffffffff1602179055506020820151815f0160106101000a8154816fffffffffffffffffffffffffffffffff02191690836fffffffffffffffffffffffffffffffff1602179055506040820151816001015f6101000a8154816fffffffffffffffffffffffffffffffff02191690836fffffffffffffffffffffffffffffffff16021790555060608201518160010160106101000a81548167ffffffffffffffff021916908367ffffffffffffffff16021790555060808201518160010160186101000a81548167ffffffffffffffff021916908367ffffffffffffffff1602179055509050506040518060400160405280670de0b6b3a764000081526020016103e881525060045f820151815f015560208201518160010155905050662386f26fc1000060068190555061027a62030d4061028f60201b60201c565b60079081610288919061055b565b50506106a9565b60606001826040516020016102a592919061067e565b6040516020818303038152906040529050919050565b5f80fd5b5f61ffff82169050919050565b6102d5816102bf565b81146102df575f80fd5b50565b5f815190506102f0816102cc565b92915050565b5f6020828403121561030b5761030a6102bb565b5b5f610318848285016102e2565b91505092915050565b5f81519050919050565b7f4e487b71000000000000000000000000000000000000000000000000000000005f52604160045260245ffd5b7f4e487b71000000000000000000000000000000000000000000000000000000005f52602260045260245ffd5b5f600282049050600182168061039c57607f821691505b6020821081036103af576103ae610358565b5b50919050565b5f819050815f5260205f209050919050565b5f6020601f8301049050919050565b5f82821b905092915050565b5f600883026104117fffffffffffffffffffffffffffffffffffffffffffffffffffffffffffffffff826103d6565b61041b86836103d6565b95508019841693508086168417925050509392505050565b5f819050919050565b5f819050919050565b5f61045f61045a61045584610433565b61043c565b610433565b9050919050565b5f819050919050565b61047883610445565b61048c61048482610466565b8484546103e2565b825550505050565b5f90565b6104a0610494565b6104ab81848461046f565b505050565b5b818110156104ce576104c35f82610498565b6001810190506104b1565b5050565b601f821115610513576104e4816103b5565b6104ed846103c7565b810160208510156104fc578190505b610510610508856103c7565b8301826104b0565b50505b505050565b5f82821c905092915050565b5f6105335f1984600802610518565b1980831691505092915050565b5f61054b8383610524565b9150826002028217905092915050565b61056482610321565b67ffffffffffffffff81111561057d5761057c61032b565b5b6105878254610385565b6105928282856104d2565b5f60209050601f8311600181146105c3575f84156105b1578287015190505b6105bb8582610540565b865550610622565b601f1984166105d1866103b5565b5f5b828110156105f8578489015182556001820191506020850194506020810190506105d3565b868310156106155784890151610611601f891682610524565b8355505b6001600288020188555050505b505050505050565b5f8160f01b9050919050565b5f6106408261062a565b9050919050565b610658610653826102bf565b610636565b82525050565b5f819050919050565b61067861067382610433565b61065e565b82525050565b5f6106898285610647565b6002820191506106998284610667565b6020820191508190509392505050565b6148b2806106b65f395ff3fe608060405260043610610219575f3560e01c80639924d33b11610122578063ca066b35116100aa578063e97a448a1161006e578063e97a448a1461081b578063f5ecbdbc14610845578063f9cd3ceb14610881578063fbba623b146108ab578063fdc07c70146108d357610219565b8063ca066b351461074d578063cbed8b9c14610777578063d23104f11461079f578063da1a7c9a146107b5578063db14f305146107f157610219565b8063b6d9ef60116100f1578063b6d9ef601461067d578063c08f15a1146106a5578063c2fa4813146106cd578063c5803100146106f5578063c81b383a1461071157610219565b80639924d33b146105a15780639c729da1146105dd578063aaff5f1614610619578063b20864991461064157610219565b80633408e470116101a557806371ba2fd61161017457806371ba2fd61461048157806376a386dc146104bd5780637a145748146104fb5780637f6df8e614610537578063907c5e7e1461057357610219565b80633408e470146103c85780633e0dd83e146103f257806340a7bb101461041c57806342d65a8d1461045957610219565b806310ddb137116101ec57806310ddb137146102e857806312a9ee6b14610310578063240de2771461034e578063272bd384146103765780632c365e25146103a057610219565b806307d3277f1461021d57806307e0db1714610248578063096568f6146102705780630eaf6ea6146102ac575b5f80fd5b348015610228575f80fd5b5061023161090f565b60405161023f929190612c41565b60405180910390f35b348015610253575f80fd5b5061026e60048036038101906102699190612cb0565b610920565b005b34801561027b575f80fd5b5061029660048036038101906102919190612d35565b610923565b6040516102a39190612d6f565b60405180910390f35b3480156102b7575f80fd5b506102d260048036038101906102cd9190612de9565b61092d565b6040516102df9190612e60565b60405180910390f35b3480156102f3575f80fd5b5061030e60048036038101906103099190612cb0565b61097c565b005b34801561031b575f80fd5b5061033660048036038101906103319190612fdb565b61097f565b604051610345939291906130d8565b60405180910390f35b348015610359575f80fd5b50610374600480360381019061036f9190613114565b610a9a565b005b348015610381575f80fd5b5061038a610ab1565b6040516103979190613152565b60405180910390f35b3480156103ab575f80fd5b506103c660048036038101906103c191906131e1565b610b3d565b005b3480156103d3575f80fd5b506103dc610c4c565b6040516103e99190612d6f565b60405180910390f35b3480156103fd575f80fd5b50610406610c62565b6040516104139190612e60565b60405180910390f35b348015610427575f80fd5b50610442600480360381019061043d9190613282565b610c75565b604051610450929190612c41565b60405180910390f35b348015610464575f80fd5b5061047f600480360381019061047a9190612de9565b610d70565b005b34801561048c575f80fd5b506104a760048036038101906104a29190612d35565b610f45565b6040516104b49190613331565b60405180910390f35b3480156104c8575f80fd5b506104e360048036038101906104de919061334a565b610f4e565b6040516104f2939291906133bc565b60405180910390f35b348015610506575f80fd5b50610521600480360381019061051c91906133f1565b610fc9565b60405161052e919061342f565b60405180910390f35b348015610542575f80fd5b5061055d60048036038101906105589190612de9565b61103a565b60405161056a9190613448565b60405180910390f35b34801561057e575f80fd5b5061058761107f565b604051610598959493929190613470565b60405180910390f35b3480156105ac575f80fd5b506105c760048036038101906105c2919061334a565b61111b565b6040516105d4919061342f565b60405180910390f35b3480156105e8575f80fd5b5061060360048036038101906105fe9190612d35565b611164565b6040516106109190613331565b60405180910390f35b348015610624575f80fd5b5061063f600480360381019061063a91906134c1565b61116d565b005b34801561064c575f80fd5b50610667600480360381019061066291906133f1565b61141d565b604051610674919061342f565b60405180910390f35b348015610688575f80fd5b506106a3600480360381019061069e9190613552565b61144e565b005b3480156106b0575f80fd5b506106cb60048036038101906106c6919061357d565b611458565b005b3480156106d8575f80fd5b506106f360048036038101906106ee91906135bb565b6114d6565b005b61070f600480360381019061070a91906136c0565b611e3e565b005b34801561071c575f80fd5b5061073760048036038101906107329190612d35565b61246f565b6040516107449190613331565b60405180910390f35b348015610758575f80fd5b5061076161249e565b60405161076e9190612e60565b60405180910390f35b348015610782575f80fd5b5061079d600480360381019061079891906137a2565b6124bd565b005b3480156107aa575f80fd5b506107b36124c3565b005b3480156107c0575f80fd5b506107db60048036038101906107d69190612d35565b6124df565b6040516107e89190612d6f565b60405180910390f35b3480156107fc575f80fd5b506108056124e9565b6040516108129190612d6f565b60405180910390f35b348015610826575f80fd5b5061082f6124fc565b60405161083c9190612e60565b60405180910390f35b348015610850575f80fd5b5061086b60048036038101906108669190613822565b61251a565b6040516108789190613152565b60405180910390f35b34801561088c575f80fd5b50610895612535565b6040516108a29190613448565b60405180910390f35b3480156108b6575f80fd5b506108d160048036038101906108cc9190613886565b61253b565b005b3480156108de575f80fd5b506108f960048036038101906108f49190612de9565b61254e565b604051610906919061342f565b60405180910390f35b6004805f0154908060010154905082565b50565b5f60019050919050565b5f80600a5f8661ffff1661ffff1681526020019081526020015f2084846040516109589291906138fb565b908152602001604051809103902090505f801b816001015414159150509392505050565b50565b600b602052825f5260405f208280516020810182018051848252602083016020850120818352809550505050505081815481106109ba575f80fd5b905f5260205f2090600202015f925092505050805f015f9054906101000a900473ffffffffffffffffffffffffffffffffffffffff1690805f0160149054906101000a900467ffffffffffffffff1690806001018054610a1990613940565b80601f0160208091040260200160405190810160405280929190818152602001828054610a4590613940565b8015610a905780601f10610a6757610100808354040283529160200191610a90565b820191905f5260205f20905b815481529060010190602001808311610a7357829003601f168201915b5050505050905083565b8160045f0181905550806004600101819055505050565b60078054610abe90613940565b80601f0160208091040260200160405190810160405280929190818152602001828054610aea90613940565b8015610b355780601f10610b0c57610100808354040283529160200191610b35565b820191905f5260205f20905b815481529060010190602001808311610b1857829003601f168201915b505050505081565b8460025f015f6101000a8154816fffffffffffffffffffffffffffffffff02191690836fffffffffffffffffffffffffffffffff1602179055508360025f0160106101000a8154816fffffffffffffffffffffffffffffffff02191690836fffffffffffffffffffffffffffffffff1602179055508260026001015f6101000a8154816fffffffffffffffffffffffffffffffff02191690836fffffffffffffffffffffffffffffffff16021790555081600260010160106101000a81548167ffffffffffffffff021916908367ffffffffffffffff16021790555080600260010160186101000a81548167ffffffffffffffff021916908367ffffffffffffffff1602179055505050505050565b5f60015f9054906101000a900461ffff16905090565b600160029054906101000a900460ff1681565b5f805f80845111610d0e5760078054610c8d90613940565b80601f0160208091040260200160405190810160405280929190818152602001828054610cb990613940565b8015610d045780601f10610cdb57610100808354040283529160200191610d04565b820191905f5260205f20905b815481529060010190602001808311610ce757829003601f168201915b5050505050610d10565b835b90505f610d228960018a8a51866125a3565b90505f610d3287836006546127dc565b905086610d425780945084610d47565b809350835b506006548286610d57919061399d565b610d61919061399d565b94505050509550959350505050565b5f600a5f8561ffff1661ffff1681526020019081526020015f208383604051610d9a9291906138fb565b908152602001604051809103902090505f801b816001015403610df2576040517f08c379a0000000000000000000000000000000000000000000000000000000008152600401610de990613a2a565b60405180910390fd5b3373ffffffffffffffffffffffffffffffffffffffff16815f0160089054906101000a900473ffffffffffffffffffffffffffffffffffffffff1673ffffffffffffffffffffffffffffffffffffffff1614610e83576040517f08c379a0000000000000000000000000000000000000000000000000000000008152600401610e7a90613a92565b60405180910390fd5b5f815f015f6101000a81548167ffffffffffffffff021916908367ffffffffffffffff1602179055505f815f0160086101000a81548173ffffffffffffffffffffffffffffffffffffffff021916908373ffffffffffffffffffffffffffffffffffffffff1602179055505f801b81600101819055507f23d2684f396e92a6e2ff2d16f98e6fea00d50cb27a64b531bc0748f730211f98848484604051610f2c93929190613adc565b60405180910390a1610f3f848484612822565b50505050565b5f309050919050565b600a602052815f5260405f20818051602081018201805184825260208301602085012081835280955050505050505f9150915050805f015f9054906101000a900467ffffffffffffffff1690805f0160089054906101000a900473ffffffffffffffffffffffffffffffffffffffff16908060010154905083565b5f60095f8461ffff1661ffff1681526020019081526020015f205f8373ffffffffffffffffffffffffffffffffffffffff1673ffffffffffffffffffffffffffffffffffffffff1681526020019081526020015f205f9054906101000a900467ffffffffffffffff16905092915050565b5f600b5f8561ffff1661ffff1681526020019081526020015f2083836040516110649291906138fb565b90815260200160405180910390208054905090509392505050565b6002805f015f9054906101000a90046fffffffffffffffffffffffffffffffff1690805f0160109054906101000a90046fffffffffffffffffffffffffffffffff1690806001015f9054906101000a90046fffffffffffffffffffffffffffffffff16908060010160109054906101000a900467ffffffffffffffff16908060010160189054906101000a900467ffffffffffffffff16905085565b6008602052815f5260405f20818051602081018201805184825260208301602085012081835280955050505050505f915091509054906101000a900467ffffffffffffffff1681565b5f309050919050565b5f600a5f8761ffff1661ffff1681526020019081526020015f2085856040516111979291906138fb565b908152602001604051809103902090505f801b8160010154036111ef576040517f08c379a00000000000000000000000000000000000000000000000000000000081526004016111e690613a2a565b60405180910390fd5b805f015f9054906101000a900467ffffffffffffffff1667ffffffffffffffff168383905014801561123b5750806001015483836040516112319291906138fb565b6040518091039020145b61127a576040517f08c379a000000000000000000000000000000000000000000000000000000000815260040161127190613b56565b60405180910390fd5b5f815f0160089054906101000a900473ffffffffffffffffffffffffffffffffffffffff1690505f825f015f6101000a81548167ffffffffffffffff021916908367ffffffffffffffff1602179055505f825f0160086101000a81548173ffffffffffffffffffffffffffffffffffffffff021916908373ffffffffffffffffffffffffffffffffffffffff1602179055505f801b82600101819055505f60085f8961ffff1661ffff1681526020019081526020015f2087876040516113419291906138fb565b90815260200160405180910390205f9054906101000a900467ffffffffffffffff1690508173ffffffffffffffffffffffffffffffffffffffff16621d3567898989858a8a6040518763ffffffff1660e01b81526004016113a796959493929190613b74565b5f604051808303815f87803b1580156113be575f80fd5b505af11580156113d0573d5f803e3d5ffd5b505050507f612434f39581c8e7d99746c9c20c6eb0ce8c0eb99f007c5719d620841370957d888888848660405161140b959493929190613bc9565b60405180910390a15050505050505050565b6009602052815f5260405f20602052805f5260405f205f915091509054906101000a900467ffffffffffffffff1681565b8060068190555050565b805f808473ffffffffffffffffffffffffffffffffffffffff1673ffffffffffffffffffffffffffffffffffffffff1681526020019081526020015f205f6101000a81548173ffffffffffffffffffffffffffffffffffffffff021916908373ffffffffffffffffffffffffffffffffffffffff1602179055505050565b600160ff16600c60019054906101000a900460ff1660ff161461152e576040517f08c379a000000000000000000000000000000000000000000000000000000000815260040161152590613c85565b60405180910390fd5b6002600c60016101000a81548160ff021916908360ff1602179055505f600a5f8a61ffff1661ffff1681526020019081526020015f2088886040516115749291906138fb565b9081526020016040518091039020905060085f8a61ffff1661ffff1681526020019081526020015f2088886040516115ad9291906138fb565b90815260200160405180910390205f81819054906101000a900467ffffffffffffffff166115da90613ca3565b91906101000a81548167ffffffffffffffff021916908367ffffffffffffffff160217905567ffffffffffffffff168567ffffffffffffffff1614611654576040517f08c379a000000000000000000000000000000000000000000000000000000000815260040161164b90613d1c565b60405180910390fd5b5f801b816001015414611a72575f600b5f8b61ffff1661ffff1681526020019081526020015f20898960405161168b9291906138fb565b908152602001604051809103902090505f60405180606001604052808973ffffffffffffffffffffffffffffffffffffffff1681526020018867ffffffffffffffff16815260200186868080601f0160208091040260200160405190810160405280939291908181526020018383808284375f81840152601f19601f8201169050808301925050505050505081525090505f828054905011156119b8578181908060018154018082558091505060019003905f5260205f2090600202015f909190919091505f820151815f015f6101000a81548173ffffffffffffffffffffffffffffffffffffffff021916908373ffffffffffffffffffffffffffffffffffffffff1602179055506020820151815f0160146101000a81548167ffffffffffffffff021916908367ffffffffffffffff16021790555060408201518160010190816117d79190613ed7565b5050505f5b600183805490506117ed9190613fa6565b8110156119075782818154811061180757611806613fd9565b5b905f5260205f20906002020183600183611821919061399d565b8154811061183257611831613fd9565b5b905f5260205f2090600202015f82015f9054906101000a900473ffffffffffffffffffffffffffffffffffffffff16815f015f6101000a81548173ffffffffffffffffffffffffffffffffffffffff021916908373ffffffffffffffffffffffffffffffffffffffff1602179055505f820160149054906101000a900467ffffffffffffffff16815f0160146101000a81548167ffffffffffffffff021916908367ffffffffffffffff160217905550600182018160010190816118f6919061401b565b5090505080806001019150506117dc565b5080825f8154811061191c5761191b613fd9565b5b905f5260205f2090600202015f820151815f015f6101000a81548173ffffffffffffffffffffffffffffffffffffffff021916908373ffffffffffffffffffffffffffffffffffffffff1602179055506020820151815f0160146101000a81548167ffffffffffffffff021916908367ffffffffffffffff16021790555060408201518160010190816119af9190613ed7565b50905050611a6b565b8181908060018154018082558091505060019003905f5260205f2090600202015f909190919091505f820151815f015f6101000a81548173ffffffffffffffffffffffffffffffffffffffff021916908373ffffffffffffffffffffffffffffffffffffffff1602179055506020820151815f0160146101000a81548167ffffffffffffffff021916908367ffffffffffffffff1602179055506040820151816001019081611a679190613ed7565b5050505b5050611e17565b600160029054906101000a900460ff1615611c045760405180606001604052808484905067ffffffffffffffff1681526020018773ffffffffffffffffffffffffffffffffffffffff1681526020018484604051611ad19291906138fb565b6040518091039020815250600a5f8b61ffff1661ffff1681526020019081526020015f208989604051611b059291906138fb565b90815260200160405180910390205f820151815f015f6101000a81548167ffffffffffffffff021916908367ffffffffffffffff1602179055506020820151815f0160086101000a81548173ffffffffffffffffffffffffffffffffffffffff021916908373ffffffffffffffffffffffffffffffffffffffff160217905550604082015181600101559050507f0f9e4d95b62f08222d612b5ab92039cd8fbbbea550a95e8df9f927436bbdf5db8989898989888860405180602001604052805f815250604051611bdd989796959493929190614100565b60405180910390a15f600160026101000a81548160ff021916908315150217905550611e16565b8573ffffffffffffffffffffffffffffffffffffffff16621d3567858b8b8b8a89896040518863ffffffff1660e01b8152600401611c4796959493929190613b74565b5f604051808303815f88803b158015611c5e575f80fd5b5087f193505050508015611c70575060015b611e14573d805f8114611c9e576040519150601f19603f3d011682016040523d82523d5f602084013e611ca3565b606091505b5060405180606001604052808585905067ffffffffffffffff1681526020018873ffffffffffffffffffffffffffffffffffffffff1681526020018585604051611cee9291906138fb565b6040518091039020815250600a5f8c61ffff1661ffff1681526020019081526020015f208a8a604051611d229291906138fb565b90815260200160405180910390205f820151815f015f6101000a81548167ffffffffffffffff021916908367ffffffffffffffff1602179055506020820151815f0160086101000a81548173ffffffffffffffffffffffffffffffffffffffff021916908373ffffffffffffffffffffffffffffffffffffffff160217905550604082015181600101559050507f0f9e4d95b62f08222d612b5ab92039cd8fbbbea550a95e8df9f927436bbdf5db8a8a8a8a8a898988604051611dec989796959493929190614100565b60405180910390a15f600160026101000a81548160ff02191690831515021790555050611e15565b5b5b5b506001600c60016101000a81548160ff021916908360ff1602179055505050505050505050565b600160ff16600c5f9054906101000a900460ff1660ff1614611e95576040517f08c379a0000000000000000000000000000000000000000000000000000000008152600401611e8c906141e8565b60405180910390fd5b6002600c5f6101000a81548160ff021916908360ff1602179055506028865114611ef4576040517f08c379a0000000000000000000000000000000000000000000000000000000008152600401611eeb90614276565b60405180910390fd5b5f601487015190505f805f8373ffffffffffffffffffffffffffffffffffffffff1673ffffffffffffffffffffffffffffffffffffffff1681526020019081526020015f205f9054906101000a900473ffffffffffffffffffffffffffffffffffffffff1690505f73ffffffffffffffffffffffffffffffffffffffff168173ffffffffffffffffffffffffffffffffffffffff1603611fc9576040517f08c379a0000000000000000000000000000000000000000000000000000000008152600401611fc090614304565b60405180910390fd5b5f808451116120605760078054611fdf90613940565b80601f016020809104026020016040519081016040528092919081815260200182805461200b90613940565b80156120565780601f1061202d57610100808354040283529160200191612056565b820191905f5260205f20905b81548152906001019060200180831161203957829003601f168201915b5050505050612062565b835b90505f6120e48b338b8b8080601f0160208091040260200160405190810160405280939291908181526020018383808284375f81840152601f19601f820116905080830192505050505050505f73ffffffffffffffffffffffffffffffffffffffff168a73ffffffffffffffffffffffffffffffffffffffff16141586610c75565b5090508034101561212a576040517f08c379a000000000000000000000000000000000000000000000000000000000815260040161212190614392565b60405180910390fd5b5f60095f8d61ffff1661ffff1681526020019081526020015f205f3373ffffffffffffffffffffffffffffffffffffffff1673ffffffffffffffffffffffffffffffffffffffff1681526020019081526020015f205f81819054906101000a900467ffffffffffffffff1661219e90613ca3565b91906101000a81548167ffffffffffffffff021916908367ffffffffffffffff160217905590505f82346121d29190613fa6565b90505f811115612286575f8973ffffffffffffffffffffffffffffffffffffffff1682604051612201906143d3565b5f6040518083038185875af1925050503d805f811461223b576040519150601f19603f3d011682016040523d82523d5f602084013e612240565b606091505b5050905080612284576040517f08c379a000000000000000000000000000000000000000000000000000000000815260040161227b90614431565b60405180910390fd5b505b5f805f61229287612ab5565b935093509350505f821115612355575f8173ffffffffffffffffffffffffffffffffffffffff16836040516122c6906143d3565b5f6040518083038185875af1925050503d805f8114612300576040519150601f19603f3d011682016040523d82523d5f602084013e612305565b606091505b505090508061235357828273ffffffffffffffffffffffffffffffffffffffff167f2c7a964ca3de5ec1d42d9822f9bbd0eb142a59cc9f855e9d93813b773192c7a360405160405180910390a35b505b5f338a604051602001612369929190614494565b60405160208183030381529060405290505f8f8f8080601f0160208091040260200160405190810160405280939291908181526020018383808284375f81840152601f19601f8201169050808301925050505050505090508973ffffffffffffffffffffffffffffffffffffffff1663c2fa481360015f9054906101000a900461ffff16848e8b8a876040518763ffffffff1660e01b8152600401612413969594939291906144bf565b5f604051808303815f87803b15801561242a575f80fd5b505af115801561243c573d5f803e3d5ffd5b5050505050505050505050505050506001600c5f6101000a81548160ff021916908360ff16021790555050505050505050565b5f602052805f5260405f205f915054906101000a900473ffffffffffffffffffffffffffffffffffffffff1681565b5f600260ff16600c60019054906101000a900460ff1660ff1614905090565b50505050565b60018060026101000a81548160ff021916908315150217905550565b5f60019050919050565b60015f9054906101000a900461ffff1681565b5f600260ff16600c5f9054906101000a900460ff1660ff1614905090565b606060405180602001604052805f8152509050949350505050565b60065481565b806007908161254a9190613ed7565b5050565b5f60085f8561ffff1661ffff1681526020019081526020015f2083836040516125789291906138fb565b90815260200160405180910390205f9054906101000a900467ffffffffffffffff1690509392505050565b5f805f806125b085612ab5565b509250925092505f60028461ffff1603612648578160026001015f9054906101000a90046fffffffffffffffffffffffffffffffff166fffffffffffffffffffffffffffffffff161015612639576040517f08c379a00000000000000000000000000000000000000000000000000000000081526004016126309061459c565b60405180910390fd5b8181612645919061399d565b90505b5f83600260010160109054906101000a900467ffffffffffffffff1667ffffffffffffffff16612678919061399d565b60025f0160109054906101000a90046fffffffffffffffffffffffffffffffff166fffffffffffffffffffffffffffffffff166126b591906145ba565b905080826126c3919061399d565b91505f6402540be40060025f015f9054906101000a90046fffffffffffffffffffffffffffffffff166fffffffffffffffffffffffffffffffff168461270991906145ba565b6127139190614628565b90505f6402540be40060025f015f9054906101000a90046fffffffffffffffffffffffffffffffff16600260010160189054906101000a900467ffffffffffffffff1667ffffffffffffffff1660025f0160109054906101000a90046fffffffffffffffffffffffffffffffff1661278b9190614658565b6127959190614658565b61279f9190614694565b6fffffffffffffffffffffffffffffffff169050808a6127bf91906145ba565b826127ca919061399d565b97505050505050505095945050505050565b5f83156127ef5760045f0154905061281b565b6127106004600101548385612804919061399d565b61280e91906145ba565b6128189190614628565b90505b9392505050565b5f600b5f8561ffff1661ffff1681526020019081526020015f20838360405161284c9291906138fb565b908152602001604051809103902090505b5f81805490501115612aaf575f816001838054905061287c9190613fa6565b8154811061288d5761288c613fd9565b5b905f5260205f2090600202016040518060600160405290815f82015f9054906101000a900473ffffffffffffffffffffffffffffffffffffffff1673ffffffffffffffffffffffffffffffffffffffff1673ffffffffffffffffffffffffffffffffffffffff1681526020015f820160149054906101000a900467ffffffffffffffff1667ffffffffffffffff1667ffffffffffffffff16815260200160018201805461293990613940565b80601f016020809104026020016040519081016040528092919081815260200182805461296590613940565b80156129b05780601f10612987576101008083540402835291602001916129b0565b820191905f5260205f20905b81548152906001019060200180831161299357829003601f168201915b5050505050815250509050805f015173ffffffffffffffffffffffffffffffffffffffff16621d3567868686856020015186604001516040518663ffffffff1660e01b8152600401612a069594939291906146c4565b5f604051808303815f87803b158015612a1d575f80fd5b505af1158015612a2f573d5f803e3d5ffd5b5050505081805480612a4457612a43614717565b5b600190038181905f5260205f2090600202015f8082015f6101000a81549073ffffffffffffffffffffffffffffffffffffffff02191690555f820160146101000a81549067ffffffffffffffff0219169055600182015f612aa59190612bd1565b505090555061285d565b50505050565b5f805f80602285511480612aca575060428551115b612b09576040517f08c379a0000000000000000000000000000000000000000000000000000000008152600401612b009061478e565b60405180910390fd5b600285015193506022850151925060018461ffff161480612b2e575060028461ffff16145b612b6d576040517f08c379a0000000000000000000000000000000000000000000000000000000008152600401612b64906147f6565b60405180910390fd5b5f8311612baf576040517f08c379a0000000000000000000000000000000000000000000000000000000008152600401612ba69061485e565b60405180910390fd5b60028461ffff1603612bca5760428501519150605685015190505b9193509193565b508054612bdd90613940565b5f825580601f10612bee5750612c0b565b601f0160209004905f5260205f2090810190612c0a9190612c0e565b5b50565b5b80821115612c25575f815f905550600101612c0f565b5090565b5f819050919050565b612c3b81612c29565b82525050565b5f604082019050612c545f830185612c32565b612c616020830184612c32565b9392505050565b5f604051905090565b5f80fd5b5f80fd5b5f61ffff82169050919050565b612c8f81612c79565b8114612c99575f80fd5b50565b5f81359050612caa81612c86565b92915050565b5f60208284031215612cc557612cc4612c71565b5b5f612cd284828501612c9c565b91505092915050565b5f73ffffffffffffffffffffffffffffffffffffffff82169050919050565b5f612d0482612cdb565b9050919050565b612d1481612cfa565b8114612d1e575f80fd5b50565b5f81359050612d2f81612d0b565b92915050565b5f60208284031215612d4a57612d49612c71565b5b5f612d5784828501612d21565b91505092915050565b612d6981612c79565b82525050565b5f602082019050612d825f830184612d60565b92915050565b5f80fd5b5f80fd5b5f80fd5b5f8083601f840112612da957612da8612d88565b5b8235905067ffffffffffffffff811115612dc657612dc5612d8c565b5b602083019150836001820283011115612de257612de1612d90565b5b9250929050565b5f805f60408486031215612e0057612dff612c71565b5b5f612e0d86828701612c9c565b935050602084013567ffffffffffffffff811115612e2e57612e2d612c75565b5b612e3a86828701612d94565b92509250509250925092565b5f8115159050919050565b612e5a81612e46565b82525050565b5f602082019050612e735f830184612e51565b92915050565b5f80fd5b5f601f19601f8301169050919050565b7f4e487b71000000000000000000000000000000000000000000000000000000005f52604160045260245ffd5b612ec382612e7d565b810181811067ffffffffffffffff82111715612ee257612ee1612e8d565b5b80604052505050565b5f612ef4612c68565b9050612f008282612eba565b919050565b5f67ffffffffffffffff821115612f1f57612f1e612e8d565b5b612f2882612e7d565b9050602081019050919050565b828183375f83830152505050565b5f612f55612f5084612f05565b612eeb565b905082815260208101848484011115612f7157612f70612e79565b5b612f7c848285612f35565b509392505050565b5f82601f830112612f9857612f97612d88565b5b8135612fa8848260208601612f43565b91505092915050565b612fba81612c29565b8114612fc4575f80fd5b50565b5f81359050612fd581612fb1565b92915050565b5f805f60608486031215612ff257612ff1612c71565b5b5f612fff86828701612c9c565b935050602084013567ffffffffffffffff8111156130205761301f612c75565b5b61302c86828701612f84565b925050604061303d86828701612fc7565b9150509250925092565b61305081612cfa565b82525050565b5f67ffffffffffffffff82169050919050565b61307281613056565b82525050565b5f81519050919050565b5f82825260208201905092915050565b8281835e5f83830152505050565b5f6130aa82613078565b6130b48185613082565b93506130c4818560208601613092565b6130cd81612e7d565b840191505092915050565b5f6060820190506130eb5f830186613047565b6130f86020830185613069565b818103604083015261310a81846130a0565b9050949350505050565b5f806040838503121561312a57613129612c71565b5b5f61313785828601612fc7565b925050602061314885828601612fc7565b9150509250929050565b5f6020820190508181035f83015261316a81846130a0565b905092915050565b5f6fffffffffffffffffffffffffffffffff82169050919050565b61319681613172565b81146131a0575f80fd5b50565b5f813590506131b18161318d565b92915050565b6131c081613056565b81146131ca575f80fd5b50565b5f813590506131db816131b7565b92915050565b5f805f805f60a086880312156131fa576131f9612c71565b5b5f613207888289016131a3565b9550506020613218888289016131a3565b9450506040613229888289016131a3565b935050606061323a888289016131cd565b925050608061324b888289016131cd565b9150509295509295909350565b61326181612e46565b811461326b575f80fd5b50565b5f8135905061327c81613258565b92915050565b5f805f805f60a0868803121561329b5761329a612c71565b5b5f6132a888828901612c9c565b95505060206132b988828901612d21565b945050604086013567ffffffffffffffff8111156132da576132d9612c75565b5b6132e688828901612f84565b93505060606132f78882890161326e565b925050608086013567ffffffffffffffff81111561331857613317612c75565b5b61332488828901612f84565b9150509295509295909350565b5f6020820190506133445f830184613047565b92915050565b5f80604083850312156133605761335f612c71565b5b5f61336d85828601612c9c565b925050602083013567ffffffffffffffff81111561338e5761338d612c75565b5b61339a85828601612f84565b9150509250929050565b5f819050919050565b6133b6816133a4565b82525050565b5f6060820190506133cf5f830186613069565b6133dc6020830185613047565b6133e960408301846133ad565b949350505050565b5f806040838503121561340757613406612c71565b5b5f61341485828601612c9c565b925050602061342585828601612d21565b9150509250929050565b5f6020820190506134425f830184613069565b92915050565b5f60208201905061345b5f830184612c32565b92915050565b61346a81613172565b82525050565b5f60a0820190506134835f830188613461565b6134906020830187613461565b61349d6040830186613461565b6134aa6060830185613069565b6134b76080830184613069565b9695505050505050565b5f805f805f606086880312156134da576134d9612c71565b5b5f6134e788828901612c9c565b955050602086013567ffffffffffffffff81111561350857613507612c75565b5b61351488828901612d94565b9450945050604086013567ffffffffffffffff81111561353757613536612c75565b5b61354388828901612d94565b92509250509295509295909350565b5f6020828403121561356757613566612c71565b5b5f61357484828501612fc7565b91505092915050565b5f806040838503121561359357613592612c71565b5b5f6135a085828601612d21565b92505060206135b185828601612d21565b9150509250929050565b5f805f805f805f8060c0898b0312156135d7576135d6612c71565b5b5f6135e48b828c01612c9c565b985050602089013567ffffffffffffffff81111561360557613604612c75565b5b6136118b828c01612d94565b975097505060406136248b828c01612d21565b95505060606136358b828c016131cd565b94505060806136468b828c01612fc7565b93505060a089013567ffffffffffffffff81111561366757613666612c75565b5b6136738b828c01612d94565b92509250509295985092959890939650565b5f61368f82612cdb565b9050919050565b61369f81613685565b81146136a9575f80fd5b50565b5f813590506136ba81613696565b92915050565b5f805f805f805f60c0888a0312156136db576136da612c71565b5b5f6136e88a828b01612c9c565b975050602088013567ffffffffffffffff81111561370957613708612c75565b5b6137158a828b01612f84565b965050604088013567ffffffffffffffff81111561373657613735612c75565b5b6137428a828b01612d94565b955095505060606137558a828b016136ac565b93505060806137668a828b01612d21565b92505060a088013567ffffffffffffffff81111561378757613786612c75565b5b6137938a828b01612f84565b91505092959891949750929550565b5f805f80608085870312156137ba576137b9612c71565b5b5f6137c787828801612c9c565b94505060206137d887828801612c9c565b93505060406137e987828801612fc7565b925050606085013567ffffffffffffffff81111561380a57613809612c75565b5b61381687828801612f84565b91505092959194509250565b5f805f806080858703121561383a57613839612c71565b5b5f61384787828801612c9c565b945050602061385887828801612c9c565b935050604061386987828801612d21565b925050606061387a87828801612fc7565b91505092959194509250565b5f6020828403121561389b5761389a612c71565b5b5f82013567ffffffffffffffff8111156138b8576138b7612c75565b5b6138c484828501612f84565b91505092915050565b5f81905092915050565b5f6138e283856138cd565b93506138ef838584612f35565b82840190509392505050565b5f6139078284866138d7565b91508190509392505050565b7f4e487b71000000000000000000000000000000000000000000000000000000005f52602260045260245ffd5b5f600282049050600182168061395757607f821691505b60208210810361396a57613969613913565b5b50919050565b7f4e487b71000000000000000000000000000000000000000000000000000000005f52601160045260245ffd5b5f6139a782612c29565b91506139b283612c29565b92508282019050808211156139ca576139c9613970565b5b92915050565b5f82825260208201905092915050565b7f4c617965725a65726f4d6f636b3a206e6f2073746f726564207061796c6f61645f82015250565b5f613a146020836139d0565b9150613a1f826139e0565b602082019050919050565b5f6020820190508181035f830152613a4181613a08565b9050919050565b7f4c617965725a65726f4d6f636b3a20696e76616c69642063616c6c65720000005f82015250565b5f613a7c601d836139d0565b9150613a8782613a48565b602082019050919050565b5f6020820190508181035f830152613aa981613a70565b9050919050565b5f613abb8385613082565b9350613ac8838584612f35565b613ad183612e7d565b840190509392505050565b5f604082019050613aef5f830186612d60565b8181036020830152613b02818486613ab0565b9050949350505050565b7f4c617965725a65726f4d6f636b3a20696e76616c6964207061796c6f616400005f82015250565b5f613b40601e836139d0565b9150613b4b82613b0c565b602082019050919050565b5f6020820190508181035f830152613b6d81613b34565b9050919050565b5f608082019050613b875f830189612d60565b8181036020830152613b9a818789613ab0565b9050613ba96040830186613069565b8181036060830152613bbc818486613ab0565b9050979650505050505050565b5f608082019050613bdc5f830188612d60565b8181036020830152613bef818688613ab0565b9050613bfe6040830185613069565b613c0b6060830184613047565b9695505050505050565b7f4c617965725a65726f4d6f636b3a206e6f2072656365697665207265656e74725f8201527f616e637900000000000000000000000000000000000000000000000000000000602082015250565b5f613c6f6024836139d0565b9150613c7a82613c15565b604082019050919050565b5f6020820190508181035f830152613c9c81613c63565b9050919050565b5f613cad82613056565b915067ffffffffffffffff8203613cc757613cc6613970565b5b600182019050919050565b7f4c617965725a65726f4d6f636b3a2077726f6e67206e6f6e63650000000000005f82015250565b5f613d06601a836139d0565b9150613d1182613cd2565b602082019050919050565b5f6020820190508181035f830152613d3381613cfa565b9050919050565b5f819050815f5260205f209050919050565b5f6020601f8301049050919050565b5f82821b905092915050565b5f60088302613d967fffffffffffffffffffffffffffffffffffffffffffffffffffffffffffffffff82613d5b565b613da08683613d5b565b95508019841693508086168417925050509392505050565b5f819050919050565b5f613ddb613dd6613dd184612c29565b613db8565b612c29565b9050919050565b5f819050919050565b613df483613dc1565b613e08613e0082613de2565b848454613d67565b825550505050565b5f90565b613e1c613e10565b613e27818484613deb565b505050565b5b81811015613e4a57613e3f5f82613e14565b600181019050613e2d565b5050565b601f821115613e8f57613e6081613d3a565b613e6984613d4c565b81016020851015613e78578190505b613e8c613e8485613d4c565b830182613e2c565b50505b505050565b5f82821c905092915050565b5f613eaf5f1984600802613e94565b1980831691505092915050565b5f613ec78383613ea0565b9150826002028217905092915050565b613ee082613078565b67ffffffffffffffff811115613ef957613ef8612e8d565b5b613f038254613940565b613f0e828285613e4e565b5f60209050601f831160018114613f3f575f8415613f2d578287015190505b613f378582613ebc565b865550613f9e565b601f198416613f4d86613d3a565b5f5b82811015613f7457848901518255600182019150602085019450602081019050613f4f565b86831015613f915784890151613f8d601f891682613ea0565b8355505b6001600288020188555050505b505050505050565b5f613fb082612c29565b9150613fbb83612c29565b9250828203905081811115613fd357613fd2613970565b5b92915050565b7f4e487b71000000000000000000000000000000000000000000000000000000005f52603260045260245ffd5b5f8154905061401481613940565b9050919050565b8181036140295750506140fe565b61403282614006565b67ffffffffffffffff81111561404b5761404a612e8d565b5b6140558254613940565b614060828285613e4e565b5f601f83116001811461408d575f841561407b578287015490505b6140858582613ebc565b8655506140f7565b601f19841661409b87613d3a565b96506140a686613d3a565b5f5b828110156140cd578489015482556001820191506001850194506020810190506140a8565b868310156140ea57848901546140e6601f891682613ea0565b8355505b6001600288020188555050505b5050505050505b565b5f60c0820190506141135f83018b612d60565b818103602083015261412681898b613ab0565b90506141356040830188613047565b6141426060830187613069565b8181036080830152614155818587613ab0565b905081810360a083015261416981846130a0565b90509998505050505050505050565b7f4c617965725a65726f4d6f636b3a206e6f2073656e64207265656e7472616e635f8201527f7900000000000000000000000000000000000000000000000000000000000000602082015250565b5f6141d26021836139d0565b91506141dd82614178565b604082019050919050565b5f6020820190508181035f8301526141ff816141c6565b9050919050565b7f4c617965725a65726f4d6f636b3a20696e636f72726563742072656d6f7465205f8201527f616464726573732073697a650000000000000000000000000000000000000000602082015250565b5f614260602c836139d0565b915061426b82614206565b604082019050919050565b5f6020820190508181035f83015261428d81614254565b9050919050565b7f4c617965725a65726f4d6f636b3a2064657374696e6174696f6e204c617965725f8201527f5a65726f20456e64706f696e74206e6f7420666f756e64000000000000000000602082015250565b5f6142ee6037836139d0565b91506142f982614294565b604082019050919050565b5f6020820190508181035f83015261431b816142e2565b9050919050565b7f4c617965725a65726f4d6f636b3a206e6f7420656e6f756768206e61746976655f8201527f20666f7220666565730000000000000000000000000000000000000000000000602082015250565b5f61437c6029836139d0565b915061438782614322565b604082019050919050565b5f6020820190508181035f8301526143a981614370565b9050919050565b50565b5f6143be5f836138cd565b91506143c9826143b0565b5f82019050919050565b5f6143dd826143b3565b9150819050919050565b7f4c617965725a65726f4d6f636b3a206661696c656420746f20726566756e64005f82015250565b5f61441b601f836139d0565b9150614426826143e7565b602082019050919050565b5f6020820190508181035f8301526144488161440f565b9050919050565b5f8160601b9050919050565b5f6144658261444f565b9050919050565b5f6144768261445b565b9050919050565b61448e61448982612cfa565b61446c565b82525050565b5f61449f828561447d565b6014820191506144af828461447d565b6014820191508190509392505050565b5f60c0820190506144d25f830189612d60565b81810360208301526144e481886130a0565b90506144f36040830187613047565b6145006060830186613069565b61450d6080830185612c32565b81810360a083015261451f81846130a0565b9050979650505050505050565b7f4c617965725a65726f4d6f636b3a206473744e6174697665416d7420746f6f205f8201527f6c61726765200000000000000000000000000000000000000000000000000000602082015250565b5f6145866026836139d0565b91506145918261452c565b604082019050919050565b5f6020820190508181035f8301526145b38161457a565b9050919050565b5f6145c482612c29565b91506145cf83612c29565b92508282026145dd81612c29565b915082820484148315176145f4576145f3613970565b5b5092915050565b7f4e487b71000000000000000000000000000000000000000000000000000000005f52601260045260245ffd5b5f61463282612c29565b915061463d83612c29565b92508261464d5761464c6145fb565b5b828204905092915050565b5f61466282613172565b915061466d83613172565b925082820261467b81613172565b915080821461468d5761468c613970565b5b5092915050565b5f61469e82613172565b91506146a983613172565b9250826146b9576146b86145fb565b5b828204905092915050565b5f6080820190506146d75f830188612d60565b81810360208301526146ea818688613ab0565b90506146f96040830185613069565b818103606083015261470b81846130a0565b90509695505050505050565b7f4e487b71000000000000000000000000000000000000000000000000000000005f52603160045260245ffd5b7f496e76616c69642061646170746572506172616d7300000000000000000000005f82015250565b5f6147786015836139d0565b915061478382614744565b602082019050919050565b5f6020820190508181035f8301526147a58161476c565b9050919050565b7f556e737570706f727465642074785479706500000000000000000000000000005f82015250565b5f6147e06012836139d0565b91506147eb826147ac565b602082019050919050565b5f6020820190508181035f83015261480d816147d4565b9050919050565b7f47617320746f6f206c6f770000000000000000000000000000000000000000005f82015250565b5f614848600b836139d0565b915061485382614814565b602082019050919050565b5f6020820190508181035f8301526148758161483c565b905091905056fea26469706673582212209c303493ce1318c46024e17aed45f822ddc8f1810ff21b61f34fe90b29a5627b64736f6c634300081a0033","linkReferences":{}},"methodIdentifiers":{"blockNextMsg()":"d23104f1","defaultAdapterParams()":"272bd384","estimateFees(uint16,address,bytes,bool,bytes)":"40a7bb10","forceResumeReceive(uint16,bytes)":"42d65a8d","getChainId()":"3408e470","getConfig(uint16,uint16,address,uint256)":"f5ecbdbc","getInboundNonce(uint16,bytes)":"fdc07c70","getLengthOfQueue(uint16,bytes)":"7f6df8e6","getOutboundNonce(uint16,address)":"7a145748","getReceiveLibraryAddress(address)":"71ba2fd6","getReceiveVersion(address)":"da1a7c9a","getSendLibraryAddress(address)":"9c729da1","getSendVersion(address)":"096568f6","hasStoredPayload(uint16,bytes)":"0eaf6ea6","inboundNonce(uint16,bytes)":"9924d33b","isReceivingPayload()":"ca066b35","isSendingPayload()":"e97a448a","lzEndpointLookup(address)":"c81b383a","mockChainId()":"db14f305","msgsToDeliver(uint16,bytes,uint256)":"12a9ee6b","nextMsgBlocked()":"3e0dd83e","oracleFee()":"f9cd3ceb","outboundNonce(uint16,address)":"b2086499","protocolFeeConfig()":"07d3277f","receivePayload(uint16,bytes,address,uint64,uint256,bytes)":"c2fa4813","relayerFeeConfig()":"907c5e7e","retryPayload(uint16,bytes,bytes)":"aaff5f16","send(uint16,bytes,bytes,address,address,bytes)":"c5803100","setConfig(uint16,uint16,uint256,bytes)":"cbed8b9c","setDefaultAdapterParams(bytes)":"fbba623b","setDestLzEndpoint(address,address)":"c08f15a1","setOracleFee(uint256)":"b6d9ef60","setProtocolFee(uint256,uint256)":"240de277","setReceiveVersion(uint16)":"10ddb137","setRelayerPrice(uint128,uint128,uint128,uint64,uint64)":"2c365e25","setSendVersion(uint16)":"07e0db17","storedPayload(uint16,bytes)":"76a386dc"},"id":18}