{"abi":[{"type":"constructor","inputs":[],"stateMutability":"nonpayable"},{"type":"function","name":"allowance","inputs":[{"name":"","type":"address","internalType":"address"},{"name":"","type":"address","internalType":"address"}],"outputs":[{"name":"","type":"uint256","internalType":"uint256"}],"stateMutability":"view"},{"type":"function","name":"approve","inputs":[{"name":"spender","type":"address","internalType":"address"},{"name":"value","type":"uint256","internalType":"uint256"}],"outputs":[{"name":"","type":"bool","internalType":"bool"}],"stateMutability":"nonpayable"},{"type":"function","name":"balanceOf","inputs":[{"name":"","type":"address","internalType":"address"}],"outputs":[{"name":"","type":"uint256","internalType":"uint256"}],"stateMutability":"view"},{"type":"function","name":"burnFrom","inputs":[{"name":"from","type":"address","internalType":"address"},{"name":"value","type":"uint256","internalType":"uint256"}],"outputs":[],"stateMutability":"nonpayable"},{"type":"function","name":"decimals","inputs":[],"outputs":[{"name":"","type":"uint8","internalType":"uint8"}],"stateMutability":"view"},{"type":"function","name":"mint","inputs":[{"name":"to","type":"address","internalType":"address"},{"name":"value","type":"uint256","internalType":"uint256"}],"outputs":[],"stateMutability":"nonpayable"},{"type":"function","name":"minter","inputs":[],"outputs":[{"name":"","type":"address","internalType":"address"}],"stateMutability":"view"},{"type":"function","name":"name","inputs":[],"outputs":[{"name":"","type":"string","internalType":"string"}],"stateMutability":"view"},{"type":"function","name":"owner","inputs":[],"outputs":[{"name":"","type":"address","internalType":"address"}],"stateMutability":"view"},{"type":"function","name":"ownerMint","inputs":[{"name":"to","type":"address","internalType":"address"},{"name":"value","type":"uint256","internalType":"uint256"}],"outputs":[],"stateMutability":"nonpayable"},{"type":"function","name":"setMinter","inputs":[{"name":"_minter","type":"address","internalType":"address"}],"outputs":[],"stateMutability":"nonpayable"},{"type":"function","name":"symbol","inputs":[],"outputs":[{"name":"","type":"string","internalType":"string"}],"stateMutability":"view"},{"type":"function","name":"totalSupply","inputs":[],"outputs":[{"name":"","type":"uint256","internalType":"uint256"}],"stateMutability":"view"},{"type":"function","name":"transfer","inputs":[{"name":"to","type":"address","internalType":"address"},{"name":"value","type":"uint256","internalType":"uint256"}],"outputs":[{"name":"","type":"bool","internalType":"bool"}],"stateMutability":"nonpayable"},{"type":"function","name":"transferFrom","inputs":[{"name":"from","type":"address","internalType":"address"},{"name":"to","type":"address","internalType":"address"},{"name":"value","type":"uint256","internalType":"uint256"}],"outputs":[{"name":"","type":"bool","internalType":"bool"}],"stateMutability":"nonpayable"},{"type":"function","name":"transferOwnership","inputs":[{"name":"newOwner","type":"address","internalType":"address"}],"outputs":[],"stateMutability":"nonpayable"},{"type":"event","name":"Approval","inputs":[{"name":"owner","type":"address","indexed":true,"internalType":"address"},{"name":"spender","type":"address","indexed":true,"internalType":"address"},{"name":"value","type":"uint256","indexed":false,"internalType":"uint256"}],"anonymous":false},{"type":"event","name":"MinterUpdated","inputs":[{"name":"minter","type":"address","indexed":true,"internalType":"address"}],"anonymous":false},{"type":"event","name":"OwnershipTransferred","inputs":[{"name":"previousOwner","type":"address","indexed":true,"internalType":"address"},{"name":"newOwner","type":"address","indexed":true,"internalType":"address"}],"anonymous":false},{"type":"event","name":"Transfer","inputs":[{"name":"from","type":"address","indexed":true,"internalType":"address"},{"name":"to","type":"address","indexed":true,"internalType":"address"},{"name":"value","type":"uint256","indexed":false,"internalType":"uint256"}],"anonymous":false}],"bytecode":{"object":"0x60a06040523461035557604080519081016001600160401b0381118282101761026857604090815260068252652a37b5b2b72160d11b602083015280519081016001600160401b038111828210176102685760405260038152622a25a160e91b60208201525f80546001600160a01b031916339081178255907f8be0079c531659141344cd1fd0a4f28419497f9722a3daafe3b4186f6b6457e08180a3601260805281516001600160401b03811161026857600154600181811c9116801561034b575b602082101461024a57601f81116102e8575b50602092601f821160011461028757928192935f9261027c575b50508160011b915f199060031b1c1916176001555b80516001600160401b03811161026857600254600181811c9116801561025e575b602082101461024a57601f81116101e7575b50602091601f8211600114610187579181925f9261017c575b50508160011b915f199060031b1c1916176002555b604051610ac7908161035a8239608051816105bf0152f35b015190505f8061014f565b601f1982169260025f52805f20915f5b8581106101cf575083600195106101b7575b505050811b01600255610164565b01515f1960f88460031b161c191690555f80806101a9565b91926020600181928685015181550194019201610197565b60025f527f405787fa12a823e0f2b7631cc41b3ba8828b3321ca811111fa75cd3aa3bb5ace601f830160051c81019160208410610240575b601f0160051c01905b8181106102355750610136565b5f8155600101610228565b909150819061021f565b634e487b7160e01b5f52602260045260245ffd5b90607f1690610124565b634e487b7160e01b5f52604160045260245ffd5b015190505f806100ee565b601f1982169360015f52805f20915f5b8681106102d057508360019596106102b8575b505050811b01600155610103565b01515f1960f88460031b161c191690555f80806102aa565b91926020600181928685015181550194019201610297565b60015f527fb10e2d527612073b26eecdfd717e6a320cf44b4afac2b0732d9fcbe2b7fa0cf6601f830160051c81019160208410610341575b601f0160051c01905b81811061033657506100d4565b5f8155600101610329565b9091508190610320565b90607f16906100c2565b5f80fdfe60806040526004361015610011575f80fd5b5f3560e01c806306fdde03146107785780630754617214610750578063095ea7b3146106d757806318160ddd146106ba57806323b872dd146105e3578063313ce567146105a657806340c10f1914610563578063484b973c146104e857806370a08231146104b057806379cc6790146103cf5780638da5cb5b146103a857806395d89b411461028a578063a9059cbb14610259578063dd62ed3e14610209578063f2fde38b1461013f5763fca3b5aa146100c9575f80fd5b3461013b57602036600319011261013b576100e2610877565b6100f660018060a01b035f54163314610911565b600680546001600160a01b0319166001600160a01b039290921691821790557fad0f299ec81a386c98df0ac27dae11dd020ed1b56963c53a7292e7a3a314539a5f80a2005b5f80fd5b3461013b57602036600319011261013b57610158610877565b5f546001600160a01b03811691610170338414610911565b6001600160a01b03169182156101b55782907f8be0079c531659141344cd1fd0a4f28419497f9722a3daafe3b4186f6b6457e05f80a36001600160a01b031916175f55005b60405162461bcd60e51b815260206004820152602660248201527f4f776e61626c653a206e6577206f776e657220697320746865207a65726f206160448201526564647265737360d01b6064820152608490fd5b3461013b57604036600319011261013b57610222610877565b61022a61088d565b6001600160a01b039182165f908152600560209081526040808320949093168252928352819020549051908152f35b3461013b57604036600319011261013b5761027f610275610877565b602435903361095c565b602060405160018152f35b3461013b575f36600319011261013b576040515f6002548060011c9060018116801561039e575b60208310811461038a5782855290811561036e5750600114610318575b50819003601f01601f191681019067ffffffffffffffff8211818310176103045760408290528190610300908261084d565b0390f35b634e487b7160e01b5f52604160045260245ffd5b60025f9081529091507f405787fa12a823e0f2b7631cc41b3ba8828b3321ca811111fa75cd3aa3bb5ace5b828210610358575060209150820101826102ce565b6001816020925483858801015201910190610343565b90506020925060ff191682840152151560051b820101826102ce565b634e487b7160e01b5f52602260045260245ffd5b91607f16916102b1565b3461013b575f36600319011261013b575f546040516001600160a01b039091168152602090f35b3461013b57604036600319011261013b576103e8610877565b6024359061040160018060a01b036006541633146108c4565b6001600160a01b03165f81815260046020526040902054918083106104605760208161043c5f80516020610a72833981519152935f966108a3565b848652600483526040862055610454816003546108a3565b600355604051908152a3005b60405162461bcd60e51b815260206004820152602260248201527f45524332303a206275726e20616d6f756e7420657863656564732062616c616e604482015261636560f01b6064820152608490fd5b3461013b57602036600319011261013b576001600160a01b036104d1610877565b165f526004602052602060405f2054604051908152f35b3461013b57604036600319011261013b57610501610877565b5f5f80516020610a7283398151915260206024359361052a60018060a01b038554163314610911565b61053685600354610904565b60035560018060a01b0316938484526004825260408420610558828254610904565b9055604051908152a3005b3461013b57604036600319011261013b5761057c610877565b5f5f80516020610a7283398151915260206024359361052a60018060a01b036006541633146108c4565b3461013b575f36600319011261013b57602060405160ff7f0000000000000000000000000000000000000000000000000000000000000000168152f35b3461013b57606036600319011261013b576105fc610877565b61060461088d565b6001600160a01b0382165f8181526005602090815260408083203384529091529020549260443592918385106106755761027f94846001820161064a575b50505061095c565b610653916108a3565b5f91825260056020908152604080842033855290915290912055848084610642565b60405162461bcd60e51b815260206004820152601d60248201527f45524332303a20696e73756666696369656e7420616c6c6f77616e63650000006044820152606490fd5b3461013b575f36600319011261013b576020600354604051908152f35b3461013b57604036600319011261013b576106f0610877565b335f8181526005602090815260408083206001600160a01b03909516808452948252918290206024359081905591519182527f8c5be1e5ebec7d5bd14f71427d1e84f3dd0314c0f7b2291e5b200ac8c7c3b92591a3602060405160018152f35b3461013b575f36600319011261013b576006546040516001600160a01b039091168152602090f35b3461013b575f36600319011261013b576040515f6001548060011c90600181168015610843575b60208310811461038a5782855290811561036e57506001146107ed5750819003601f01601f191681019067ffffffffffffffff8211818310176103045760408290528190610300908261084d565b60015f9081529091507fb10e2d527612073b26eecdfd717e6a320cf44b4afac2b0732d9fcbe2b7fa0cf65b82821061082d575060209150820101826102ce565b6001816020925483858801015201910190610818565b91607f169161079f565b602060409281835280519182918282860152018484015e5f828201840152601f01601f1916010190565b600435906001600160a01b038216820361013b57565b602435906001600160a01b038216820361013b57565b919082039182116108b057565b634e487b7160e01b5f52601160045260245ffd5b156108cb57565b60405162461bcd60e51b815260206004820152601160248201527022a92199181d103737ba1036b4b73a32b960791b6044820152606490fd5b919082018092116108b057565b1561091857565b606460405162461bcd60e51b815260206004820152602060248201527f4f776e61626c653a2063616c6c6572206973206e6f7420746865206f776e65726044820152fd5b6001600160a01b0390911691908215610a2c576001600160a01b03165f818152600460205260409020549091908181106109d857816109ab5f80516020610a72833981519152936020936108a3565b845f526004835260405f2055845f526004825260405f206109cd828254610904565b9055604051908152a3565b60405162461bcd60e51b815260206004820152602660248201527f45524332303a207472616e7366657220616d6f756e7420657863656564732062604482015265616c616e636560d01b6064820152608490fd5b60405162461bcd60e51b815260206004820152601760248201527f45524332303a207472616e7366657220746f207a65726f0000000000000000006044820152606490fdfeddf252ad1be2c89b69c2b068fc378daa952ba7f163c4a11628f55a4df523b3efa2646970667358221220bc4a0512ffc175f824b2bd820d0bd9f28983bb28cf5a53949dcad51ed28a7e8364736f6c634300081a0033","linkReferences":{}},"methodIdentifiers":{"allowance(address,address)":"dd62ed3e","approve(address,uint256)":"095ea7b3","balanceOf(address)":"70a08231","burnFrom(address,uint256)":"79cc6790","decimals()":"313ce567","mint(address,uint256)":"40c10f19","minter()":"07546172","name()":"06fdde03","owner()":"8da5cb5b","ownerMint(address,uint256)":"484b973c","setMinter(address)":"fca3b5aa","symbol()":"95d89b41","totalSupply()":"18160ddd","transfer(address,uint256)":"a9059cbb","transferFrom(address,address,uint256)":"23b872dd","transferOwnership(address)":"f2fde38b"},"id":34}