{"abi":[{"type":"constructor","inputs":[{"name":"token_","type":"address","internalType":"address"},{"name":"endpoint_","type":"address","internalType":"address"},{"name":"defaultOptions","type":"bytes","internalType":"bytes"}],"stateMutability":"nonpayable"},{"type":"function","name":"allowInitializePath","inputs":[{"name":"_origin","type":"tuple","internalType":"struct Origin","components":[{"name":"srcEid","type":"uint32","internalType":"uint32"},{"name":"sender","type":"bytes32","internalType":"bytes32"},{"name":"nonce","type":"uint64","internalType":"uint64"}]}],"outputs":[{"name":"","type":"bool","internalType":"bool"}],"stateMutability":"view"},{"type":"function","name":"defaultOptions","inputs":[],"outputs":[{"name":"","type":"bytes","internalType":"bytes"}],"stateMutability":"view"},{"type":"function","name":"endpoint","inputs":[],"outputs":[{"name":"","type":"address","internalType":"contract ILayerZeroEndpointV2"}],"stateMutability":"view"},{"type":"function","name":"inboundNonce","inputs":[{"name":"","type":"uint32","internalType":"uint32"},{"name":"","type":"bytes32","internalType":"bytes32"}],"outputs":[{"name":"","type":"uint64","internalType":"uint64"}],"stateMutability":"view"},{"type":"function","name":"lzReceive","inputs":[{"name":"_origin","type":"tuple","internalType":"struct Origin","components":[{"name":"srcEid","type":"uint32","internalType":"uint32"},{"name":"sender","type":"bytes32","internalType":"bytes32"},{"name":"nonce","type":"uint64","internalType":"uint64"}]},{"name":"_guid","type":"bytes32","internalType":"bytes32"},{"name":"_message","type":"bytes","internalType":"bytes"},{"name":"_executor","type":"address","internalType":"address"},{"name":"_extraData","type":"bytes","internalType":"bytes"}],"outputs":[],"stateMutability":"payable"},{"type":"function","name":"nextNonce","inputs":[{"name":"_eid","type":"uint32","internalType":"uint32"},{"name":"_sender","type":"bytes32","internalType":"bytes32"}],"outputs":[{"name":"","type":"uint64","internalType":"uint64"}],"stateMutability":"view"},{"type":"function","name":"owner","inputs":[],"outputs":[{"name":"","type":"address","internalType":"address"}],"stateMutability":"view"},{"type":"function","name":"peers","inputs":[{"name":"","type":"uint32","internalType":"uint32"}],"outputs":[{"name":"","type":"bytes32","internalType":"bytes32"}],"stateMutability":"view"},{"type":"function","name":"quoteSend","inputs":[{"name":"dstEid","type":"uint32","internalType":"uint32"},{"name":"to","type":"address","internalType":"address"},{"name":"amountLD","type":"uint256","internalType":"uint256"},{"name":"options","type":"bytes","internalType":"bytes"}],"outputs":[{"name":"","type":"tuple","internalType":"struct MessagingFee","components":[{"name":"nativeFee","type":"uint256","internalType":"uint256"},{"name":"lzTokenFee","type":"uint256","internalType":"uint256"}]}],"stateMutability":"view"},{"type":"function","name":"send","inputs":[{"name":"dstEid","type":"uint32","internalType":"uint32"},{"name":"to","type":"address","internalType":"address"},{"name":"amountLD","type":"uint256","internalType":"uint256"},{"name":"options","type":"bytes","internalType":"bytes"}],"outputs":[{"name":"","type":"tuple","internalType":"struct MessagingReceipt","components":[{"name":"guid","type":"bytes32","internalType":"bytes32"},{"name":"nonce","type":"uint64","internalType":"uint64"},{"name":"fee","type":"tuple","internalType":"struct MessagingFee","components":[{"name":"nativeFee","type":"uint256","internalType":"uint256"},{"name":"lzTokenFee","type":"uint256","internalType":"uint256"}]}]}],"stateMutability":"payable"},{"type":"function","name":"setDefaultOptions","inputs":[{"name":"options","type":"bytes","internalType":"bytes"}],"outputs":[],"stateMutability":"nonpayable"},{"type":"function","name":"setPeer","inputs":[{"name":"eid","type":"uint32","internalType":"uint32"},{"name":"peer","type":"bytes32","internalType":"bytes32"}],"outputs":[],"stateMutability":"nonpayable"},{"type":"function","name":"token","inputs":[],"outputs":[{"name":"","type":"address","internalType":"contract SimpleERC20"}],"stateMutability":"view"},{"type":"function","name":"transferOwnership","inputs":[{"name":"newOwner","type":"address","internalType":"address"}],"outputs":[],"stateMutability":"nonpayable"},{"type":"event","name":"DefaultOptionsSet","inputs":[{"name":"options","type":"bytes","indexed":false,"internalType":"bytes"}],"anonymous":false},{"type":"event","name":"OFTReceived","inputs":[{"name":"guid","type":"bytes32","indexed":false,"internalType":"bytes32"},{"name":"srcEid","type":"uint32","indexed":true,"internalType":"uint32"},{"name":"recipient","type":"address","indexed":true,"internalType":"address"},{"name":"amount","type":"uint256","indexed":false,"internalType":"uint256"}],"anonymous":false},{"type":"event","name":"OFTSent","inputs":[{"name":"guid","type":"bytes32","indexed":false,"internalType":"bytes32"},{"name":"dstEid","type":"uint32","indexed":true,"internalType":"uint32"},{"name":"sender","type":"address","indexed":true,"internalType":"address"},{"name":"recipient","type":"address","indexed":true,"internalType":"address"},{"name":"amount","type":"uint256","indexed":false,"internalType":"uint256"}],"anonymous":false},{"type":"event","name":"OwnershipTransferred","inputs":[{"name":"previousOwner","type":"address","indexed":true,"internalType":"address"},{"name":"newOwner","type":"address","indexed":true,"internalType":"address"}],"anonymous":false},{"type":"event","name":"PeerSet","inputs":[{"name":"eid","type":"uint32","indexed":true,"internalType":"uint32"},{"name":"peer","type":"bytes32","indexed":true,"internalType":"bytes32"}],"anonymous":false}],"bytecode":{"object":"0x60c080604052346102d35761150d803803809161001c82856102d7565b833981016060828203126102d357610033826102fa565b91610040602082016102fa565b604082015190916001600160401b0382116102d3570182601f820112156102d3578051906001600160401b038211610299576040519361008a601f8401601f1916602001866102d7565b828552602083830101116102d357815f9260208093018387015e840101525f80546001600160a01b03191633908117825560405192917f8be0079c531659141344cd1fd0a4f28419497f9722a3daafe3b4186f6b6457e08180a36001600160a01b03166080528151156102ad5750905b81516001600160401b03811161029957600154600181811c9116801561028f575b602082101461027b57601f8111610218575b50602092601f82116001146101b757928192935f926101ac575b50508160011b915f199060031b1c1916176001555b6001600160a01b031660a0526040516111fe908161030f823960805181818161029f015281816104af01528181610a2d0152610b5a015260a0518181816101080152818161040c0152610c620152f35b015190505f80610147565b601f1982169360015f52805f20915f5b86811061020057508360019596106101e8575b505050811b0160015561015c565b01515f1960f88460031b161c191690555f80806101da565b919260206001819286850151815501940192016101c7565b60015f527fb10e2d527612073b26eecdfd717e6a320cf44b4afac2b0732d9fcbe2b7fa0cf6601f830160051c81019160208410610271575b601f0160051c01905b818110610266575061012d565b5f8155600101610259565b9091508190610250565b634e487b7160e01b5f52602260045260245ffd5b90607f169061011b565b634e487b7160e01b5f52604160045260245ffd5b905062030d4060208201525f6040820152604081526102cd6060826102d7565b906100fa565b5f80fd5b601f909101601f19168101906001600160401b0382119082101761029957604052565b51906001600160a01b03821682036102d35756fe6080806040526004361015610012575f80fd5b5f3560e01c90816313137d6514610afa575080633400288b14610a8f578063412e68fb14610a5c5780635e280f1114610a18578063632284fd146109ce5780637d25a05e146109695780637fc94d461461077257806384c1ee99146103a25780638da5cb5b1461037b578063bb0b6a5314610346578063e0eda6fd14610203578063f2fde38b14610137578063fc0c546a146100f35763ff7bd03d146100b6575f80fd5b346100ef5760603660031901126100ef5763ffffffff6100d4610fd2565b165f526002602052602060405f205460405190602435148152f35b5f80fd5b346100ef575f3660031901126100ef576040517f00000000000000000000000000000000000000000000000000000000000000006001600160a01b03168152602090f35b346100ef5760203660031901126100ef576004356001600160a01b038116908190036100ef575f546001600160a01b03811661017433821461102a565b82156101af5782907f8be0079c531659141344cd1fd0a4f28419497f9722a3daafe3b4186f6b6457e05f80a36001600160a01b031916175f55005b60405162461bcd60e51b815260206004820152602660248201527f4f776e61626c653a206e6577206f776e657220697320746865207a65726f206160448201526564647265737360d01b6064820152608490fd5b346100ef5761029b604061022b61021936610f7a565b94919092610225611075565b5061117b565b9280156103315763ffffffff91610243913691610fe5565b915b1691825f526002602052835f205461025e81151561108d565b84519361026a85610e5b565b845260208401528383015260608201525f6080820152815180938192631bb8518b60e31b83523090600484016110f5565b03817f00000000000000000000000000000000000000000000000000000000000000006001600160a01b03165afa8015610326575f906102eb575b60409060208251918051835201516020820152f35b5060403d60401161031f575b6103018183610e91565b8101906040818303126100ef5760409161031a916110cd565b6102d6565b503d6102f7565b6040513d5f823e3d90fd5b505063ffffffff610340610eb2565b91610245565b346100ef5760203660031901126100ef5763ffffffff610364610df5565b165f526002602052602060405f2054604051908152f35b346100ef575f3660031901126100ef575f546040516001600160a01b039091168152602090f35b6103ab36610f7a565b929391906040516103bb81610e40565b5f81525f602082015260408051916103d283610e76565b5f83525f602084015201526040516323b872dd60e01b81523360048201523060248201528260448201526020816064815f60018060a01b037f0000000000000000000000000000000000000000000000000000000000000000165af1908115610326575f91610743575b50156106fe5761044c828661117b565b9380156106e95763ffffffff91610464913691610fe5565b925b1691825f52600260205260405f20549361048185151561108d565b6040519461048e86610e5b565b8486526020860152604085015260608401525f608084015260018060a01b037f00000000000000000000000000000000000000000000000000000000000000001660405190631bb8518b60e31b8252604082806104ef3089600484016110f5565b0381845afa918215610326575f926106ae575b5081513410610671576105326080918351966040519788809481936302637a4560e41b83523390600484016110f5565b03925af1938415610326575f94610602575b50518034116105bd575b50608093835191604051928352602083015260018060a01b0316917ffee03d2028f11d41b964c6fed3a33c76237a845a10877fafa8c0495016764dfe60403393a460206040805192805184526001600160401b0383820151168385015201518051604084015201516060820152f35b803403903482116105ee575f8080938193829034146105e5575b3390f115610326578461054e565b506108fc6105d7565b634e487b7160e01b5f52601160045260245ffd5b90935060803d60801161066a575b61061a8183610e91565b8101906080818303126100ef576040519161063483610e40565b8151835260208201516001600160401b03811681036100ef57602084015261065e916040016110cd565b60408201529285610544565b503d610610565b60405162461bcd60e51b81526020600482015260156024820152744f46543a20696e73756666696369656e742066656560581b6044820152606490fd5b90915060403d6040116106e2575b6106c68183610e91565b81016040828203126100ef576106db916110cd565b9086610502565b503d6106bc565b505063ffffffff6106f8610eb2565b92610466565b60405162461bcd60e51b815260206004820152601860248201527f4f46543a207472616e7366657246726f6d206661696c656400000000000000006044820152606490fd5b610765915060203d60201161076b575b61075d8183610e91565b810190611163565b8661043c565b503d610753565b346100ef5760203660031901126100ef576004356001600160401b0381116100ef576107a2903690600401610db2565b6107b660018060a01b035f5416331461102a565b6001600160401b038111610955576107cf600154610e08565b601f81116108ed575b505f91601f821160011461085c57604090827f23597c7b612ff9a2cc8d3377b64611e3e3bface8fa42003bae39ed846f46d6d5945f91610851575b508360011b905f198560031b1c1916176001555b82825193849260208452816020850152848401375f828201840152601f01601f19168101030190a1005b905081013585610813565b601f19821660015f525f805160206111a9833981519152905f5b8181106108d55750907f23597c7b612ff9a2cc8d3377b64611e3e3bface8fa42003bae39ed846f46d6d5948460409493106108bc575b5050600183811b01600155610827565b8201355f19600386901b60f8161c1916905584806108ac565b83860135835560209586019560019093019201610876565b60015f52601f820160051c5f805160206111a9833981519152019060208310610940575b601f0160051c5f805160206111a983398151915201905b81811061093557506107d8565b5f8155600101610928565b5f805160206111a98339815191529150610911565b634e487b7160e01b5f52604160045260245ffd5b346100ef5760403660031901126100ef5763ffffffff610987610df5565b165f52600360205260405f206024355f5260205260016001600160401b0360405f205416016001600160401b0381116105ee576020906001600160401b0360405191168152f35b346100ef5760403660031901126100ef5763ffffffff6109ec610df5565b165f52600360205260405f206024355f5260205260206001600160401b0360405f205416604051908152f35b346100ef575f3660031901126100ef576040517f00000000000000000000000000000000000000000000000000000000000000006001600160a01b03168152602090f35b346100ef575f3660031901126100ef57610a8b610a77610eb2565b604051918291602083526020830190610f56565b0390f35b346100ef5760403660031901126100ef57610aa8610df5565b63ffffffff60243591610ac560018060a01b035f5416331461102a565b16805f5260026020528160405f20557f238399d427b947898edb290f5ff0f9109849b1c3ba196a42e35f00c50a54b98b5f80a3005b366003190160e081126100ef576060136100ef576084356001600160401b0381116100ef57610b2d903690600401610db2565b91610b36610ddf565b5060c4356001600160401b0381116100ef57610b56903690600401610db2565b50507f00000000000000000000000000000000000000000000000000000000000000006001600160a01b03163303610d78575063ffffffff610b96610fd2565b165f52600260205260405f205491602435809303610d3d576044356001600160401b0381168091036100ef57610c009363ffffffff610bd3610fd2565b165f52600360205260405f20905f5260205260405f20906001600160401b03198254161790553691610fe5565b6040818051810103126100ef5760208101516001600160a01b03811691908290036100ef5760400151610c31610fd2565b5060405163a9059cbb60e01b81526001600160a01b038316600482015260248101829052602081806044810103815f7f00000000000000000000000000000000000000000000000000000000000000006001600160a01b03165af1908115610326575f91610d1e575b5015610ce2577fefed6d3500546b29533b128a29e3a94d70788727f0507505ac12eaf2e578fd9c604063ffffffff610cd0610fd2565b169281519060643582526020820152a3005b60405162461bcd60e51b815260206004820152601460248201527313d1950e881d1c985b9cd9995c8819985a5b195960621b6044820152606490fd5b610d37915060203d60201161076b5761075d8183610e91565b83610c9a565b60405162461bcd60e51b815260206004820152601360248201527227a32a1d1034b73b30b634b21039b2b73232b960691b6044820152606490fd5b62461bcd60e51b815260206004820152601560248201527413d1950e881a5b9d985b1a5908195b991c1bda5b9d605a1b6044820152606490fd5b9181601f840112156100ef578235916001600160401b0383116100ef57602083818601950101116100ef57565b60a435906001600160a01b03821682036100ef57565b6004359063ffffffff821682036100ef57565b90600182811c92168015610e36575b6020831014610e2257565b634e487b7160e01b5f52602260045260245ffd5b91607f1691610e17565b606081019081106001600160401b0382111761095557604052565b60a081019081106001600160401b0382111761095557604052565b604081019081106001600160401b0382111761095557604052565b90601f801991011681019081106001600160401b0382111761095557604052565b604051905f8260015491610ec583610e08565b8083529260018116908115610f375750600114610eeb575b610ee992500383610e91565b565b5060015f90815290915f805160206111a98339815191525b818310610f1b575050906020610ee992820101610edd565b6020919350806001915483858901015201910190918492610f03565b60209250610ee994915060ff191682840152151560051b820101610edd565b805180835260209291819084018484015e5f828201840152601f01601f1916010190565b9060806003198301126100ef5760043563ffffffff811681036100ef57916024356001600160a01b03811681036100ef579160443591606435906001600160401b0382116100ef57610fce91600401610db2565b9091565b60043563ffffffff811681036100ef5790565b9291926001600160401b038211610955576040519161100e601f8201601f191660200184610e91565b8294818452818301116100ef578281602093845f960137010152565b1561103157565b606460405162461bcd60e51b815260206004820152602060248201527f4f776e61626c653a2063616c6c6572206973206e6f7420746865206f776e65726044820152fd5b6040519061108282610e76565b5f6020838281520152565b1561109457565b60405162461bcd60e51b815260206004820152601160248201527013d1950e881c19595c881b9bdd081cd95d607a1b6044820152606490fd5b91908260409103126100ef576040516110e581610e76565b6020808294805184520151910152565b906020909392936040835263ffffffff81511660408401528181015160608401526080611149611133604084015160a08488015260e0870190610f56565b6060840151868203603f190160a0880152610f56565b910151151560c08401526001600160a01b03909416910152565b908160209103126100ef575180151581036100ef5790565b604080516001600160a01b03929092166020830152818101929092529081526111a5606082610e91565b9056feb10e2d527612073b26eecdfd717e6a320cf44b4afac2b0732d9fcbe2b7fa0cf6a264697066735822122035f091ee1ede9fdb35a45f302ecd1cf6baafad257f804bb3c047924b0353f93a64736f6c634300081a0033","linkReferences":{}},"methodIdentifiers":{"allowInitializePath((uint32,bytes32,uint64))":"ff7bd03d","defaultOptions()":"412e68fb","endpoint()":"5e280f11","inboundNonce(uint32,bytes32)":"632284fd","lzReceive((uint32,bytes32,uint64),bytes32,bytes,address,bytes)":"13137d65","nextNonce(uint32,bytes32)":"7d25a05e","owner()":"8da5cb5b","peers(uint32)":"bb0b6a53","quoteSend(uint32,address,uint256,bytes)":"e0eda6fd","send(uint32,address,uint256,bytes)":"84c1ee99","setDefaultOptions(bytes)":"7fc94d46","setPeer(uint32,bytes32)":"3400288b","token()":"fc0c546a","transferOwnership(address)":"f2fde38b"},"id":7}