{"abi":[{"type":"constructor","inputs":[{"name":"_name","type":"string","internalType":"string"},{"name":"_symbol","type":"string","internalType":"string"},{"name":"_sharedDecimals","type":"uint8","internalType":"uint8"},{"name":"_lzEndpoint","type":"address","internalType":"address"}],"stateMutability":"nonpayable"},{"type":"function","name":"DEFAULT_PAYLOAD_SIZE_LIMIT","inputs":[],"outputs":[{"name":"","type":"uint256","internalType":"uint256"}],"stateMutability":"view"},{"type":"function","name":"NO_EXTRA_GAS","inputs":[],"outputs":[{"name":"","type":"uint256","internalType":"uint256"}],"stateMutability":"view"},{"type":"function","name":"PT_SEND","inputs":[],"outputs":[{"name":"","type":"uint8","internalType":"uint8"}],"stateMutability":"view"},{"type":"function","name":"PT_SEND_AND_CALL","inputs":[],"outputs":[{"name":"","type":"uint8","internalType":"uint8"}],"stateMutability":"view"},{"type":"function","name":"allowance","inputs":[{"name":"owner","type":"address","internalType":"address"},{"name":"spender","type":"address","internalType":"address"}],"outputs":[{"name":"","type":"uint256","internalType":"uint256"}],"stateMutability":"view"},{"type":"function","name":"approve","inputs":[{"name":"spender","type":"address","internalType":"address"},{"name":"amount","type":"uint256","internalType":"uint256"}],"outputs":[{"name":"","type":"bool","internalType":"bool"}],"stateMutability":"nonpayable"},{"type":"function","name":"balanceOf","inputs":[{"name":"account","type":"address","internalType":"address"}],"outputs":[{"name":"","type":"uint256","internalType":"uint256"}],"stateMutability":"view"},{"type":"function","name":"callOnOFTReceived","inputs":[{"name":"_srcChainId","type":"uint16","internalType":"uint16"},{"name":"_srcAddress","type":"bytes","internalType":"bytes"},{"name":"_nonce","type":"uint64","internalType":"uint64"},{"name":"_from","type":"bytes32","internalType":"bytes32"},{"name":"_to","type":"address","internalType":"address"},{"name":"_amount","type":"uint256","internalType":"uint256"},{"name":"_payload","type":"bytes","internalType":"bytes"},{"name":"_gasForCall","type":"uint256","internalType":"uint256"}],"outputs":[],"stateMutability":"nonpayable"},{"type":"function","name":"circulatingSupply","inputs":[],"outputs":[{"name":"","type":"uint256","internalType":"uint256"}],"stateMutability":"view"},{"type":"function","name":"creditedPackets","inputs":[{"name":"","type":"uint16","internalType":"uint16"},{"name":"","type":"bytes","internalType":"bytes"},{"name":"","type":"uint64","internalType":"uint64"}],"outputs":[{"name":"","type":"bool","internalType":"bool"}],"stateMutability":"view"},{"type":"function","name":"decimals","inputs":[],"outputs":[{"name":"","type":"uint8","internalType":"uint8"}],"stateMutability":"view"},{"type":"function","name":"decreaseAllowance","inputs":[{"name":"spender","type":"address","internalType":"address"},{"name":"subtractedValue","type":"uint256","internalType":"uint256"}],"outputs":[{"name":"","type":"bool","internalType":"bool"}],"stateMutability":"nonpayable"},{"type":"function","name":"estimateSendAndCallFee","inputs":[{"name":"_dstChainId","type":"uint16","internalType":"uint16"},{"name":"_toAddress","type":"bytes32","internalType":"bytes32"},{"name":"_amount","type":"uint256","internalType":"uint256"},{"name":"_payload","type":"bytes","internalType":"bytes"},{"name":"_dstGasForCall","type":"uint64","internalType":"uint64"},{"name":"_useZro","type":"bool","internalType":"bool"},{"name":"_adapterParams","type":"bytes","internalType":"bytes"}],"outputs":[{"name":"nativeFee","type":"uint256","internalType":"uint256"},{"name":"zroFee","type":"uint256","internalType":"uint256"}],"stateMutability":"view"},{"type":"function","name":"estimateSendFee","inputs":[{"name":"_dstChainId","type":"uint16","internalType":"uint16"},{"name":"_toAddress","type":"bytes32","internalType":"bytes32"},{"name":"_amount","type":"uint256","internalType":"uint256"},{"name":"_useZro","type":"bool","internalType":"bool"},{"name":"_adapterParams","type":"bytes","internalType":"bytes"}],"outputs":[{"name":"nativeFee","type":"uint256","internalType":"uint256"},{"name":"zroFee","type":"uint256","internalType":"uint256"}],"stateMutability":"view"},{"type":"function","name":"failedMessages","inputs":[{"name":"","type":"uint16","internalType":"uint16"},{"name":"","type":"bytes","internalType":"bytes"},{"name":"","type":"uint64","internalType":"uint64"}],"outputs":[{"name":"","type":"bytes32","internalType":"bytes32"}],"stateMutability":"view"},{"type":"function","name":"forceResumeReceive","inputs":[{"name":"_srcChainId","type":"uint16","internalType":"uint16"},{"name":"_srcAddress","type":"bytes","internalType":"bytes"}],"outputs":[],"stateMutability":"nonpayable"},{"type":"function","name":"getConfig","inputs":[{"name":"_version","type":"uint16","internalType":"uint16"},{"name":"_chainId","type":"uint16","internalType":"uint16"},{"name":"","type":"address","internalType":"address"},{"name":"_configType","type":"uint256","internalType":"uint256"}],"outputs":[{"name":"","type":"bytes","internalType":"bytes"}],"stateMutability":"view"},{"type":"function","name":"getTrustedRemoteAddress","inputs":[{"name":"_remoteChainId","type":"uint16","internalType":"uint16"}],"outputs":[{"name":"","type":"bytes","internalType":"bytes"}],"stateMutability":"view"},{"type":"function","name":"increaseAllowance","inputs":[{"name":"spender","type":"address","internalType":"address"},{"name":"addedValue","type":"uint256","internalType":"uint256"}],"outputs":[{"name":"","type":"bool","internalType":"bool"}],"stateMutability":"nonpayable"},{"type":"function","name":"isTrustedRemote","inputs":[{"name":"_srcChainId","type":"uint16","internalType":"uint16"},{"name":"_srcAddress","type":"bytes","internalType":"bytes"}],"outputs":[{"name":"","type":"bool","internalType":"bool"}],"stateMutability":"view"},{"type":"function","name":"lzEndpoint","inputs":[],"outputs":[{"name":"","type":"address","internalType":"contract ILayerZeroEndpoint"}],"stateMutability":"view"},{"type":"function","name":"lzReceive","inputs":[{"name":"_srcChainId","type":"uint16","internalType":"uint16"},{"name":"_srcAddress","type":"bytes","internalType":"bytes"},{"name":"_nonce","type":"uint64","internalType":"uint64"},{"name":"_payload","type":"bytes","internalType":"bytes"}],"outputs":[],"stateMutability":"nonpayable"},{"type":"function","name":"minDstGasLookup","inputs":[{"name":"","type":"uint16","internalType":"uint16"},{"name":"","type":"uint16","internalType":"uint16"}],"outputs":[{"name":"","type":"uint256","internalType":"uint256"}],"stateMutability":"view"},{"type":"function","name":"name","inputs":[],"outputs":[{"name":"","type":"string","internalType":"string"}],"stateMutability":"view"},{"type":"function","name":"nonblockingLzReceive","inputs":[{"name":"_srcChainId","type":"uint16","internalType":"uint16"},{"name":"_srcAddress","type":"bytes","internalType":"bytes"},{"name":"_nonce","type":"uint64","internalType":"uint64"},{"name":"_payload","type":"bytes","internalType":"bytes"}],"outputs":[],"stateMutability":"nonpayable"},{"type":"function","name":"owner","inputs":[],"outputs":[{"name":"","type":"address","internalType":"address"}],"stateMutability":"view"},{"type":"function","name":"payloadSizeLimitLookup","inputs":[{"name":"","type":"uint16","internalType":"uint16"}],"outputs":[{"name":"","type":"uint256","internalType":"uint256"}],"stateMutability":"view"},{"type":"function","name":"precrime","inputs":[],"outputs":[{"name":"","type":"address","internalType":"address"}],"stateMutability":"view"},{"type":"function","name":"renounceOwnership","inputs":[],"outputs":[],"stateMutability":"nonpayable"},{"type":"function","name":"retryMessage","inputs":[{"name":"_srcChainId","type":"uint16","internalType":"uint16"},{"name":"_srcAddress","type":"bytes","internalType":"bytes"},{"name":"_nonce","type":"uint64","internalType":"uint64"},{"name":"_payload","type":"bytes","internalType":"bytes"}],"outputs":[],"stateMutability":"payable"},{"type":"function","name":"sendAndCall","inputs":[{"name":"_from","type":"address","internalType":"address"},{"name":"_dstChainId","type":"uint16","internalType":"uint16"},{"name":"_toAddress","type":"bytes32","internalType":"bytes32"},{"name":"_amount","type":"uint256","internalType":"uint256"},{"name":"_payload","type":"bytes","internalType":"bytes"},{"name":"_dstGasForCall","type":"uint64","internalType":"uint64"},{"name":"_callParams","type":"tuple","internalType":"struct ICommonOFT.LzCallParams","components":[{"name":"refundAddress","type":"address","internalType":"address payable"},{"name":"zroPaymentAddress","type":"address","internalType":"address"},{"name":"adapterParams","type":"bytes","internalType":"bytes"}]}],"outputs":[],"stateMutability":"payable"},{"type":"function","name":"sendFrom","inputs":[{"name":"_from","type":"address","internalType":"address"},{"name":"_dstChainId","type":"uint16","internalType":"uint16"},{"name":"_toAddress","type":"bytes32","internalType":"bytes32"},{"name":"_amount","type":"uint256","internalType":"uint256"},{"name":"_callParams","type":"tuple","internalType":"struct ICommonOFT.LzCallParams","components":[{"name":"refundAddress","type":"address","internalType":"address payable"},{"name":"zroPaymentAddress","type":"address","internalType":"address"},{"name":"adapterParams","type":"bytes","internalType":"bytes"}]}],"outputs":[],"stateMutability":"payable"},{"type":"function","name":"setConfig","inputs":[{"name":"_version","type":"uint16","internalType":"uint16"},{"name":"_chainId","type":"uint16","internalType":"uint16"},{"name":"_configType","type":"uint256","internalType":"uint256"},{"name":"_config","type":"bytes","internalType":"bytes"}],"outputs":[],"stateMutability":"nonpayable"},{"type":"function","name":"setMinDstGas","inputs":[{"name":"_dstChainId","type":"uint16","internalType":"uint16"},{"name":"_packetType","type":"uint16","internalType":"uint16"},{"name":"_minGas","type":"uint256","internalType":"uint256"}],"outputs":[],"stateMutability":"nonpayable"},{"type":"function","name":"setPayloadSizeLimit","inputs":[{"name":"_dstChainId","type":"uint16","internalType":"uint16"},{"name":"_size","type":"uint256","internalType":"uint256"}],"outputs":[],"stateMutability":"nonpayable"},{"type":"function","name":"setPrecrime","inputs":[{"name":"_precrime","type":"address","internalType":"address"}],"outputs":[],"stateMutability":"nonpayable"},{"type":"function","name":"setReceiveVersion","inputs":[{"name":"_version","type":"uint16","internalType":"uint16"}],"outputs":[],"stateMutability":"nonpayable"},{"type":"function","name":"setSendVersion","inputs":[{"name":"_version","type":"uint16","internalType":"uint16"}],"outputs":[],"stateMutability":"nonpayable"},{"type":"function","name":"setTrustedRemote","inputs":[{"name":"_remoteChainId","type":"uint16","internalType":"uint16"},{"name":"_path","type":"bytes","internalType":"bytes"}],"outputs":[],"stateMutability":"nonpayable"},{"type":"function","name":"setTrustedRemoteAddress","inputs":[{"name":"_remoteChainId","type":"uint16","internalType":"uint16"},{"name":"_remoteAddress","type":"bytes","internalType":"bytes"}],"outputs":[],"stateMutability":"nonpayable"},{"type":"function","name":"sharedDecimals","inputs":[],"outputs":[{"name":"","type":"uint8","internalType":"uint8"}],"stateMutability":"view"},{"type":"function","name":"supportsInterface","inputs":[{"name":"interfaceId","type":"bytes4","internalType":"bytes4"}],"outputs":[{"name":"","type":"bool","internalType":"bool"}],"stateMutability":"view"},{"type":"function","name":"symbol","inputs":[],"outputs":[{"name":"","type":"string","internalType":"string"}],"stateMutability":"view"},{"type":"function","name":"token","inputs":[],"outputs":[{"name":"","type":"address","internalType":"address"}],"stateMutability":"view"},{"type":"function","name":"totalSupply","inputs":[],"outputs":[{"name":"","type":"uint256","internalType":"uint256"}],"stateMutability":"view"},{"type":"function","name":"transfer","inputs":[{"name":"to","type":"address","internalType":"address"},{"name":"amount","type":"uint256","internalType":"uint256"}],"outputs":[{"name":"","type":"bool","internalType":"bool"}],"stateMutability":"nonpayable"},{"type":"function","name":"transferFrom","inputs":[{"name":"from","type":"address","internalType":"address"},{"name":"to","type":"address","internalType":"address"},{"name":"amount","type":"uint256","internalType":"uint256"}],"outputs":[{"name":"","type":"bool","internalType":"bool"}],"stateMutability":"nonpayable"},{"type":"function","name":"transferOwnership","inputs":[{"name":"newOwner","type":"address","internalType":"address"}],"outputs":[],"stateMutability":"nonpayable"},{"type":"function","name":"trustedRemoteLookup","inputs":[{"name":"","type":"uint16","internalType":"uint16"}],"outputs":[{"name":"","type":"bytes","internalType":"bytes"}],"stateMutability":"view"},{"type":"event","name":"Approval","inputs":[{"name":"owner","type":"address","indexed":true,"internalType":"address"},{"name":"spender","type":"address","indexed":true,"internalType":"address"},{"name":"value","type":"uint256","indexed":false,"internalType":"uint256"}],"anonymous":false},{"type":"event","name":"CallOFTReceivedSuccess","inputs":[{"name":"_srcChainId","type":"uint16","indexed":true,"internalType":"uint16"},{"name":"_srcAddress","type":"bytes","indexed":false,"internalType":"bytes"},{"name":"_nonce","type":"uint64","indexed":false,"internalType":"uint64"},{"name":"_hash","type":"bytes32","indexed":false,"internalType":"bytes32"}],"anonymous":false},{"type":"event","name":"MessageFailed","inputs":[{"name":"_srcChainId","type":"uint16","indexed":false,"internalType":"uint16"},{"name":"_srcAddress","type":"bytes","indexed":false,"internalType":"bytes"},{"name":"_nonce","type":"uint64","indexed":false,"internalType":"uint64"},{"name":"_payload","type":"bytes","indexed":false,"internalType":"bytes"},{"name":"_reason","type":"bytes","indexed":false,"internalType":"bytes"}],"anonymous":false},{"type":"event","name":"NonContractAddress","inputs":[{"name":"_address","type":"address","indexed":false,"internalType":"address"}],"anonymous":false},{"type":"event","name":"OwnershipTransferred","inputs":[{"name":"previousOwner","type":"address","indexed":true,"internalType":"address"},{"name":"newOwner","type":"address","indexed":true,"internalType":"address"}],"anonymous":false},{"type":"event","name":"ReceiveFromChain","inputs":[{"name":"_srcChainId","type":"uint16","indexed":true,"internalType":"uint16"},{"name":"_to","type":"address","indexed":true,"internalType":"address"},{"name":"_amount","type":"uint256","indexed":false,"internalType":"uint256"}],"anonymous":false},{"type":"event","name":"RetryMessageSuccess","inputs":[{"name":"_srcChainId","type":"uint16","indexed":false,"internalType":"uint16"},{"name":"_srcAddress","type":"bytes","indexed":false,"internalType":"bytes"},{"name":"_nonce","type":"uint64","indexed":false,"internalType":"uint64"},{"name":"_payloadHash","type":"bytes32","indexed":false,"internalType":"bytes32"}],"anonymous":false},{"type":"event","name":"SendToChain","inputs":[{"name":"_dstChainId","type":"uint16","indexed":true,"internalType":"uint16"},{"name":"_from","type":"address","indexed":true,"internalType":"address"},{"name":"_toAddress","type":"bytes32","indexed":true,"internalType":"bytes32"},{"name":"_amount","type":"uint256","indexed":false,"internalType":"uint256"}],"anonymous":false},{"type":"event","name":"SetMinDstGas","inputs":[{"name":"_dstChainId","type":"uint16","indexed":false,"internalType":"uint16"},{"name":"_type","type":"uint16","indexed":false,"internalType":"uint16"},{"name":"_minDstGas","type":"uint256","indexed":false,"internalType":"uint256"}],"anonymous":false},{"type":"event","name":"SetPrecrime","inputs":[{"name":"precrime","type":"address","indexed":false,"internalType":"address"}],"anonymous":false},{"type":"event","name":"SetTrustedRemote","inputs":[{"name":"_remoteChainId","type":"uint16","indexed":false,"internalType":"uint16"},{"name":"_path","type":"bytes","indexed":false,"internalType":"bytes"}],"anonymous":false},{"type":"event","name":"SetTrustedRemoteAddress","inputs":[{"name":"_remoteChainId","type":"uint16","indexed":false,"internalType":"uint16"},{"name":"_remoteAddress","type":"bytes","indexed":false,"internalType":"bytes"}],"anonymous":false},{"type":"event","name":"Transfer","inputs":[{"name":"from","type":"address","indexed":true,"internalType":"address"},{"name":"to","type":"address","indexed":true,"internalType":"address"},{"name":"value","type":"uint256","indexed":false,"internalType":"uint256"}],"anonymous":false}],"bytecode":{"object":"0x60e06040523461048157613ba68038038061001981610485565b9283398101906080818303126104815780516001600160401b03811161048157826100459183016104aa565b602082015190926001600160401b038211610481576100659183016104aa565b90604081015160ff81169182820361048157606001516001600160a01b03811690819003610481575f8054336001600160a01b0319821681178355916001600160a01b03909116907f8be0079c531659141344cd1fd0a4f28419497f9722a3daafe3b4186f6b6457e09080a360805260a05282516001600160401b03811161039257600a54600181811c91168015610477575b602082101461037457601f8111610414575b506020601f82116001146103b157819293945f926103a6575b50508160011b915f199060031b1c191617600a555b81516001600160401b03811161039257600b54600181811c91168015610388575b602082101461037457601f8111610311575b50602092601f82116001146102b057928192935f926102a5575b50508160011b915f199060031b1c191617600b555b601281116102505760120360ff811161023c5760ff16604d811161023c57600a0a60c0526040516136aa90816104fc8239608051818181610411015281816106a4015281816107b80152818161093201528181610add015281816115e9015281816116f301528181611cd30152818161201d015261326f015260a051816110ab015260c05181818161282e01528181612cbe01528181612e9701526130e20152f35b634e487b7160e01b5f52601160045260245ffd5b60405162461bcd60e51b815260206004820152602760248201527f4f46543a20736861726564446563696d616c73206d757374206265203c3d20646044820152666563696d616c7360c81b6064820152608490fd5b015190505f80610185565b601f19821693600b5f52805f20915f5b8681106102f957508360019596106102e1575b505050811b01600b5561019a565b01515f1960f88460031b161c191690555f80806102d3565b919260206001819286850151815501940192016102c0565b600b5f527f0175b7a638427703f0dbe7bb9bbf987a2551717b34e79f33b5b1008d1fa01db9601f830160051c8101916020841061036a575b601f0160051c01905b81811061035f575061016b565b5f8155600101610352565b9091508190610349565b634e487b7160e01b5f52602260045260245ffd5b90607f1690610159565b634e487b7160e01b5f52604160045260245ffd5b015190505f80610123565b601f19821690600a5f52805f20915f5b8181106103fc575095836001959697106103e4575b505050811b01600a55610138565b01515f1960f88460031b161c191690555f80806103d6565b9192602060018192868b0151815501940192016103c1565b600a5f527fc65a7bb8d6351c1cf70c95a316cc6a92839c986682d98bc35f958f4883f9d2a8601f830160051c8101916020841061046d575b601f0160051c01905b818110610462575061010a565b5f8155600101610455565b909150819061044c565b90607f16906100f8565b5f80fd5b6040519190601f01601f191682016001600160401b0381118382101761039257604052565b81601f82011215610481578051906001600160401b038211610392576104d9601f8301601f1916602001610485565b928284526020838301011161048157815f9260208093018386015e830101529056fe60806040526004361015610011575f80fd5b5f3560e01c80621d35671461031957806301ffc9a71461031457806306fdde031461030f57806307e0db171461030a578063095ea7b3146103055780630df374831461030057806310ddb137146102fb57806318160ddd1461029c57806323b872dd146102f6578063313ce567146102f1578063365260b4146102ec57806339509351146102e75780633d8b38f6146102e25780633f1f4fa4146102dd57806342d65a8d146102d857806344770515146102d35780634c42899a146102d35780635b8c41e6146102ce57806366ad5c8a146102c9578063695ef6bf146102c457806370a08231146102bf578063715018a6146102ba5780637533d788146102b557806376203b48146102b0578063857749b0146102ab5780638cfd8f5c146102a65780638da5cb5b146102a15780639358928b1461029c578063950c8a741461029757806395d89b41146102925780639bdb98121461028d5780639f38369a14610288578063a457c2d714610283578063a4c51df51461027e578063a6c3d16514610279578063a9059cbb14610274578063b353aaa71461026f578063baf3292d1461026a578063c446183414610265578063cbed8b9c14610260578063d1deba1f1461025b578063dd62ed3e14610256578063df2a5b3b14610251578063e6a20ae61461024c578063eaffd49a14610247578063eb8d72b714610242578063f2fde38b1461023d578063f5ecbdbc146102385763fc0c546a14610233575f80fd5b611d3d565b611c73565b611ba5565b611a6f565b6119df565b6119c4565b611936565b6118e0565b61178b565b6116a4565b611688565b611618565b6115d4565b6115aa565b61142b565b61139d565b6112e3565b61124b565b611209565b611164565b61113c565b610818565b611115565b6110cf565b611092565b61100e565b610fc7565b610e98565b610e5d565b610d67565b610cd3565b610c79565b610b43565b610ac5565b610a92565b610a49565b6109b0565b6108ae565b610875565b610835565b610794565b61075b565b610726565b610680565b6105a6565b61050e565b6103fa565b6004359061ffff8216820361032f57565b5f80fd5b6024359061ffff8216820361032f57565b9181601f8401121561032f578235916001600160401b03831161032f576020838186019501011161032f57565b608435906001600160401b038216820361032f57565b608060031982011261032f5760043561ffff8116810361032f57916024356001600160401b03811161032f57826103c091600401610344565b929092916044356001600160401b038116810361032f5791606435906001600160401b03821161032f576103f691600401610344565b9091565b3461032f5761040836610387565b929493919291907f00000000000000000000000000000000000000000000000000000000000000006001600160a01b031633036104c95761048c6104949261049a9761048561046b6104668a61ffff165f52600160205260405f2090565b610f27565b80519081841491826104bf575b508161049c575b50611d57565b3691610bb2565b923691610bb2565b92612306565b005b90506104a9368486610bb2565b602081519101209060208151910120145f61047f565b151591505f610478565b60405162461bcd60e51b815260206004820152601e60248201527f4c7a4170703a20696e76616c696420656e64706f696e742063616c6c657200006044820152606490fd5b3461032f57602036600319011261032f5760043563ffffffff60e01b811680910361032f57602090631f7ecdf760e01b8114908115610553575b506040519015158152f35b6301ffc9a760e01b1490505f610548565b5f91031261032f57565b805180835260209291819084018484015e5f828201840152601f01601f1916010190565b9060206105a392818152019061056e565b90565b3461032f575f36600319011261032f576040515f600a546105c681610eef565b808452906001811690811561065c57506001146105fe575b6105fa836105ee81850382610b71565b60405191829182610592565b0390f35b919050600a5f527fc65a7bb8d6351c1cf70c95a316cc6a92839c986682d98bc35f958f4883f9d2a8915f905b808210610642575090915081016020016105ee6105de565b91926001816020925483858801015201910190929161062a565b60ff191660208086019190915291151560051b840190910191506105ee90506105de565b3461032f575f602036600319011261032f5761069a61031e565b6106a261239a565b7f00000000000000000000000000000000000000000000000000000000000000006001600160a01b031690813b1561032f5761ffff60245f928360405195869485936307e0db1760e01b85521660048401525af1801561071057610704575080f35b61049a91505f90610b71565b611db2565b6001600160a01b0381160361032f57565b3461032f57604036600319011261032f5761075060043561074681610715565b60243590336123f1565b602060405160018152f35b3461032f57604036600319011261032f5761077461031e565b61ffff6024359161078361239a565b165f52600360205260405f20555f80f35b3461032f575f602036600319011261032f576107ae61031e565b6107b661239a565b7f00000000000000000000000000000000000000000000000000000000000000006001600160a01b031690813b1561032f5761ffff60245f928360405195869485936310ddb13760e01b85521660048401525af1801561071057610704575080f35b3461032f575f36600319011261032f576020600954604051908152f35b3461032f57606036600319011261032f5761075060043561085581610715565b60243561086181610715565b60443591610870833383612523565b61266e565b3461032f575f36600319011261032f57602060405160128152f35b60643590811515820361032f57565b60a43590811515820361032f57565b3461032f5760a036600319011261032f576108c761031e565b6024356044356108d5610890565b92608435926001600160401b03841161032f5761091161092e9161090b6109056104856040983690600401610344565b95612cbc565b90612d49565b928451958694859463040a7bb160e41b8652309060048701612786565b03817f00000000000000000000000000000000000000000000000000000000000000006001600160a01b03165afa908115610710575f905f9261097e575b50604080519182526020820192909252f35b90506109a2915060403d6040116109a9575b61099a8183610b71565b810190612770565b905f61096c565b503d610990565b3461032f57604036600319011261032f576004356109cd81610715565b602435335f5260086020526109f58260405f209060018060a01b03165f5260205260405f2090565b54908101809111610a0a5761075091336123f1565b611dbd565b90604060031983011261032f5760043561ffff8116810361032f5791602435906001600160401b03821161032f576103f691600401610344565b3461032f57602061ffff610a83610a5f36610a0f565b939091165f5260018452610a7560405f20610f27565b848151910120923691610bb2565b82815191012014604051908152f35b3461032f57602036600319011261032f5761ffff610aae61031e565b165f526003602052602060405f2054604051908152f35b3461032f57610ad336610a0f565b610adb61239a565b7f00000000000000000000000000000000000000000000000000000000000000006001600160a01b031692833b1561032f57610b2b5f926040519485936342d65a8d60e01b855260048501611e0c565b93818381819703925af1801561071057610704575080f35b3461032f575f36600319011261032f5760206040515f8152f35b634e487b7160e01b5f52604160045260245ffd5b90601f801991011681019081106001600160401b03821117610b9257604052565b610b5d565b6001600160401b038111610b9257601f01601f191660200190565b929192610bbe82610b97565b91610bcc6040519384610b71565b82948184528183011161032f578281602093845f960137010152565b90606060031983011261032f5760043561ffff8116810361032f5791602435906001600160401b03821161032f578060238301121561032f57816024610c3393600401359101610bb2565b906044356001600160401b038116810361032f5790565b805191908290602001825e015f815290565b602090610c6f9260405193848093610c4a565b9081520301902090565b3461032f576020610cca61ffff610cad83610c9336610be8565b949091165f526005825260405f2060405193848093610c4a565b90815203019020906001600160401b03165f5260205260405f2090565b54604051908152f35b3461032f57610ce136610387565b9192949390303303610d055761048c610cff9261049a973691610bb2565b926127ca565b60405162461bcd60e51b815260206004820152602660248201527f4e6f6e626c6f636b696e674c7a4170703a2063616c6c6572206d7573742062656044820152650204c7a4170760d41b6064820152608490fd5b9081606091031261032f5790565b60a036600319011261032f57600435610d7f81610715565b610d87610333565b6044359160643590608435906001600160401b03821161032f5761ffff602091610e48610dd97fd81fc9b8523134ed613870ed029d6170cbb73aa6a6bc311b9a642689fb9df59a953690600401610d59565b95863590610de682610715565b610e21610e1a610e0a610485898c01359b610e008d610715565b6040810190611e27565b92610e15848d613095565b6130e0565b5085613117565b97610e2d8915156129ab565b610e3f610e398a612cbc565b8c612d49565b9234938b61323e565b6040519485526001600160a01b0316941692a4005b3461032f57602036600319011261032f57600435610e7a81610715565b60018060a01b03165f526007602052602060405f2054604051908152f35b3461032f575f36600319011261032f57610eb061239a565b5f80546001600160a01b0319811682556001600160a01b03167f8be0079c531659141344cd1fd0a4f28419497f9722a3daafe3b4186f6b6457e08280a3005b90600182811c92168015610f1d575b6020831014610f0957565b634e487b7160e01b5f52602260045260245ffd5b91607f1691610efe565b9060405191825f825492610f3a84610eef565b8084529360018116908115610fa55750600114610f61575b50610f5f92500383610b71565b565b90505f9291925260205f20905f915b818310610f89575050906020610f5f928201015f610f52565b6020919350806001915483858901015201910190918492610f70565b905060209250610f5f94915060ff191682840152151560051b8201015f610f52565b3461032f57602036600319011261032f5761ffff610fe361031e565b165f5260016020526105fa610ffa60405f20610f27565b60405191829160208352602083019061056e565b60e036600319011261032f5760043561102681610715565b61102e610333565b906044356064356084356001600160401b03811161032f57611054903690600401610344565b9160a435936001600160401b038516850361032f5760c435966001600160401b03881161032f5761108c61049a983690600401610d59565b96611e59565b3461032f575f36600319011261032f57602060405160ff7f0000000000000000000000000000000000000000000000000000000000000000168152f35b3461032f57604036600319011261032f576020610cca6110ed61031e565b61ffff6110f8610333565b91165f526002835260405f209061ffff165f5260205260405f2090565b3461032f575f36600319011261032f575f546040516001600160a01b039091168152602090f35b3461032f575f36600319011261032f576004546040516001600160a01b039091168152602090f35b3461032f575f36600319011261032f576040515f600b5461118481610eef565b808452906001811690811561065c57506001146111ab576105fa836105ee81850382610b71565b919050600b5f527f0175b7a638427703f0dbe7bb9bbf987a2551717b34e79f33b5b1008d1fa01db9915f905b8082106111ef575090915081016020016105ee6105de565b9192600181602092548385880101520191019092916111d7565b3461032f57602060ff61123f61ffff610cad8461122536610be8565b949091165f526006825260405f2060405193848093610c4a565b54166040519015158152f35b3461032f57602036600319011261032f5761ffff61126761031e565b165f52600160205261127b60405f20610f27565b80511561129e578051601319810191908211610a0a576105fa916105ee91612a74565b60405162461bcd60e51b815260206004820152601d60248201527f4c7a4170703a206e6f20747275737465642070617468207265636f72640000006044820152606490fd5b3461032f57604036600319011261032f5760043561130081610715565b60243590335f5260086020526113298160405f209060018060a01b03165f5260205260405f2090565b549180831061134a5761133e920390336123f1565b60405160018152602090f35b60405162461bcd60e51b815260206004820152602560248201527f45524332303a2064656372656173656420616c6c6f77616e63652062656c6f77604482015264207a65726f60d81b6064820152608490fd5b3461032f5760e036600319011261032f576113b661031e565b602435604435916064356001600160401b03811161032f576113dc903690600401610344565b6113e4610371565b906113ed61089f565b9260c435966001600160401b03881161032f57611411611419983690600401610344565b979096611fc6565b60408051928352602083019190915290f35b3461032f5761143936610a0f565b9161144261239a565b6040518383602083013761146f60146020838781013060601b838201520301600b19810184520182610b71565b61ffff82165f52600160205260405f20908051906001600160401b038211610b92576114a58261149f8554610eef565b85612077565b602090601f831160011461151a57827f8c0400cfe2d1199b1a725c78960bcc2a344d869b80590d0f2bd005db15a572ce979361150a95936114fb935f9261150f575b50508160011b915f199060031b1c19161790565b90555b60405193849384611e0c565b0390a1005b015190505f806114e7565b90601f1983169161152e855f5260205f2090565b925f5b81811061159257509260019285927f8c0400cfe2d1199b1a725c78960bcc2a344d869b80590d0f2bd005db15a572ce9a9661150a98961061157a575b505050811b0190556114fe565b01515f1960f88460031b161c191690555f808061156d565b92936020600181928786015181550195019301611531565b3461032f57604036600319011261032f576107506004356115ca81610715565b602435903361266e565b3461032f575f36600319011261032f576040517f00000000000000000000000000000000000000000000000000000000000000006001600160a01b03168152602090f35b3461032f57602036600319011261032f577f5db758e995a17ec1ad84bdef7e8c3293a0bd6179bcce400dff5d4c3d87db726b602060043561165881610715565b61166061239a565b600480546001600160a01b0319166001600160a01b03929092169182179055604051908152a1005b3461032f575f36600319011261032f5760206040516127108152f35b3461032f57608036600319011261032f576116bd61031e565b6116c5610333565b604435906064356001600160401b03811161032f576116e8903690600401610344565b906116f161239a565b7f00000000000000000000000000000000000000000000000000000000000000006001600160a01b031691823b1561032f5761ffff9561176787935f979388946040519a8b998a9889976332fb62e760e21b89521660048801521660248601526044850152608060648501526084840191611dec565b03925af180156107105761177757005b806117855f61049a93610b71565b80610564565b61179436610387565b9161ffff86949296165f5260056020526117d78160405f2060206040518092878b833787820190815203019020906001600160401b03165f5260205260405f2090565b5491821561188f57611883848361187c7fc264d91f3adc5588250e1551f547752ca0cfa8f6b530d243b9f9f4cab10ea8e59a5f611868846118528e8a8f61150a9f908f61183a9061182d61184c9436908d610bb2565b60208151910120146120df565b61ffff165f52600560205260405f2090565b916120c6565b906001600160401b03165f5260205260405f2090565b5561187436878d610bb2565b933691610bb2565b91886127ca565b60405195869586612135565b60405162461bcd60e51b815260206004820152602360248201527f4e6f6e626c6f636b696e674c7a4170703a206e6f2073746f726564206d65737360448201526261676560e81b6064820152608490fd5b3461032f57604036600319011261032f576020610cca60043561190281610715565b6024359061190f82610715565b60018060a01b03165f526008835260405f209060018060a01b03165f5260205260405f2090565b3461032f57606036600319011261032f577f9d5c7c0b934da8fefa9c7760c98383778a12dfbfc0c3b3106518f43fb9508ac0606061197261031e565b61197a610333565b9061ffff806044359261198b61239a565b1692835f526002602052826119af8260405f209061ffff165f5260205260405f2090565b556040519384521660208301526040820152a1005b3461032f575f36600319011261032f57602060405160018152f35b3461032f5761010036600319011261032f576119f961031e565b6024356001600160401b03811161032f57611a18903690600401610344565b60443592916001600160401b038416840361032f57606435608435611a3c81610715565b60a4359160c435966001600160401b03881161032f57611a6361049a983690600401610344565b96909560e435986121b8565b3461032f57611a7d36610a0f565b91611a8661239a565b61ffff81165f52600160205260405f20926001600160401b038111610b9257611ab981611ab38654610eef565b86612077565b5f93601f8211600114611b17579061150a916114fb82807ffa41487ad5d6728f0b19276fa1eddc16558578f5109fc39d2dc33c3230470dab985f91611b0c575b508160011b915f199060031b1c19161790565b90508701355f611af9565b601f19821694611b2a825f5260205f2090565b955f5b818110611b8d57509583929161150a947ffa41487ad5d6728f0b19276fa1eddc16558578f5109fc39d2dc33c3230470dab9810611b74575b5050600182811b0190556114fe565b8601355f19600385901b60f8161c191690555f80611b65565b86830135885560019097019660209283019201611b2d565b3461032f57602036600319011261032f57600435611bc281610715565b611bca61239a565b6001600160a01b03811615611c1f575f80546001600160a01b039283166001600160a01b03198216811783559216907f8be0079c531659141344cd1fd0a4f28419497f9722a3daafe3b4186f6b6457e09080a3005b60405162461bcd60e51b815260206004820152602660248201527f4f776e61626c653a206e6577206f776e657220697320746865207a65726f206160448201526564647265737360d01b6064820152608490fd5b3461032f57608036600319011261032f57611c8c61031e565b611c94610333565b611c9f604435610715565b61ffff606435604051633d7b2f6f60e21b815293821660048501529116602483015230604483015260648201525f816084817f00000000000000000000000000000000000000000000000000000000000000006001600160a01b03165afa8015610710576105fa915f91611d1b575b5060405191829182610592565b611d3791503d805f833e611d2f8183610b71565b8101906122a4565b5f611d0e565b3461032f575f36600319011261032f576020604051308152f35b15611d5e57565b60405162461bcd60e51b815260206004820152602660248201527f4c7a4170703a20696e76616c696420736f757263652073656e64696e6720636f6044820152651b9d1c9858dd60d21b6064820152608490fd5b6040513d5f823e3d90fd5b634e487b7160e01b5f52601160045260245ffd5b90601f8201809211610a0a57565b91908201809211610a0a57565b908060209392818452848401375f828201840152601f01601f1916010190565b60409061ffff6105a395931681528160208201520191611dec565b903590601e198136030182121561032f57018035906001600160401b03821161032f5760200191813603831361032f57565b93959092949196611e96813593611e6f85610715565b611e8e611e84602085013594610e0086610715565b9a90923691610bb2565b983691610bb2565b916022835110611f7257889060228401519761ffff871698895f52600260205260405f206001611ed1919061ffff165f5260205260405f2090565b54611edd811515612ffd565b6001600160401b038416611ef091611ddf565b1115611efb90613049565b611f04906130e0565b50611f0f9088613117565b98611f1b8a15156129ab565b611f248a612cbc565b611f2e9333613330565b923493611f3a9561323e565b6040519283526001600160a01b0316917fd81fc9b8523134ed613870ed029d6170cbb73aa6a6bc311b9a642689fb9df59a90602090a4565b60405162461bcd60e51b815260206004820152601c60248201527f4c7a4170703a20696e76616c69642061646170746572506172616d73000000006044820152606490fd5b605019810191908211610a0a57565b949195989790611ff5611fef604099611fe7611ffc97612019993691610bb2565b943691610bb2565b97612cbc565b9033613330565b928451968794859463040a7bb160e41b8652309060048701612786565b03817f00000000000000000000000000000000000000000000000000000000000000006001600160a01b03165afa918215610710575f905f9361205b57509190565b90506103f691925060403d6040116109a95761099a8183610b71565b601f821161208457505050565b5f5260205f20906020601f840160051c830193106120bc575b601f0160051c01905b8181106120b1575050565b5f81556001016120a6565b909150819061209d565b6020919283604051948593843782019081520301902090565b156120e657565b60405162461bcd60e51b815260206004820152602160248201527f4e6f6e626c6f636b696e674c7a4170703a20696e76616c6964207061796c6f616044820152601960fa1b6064820152608490fd5b916121619060609461ffff6001600160401b039499989799168552608060208601526080850191611dec565b951660408201520152565b9396949161219a906105a399979461ffff6001600160401b039416875260c0602088015260c0870191611dec565b961660408401526060830152608082015260a0818503910152611dec565b9196979298959493909430330361225f576121d4908530612b7a565b60405181815290946001600160a01b03169390849061ffff8516907fbf551ec93859b170f9b2141bd9298bf3f64322c6f7beb2543a0cb669834118bf90602090a3833b1561032f575f988995612241936040519c8d9b8c9a8b98633fe79aed60e11b8a5260048a0161216c565b0393f18015610710576122515750565b806117855f610f5f93610b71565b60405162461bcd60e51b815260206004820152601f60248201527f4f4654436f72653a2063616c6c6572206d757374206265204f4654436f7265006044820152606490fd5b60208183031261032f578051906001600160401b03821161032f570181601f8201121561032f578051906122d782610b97565b926122e56040519485610b71565b8284526020838301011161032f57815f9260208093018386015e8301015290565b9290916123785a604051633356ae4560e11b602082015261ffff8716602482015260806044820152906123728261236461234360a483018a61056e565b6001600160401b03881660648401528281036023190160848401528861056e565b03601f198101845283610b71565b30612bb1565b939015612387575b5050505050565b61239094612c01565b5f80808080612380565b5f546001600160a01b031633036123ad57565b606460405162461bcd60e51b815260206004820152602060248201527f4f776e61626c653a2063616c6c6572206973206e6f7420746865206f776e65726044820152fd5b6001600160a01b038116919082156124d2576001600160a01b038216938415612482578061246c7f8c5be1e5ebec7d5bd14f71427d1e84f3dd0314c0f7b2291e5b200ac8c7c3b9259461245761247d9560018060a01b03165f52600860205260405f2090565b9060018060a01b03165f5260205260405f2090565b556040519081529081906020820190565b0390a3565b60405162461bcd60e51b815260206004820152602260248201527f45524332303a20617070726f766520746f20746865207a65726f206164647265604482015261737360f01b6064820152608490fd5b60405162461bcd60e51b8152602060048201526024808201527f45524332303a20617070726f76652066726f6d20746865207a65726f206164646044820152637265737360e01b6064820152608490fd5b6001600160a01b038082165f90815260086020908152604080832093861683529290522090919054926001840161255b575b50505050565b8084106125765761256d9303916123f1565b5f808080612555565b60405162461bcd60e51b815260206004820152601d60248201527f45524332303a20696e73756666696369656e7420616c6c6f77616e63650000006044820152606490fd5b156125c257565b60405162461bcd60e51b815260206004820152602360248201527f45524332303a207472616e7366657220746f20746865207a65726f206164647260448201526265737360e81b6064820152608490fd5b1561261a57565b60405162461bcd60e51b815260206004820152602660248201527f45524332303a207472616e7366657220616d6f756e7420657863656564732062604482015265616c616e636560d01b6064820152608490fd5b916001600160a01b03831691821561271d575f805160206136558339815191529161270761247d9260018060a01b038116966126ab8815156125bb565b6001600160a01b0381165f9081526007602052604090206126ed908590546126d582821015612613565b039160018060a01b03165f52600760205260405f2090565b556001600160a01b03165f90815260076020526040902090565b8054820190556040519081529081906020820190565b60405162461bcd60e51b815260206004820152602560248201527f45524332303a207472616e736665722066726f6d20746865207a65726f206164604482015264647265737360d81b6064820152608490fd5b919082604091031261032f576020825192015190565b91926105a3959361ffff6127b59316845260018060a01b0316602084015260a0604084015260a083019061056e565b9215156060820152608081840391015261056e565b92919060ff6127d884612d7d565b1680612956575050509060ff6127ed83612d7d565b16158061294b575b6127fe90613399565b61281061280a83613595565b926135e5565b6001600160a01b03831615612941575b612854906001600160401b037f000000000000000000000000000000000000000000000000000000000000000091166134be565b6001600160a01b0383169290919083156128fc577fbf551ec93859b170f9b2141bd9298bf3f64322c6f7beb2543a0cb669834118bf916128be61ffff926128a56128a087600954611ddf565b600955565b6001600160a01b03165f90815260076020526040902090565b848154019055845f5f80516020613655833981519152604051806128e789829190602083019252565b0390a36040519384521691806020810161247d565b60405162461bcd60e51b815260206004820152601f60248201527f45524332303a206d696e7420746f20746865207a65726f2061646472657373006044820152606490fd5b61dead9250612820565b5081516029146127f5565b60010361296657610f5f93612e56565b60405162461bcd60e51b815260206004820152601c60248201527f4f4654436f72653a20756e6b6e6f776e207061636b65742074797065000000006044820152606490fd5b156129b257565b60405162461bcd60e51b815260206004820152601960248201527f4f4654436f72653a20616d6f756e7420746f6f20736d616c6c000000000000006044820152606490fd5b156129fe57565b60405162461bcd60e51b815260206004820152600e60248201526d736c6963655f6f766572666c6f7760901b6044820152606490fd5b15612a3b57565b60405162461bcd60e51b8152602060048201526011602482015270736c6963655f6f75744f66426f756e647360781b6044820152606490fd5b612a8882612a8181611dd1565b10156129f7565b612a9e8151612a97845f611ddf565b1115612a34565b81612ab55750506040515f81526020810160405290565b60405191601f811691821560051b808486010193838501920101905b808410612ae95750508252601f01601f191660405290565b9092602080918551815201930190612ad1565b612b0982612a8181611dd1565b612b198151612a97846051611ddf565b81612b305750506040515f81526020810160405290565b60405191601f8116916051831560051b80858701019484860193010101905b808410612b675750508252601f01601f191660405290565b9092602080918551815201930190612b4f565b6105a39183916001600160a01b038116308114159081612ba6575b501561266e57610870833383612523565b90503314155f612b95565b604051939260c0929190612bc58487610b71565b609686525f928380936020890196601f190136883760208451940192f1903d9060968211612bf8575b5f908286523e9190565b60969150612bee565b9193612c957fe183f33de2837795525b4792ca4cd60535bd77c53b7e7030060bfcf5734d6b0c95612ca3939561ffff81516020830120961695865f526005602052612c5c83610cad60208b60405f2060405193848093610c4a565b556001600160401b03612c81604051988998895260a060208a015260a089019061056e565b92166040870152858203606087015261056e565b90838203608085015261056e565b0390a1565b634e487b7160e01b5f52601260045260245ffd5b7f0000000000000000000000000000000000000000000000000000000000000000908115612d4457046001600160401b038111612cff576001600160401b031690565b60405162461bcd60e51b815260206004820152601a60248201527f4f4654436f72653a20616d6f756e745344206f766572666c6f770000000000006044820152606490fd5b612ca8565b90604051915f602084015260218301526001600160401b0360c01b9060c01b166041820152602981526105a3604982610b71565b6001815110612d8d576001015190565b60405162461bcd60e51b8152602060048201526013602482015272746f55696e74385f6f75744f66426f756e647360681b6044820152606490fd5b98979692936001600160401b03612dfa60e0989461010060208e61ffff612e269c9816815201526101008d019061056e565b951660408b015260608a01526001600160a01b0316608089015260a088015286820360c088015261056e565b930152565b6001600160401b03612e4b6040939695949660608452606084019061056e565b951660208201520152565b9091612e61846133e5565b612ec5612e94612e8d88611852612e878c98979861ffff165f52600660205260405f2090565b8d610c5c565b5460ff1690565b927f0000000000000000000000000000000000000000000000000000000000000000906001600160401b03166134be565b918015612fbf575b843b15612f75578894612f0e9694612372948a94612364945f14612f6657505a925b5a978b6040519a8b9863757fea4d60e11b60208b015260248a01612dc8565b9015612f5b575090612f5661ffff928560207fb8890edbfc1c74692f527444645f95489c3703cc2df42e4a366f5d06fa6cd88496975191012090604051948594169684612e2b565b0390a2565b92610f5f9492612c01565b6001600160401b031692612eef565b50506040516001600160a01b039093168352507f9aedf5fdba8716db3b6705ca00150643309995d4f818a249ed6dde6677e7792d965090945084935050602083019150612ca39050565b91612fca81306135f5565b91612ff8612feb88611852612e878c61ffff165f52600660205260405f2090565b805460ff19166001179055565b612ecd565b1561300457565b60405162461bcd60e51b815260206004820152601a60248201527f4c7a4170703a206d696e4761734c696d6974206e6f74207365740000000000006044820152606490fd5b1561305057565b60405162461bcd60e51b815260206004820152601b60248201527f4c7a4170703a20676173206c696d697420697320746f6f206c6f7700000000006044820152606490fd5b6022825110611f725761ffff6022610f5f93015191165f52600260205260405f2061ffff5f165f526020526130d95f60408120546130d4811515612ffd565b611ddf565b1115613049565b7f00000000000000000000000000000000000000000000000000000000000000008015612d4457810690818103908111610a0a5791565b6001600160a01b0381163381036131d5575b8015613186578161315c8461314f5f9560018060a01b03165f52600760205260405f2090565b546126d5828210156134d1565b5561316a8360095403600955565b6040518381525f8051602061365583398151915290602090a390565b60405162461bcd60e51b815260206004820152602160248201527f45524332303a206275726e2066726f6d20746865207a65726f206164647265736044820152607360f81b6064820152608490fd5b6131e0833384612523565b613129565b9261320b6105a39795969361ffff6132199416865260c0602087015260c086019061056e565b90848203604086015261056e565b6001600160a01b0394851660608401529316608082015280830360a09091015261056e565b9092919461ffff82165f52600160205261325a60405f20610f27565b918251156132d25761326d855182613528565b7f00000000000000000000000000000000000000000000000000000000000000006001600160a01b031693843b1561032f575f966132c191604051998a988997889662c5803160e81b8852600488016131e5565b03925af18015610710576122515750565b60405162461bcd60e51b815260206004820152603060248201527f4c7a4170703a2064657374696e6174696f6e20636861696e206973206e6f742060448201526f61207472757374656420736f7572636560801b6064820152608490fd5b604051600160f81b6020820152602181019290925260c092831b6001600160c01b031990811660418401526001600160a01b0390911660498301529390911b90921660698301526105a390829061338b906071830190610c4a565b03601f198101835282610b71565b156133a057565b60405162461bcd60e51b815260206004820152601860248201527f4f4654436f72653a20696e76616c6964207061796c6f616400000000000000006044820152606490fd5b906133fd600160ff6133f685612d7d565b1614613399565b61340682613595565b90613410836135e5565b9060498451106134815760498401519360518151106134455761344260518201519161343c8151611fb7565b90612afc565b91565b60405162461bcd60e51b8152602060048201526014602482015273746f55696e7436345f6f75744f66426f756e647360601b6044820152606490fd5b60405162461bcd60e51b8152602060048201526015602482015274746f427974657333325f6f75744f66426f756e647360581b6044820152606490fd5b81810292918115918404141715610a0a57565b156134d857565b60405162461bcd60e51b815260206004820152602260248201527f45524332303a206275726e20616d6f756e7420657863656564732062616c616e604482015261636560f01b6064820152608490fd5b61ffff165f52600360205260405f205490811561358b575b1161354757565b606460405162461bcd60e51b815260206004820152602060248201527f4c7a4170703a207061796c6f61642073697a6520697320746f6f206c617267656044820152fd5b6127109150613540565b60218151106135a857602d015160601c90565b60405162461bcd60e51b8152602060048201526015602482015274746f416464726573735f6f75744f66426f756e647360581b6044820152606490fd5b6029815110613445576029015190565b6001600160a01b038116919082156128fc5760095491808301809311610a0a576136425f80516020613655833981519152925f9460095560018060a01b03165f52600760205260405f2090565b805482019055604051908152602090a356feddf252ad1be2c89b69c2b068fc378daa952ba7f163c4a11628f55a4df523b3efa2646970667358221220f8a922d5774653a0e278c514dfb1906f4b5b30178207e8b508ab40edbaf4d81664736f6c634300081a0033","linkReferences":{}},"methodIdentifiers":{"DEFAULT_PAYLOAD_SIZE_LIMIT()":"c4461834","NO_EXTRA_GAS()":"44770515","PT_SEND()":"4c42899a","PT_SEND_AND_CALL()":"e6a20ae6","allowance(address,address)":"dd62ed3e","approve(address,uint256)":"095ea7b3","balanceOf(address)":"70a08231","callOnOFTReceived(uint16,bytes,uint64,bytes32,address,uint256,bytes,uint256)":"eaffd49a","circulatingSupply()":"9358928b","creditedPackets(uint16,bytes,uint64)":"9bdb9812","decimals()":"313ce567","decreaseAllowance(address,uint256)":"a457c2d7","estimateSendAndCallFee(uint16,bytes32,uint256,bytes,uint64,bool,bytes)":"a4c51df5","estimateSendFee(uint16,bytes32,uint256,bool,bytes)":"365260b4","failedMessages(uint16,bytes,uint64)":"5b8c41e6","forceResumeReceive(uint16,bytes)":"42d65a8d","getConfig(uint16,uint16,address,uint256)":"f5ecbdbc","getTrustedRemoteAddress(uint16)":"9f38369a","increaseAllowance(address,uint256)":"39509351","isTrustedRemote(uint16,bytes)":"3d8b38f6","lzEndpoint()":"b353aaa7","lzReceive(uint16,bytes,uint64,bytes)":"001d3567","minDstGasLookup(uint16,uint16)":"8cfd8f5c","name()":"06fdde03","nonblockingLzReceive(uint16,bytes,uint64,bytes)":"66ad5c8a","owner()":"8da5cb5b","payloadSizeLimitLookup(uint16)":"3f1f4fa4","precrime()":"950c8a74","renounceOwnership()":"715018a6","retryMessage(uint16,bytes,uint64,bytes)":"d1deba1f","sendAndCall(address,uint16,bytes32,uint256,bytes,uint64,(address,address,bytes))":"76203b48","sendFrom(address,uint16,bytes32,uint256,(address,address,bytes))":"695ef6bf","setConfig(uint16,uint16,uint256,bytes)":"cbed8b9c","setMinDstGas(uint16,uint16,uint256)":"df2a5b3b","setPayloadSizeLimit(uint16,uint256)":"0df37483","setPrecrime(address)":"baf3292d","setReceiveVersion(uint16)":"10ddb137","setSendVersion(uint16)":"07e0db17","setTrustedRemote(uint16,bytes)":"eb8d72b7","setTrustedRemoteAddress(uint16,bytes)":"a6c3d165","sharedDecimals()":"857749b0","supportsInterface(bytes4)":"01ffc9a7","symbol()":"95d89b41","token()":"fc0c546a","totalSupply()":"18160ddd","transfer(address,uint256)":"a9059cbb","transferFrom(address,address,uint256)":"23b872dd","transferOwnership(address)":"f2fde38b","trustedRemoteLookup(uint16)":"7533d788"},"id":20}