{"abi":[{"type":"constructor","inputs":[{"name":"_endpoint","type":"address","internalType":"address"}],"stateMutability":"nonpayable"},{"type":"function","name":"endpoint","inputs":[],"outputs":[{"name":"","type":"address","internalType":"address"}],"stateMutability":"view"},{"type":"function","name":"execute","inputs":[{"name":"messageId","type":"bytes32","internalType":"bytes32"}],"outputs":[],"stateMutability":"nonpayable"},{"type":"function","name":"owner","inputs":[],"outputs":[{"name":"","type":"address","internalType":"address"}],"stateMutability":"view"},{"type":"function","name":"setEndpoint","inputs":[{"name":"_endpoint","type":"address","internalType":"address"}],"outputs":[],"stateMutability":"nonpayable"},{"type":"function","name":"transferOwnership","inputs":[{"name":"newOwner","type":"address","internalType":"address"}],"outputs":[],"stateMutability":"nonpayable"},{"type":"event","name":"Delivered","inputs":[{"name":"messageId","type":"bytes32","indexed":true,"internalType":"bytes32"}],"anonymous":false},{"type":"event","name":"EndpointUpdated","inputs":[{"name":"endpoint","type":"address","indexed":true,"internalType":"address"}],"anonymous":false},{"type":"event","name":"OwnershipTransferred","inputs":[{"name":"previousOwner","type":"address","indexed":true,"internalType":"address"},{"name":"newOwner","type":"address","indexed":true,"internalType":"address"}],"anonymous":false}],"bytecode":{"object":"0x608060405234801561000f575f80fd5b5060405161090d38038061090d833981810160405281019061003191906101b1565b335f806101000a81548173ffffffffffffffffffffffffffffffffffffffff021916908373ffffffffffffffffffffffffffffffffffffffff1602179055503373ffffffffffffffffffffffffffffffffffffffff165f73ffffffffffffffffffffffffffffffffffffffff167f8be0079c531659141344cd1fd0a4f28419497f9722a3daafe3b4186f6b6457e060405160405180910390a38060015f6101000a81548173ffffffffffffffffffffffffffffffffffffffff021916908373ffffffffffffffffffffffffffffffffffffffff1602179055508073ffffffffffffffffffffffffffffffffffffffff167ffbf944e82135f40e35842ccfa29dab42b6ec33f81d6e8df4bdcb7dab0fe72e0c60405160405180910390a2506101dc565b5f80fd5b5f73ffffffffffffffffffffffffffffffffffffffff82169050919050565b5f61018082610157565b9050919050565b61019081610176565b811461019a575f80fd5b50565b5f815190506101ab81610187565b92915050565b5f602082840312156101c6576101c5610153565b5b5f6101d38482850161019d565b91505092915050565b610724806101e95f395ff3fe608060405234801561000f575f80fd5b5060043610610055575f3560e01c80635e280f11146100595780638da5cb5b14610077578063dbbb415514610095578063e751f271146100b1578063f2fde38b146100cd575b5f80fd5b6100616100e9565b60405161006e91906104f0565b60405180910390f35b61007f61010e565b60405161008c91906104f0565b60405180910390f35b6100af60048036038101906100aa9190610537565b610131565b005b6100cb60048036038101906100c69190610595565b610244565b005b6100e760048036038101906100e29190610537565b6102fb565b005b60015f9054906101000a900473ffffffffffffffffffffffffffffffffffffffff1681565b5f8054906101000a900473ffffffffffffffffffffffffffffffffffffffff1681565b5f8054906101000a900473ffffffffffffffffffffffffffffffffffffffff1673ffffffffffffffffffffffffffffffffffffffff163373ffffffffffffffffffffffffffffffffffffffff16146101be576040517f08c379a00000000000000000000000000000000000000000000000000000000081526004016101b59061061a565b60405180910390fd5b8060015f6101000a81548173ffffffffffffffffffffffffffffffffffffffff021916908373ffffffffffffffffffffffffffffffffffffffff1602179055508073ffffffffffffffffffffffffffffffffffffffff167ffbf944e82135f40e35842ccfa29dab42b6ec33f81d6e8df4bdcb7dab0fe72e0c60405160405180910390a250565b60015f9054906101000a900473ffffffffffffffffffffffffffffffffffffffff1673ffffffffffffffffffffffffffffffffffffffff16630fa566fa826040518263ffffffff1660e01b815260040161029e9190610647565b5f604051808303815f87803b1580156102b5575f80fd5b505af11580156102c7573d5f803e3d5ffd5b50505050807fdd20695c1524d69ebf281bf18c60e13ea04843e3d78608346799d6fa63f1cb2260405160405180910390a250565b5f8054906101000a900473ffffffffffffffffffffffffffffffffffffffff1673ffffffffffffffffffffffffffffffffffffffff163373ffffffffffffffffffffffffffffffffffffffff1614610388576040517f08c379a000000000000000000000000000000000000000000000000000000000815260040161037f9061061a565b60405180910390fd5b5f73ffffffffffffffffffffffffffffffffffffffff168173ffffffffffffffffffffffffffffffffffffffff16036103f6576040517f08c379a00000000000000000000000000000000000000000000000000000000081526004016103ed906106d0565b60405180910390fd5b8073ffffffffffffffffffffffffffffffffffffffff165f8054906101000a900473ffffffffffffffffffffffffffffffffffffffff1673ffffffffffffffffffffffffffffffffffffffff167f8be0079c531659141344cd1fd0a4f28419497f9722a3daafe3b4186f6b6457e060405160405180910390a3805f806101000a81548173ffffffffffffffffffffffffffffffffffffffff021916908373ffffffffffffffffffffffffffffffffffffffff16021790555050565b5f73ffffffffffffffffffffffffffffffffffffffff82169050919050565b5f6104da826104b1565b9050919050565b6104ea816104d0565b82525050565b5f6020820190506105035f8301846104e1565b92915050565b5f80fd5b610516816104d0565b8114610520575f80fd5b50565b5f813590506105318161050d565b92915050565b5f6020828403121561054c5761054b610509565b5b5f61055984828501610523565b91505092915050565b5f819050919050565b61057481610562565b811461057e575f80fd5b50565b5f8135905061058f8161056b565b92915050565b5f602082840312156105aa576105a9610509565b5b5f6105b784828501610581565b91505092915050565b5f82825260208201905092915050565b7f4f776e61626c653a2063616c6c6572206973206e6f7420746865206f776e65725f82015250565b5f6106046020836105c0565b915061060f826105d0565b602082019050919050565b5f6020820190508181035f830152610631816105f8565b9050919050565b61064181610562565b82525050565b5f60208201905061065a5f830184610638565b92915050565b7f4f776e61626c653a206e6577206f776e657220697320746865207a65726f20615f8201527f6464726573730000000000000000000000000000000000000000000000000000602082015250565b5f6106ba6026836105c0565b91506106c582610660565b604082019050919050565b5f6020820190508181035f8301526106e7816106ae565b905091905056fea26469706673582212203a76ed5720c002ea850e7a7b147675ced82fc363b24a33a1fda52a002268a59d64736f6c634300081a0033","linkReferences":{}},"methodIdentifiers":{"endpoint()":"5e280f11","execute(bytes32)":"e751f271","owner()":"8da5cb5b","setEndpoint(address)":"dbbb4155","transferOwnership(address)":"f2fde38b"},"id":27}