{"abi":[{"type":"constructor","inputs":[{"name":"_endpoint","type":"address","internalType":"address"}],"stateMutability":"nonpayable"},{"type":"function","name":"endpoint","inputs":[],"outputs":[{"name":"","type":"address","internalType":"address"}],"stateMutability":"view"},{"type":"function","name":"execute","inputs":[{"name":"guid","type":"bytes32","internalType":"bytes32"}],"outputs":[],"stateMutability":"nonpayable"},{"type":"function","name":"owner","inputs":[],"outputs":[{"name":"","type":"address","internalType":"address"}],"stateMutability":"view"},{"type":"function","name":"setEndpoint","inputs":[{"name":"_endpoint","type":"address","internalType":"address"}],"outputs":[],"stateMutability":"nonpayable"},{"type":"function","name":"transferOwnership","inputs":[{"name":"newOwner","type":"address","internalType":"address"}],"outputs":[],"stateMutability":"nonpayable"},{"type":"event","name":"Delivered","inputs":[{"name":"guid","type":"bytes32","indexed":true,"internalType":"bytes32"}],"anonymous":false},{"type":"event","name":"EndpointUpdated","inputs":[{"name":"endpoint","type":"address","indexed":true,"internalType":"address"}],"anonymous":false},{"type":"event","name":"OwnershipTransferred","inputs":[{"name":"previousOwner","type":"address","indexed":true,"internalType":"address"},{"name":"newOwner","type":"address","indexed":true,"internalType":"address"}],"anonymous":false}],"bytecode":{"object":"0x60803460cb57601f61045138819003918201601f19168301916001600160401b0383118484101760cf5780849260209460405283398101031260cb57516001600160a01b0381169081900360cb575f80546001600160a01b03191633908117825560405192917f8be0079c531659141344cd1fd0a4f28419497f9722a3daafe3b4186f6b6457e08180a3600180546001600160a01b031916821790557ffbf944e82135f40e35842ccfa29dab42b6ec33f81d6e8df4bdcb7dab0fe72e0c5f80a261036d90816100e48239f35b5f80fd5b634e487b7160e01b5f52604160045260245ffdfe6080806040526004361015610012575f80fd5b5f905f3560e01c9081635e280f11146102c9575080638da5cb5b146102a2578063dbbb415514610230578063e751f271146101295763f2fde38b14610055575f80fd5b34610126576020366003190112610126576004356001600160a01b038116908190036101225781546001600160a01b0381166100923382146102ec565b82156100ce5782907f8be0079c531659141344cd1fd0a4f28419497f9722a3daafe3b4186f6b6457e08580a36001600160a01b03191617815580f35b60405162461bcd60e51b815260206004820152602660248201527f4f776e61626c653a206e6577206f776e657220697320746865207a65726f206160448201526564647265737360d01b6064820152608490fd5b5080fd5b80fd5b503461022c57602036600319011261022c57600154604051600435916001600160a01b0316906020810167ffffffffffffffff81118282101761020d57806040525f8252823b1561022c576064925f92836040519586809581946316a2fc6b60e21b83528a6004840152604060248401525180918160448501528484015e8181018301849052601f01601f191681010301925af18015610221576101f0575b507fdd20695c1524d69ebf281bf18c60e13ea04843e3d78608346799d6fa63f1cb228280a280f35b90915067ffffffffffffffff811161020d576040525f905f6101c8565b634e487b7160e01b5f52604160045260245ffd5b6040513d5f823e3d90fd5b5f80fd5b3461022c57602036600319011261022c576004356001600160a01b0381169081900361022c5761026a60018060a01b035f541633146102ec565b600180546001600160a01b031916821790557ffbf944e82135f40e35842ccfa29dab42b6ec33f81d6e8df4bdcb7dab0fe72e0c5f80a2005b3461022c575f36600319011261022c575f546040516001600160a01b039091168152602090f35b3461022c575f36600319011261022c576001546001600160a01b03168152602090f35b156102f357565b606460405162461bcd60e51b815260206004820152602060248201527f4f776e61626c653a2063616c6c6572206973206e6f7420746865206f776e65726044820152fdfea26469706673582212208f0cb5ddd939e396df4516080142c03d2ccc5f8f24a1f2201bf04cb61236cb9d64736f6c634300081a0033","linkReferences":{}},"methodIdentifiers":{"endpoint()":"5e280f11","execute(bytes32)":"e751f271","owner()":"8da5cb5b","setEndpoint(address)":"dbbb4155","transferOwnership(address)":"f2fde38b"},"id":2}