{"abi":[{"type":"constructor","inputs":[{"name":"name_","type":"string","internalType":"string"},{"name":"symbol_","type":"string","internalType":"string"},{"name":"sharedDecimals","type":"uint8","internalType":"uint8"},{"name":"lzEndpoint","type":"address","internalType":"address"}],"stateMutability":"nonpayable"},{"type":"function","name":"DEFAULT_PAYLOAD_SIZE_LIMIT","inputs":[],"outputs":[{"name":"","type":"uint256","internalType":"uint256"}],"stateMutability":"view"},{"type":"function","name":"NO_EXTRA_GAS","inputs":[],"outputs":[{"name":"","type":"uint256","internalType":"uint256"}],"stateMutability":"view"},{"type":"function","name":"PT_SEND","inputs":[],"outputs":[{"name":"","type":"uint8","internalType":"uint8"}],"stateMutability":"view"},{"type":"function","name":"PT_SEND_AND_CALL","inputs":[],"outputs":[{"name":"","type":"uint8","internalType":"uint8"}],"stateMutability":"view"},{"type":"function","name":"allowance","inputs":[{"name":"owner","type":"address","internalType":"address"},{"name":"spender","type":"address","internalType":"address"}],"outputs":[{"name":"","type":"uint256","internalType":"uint256"}],"stateMutability":"view"},{"type":"function","name":"approve","inputs":[{"name":"spender","type":"address","internalType":"address"},{"name":"amount","type":"uint256","internalType":"uint256"}],"outputs":[{"name":"","type":"bool","internalType":"bool"}],"stateMutability":"nonpayable"},{"type":"function","name":"balanceOf","inputs":[{"name":"account","type":"address","internalType":"address"}],"outputs":[{"name":"","type":"uint256","internalType":"uint256"}],"stateMutability":"view"},{"type":"function","name":"callOnOFTReceived","inputs":[{"name":"_srcChainId","type":"uint16","internalType":"uint16"},{"name":"_srcAddress","type":"bytes","internalType":"bytes"},{"name":"_nonce","type":"uint64","internalType":"uint64"},{"name":"_from","type":"bytes32","internalType":"bytes32"},{"name":"_to","type":"address","internalType":"address"},{"name":"_amount","type":"uint256","internalType":"uint256"},{"name":"_payload","type":"bytes","internalType":"bytes"},{"name":"_gasForCall","type":"uint256","internalType":"uint256"}],"outputs":[],"stateMutability":"nonpayable"},{"type":"function","name":"circulatingSupply","inputs":[],"outputs":[{"name":"","type":"uint256","internalType":"uint256"}],"stateMutability":"view"},{"type":"function","name":"creditedPackets","inputs":[{"name":"","type":"uint16","internalType":"uint16"},{"name":"","type":"bytes","internalType":"bytes"},{"name":"","type":"uint64","internalType":"uint64"}],"outputs":[{"name":"","type":"bool","internalType":"bool"}],"stateMutability":"view"},{"type":"function","name":"decimals","inputs":[],"outputs":[{"name":"","type":"uint8","internalType":"uint8"}],"stateMutability":"view"},{"type":"function","name":"decreaseAllowance","inputs":[{"name":"spender","type":"address","internalType":"address"},{"name":"subtractedValue","type":"uint256","internalType":"uint256"}],"outputs":[{"name":"","type":"bool","internalType":"bool"}],"stateMutability":"nonpayable"},{"type":"function","name":"estimateSendAndCallFee","inputs":[{"name":"_dstChainId","type":"uint16","internalType":"uint16"},{"name":"_toAddress","type":"bytes32","internalType":"bytes32"},{"name":"_amount","type":"uint256","internalType":"uint256"},{"name":"_payload","type":"bytes","internalType":"bytes"},{"name":"_dstGasForCall","type":"uint64","internalType":"uint64"},{"name":"_useZro","type":"bool","internalType":"bool"},{"name":"_adapterParams","type":"bytes","internalType":"bytes"}],"outputs":[{"name":"nativeFee","type":"uint256","internalType":"uint256"},{"name":"zroFee","type":"uint256","internalType":"uint256"}],"stateMutability":"view"},{"type":"function","name":"estimateSendFee","inputs":[{"name":"_dstChainId","type":"uint16","internalType":"uint16"},{"name":"_toAddress","type":"bytes32","internalType":"bytes32"},{"name":"_amount","type":"uint256","internalType":"uint256"},{"name":"_useZro","type":"bool","internalType":"bool"},{"name":"_adapterParams","type":"bytes","internalType":"bytes"}],"outputs":[{"name":"nativeFee","type":"uint256","internalType":"uint256"},{"name":"zroFee","type":"uint256","internalType":"uint256"}],"stateMutability":"view"},{"type":"function","name":"failedMessages","inputs":[{"name":"","type":"uint16","internalType":"uint16"},{"name":"","type":"bytes","internalType":"bytes"},{"name":"","type":"uint64","internalType":"uint64"}],"outputs":[{"name":"","type":"bytes32","internalType":"bytes32"}],"stateMutability":"view"},{"type":"function","name":"forceResumeReceive","inputs":[{"name":"_srcChainId","type":"uint16","internalType":"uint16"},{"name":"_srcAddress","type":"bytes","internalType":"bytes"}],"outputs":[],"stateMutability":"nonpayable"},{"type":"function","name":"getConfig","inputs":[{"name":"_version","type":"uint16","internalType":"uint16"},{"name":"_chainId","type":"uint16","internalType":"uint16"},{"name":"","type":"address","internalType":"address"},{"name":"_configType","type":"uint256","internalType":"uint256"}],"outputs":[{"name":"","type":"bytes","internalType":"bytes"}],"stateMutability":"view"},{"type":"function","name":"getTrustedRemoteAddress","inputs":[{"name":"_remoteChainId","type":"uint16","internalType":"uint16"}],"outputs":[{"name":"","type":"bytes","internalType":"bytes"}],"stateMutability":"view"},{"type":"function","name":"increaseAllowance","inputs":[{"name":"spender","type":"address","internalType":"address"},{"name":"addedValue","type":"uint256","internalType":"uint256"}],"outputs":[{"name":"","type":"bool","internalType":"bool"}],"stateMutability":"nonpayable"},{"type":"function","name":"isTrustedRemote","inputs":[{"name":"_srcChainId","type":"uint16","internalType":"uint16"},{"name":"_srcAddress","type":"bytes","internalType":"bytes"}],"outputs":[{"name":"","type":"bool","internalType":"bool"}],"stateMutability":"view"},{"type":"function","name":"lzEndpoint","inputs":[],"outputs":[{"name":"","type":"address","internalType":"contract ILayerZeroEndpoint"}],"stateMutability":"view"},{"type":"function","name":"lzReceive","inputs":[{"name":"_srcChainId","type":"uint16","internalType":"uint16"},{"name":"_srcAddress","type":"bytes","internalType":"bytes"},{"name":"_nonce","type":"uint64","internalType":"uint64"},{"name":"_payload","type":"bytes","internalType":"bytes"}],"outputs":[],"stateMutability":"nonpayable"},{"type":"function","name":"minDstGasLookup","inputs":[{"name":"","type":"uint16","internalType":"uint16"},{"name":"","type":"uint16","internalType":"uint16"}],"outputs":[{"name":"","type":"uint256","internalType":"uint256"}],"stateMutability":"view"},{"type":"function","name":"name","inputs":[],"outputs":[{"name":"","type":"string","internalType":"string"}],"stateMutability":"view"},{"type":"function","name":"nonblockingLzReceive","inputs":[{"name":"_srcChainId","type":"uint16","internalType":"uint16"},{"name":"_srcAddress","type":"bytes","internalType":"bytes"},{"name":"_nonce","type":"uint64","internalType":"uint64"},{"name":"_payload","type":"bytes","internalType":"bytes"}],"outputs":[],"stateMutability":"nonpayable"},{"type":"function","name":"owner","inputs":[],"outputs":[{"name":"","type":"address","internalType":"address"}],"stateMutability":"view"},{"type":"function","name":"payloadSizeLimitLookup","inputs":[{"name":"","type":"uint16","internalType":"uint16"}],"outputs":[{"name":"","type":"uint256","internalType":"uint256"}],"stateMutability":"view"},{"type":"function","name":"precrime","inputs":[],"outputs":[{"name":"","type":"address","internalType":"address"}],"stateMutability":"view"},{"type":"function","name":"renounceOwnership","inputs":[],"outputs":[],"stateMutability":"nonpayable"},{"type":"function","name":"retryMessage","inputs":[{"name":"_srcChainId","type":"uint16","internalType":"uint16"},{"name":"_srcAddress","type":"bytes","internalType":"bytes"},{"name":"_nonce","type":"uint64","internalType":"uint64"},{"name":"_payload","type":"bytes","internalType":"bytes"}],"outputs":[],"stateMutability":"payable"},{"type":"function","name":"sendAndCall","inputs":[{"name":"_from","type":"address","internalType":"address"},{"name":"_dstChainId","type":"uint16","internalType":"uint16"},{"name":"_toAddress","type":"bytes32","internalType":"bytes32"},{"name":"_amount","type":"uint256","internalType":"uint256"},{"name":"_payload","type":"bytes","internalType":"bytes"},{"name":"_dstGasForCall","type":"uint64","internalType":"uint64"},{"name":"_callParams","type":"tuple","internalType":"struct ICommonOFT.LzCallParams","components":[{"name":"refundAddress","type":"address","internalType":"address payable"},{"name":"zroPaymentAddress","type":"address","internalType":"address"},{"name":"adapterParams","type":"bytes","internalType":"bytes"}]}],"outputs":[],"stateMutability":"payable"},{"type":"function","name":"sendFrom","inputs":[{"name":"_from","type":"address","internalType":"address"},{"name":"_dstChainId","type":"uint16","internalType":"uint16"},{"name":"_toAddress","type":"bytes32","internalType":"bytes32"},{"name":"_amount","type":"uint256","internalType":"uint256"},{"name":"_callParams","type":"tuple","internalType":"struct ICommonOFT.LzCallParams","components":[{"name":"refundAddress","type":"address","internalType":"address payable"},{"name":"zroPaymentAddress","type":"address","internalType":"address"},{"name":"adapterParams","type":"bytes","internalType":"bytes"}]}],"outputs":[],"stateMutability":"payable"},{"type":"function","name":"setConfig","inputs":[{"name":"_version","type":"uint16","internalType":"uint16"},{"name":"_chainId","type":"uint16","internalType":"uint16"},{"name":"_configType","type":"uint256","internalType":"uint256"},{"name":"_config","type":"bytes","internalType":"bytes"}],"outputs":[],"stateMutability":"nonpayable"},{"type":"function","name":"setMinDstGas","inputs":[{"name":"_dstChainId","type":"uint16","internalType":"uint16"},{"name":"_packetType","type":"uint16","internalType":"uint16"},{"name":"_minGas","type":"uint256","internalType":"uint256"}],"outputs":[],"stateMutability":"nonpayable"},{"type":"function","name":"setPayloadSizeLimit","inputs":[{"name":"_dstChainId","type":"uint16","internalType":"uint16"},{"name":"_size","type":"uint256","internalType":"uint256"}],"outputs":[],"stateMutability":"nonpayable"},{"type":"function","name":"setPrecrime","inputs":[{"name":"_precrime","type":"address","internalType":"address"}],"outputs":[],"stateMutability":"nonpayable"},{"type":"function","name":"setReceiveVersion","inputs":[{"name":"_version","type":"uint16","internalType":"uint16"}],"outputs":[],"stateMutability":"nonpayable"},{"type":"function","name":"setSendVersion","inputs":[{"name":"_version","type":"uint16","internalType":"uint16"}],"outputs":[],"stateMutability":"nonpayable"},{"type":"function","name":"setTrustedRemote","inputs":[{"name":"_remoteChainId","type":"uint16","internalType":"uint16"},{"name":"_path","type":"bytes","internalType":"bytes"}],"outputs":[],"stateMutability":"nonpayable"},{"type":"function","name":"setTrustedRemoteAddress","inputs":[{"name":"_remoteChainId","type":"uint16","internalType":"uint16"},{"name":"_remoteAddress","type":"bytes","internalType":"bytes"}],"outputs":[],"stateMutability":"nonpayable"},{"type":"function","name":"sharedDecimals","inputs":[],"outputs":[{"name":"","type":"uint8","internalType":"uint8"}],"stateMutability":"view"},{"type":"function","name":"supportsInterface","inputs":[{"name":"interfaceId","type":"bytes4","internalType":"bytes4"}],"outputs":[{"name":"","type":"bool","internalType":"bool"}],"stateMutability":"view"},{"type":"function","name":"symbol","inputs":[],"outputs":[{"name":"","type":"string","internalType":"string"}],"stateMutability":"view"},{"type":"function","name":"token","inputs":[],"outputs":[{"name":"","type":"address","internalType":"address"}],"stateMutability":"view"},{"type":"function","name":"totalSupply","inputs":[],"outputs":[{"name":"","type":"uint256","internalType":"uint256"}],"stateMutability":"view"},{"type":"function","name":"transfer","inputs":[{"name":"to","type":"address","internalType":"address"},{"name":"amount","type":"uint256","internalType":"uint256"}],"outputs":[{"name":"","type":"bool","internalType":"bool"}],"stateMutability":"nonpayable"},{"type":"function","name":"transferFrom","inputs":[{"name":"from","type":"address","internalType":"address"},{"name":"to","type":"address","internalType":"address"},{"name":"amount","type":"uint256","internalType":"uint256"}],"outputs":[{"name":"","type":"bool","internalType":"bool"}],"stateMutability":"nonpayable"},{"type":"function","name":"transferOwnership","inputs":[{"name":"newOwner","type":"address","internalType":"address"}],"outputs":[],"stateMutability":"nonpayable"},{"type":"function","name":"trustedRemoteLookup","inputs":[{"name":"","type":"uint16","internalType":"uint16"}],"outputs":[{"name":"","type":"bytes","internalType":"bytes"}],"stateMutability":"view"},{"type":"event","name":"Approval","inputs":[{"name":"owner","type":"address","indexed":true,"internalType":"address"},{"name":"spender","type":"address","indexed":true,"internalType":"address"},{"name":"value","type":"uint256","indexed":false,"internalType":"uint256"}],"anonymous":false},{"type":"event","name":"CallOFTReceivedSuccess","inputs":[{"name":"_srcChainId","type":"uint16","indexed":true,"internalType":"uint16"},{"name":"_srcAddress","type":"bytes","indexed":false,"internalType":"bytes"},{"name":"_nonce","type":"uint64","indexed":false,"internalType":"uint64"},{"name":"_hash","type":"bytes32","indexed":false,"internalType":"bytes32"}],"anonymous":false},{"type":"event","name":"MessageFailed","inputs":[{"name":"_srcChainId","type":"uint16","indexed":false,"internalType":"uint16"},{"name":"_srcAddress","type":"bytes","indexed":false,"internalType":"bytes"},{"name":"_nonce","type":"uint64","indexed":false,"internalType":"uint64"},{"name":"_payload","type":"bytes","indexed":false,"internalType":"bytes"},{"name":"_reason","type":"bytes","indexed":false,"internalType":"bytes"}],"anonymous":false},{"type":"event","name":"NonContractAddress","inputs":[{"name":"_address","type":"address","indexed":false,"internalType":"address"}],"anonymous":false},{"type":"event","name":"OwnershipTransferred","inputs":[{"name":"previousOwner","type":"address","indexed":true,"internalType":"address"},{"name":"newOwner","type":"address","indexed":true,"internalType":"address"}],"anonymous":false},{"type":"event","name":"ReceiveFromChain","inputs":[{"name":"_srcChainId","type":"uint16","indexed":true,"internalType":"uint16"},{"name":"_to","type":"address","indexed":true,"internalType":"address"},{"name":"_amount","type":"uint256","indexed":false,"internalType":"uint256"}],"anonymous":false},{"type":"event","name":"RetryMessageSuccess","inputs":[{"name":"_srcChainId","type":"uint16","indexed":false,"internalType":"uint16"},{"name":"_srcAddress","type":"bytes","indexed":false,"internalType":"bytes"},{"name":"_nonce","type":"uint64","indexed":false,"internalType":"uint64"},{"name":"_payloadHash","type":"bytes32","indexed":false,"internalType":"bytes32"}],"anonymous":false},{"type":"event","name":"SendToChain","inputs":[{"name":"_dstChainId","type":"uint16","indexed":true,"internalType":"uint16"},{"name":"_from","type":"address","indexed":true,"internalType":"address"},{"name":"_toAddress","type":"bytes32","indexed":true,"internalType":"bytes32"},{"name":"_amount","type":"uint256","indexed":false,"internalType":"uint256"}],"anonymous":false},{"type":"event","name":"SetMinDstGas","inputs":[{"name":"_dstChainId","type":"uint16","indexed":false,"internalType":"uint16"},{"name":"_type","type":"uint16","indexed":false,"internalType":"uint16"},{"name":"_minDstGas","type":"uint256","indexed":false,"internalType":"uint256"}],"anonymous":false},{"type":"event","name":"SetPrecrime","inputs":[{"name":"precrime","type":"address","indexed":false,"internalType":"address"}],"anonymous":false},{"type":"event","name":"SetTrustedRemote","inputs":[{"name":"_remoteChainId","type":"uint16","indexed":false,"internalType":"uint16"},{"name":"_path","type":"bytes","indexed":false,"internalType":"bytes"}],"anonymous":false},{"type":"event","name":"SetTrustedRemoteAddress","inputs":[{"name":"_remoteChainId","type":"uint16","indexed":false,"internalType":"uint16"},{"name":"_remoteAddress","type":"bytes","indexed":false,"internalType":"bytes"}],"anonymous":false},{"type":"event","name":"Transfer","inputs":[{"name":"from","type":"address","indexed":true,"internalType":"address"},{"name":"to","type":"address","indexed":true,"internalType":"address"},{"name":"value","type":"uint256","indexed":false,"internalType":"uint256"}],"anonymous":false}],"bytecode":{"object":"0x60e060405234801561000f575f80fd5b50604051617589380380617589833981810160405281019061003191906103f8565b8383600683838383838181808061005a61004f61014b60201b60201c565b61015260201b60201c565b8073ffffffffffffffffffffffffffffffffffffffff1660808173ffffffffffffffffffffffffffffffffffffffff168152505050508160ff1660a08160ff16815250505050505081600a90816100b191906106a1565b5080600b90816100c191906106a1565b5050505f6100d361021360201b60201c565b90508060ff168360ff16111561011e576040517f08c379a0000000000000000000000000000000000000000000000000000000008152600401610115906107f0565b60405180910390fd5b828161012a919061083b565b600a610136919061099e565b60c081815250505050505050505050506109e8565b5f33905090565b5f805f9054906101000a900473ffffffffffffffffffffffffffffffffffffffff169050815f806101000a81548173ffffffffffffffffffffffffffffffffffffffff021916908373ffffffffffffffffffffffffffffffffffffffff1602179055508173ffffffffffffffffffffffffffffffffffffffff168173ffffffffffffffffffffffffffffffffffffffff167f8be0079c531659141344cd1fd0a4f28419497f9722a3daafe3b4186f6b6457e060405160405180910390a35050565b5f6012905090565b5f604051905090565b5f80fd5b5f80fd5b5f80fd5b5f80fd5b5f601f19601f8301169050919050565b7f4e487b71000000000000000000000000000000000000000000000000000000005f52604160045260245ffd5b61027a82610234565b810181811067ffffffffffffffff8211171561029957610298610244565b5b80604052505050565b5f6102ab61021b565b90506102b78282610271565b919050565b5f67ffffffffffffffff8211156102d6576102d5610244565b5b6102df82610234565b9050602081019050919050565b8281835e5f83830152505050565b5f61030c610307846102bc565b6102a2565b90508281526020810184848401111561032857610327610230565b5b6103338482856102ec565b509392505050565b5f82601f83011261034f5761034e61022c565b5b815161035f8482602086016102fa565b91505092915050565b5f60ff82169050919050565b61037d81610368565b8114610387575f80fd5b50565b5f8151905061039881610374565b92915050565b5f73ffffffffffffffffffffffffffffffffffffffff82169050919050565b5f6103c78261039e565b9050919050565b6103d7816103bd565b81146103e1575f80fd5b50565b5f815190506103f2816103ce565b92915050565b5f805f80608085870312156104105761040f610224565b5b5f85015167ffffffffffffffff81111561042d5761042c610228565b5b6104398782880161033b565b945050602085015167ffffffffffffffff81111561045a57610459610228565b5b6104668782880161033b565b93505060406104778782880161038a565b9250506060610488878288016103e4565b91505092959194509250565b5f81519050919050565b7f4e487b71000000000000000000000000000000000000000000000000000000005f52602260045260245ffd5b5f60028204905060018216806104e257607f821691505b6020821081036104f5576104f461049e565b5b50919050565b5f819050815f5260205f209050919050565b5f6020601f8301049050919050565b5f82821b905092915050565b5f600883026105577fffffffffffffffffffffffffffffffffffffffffffffffffffffffffffffffff8261051c565b610561868361051c565b95508019841693508086168417925050509392505050565b5f819050919050565b5f819050919050565b5f6105a56105a061059b84610579565b610582565b610579565b9050919050565b5f819050919050565b6105be8361058b565b6105d26105ca826105ac565b848454610528565b825550505050565b5f90565b6105e66105da565b6105f18184846105b5565b505050565b5b81811015610614576106095f826105de565b6001810190506105f7565b5050565b601f8211156106595761062a816104fb565b6106338461050d565b81016020851015610642578190505b61065661064e8561050d565b8301826105f6565b50505b505050565b5f82821c905092915050565b5f6106795f198460080261065e565b1980831691505092915050565b5f610691838361066a565b9150826002028217905092915050565b6106aa82610494565b67ffffffffffffffff8111156106c3576106c2610244565b5b6106cd82546104cb565b6106d8828285610618565b5f60209050601f831160018114610709575f84156106f7578287015190505b6107018582610686565b865550610768565b601f198416610717866104fb565b5f5b8281101561073e57848901518255600182019150602085019450602081019050610719565b8683101561075b5784890151610757601f89168261066a565b8355505b6001600288020188555050505b505050505050565b5f82825260208201905092915050565b7f4f46543a20736861726564446563696d616c73206d757374206265203c3d20645f8201527f6563696d616c7300000000000000000000000000000000000000000000000000602082015250565b5f6107da602783610770565b91506107e582610780565b604082019050919050565b5f6020820190508181035f830152610807816107ce565b9050919050565b7f4e487b71000000000000000000000000000000000000000000000000000000005f52601160045260245ffd5b5f61084582610368565b915061085083610368565b9250828203905060ff8111156108695761086861080e565b5b92915050565b5f8160011c9050919050565b5f808291508390505b60018511156108c4578086048111156108a05761089f61080e565b5b60018516156108af5780820291505b80810290506108bd8561086f565b9450610884565b94509492505050565b5f826108dc5760019050610997565b816108e9575f9050610997565b81600181146108ff576002811461090957610938565b6001915050610997565b60ff84111561091b5761091a61080e565b5b8360020a9150848211156109325761093161080e565b5b50610997565b5060208310610133831016604e8410600b841016171561096d5782820a9050838111156109685761096761080e565b5b610997565b61097a848484600161087b565b925090508184048111156109915761099061080e565b5b81810290505b9392505050565b5f6109a882610579565b91506109b383610368565b92506109e07fffffffffffffffffffffffffffffffffffffffffffffffffffffffffffffffff84846108cd565b905092915050565b60805160a05160c051616b38610a515f395f61385101525f61166c01525f8181610baa01528181610f0901528181610fe60152818161123101528181611acb01528181611b7f0152818161219a015281816128d801528181612e0501526137750152616b385ff3fe6080604052600436106102ac575f3560e01c8063857749b011610174578063b353aaa7116100db578063df2a5b3b11610094578063eb8d72b71161006e578063eb8d72b714610af2578063f2fde38b14610b1a578063f5ecbdbc14610b42578063fc0c546a14610b7e576102ac565b8063df2a5b3b14610a78578063e6a20ae614610aa0578063eaffd49a14610aca576102ac565b8063b353aaa71461097c578063baf3292d146109a6578063c4461834146109ce578063cbed8b9c146109f8578063d1deba1f14610a20578063dd62ed3e14610a3c576102ac565b80639bdb98121161012d5780639bdb9812146108275780639f38369a14610863578063a457c2d71461089f578063a4c51df5146108db578063a6c3d16514610918578063a9059cbb14610940576102ac565b8063857749b0146107195780638cfd8f5c146107435780638da5cb5b1461077f5780639358928b146107a9578063950c8a74146107d357806395d89b41146107fd576102ac565b80633d8b38f61161021857806366ad5c8a116101d157806366ad5c8a1461062b578063695ef6bf1461065357806370a082311461066f578063715018a6146106ab5780637533d788146106c157806376203b48146106fd576102ac565b80633d8b38f6146104fb5780633f1f4fa41461053757806342d65a8d14610573578063447705151461059b5780634c42899a146105c55780635b8c41e6146105ef576102ac565b806310ddb1371161026a57806310ddb137146103ca57806318160ddd146103f257806323b872dd1461041c578063313ce56714610458578063365260b41461048257806339509351146104bf576102ac565b80621d3567146102b057806301ffc9a7146102d857806306fdde031461031457806307e0db171461033e578063095ea7b3146103665780630df37483146103a2575b5f80fd5b3480156102bb575f80fd5b506102d660048036038101906102d1919061406e565b610ba8565b005b3480156102e3575f80fd5b506102fe60048036038101906102f99190614166565b610df6565b60405161030b91906141ab565b60405180910390f35b34801561031f575f80fd5b50610328610e6f565b6040516103359190614234565b60405180910390f35b348015610349575f80fd5b50610364600480360381019061035f9190614254565b610eff565b005b348015610371575f80fd5b5061038c6004803603810190610387919061430c565b610f90565b60405161039991906141ab565b60405180910390f35b3480156103ad575f80fd5b506103c860048036038101906103c3919061434a565b610fb2565b005b3480156103d5575f80fd5b506103f060048036038101906103eb9190614254565b610fdc565b005b3480156103fd575f80fd5b5061040661106d565b6040516104139190614397565b60405180910390f35b348015610427575f80fd5b50610442600480360381019061043d91906143b0565b611076565b60405161044f91906141ab565b60405180910390f35b348015610463575f80fd5b5061046c6110a4565b604051610479919061441b565b60405180910390f35b34801561048d575f80fd5b506104a860048036038101906104a39190614491565b6110ac565b6040516104b6929190614527565b60405180910390f35b3480156104ca575f80fd5b506104e560048036038101906104e0919061430c565b61110d565b6040516104f291906141ab565b60405180910390f35b348015610506575f80fd5b50610521600480360381019061051c919061454e565b611143565b60405161052e91906141ab565b60405180910390f35b348015610542575f80fd5b5061055d60048036038101906105589190614254565b611212565b60405161056a9190614397565b60405180910390f35b34801561057e575f80fd5b506105996004803603810190610594919061454e565b611227565b005b3480156105a6575f80fd5b506105af6112be565b6040516105bc9190614397565b60405180910390f35b3480156105d0575f80fd5b506105d96112c2565b6040516105e6919061441b565b60405180910390f35b3480156105fa575f80fd5b50610615600480360381019061061091906146d3565b6112c6565b604051610622919061474e565b60405180910390f35b348015610636575f80fd5b50610651600480360381019061064c919061406e565b611309565b005b61066d60048036038101906106689190614789565b611418565b005b34801561067a575f80fd5b506106956004803603810190610690919061481c565b6114a3565b6040516106a29190614397565b60405180910390f35b3480156106b6575f80fd5b506106bf6114e9565b005b3480156106cc575f80fd5b506106e760048036038101906106e29190614254565b6114fc565b6040516106f49190614899565b60405180910390f35b610717600480360381019061071291906148b9565b611597565b005b348015610724575f80fd5b5061072d61166a565b60405161073a919061441b565b60405180910390f35b34801561074e575f80fd5b5061076960048036038101906107649190614992565b61168e565b6040516107769190614397565b60405180910390f35b34801561078a575f80fd5b506107936116ae565b6040516107a091906149df565b60405180910390f35b3480156107b4575f80fd5b506107bd6116d5565b6040516107ca9190614397565b60405180910390f35b3480156107de575f80fd5b506107e76116e3565b6040516107f491906149df565b60405180910390f35b348015610808575f80fd5b50610811611708565b60405161081e9190614234565b60405180910390f35b348015610832575f80fd5b5061084d600480360381019061084891906146d3565b611798565b60405161085a91906141ab565b60405180910390f35b34801561086e575f80fd5b5061088960048036038101906108849190614254565b6117e5565b6040516108969190614899565b60405180910390f35b3480156108aa575f80fd5b506108c560048036038101906108c0919061430c565b6118f7565b6040516108d291906141ab565b60405180910390f35b3480156108e6575f80fd5b5061090160048036038101906108fc91906149f8565b61196c565b60405161090f929190614527565b60405180910390f35b348015610923575f80fd5b5061093e6004803603810190610939919061454e565b611a15565b005b34801561094b575f80fd5b506109666004803603810190610961919061430c565b611aa7565b60405161097391906141ab565b60405180910390f35b348015610987575f80fd5b50610990611ac9565b60405161099d9190614b2f565b60405180910390f35b3480156109b1575f80fd5b506109cc60048036038101906109c7919061481c565b611aed565b005b3480156109d9575f80fd5b506109e2611b6f565b6040516109ef9190614397565b60405180910390f35b348015610a03575f80fd5b50610a1e6004803603810190610a199190614b48565b611b75565b005b610a3a6004803603810190610a35919061406e565b611c12565b005b348015610a47575f80fd5b50610a626004803603810190610a5d9190614bcc565b611e48565b604051610a6f9190614397565b60405180910390f35b348015610a83575f80fd5b50610a9e6004803603810190610a999190614c0a565b611eca565b005b348015610aab575f80fd5b50610ab4611f47565b604051610ac1919061441b565b60405180910390f35b348015610ad5575f80fd5b50610af06004803603810190610aeb9190614c5a565b611f4c565b005b348015610afd575f80fd5b50610b186004803603810190610b13919061454e565b6120a3565b005b348015610b25575f80fd5b50610b406004803603810190610b3b919061481c565b612114565b005b348015610b4d575f80fd5b50610b686004803603810190610b639190614d4b565b612196565b604051610b759190614899565b60405180910390f35b348015610b89575f80fd5b50610b92612243565b604051610b9f91906149df565b60405180910390f35b7f000000000000000000000000000000000000000000000000000000000000000073ffffffffffffffffffffffffffffffffffffffff16610be761224a565b73ffffffffffffffffffffffffffffffffffffffff1614610c3d576040517f08c379a0000000000000000000000000000000000000000000000000000000008152600401610c3490614df9565b60405180910390fd5b5f60015f8861ffff1661ffff1681526020019081526020015f208054610c6290614e44565b80601f0160208091040260200160405190810160405280929190818152602001828054610c8e90614e44565b8015610cd95780601f10610cb057610100808354040283529160200191610cd9565b820191905f5260205f20905b815481529060010190602001808311610cbc57829003601f168201915b50505050509050805186869050148015610cf357505f8151115b8015610d1c575080805190602001208686604051610d12929190614ea2565b6040518091039020145b610d5b576040517f08c379a0000000000000000000000000000000000000000000000000000000008152600401610d5290614f2a565b60405180910390fd5b610ded8787878080601f0160208091040260200160405190810160405280939291908181526020018383808284375f81840152601f19601f820116905080830192505050505050508686868080601f0160208091040260200160405190810160405280939291908181526020018383808284375f81840152601f19601f82011690508083019250505050505050612251565b50505050505050565b5f7f1f7ecdf7000000000000000000000000000000000000000000000000000000007bffffffffffffffffffffffffffffffffffffffffffffffffffffffff1916827bffffffffffffffffffffffffffffffffffffffffffffffffffffffff19161480610e685750610e678261231b565b5b9050919050565b6060600a8054610e7e90614e44565b80601f0160208091040260200160405190810160405280929190818152602001828054610eaa90614e44565b8015610ef55780601f10610ecc57610100808354040283529160200191610ef5565b820191905f5260205f20905b815481529060010190602001808311610ed857829003601f168201915b5050505050905090565b610f07612384565b7f000000000000000000000000000000000000000000000000000000000000000073ffffffffffffffffffffffffffffffffffffffff166307e0db17826040518263ffffffff1660e01b8152600401610f609190614f57565b5f604051808303815f87803b158015610f77575f80fd5b505af1158015610f89573d5f803e3d5ffd5b5050505050565b5f80610f9a61224a565b9050610fa7818585612402565b600191505092915050565b610fba612384565b8060035f8461ffff1661ffff1681526020019081526020015f20819055505050565b610fe4612384565b7f000000000000000000000000000000000000000000000000000000000000000073ffffffffffffffffffffffffffffffffffffffff166310ddb137826040518263ffffffff1660e01b815260040161103d9190614f57565b5f604051808303815f87803b158015611054575f80fd5b505af1158015611066573d5f803e3d5ffd5b5050505050565b5f600954905090565b5f8061108061224a565b905061108d8582856125c5565b611098858585612650565b60019150509392505050565b5f6012905090565b5f806110fe8888888888888080601f0160208091040260200160405190810160405280939291908181526020018383808284375f81840152601f19601f820116905080830192505050505050506128bf565b91509150965096945050505050565b5f8061111761224a565b90506111388185856111298589611e48565b6111339190614f9d565b612402565b600191505092915050565b5f8060015f8661ffff1661ffff1681526020019081526020015f20805461116990614e44565b80601f016020809104026020016040519081016040528092919081815260200182805461119590614e44565b80156111e05780601f106111b7576101008083540402835291602001916111e0565b820191905f5260205f20905b8154815290600101906020018083116111c357829003601f168201915b5050505050905083836040516111f7929190614ea2565b60405180910390208180519060200120149150509392505050565b6003602052805f5260405f205f915090505481565b61122f612384565b7f000000000000000000000000000000000000000000000000000000000000000073ffffffffffffffffffffffffffffffffffffffff166342d65a8d8484846040518463ffffffff1660e01b815260040161128c93929190614ffc565b5f604051808303815f87803b1580156112a3575f80fd5b505af11580156112b5573d5f803e3d5ffd5b50505050505050565b5f81565b5f81565b6005602052825f5260405f2082805160208101820180518482526020830160208501208183528095505050505050602052805f5260405f205f9250925050505481565b3073ffffffffffffffffffffffffffffffffffffffff1661132861224a565b73ffffffffffffffffffffffffffffffffffffffff161461137e576040517f08c379a00000000000000000000000000000000000000000000000000000000081526004016113759061509c565b60405180910390fd5b6114108686868080601f0160208091040260200160405190810160405280939291908181526020018383808284375f81840152601f19601f820116905080830192505050505050508585858080601f0160208091040260200160405190810160405280939291908181526020018383808284375f81840152601f19601f82011690508083019250505050505050612984565b505050505050565b61149b85858585855f01602081019061143191906150f5565b866020016020810190611444919061481c565b878060400190611454919061512c565b8080601f0160208091040260200160405190810160405280939291908181526020018383808284375f81840152601f19601f82011690508083019250505050505050612a1a565b505050505050565b5f60075f8373ffffffffffffffffffffffffffffffffffffffff1673ffffffffffffffffffffffffffffffffffffffff1681526020019081526020015f20549050919050565b6114f1612384565b6114fa5f612b0b565b565b6001602052805f5260405f205f91509050805461151890614e44565b80601f016020809104026020016040519081016040528092919081815260200182805461154490614e44565b801561158f5780601f106115665761010080835404028352916020019161158f565b820191905f5260205f20905b81548152906001019060200180831161157257829003601f168201915b505050505081565b61165f8888888888888080601f0160208091040260200160405190810160405280939291908181526020018383808284375f81840152601f19601f8201169050808301925050505050505087875f0160208101906115f591906150f5565b886020016020810190611608919061481c565b898060400190611618919061512c565b8080601f0160208091040260200160405190810160405280939291908181526020018383808284375f81840152601f19601f82011690508083019250505050505050612bcc565b505050505050505050565b7f000000000000000000000000000000000000000000000000000000000000000081565b6002602052815f5260405f20602052805f5260405f205f91509150505481565b5f805f9054906101000a900473ffffffffffffffffffffffffffffffffffffffff16905090565b5f6116de61106d565b905090565b60045f9054906101000a900473ffffffffffffffffffffffffffffffffffffffff1681565b6060600b805461171790614e44565b80601f016020809104026020016040519081016040528092919081815260200182805461174390614e44565b801561178e5780601f106117655761010080835404028352916020019161178e565b820191905f5260205f20905b81548152906001019060200180831161177157829003601f168201915b5050505050905090565b6006602052825f5260405f2082805160208101820180518482526020830160208501208183528095505050505050602052805f5260405f205f92509250509054906101000a900460ff1681565b60605f60015f8461ffff1661ffff1681526020019081526020015f20805461180c90614e44565b80601f016020809104026020016040519081016040528092919081815260200182805461183890614e44565b80156118835780601f1061185a57610100808354040283529160200191611883565b820191905f5260205f20905b81548152906001019060200180831161186657829003601f168201915b505050505090505f8151036118cd576040517f08c379a00000000000000000000000000000000000000000000000000000000081526004016118c4906151d8565b60405180910390fd5b6118ef5f601483516118df91906151f6565b83612ccd9092919063ffffffff16565b915050919050565b5f8061190161224a565b90505f61190e8286611e48565b905083811015611953576040517f08c379a000000000000000000000000000000000000000000000000000000000815260040161194a90615299565b60405180910390fd5b6119608286868403612402565b60019250505092915050565b5f80611a038b8b8b8b8b8080601f0160208091040260200160405190810160405280939291908181526020018383808284375f81840152601f19601f820116905080830192505050505050508a8a8a8a8080601f0160208091040260200160405190810160405280939291908181526020018383808284375f81840152601f19601f82011690508083019250505050505050612de9565b91509150995099975050505050505050565b611a1d612384565b818130604051602001611a32939291906152fc565b60405160208183030381529060405260015f8561ffff1661ffff1681526020019081526020015f209081611a6691906154b9565b507f8c0400cfe2d1199b1a725c78960bcc2a344d869b80590d0f2bd005db15a572ce838383604051611a9a93929190614ffc565b60405180910390a1505050565b5f80611ab161224a565b9050611abe818585612650565b600191505092915050565b7f000000000000000000000000000000000000000000000000000000000000000081565b611af5612384565b8060045f6101000a81548173ffffffffffffffffffffffffffffffffffffffff021916908373ffffffffffffffffffffffffffffffffffffffff1602179055507f5db758e995a17ec1ad84bdef7e8c3293a0bd6179bcce400dff5d4c3d87db726b81604051611b6491906149df565b60405180910390a150565b61271081565b611b7d612384565b7f000000000000000000000000000000000000000000000000000000000000000073ffffffffffffffffffffffffffffffffffffffff1663cbed8b9c86868686866040518663ffffffff1660e01b8152600401611bde959493929190615588565b5f604051808303815f87803b158015611bf5575f80fd5b505af1158015611c07573d5f803e3d5ffd5b505050505050505050565b5f60055f8861ffff1661ffff1681526020019081526020015f208686604051611c3c929190614ea2565b90815260200160405180910390205f8567ffffffffffffffff1667ffffffffffffffff1681526020019081526020015f205490505f801b8103611cb4576040517f08c379a0000000000000000000000000000000000000000000000000000000008152600401611cab90615644565b60405180910390fd5b808383604051611cc5929190614ea2565b604051809103902014611d0d576040517f08c379a0000000000000000000000000000000000000000000000000000000008152600401611d04906156d2565b60405180910390fd5b5f801b60055f8961ffff1661ffff1681526020019081526020015f208787604051611d39929190614ea2565b90815260200160405180910390205f8667ffffffffffffffff1667ffffffffffffffff1681526020019081526020015f2081905550611e008787878080601f0160208091040260200160405190810160405280939291908181526020018383808284375f81840152601f19601f820116905080830192505050505050508686868080601f0160208091040260200160405190810160405280939291908181526020018383808284375f81840152601f19601f82011690508083019250505050505050612984565b7fc264d91f3adc5588250e1551f547752ca0cfa8f6b530d243b9f9f4cab10ea8e58787878785604051611e379594939291906156ff565b60405180910390a150505050505050565b5f60085f8473ffffffffffffffffffffffffffffffffffffffff1673ffffffffffffffffffffffffffffffffffffffff1681526020019081526020015f205f8373ffffffffffffffffffffffffffffffffffffffff1673ffffffffffffffffffffffffffffffffffffffff1681526020019081526020015f2054905092915050565b611ed2612384565b8060025f8561ffff1661ffff1681526020019081526020015f205f8461ffff1661ffff1681526020019081526020015f20819055507f9d5c7c0b934da8fefa9c7760c98383778a12dfbfc0c3b3106518f43fb9508ac0838383604051611f3a9392919061574b565b60405180910390a1505050565b600181565b3073ffffffffffffffffffffffffffffffffffffffff16611f6b61224a565b73ffffffffffffffffffffffffffffffffffffffff1614611fc1576040517f08c379a0000000000000000000000000000000000000000000000000000000008152600401611fb8906157ca565b60405180910390fd5b611fcc308686612eb3565b93508473ffffffffffffffffffffffffffffffffffffffff168a61ffff167fbf551ec93859b170f9b2141bd9298bf3f64322c6f7beb2543a0cb669834118bf866040516120199190614397565b60405180910390a38473ffffffffffffffffffffffffffffffffffffffff16637fcf35da828c8c8c8c8c8b8b8b6040518a63ffffffff1660e01b81526004016120699897969594939291906157e8565b5f604051808303815f88803b158015612080575f80fd5b5087f1158015612092573d5f803e3d5ffd5b505050505050505050505050505050565b6120ab612384565b818160015f8661ffff1661ffff1681526020019081526020015f2091826120d3929190615863565b507ffa41487ad5d6728f0b19276fa1eddc16558578f5109fc39d2dc33c3230470dab83838360405161210793929190614ffc565b60405180910390a1505050565b61211c612384565b5f73ffffffffffffffffffffffffffffffffffffffff168173ffffffffffffffffffffffffffffffffffffffff160361218a576040517f08c379a0000000000000000000000000000000000000000000000000000000008152600401612181906159a0565b60405180910390fd5b61219381612b0b565b50565b60607f000000000000000000000000000000000000000000000000000000000000000073ffffffffffffffffffffffffffffffffffffffff1663f5ecbdbc868630866040518563ffffffff1660e01b81526004016121f794939291906159be565b5f60405180830381865afa158015612211573d5f803e3d5ffd5b505050506040513d5f823e3d601f19601f820116820180604052508101906122399190615a6f565b9050949350505050565b5f30905090565b5f33905090565b5f806122fc5a60966366ad5c8a60e01b898989896040516024016122789493929190615ab6565b604051602081830303815290604052907bffffffffffffffffffffffffffffffffffffffffffffffffffffffff19166020820180517bffffffffffffffffffffffffffffffffffffffffffffffffffffffff83818316178352505050503073ffffffffffffffffffffffffffffffffffffffff16612f4e909392919063ffffffff16565b9150915081612313576123128686868685612fe0565b5b505050505050565b5f7f01ffc9a7000000000000000000000000000000000000000000000000000000007bffffffffffffffffffffffffffffffffffffffffffffffffffffffff1916827bffffffffffffffffffffffffffffffffffffffffffffffffffffffff1916149050919050565b61238c61224a565b73ffffffffffffffffffffffffffffffffffffffff166123aa6116ae565b73ffffffffffffffffffffffffffffffffffffffff1614612400576040517f08c379a00000000000000000000000000000000000000000000000000000000081526004016123f790615b51565b60405180910390fd5b565b5f73ffffffffffffffffffffffffffffffffffffffff168373ffffffffffffffffffffffffffffffffffffffff1603612470576040517f08c379a000000000000000000000000000000000000000000000000000000000815260040161246790615bdf565b60405180910390fd5b5f73ffffffffffffffffffffffffffffffffffffffff168273ffffffffffffffffffffffffffffffffffffffff16036124de576040517f08c379a00000000000000000000000000000000000000000000000000000000081526004016124d590615c6d565b60405180910390fd5b8060085f8573ffffffffffffffffffffffffffffffffffffffff1673ffffffffffffffffffffffffffffffffffffffff1681526020019081526020015f205f8473ffffffffffffffffffffffffffffffffffffffff1673ffffffffffffffffffffffffffffffffffffffff1681526020019081526020015f20819055508173ffffffffffffffffffffffffffffffffffffffff168373ffffffffffffffffffffffffffffffffffffffff167f8c5be1e5ebec7d5bd14f71427d1e84f3dd0314c0f7b2291e5b200ac8c7c3b925836040516125b89190614397565b60405180910390a3505050565b5f6125d08484611e48565b90507fffffffffffffffffffffffffffffffffffffffffffffffffffffffffffffffff811461264a578181101561263c576040517f08c379a000000000000000000000000000000000000000000000000000000000815260040161263390615cd5565b60405180910390fd5b6126498484848403612402565b5b50505050565b5f73ffffffffffffffffffffffffffffffffffffffff168373ffffffffffffffffffffffffffffffffffffffff16036126be576040517f08c379a00000000000000000000000000000000000000000000000000000000081526004016126b590615d63565b60405180910390fd5b5f73ffffffffffffffffffffffffffffffffffffffff168273ffffffffffffffffffffffffffffffffffffffff160361272c576040517f08c379a000000000000000000000000000000000000000000000000000000000815260040161272390615df1565b60405180910390fd5b61273783838361308a565b5f60075f8573ffffffffffffffffffffffffffffffffffffffff1673ffffffffffffffffffffffffffffffffffffffff1681526020019081526020015f20549050818110156127bb576040517f08c379a00000000000000000000000000000000000000000000000000000000081526004016127b290615e7f565b60405180910390fd5b81810360075f8673ffffffffffffffffffffffffffffffffffffffff1673ffffffffffffffffffffffffffffffffffffffff1681526020019081526020015f20819055508160075f8573ffffffffffffffffffffffffffffffffffffffff1673ffffffffffffffffffffffffffffffffffffffff1681526020019081526020015f205f82825401925050819055508273ffffffffffffffffffffffffffffffffffffffff168473ffffffffffffffffffffffffffffffffffffffff167fddf252ad1be2c89b69c2b068fc378daa952ba7f163c4a11628f55a4df523b3ef846040516128a69190614397565b60405180910390a36128b984848461308f565b50505050565b5f805f6128d4876128cf88613094565b613101565b90507f000000000000000000000000000000000000000000000000000000000000000073ffffffffffffffffffffffffffffffffffffffff166340a7bb1089308489896040518663ffffffff1660e01b8152600401612937959493929190615e9d565b6040805180830381865afa158015612951573d5f803e3d5ffd5b505050506040513d601f19601f820116820180604052508101906129759190615f10565b92509250509550959350505050565b5f6129985f8361312f90919063ffffffff16565b90505f60ff168160ff16036129b8576129b385858585613194565b612a13565b600160ff168160ff16036129d7576129d285858585613251565b612a12565b6040517f08c379a0000000000000000000000000000000000000000000000000000000008152600401612a0990615f98565b60405180910390fd5b5b5050505050565b5f612a2a875f60ff16845f61351f565b612a33856135f7565b5080915050612a4488888884613621565b90505f8111612a88576040517f08c379a0000000000000000000000000000000000000000000000000000000008152600401612a7f90616000565b60405180910390fd5b5f612a9b87612a9684613094565b613101565b9050612aab888287878734613682565b868973ffffffffffffffffffffffffffffffffffffffff168961ffff167fd81fc9b8523134ed613870ed029d6170cbb73aa6a6bc311b9a642689fb9df59a85604051612af79190614397565b60405180910390a450979650505050505050565b5f805f9054906101000a900473ffffffffffffffffffffffffffffffffffffffff169050815f806101000a81548173ffffffffffffffffffffffffffffffffffffffff021916908373ffffffffffffffffffffffffffffffffffffffff1602179055508173ffffffffffffffffffffffffffffffffffffffff168173ffffffffffffffffffffffffffffffffffffffff167f8be0079c531659141344cd1fd0a4f28419497f9722a3daafe3b4186f6b6457e060405160405180910390a35050565b5f612be789600160ff16848867ffffffffffffffff1661351f565b612bf0876135f7565b5080915050612c018a8a8a84613621565b90505f8111612c45576040517f08c379a0000000000000000000000000000000000000000000000000000000008152600401612c3c90616000565b60405180910390fd5b5f612c5b338a612c5485613094565b8a8a61380e565b9050612c6b8a8287878734613682565b888b73ffffffffffffffffffffffffffffffffffffffff168b61ffff167fd81fc9b8523134ed613870ed029d6170cbb73aa6a6bc311b9a642689fb9df59a85604051612cb79190614397565b60405180910390a4509998505050505050505050565b606081601f83612cdd9190614f9d565b1015612d1e576040517f08c379a0000000000000000000000000000000000000000000000000000000008152600401612d1590616068565b60405180910390fd5b8183612d2a9190614f9d565b84511015612d6d576040517f08c379a0000000000000000000000000000000000000000000000000000000008152600401612d64906160d0565b60405180910390fd5b606082155f8114612d8c5760405191505f825260208201604052612ddd565b6040519150601f8416801560200281840101858101878315602002848b0101015b81831015612dca5780518352602083019250602081019050612dad565b50868552601f19601f8301166040525050505b50809150509392505050565b5f805f612e01338a612dfa8b613094565b8a8a61380e565b90507f000000000000000000000000000000000000000000000000000000000000000073ffffffffffffffffffffffffffffffffffffffff166340a7bb108b308489896040518663ffffffff1660e01b8152600401612e64959493929190615e9d565b6040805180830381865afa158015612e7e573d5f803e3d5ffd5b505050506040513d601f19601f82011682018060405250810190612ea29190615f10565b925092505097509795505050505050565b5f80612ebd61224a565b90503073ffffffffffffffffffffffffffffffffffffffff168573ffffffffffffffffffffffffffffffffffffffff1614158015612f2757508073ffffffffffffffffffffffffffffffffffffffff168573ffffffffffffffffffffffffffffffffffffffff1614155b15612f3857612f378582856125c5565b5b612f43858585612650565b829150509392505050565b5f60605f805f8661ffff1667ffffffffffffffff811115612f7257612f716145af565b5b6040519080825280601f01601f191660200182016040528015612fa45781602001600182028036833780820191505090505b5090505f808751602089015f8d8df191503d925086831115612fc4578692505b828152825f602083013e81819450945050505094509492505050565b818051906020012060055f8761ffff1661ffff1681526020019081526020015f208560405161300f919061611e565b90815260200160405180910390205f8567ffffffffffffffff1667ffffffffffffffff1681526020019081526020015f20819055507fe183f33de2837795525b4792ca4cd60535bd77c53b7e7030060bfcf5734d6b0c858585858560405161307b959493929190616134565b60405180910390a15050505050565b505050565b505050565b5f8061309e61384e565b836130a991906161c7565b905067ffffffffffffffff80168111156130f8576040517f08c379a00000000000000000000000000000000000000000000000000000000081526004016130ef90616241565b60405180910390fd5b80915050919050565b60605f8383604051602001613118939291906162e7565b604051602081830303815290604052905092915050565b5f60018261313d9190614f9d565b83511015613180576040517f08c379a00000000000000000000000000000000000000000000000000000000081526004016131779061636d565b60405180910390fd5b5f8260018501015190508091505092915050565b5f8061319f83613875565b915091505f73ffffffffffffffffffffffffffffffffffffffff168273ffffffffffffffffffffffffffffffffffffffff16036131dc5761dead91505b5f6131e68261390f565b90506131f3878483613934565b90508273ffffffffffffffffffffffffffffffffffffffff168761ffff167fbf551ec93859b170f9b2141bd9298bf3f64322c6f7beb2543a0cb669834118bf836040516132409190614397565b60405180910390a350505050505050565b5f805f805f61325f86613949565b945094509450945094505f60065f8b61ffff1661ffff1681526020019081526020015f2089604051613291919061611e565b90815260200160405180910390205f8967ffffffffffffffff1667ffffffffffffffff1681526020019081526020015f205f9054906101000a900460ff1690505f6132db8561390f565b905081613360576132ed8b3083613934565b9050600160065f8d61ffff1661ffff1681526020019081526020015f208b604051613318919061611e565b90815260200160405180910390205f8b67ffffffffffffffff1667ffffffffffffffff1681526020019081526020015f205f6101000a81548160ff0219169083151502179055505b61336986613a2f565b6133b0577f9aedf5fdba8716db3b6705ca00150643309995d4f818a249ed6dde6677e7792d8660405161339c91906149df565b60405180910390a150505050505050613519565b5f8b90505f8b90505f8b90505f8b90505f8b90505f8b90505f8790505f8b90505f8a6133e6578b67ffffffffffffffff166133e8565b5a5b90505f8061349d5a609663eaffd49a60e01b8e8e8e8d8d8d8d8d60405160240161341998979695949392919061638b565b604051602081830303815290604052907bffffffffffffffffffffffffffffffffffffffffffffffffffffffff19166020820180517bffffffffffffffffffffffffffffffffffffffffffffffffffffffff83818316178352505050503073ffffffffffffffffffffffffffffffffffffffff16612f4e909392919063ffffffff16565b9150915081156134f8575f888051906020012090508b61ffff167fb8890edbfc1c74692f527444645f95489c3703cc2df42e4a366f5d06fa6cd8848c8c846040516134ea93929190616415565b60405180910390a250613506565b6135058b8b8b8b85612fe0565b5b5050505050505050505050505050505050505b50505050565b5f61352983613a51565b90505f60025f8761ffff1661ffff1681526020019081526020015f205f8661ffff1661ffff1681526020019081526020015f205490505f81116135a1576040517f08c379a00000000000000000000000000000000000000000000000000000000081526004016135989061649b565b60405180910390fd5b82816135ad9190614f9d565b8210156135ef576040517f08c379a00000000000000000000000000000000000000000000000000000000081526004016135e690616503565b60405180910390fd5b505050505050565b5f8061360161384e565b8361360c9190616521565b9050808361361a91906151f6565b9150915091565b5f8061362b61224a565b90508073ffffffffffffffffffffffffffffffffffffffff168673ffffffffffffffffffffffffffffffffffffffff161461366c5761366b8682856125c5565b5b6136768684613aa3565b82915050949350505050565b5f60015f8861ffff1661ffff1681526020019081526020015f2080546136a790614e44565b80601f01602080910402602001604051908101604052809291908181526020018280546136d390614e44565b801561371e5780601f106136f55761010080835404028352916020019161371e565b820191905f5260205f20905b81548152906001019060200180831161370157829003601f168201915b505050505090505f815103613768576040517f08c379a000000000000000000000000000000000000000000000000000000000815260040161375f906165c1565b60405180910390fd5b613773878751613c68565b7f000000000000000000000000000000000000000000000000000000000000000073ffffffffffffffffffffffffffffffffffffffff1663c58031008389848a8a8a8a6040518863ffffffff1660e01b81526004016137d7969594939291906165ee565b5f604051808303818588803b1580156137ee575f80fd5b505af1158015613800573d5f803e3d5ffd5b505050505050505050505050565b60606001858561381d89613cda565b858760405160200161383496959493929190616662565b604051602081830303815290604052905095945050505050565b5f7f0000000000000000000000000000000000000000000000000000000000000000905090565b5f805f60ff1661388e5f8561312f90919063ffffffff16565b60ff1614801561389f575060298351145b6138de576040517f08c379a00000000000000000000000000000000000000000000000000000000081526004016138d590616717565b60405180910390fd5b6138f2600d84613cfb90919063ffffffff16565b9150613908602184613d6f90919063ffffffff16565b9050915091565b5f61391861384e565b8267ffffffffffffffff1661392d9190616735565b9050919050565b5f61393f8383613dd4565b8190509392505050565b5f805f60605f600160ff166139675f8861312f90919063ffffffff16565b60ff16146139aa576040517f08c379a00000000000000000000000000000000000000000000000000000000081526004016139a190616717565b60405180910390fd5b6139be600d87613cfb90919063ffffffff16565b93506139d4602187613d6f90919063ffffffff16565b92506139ea602987613f2390919063ffffffff16565b9450613a00604987613d6f90919063ffffffff16565b9050613a246051808851613a1491906151f6565b88612ccd9092919063ffffffff16565b915091939590929450565b5f808273ffffffffffffffffffffffffffffffffffffffff163b119050919050565b5f602282511015613a97576040517f08c379a0000000000000000000000000000000000000000000000000000000008152600401613a8e906167c0565b60405180910390fd5b60228201519050919050565b5f73ffffffffffffffffffffffffffffffffffffffff168273ffffffffffffffffffffffffffffffffffffffff1603613b11576040517f08c379a0000000000000000000000000000000000000000000000000000000008152600401613b089061684e565b60405180910390fd5b613b1c825f8361308a565b5f60075f8473ffffffffffffffffffffffffffffffffffffffff1673ffffffffffffffffffffffffffffffffffffffff1681526020019081526020015f2054905081811015613ba0576040517f08c379a0000000000000000000000000000000000000000000000000000000008152600401613b97906168dc565b60405180910390fd5b81810360075f8573ffffffffffffffffffffffffffffffffffffffff1673ffffffffffffffffffffffffffffffffffffffff1681526020019081526020015f20819055508160095f82825403925050819055505f73ffffffffffffffffffffffffffffffffffffffff168373ffffffffffffffffffffffffffffffffffffffff167fddf252ad1be2c89b69c2b068fc378daa952ba7f163c4a11628f55a4df523b3ef84604051613c509190614397565b60405180910390a3613c63835f8461308f565b505050565b5f60035f8461ffff1661ffff1681526020019081526020015f205490505f8103613c925761271090505b80821115613cd5576040517f08c379a0000000000000000000000000000000000000000000000000000000008152600401613ccc90616944565b60405180910390fd5b505050565b5f8173ffffffffffffffffffffffffffffffffffffffff165f1b9050919050565b5f601482613d099190614f9d565b83511015613d4c576040517f08c379a0000000000000000000000000000000000000000000000000000000008152600401613d43906169ac565b60405180910390fd5b5f6c01000000000000000000000000836020860101510490508091505092915050565b5f600882613d7d9190614f9d565b83511015613dc0576040517f08c379a0000000000000000000000000000000000000000000000000000000008152600401613db790616a14565b60405180910390fd5b5f8260088501015190508091505092915050565b5f73ffffffffffffffffffffffffffffffffffffffff168273ffffffffffffffffffffffffffffffffffffffff1603613e42576040517f08c379a0000000000000000000000000000000000000000000000000000000008152600401613e3990616a7c565b60405180910390fd5b613e4d5f838361308a565b8060095f828254613e5e9190614f9d565b925050819055508060075f8473ffffffffffffffffffffffffffffffffffffffff1673ffffffffffffffffffffffffffffffffffffffff1681526020019081526020015f205f82825401925050819055508173ffffffffffffffffffffffffffffffffffffffff165f73ffffffffffffffffffffffffffffffffffffffff167fddf252ad1be2c89b69c2b068fc378daa952ba7f163c4a11628f55a4df523b3ef83604051613f0c9190614397565b60405180910390a3613f1f5f838361308f565b5050565b5f602082613f319190614f9d565b83511015613f74576040517f08c379a0000000000000000000000000000000000000000000000000000000008152600401613f6b90616ae4565b60405180910390fd5b5f8260208501015190508091505092915050565b5f604051905090565b5f80fd5b5f80fd5b5f61ffff82169050919050565b613faf81613f99565b8114613fb9575f80fd5b50565b5f81359050613fca81613fa6565b92915050565b5f80fd5b5f80fd5b5f80fd5b5f8083601f840112613ff157613ff0613fd0565b5b8235905067ffffffffffffffff81111561400e5761400d613fd4565b5b60208301915083600182028301111561402a57614029613fd8565b5b9250929050565b5f67ffffffffffffffff82169050919050565b61404d81614031565b8114614057575f80fd5b50565b5f8135905061406881614044565b92915050565b5f805f805f806080878903121561408857614087613f91565b5b5f61409589828a01613fbc565b965050602087013567ffffffffffffffff8111156140b6576140b5613f95565b5b6140c289828a01613fdc565b955095505060406140d589828a0161405a565b935050606087013567ffffffffffffffff8111156140f6576140f5613f95565b5b61410289828a01613fdc565b92509250509295509295509295565b5f7fffffffff0000000000000000000000000000000000000000000000000000000082169050919050565b61414581614111565b811461414f575f80fd5b50565b5f813590506141608161413c565b92915050565b5f6020828403121561417b5761417a613f91565b5b5f61418884828501614152565b91505092915050565b5f8115159050919050565b6141a581614191565b82525050565b5f6020820190506141be5f83018461419c565b92915050565b5f81519050919050565b5f82825260208201905092915050565b8281835e5f83830152505050565b5f601f19601f8301169050919050565b5f614206826141c4565b61421081856141ce565b93506142208185602086016141de565b614229816141ec565b840191505092915050565b5f6020820190508181035f83015261424c81846141fc565b905092915050565b5f6020828403121561426957614268613f91565b5b5f61427684828501613fbc565b91505092915050565b5f73ffffffffffffffffffffffffffffffffffffffff82169050919050565b5f6142a88261427f565b9050919050565b6142b88161429e565b81146142c2575f80fd5b50565b5f813590506142d3816142af565b92915050565b5f819050919050565b6142eb816142d9565b81146142f5575f80fd5b50565b5f81359050614306816142e2565b92915050565b5f806040838503121561432257614321613f91565b5b5f61432f858286016142c5565b9250506020614340858286016142f8565b9150509250929050565b5f80604083850312156143605761435f613f91565b5b5f61436d85828601613fbc565b925050602061437e858286016142f8565b9150509250929050565b614391816142d9565b82525050565b5f6020820190506143aa5f830184614388565b92915050565b5f805f606084860312156143c7576143c6613f91565b5b5f6143d4868287016142c5565b93505060206143e5868287016142c5565b92505060406143f6868287016142f8565b9150509250925092565b5f60ff82169050919050565b61441581614400565b82525050565b5f60208201905061442e5f83018461440c565b92915050565b5f819050919050565b61444681614434565b8114614450575f80fd5b50565b5f813590506144618161443d565b92915050565b61447081614191565b811461447a575f80fd5b50565b5f8135905061448b81614467565b92915050565b5f805f805f8060a087890312156144ab576144aa613f91565b5b5f6144b889828a01613fbc565b96505060206144c989828a01614453565b95505060406144da89828a016142f8565b94505060606144eb89828a0161447d565b935050608087013567ffffffffffffffff81111561450c5761450b613f95565b5b61451889828a01613fdc565b92509250509295509295509295565b5f60408201905061453a5f830185614388565b6145476020830184614388565b9392505050565b5f805f6040848603121561456557614564613f91565b5b5f61457286828701613fbc565b935050602084013567ffffffffffffffff81111561459357614592613f95565b5b61459f86828701613fdc565b92509250509250925092565b5f80fd5b7f4e487b71000000000000000000000000000000000000000000000000000000005f52604160045260245ffd5b6145e5826141ec565b810181811067ffffffffffffffff82111715614604576146036145af565b5b80604052505050565b5f614616613f88565b905061462282826145dc565b919050565b5f67ffffffffffffffff821115614641576146406145af565b5b61464a826141ec565b9050602081019050919050565b828183375f83830152505050565b5f61467761467284614627565b61460d565b905082815260208101848484011115614693576146926145ab565b5b61469e848285614657565b509392505050565b5f82601f8301126146ba576146b9613fd0565b5b81356146ca848260208601614665565b91505092915050565b5f805f606084860312156146ea576146e9613f91565b5b5f6146f786828701613fbc565b935050602084013567ffffffffffffffff81111561471857614717613f95565b5b614724868287016146a6565b92505060406147358682870161405a565b9150509250925092565b61474881614434565b82525050565b5f6020820190506147615f83018461473f565b92915050565b5f80fd5b5f606082840312156147805761477f614767565b5b81905092915050565b5f805f805f60a086880312156147a2576147a1613f91565b5b5f6147af888289016142c5565b95505060206147c088828901613fbc565b94505060406147d188828901614453565b93505060606147e2888289016142f8565b925050608086013567ffffffffffffffff81111561480357614802613f95565b5b61480f8882890161476b565b9150509295509295909350565b5f6020828403121561483157614830613f91565b5b5f61483e848285016142c5565b91505092915050565b5f81519050919050565b5f82825260208201905092915050565b5f61486b82614847565b6148758185614851565b93506148858185602086016141de565b61488e816141ec565b840191505092915050565b5f6020820190508181035f8301526148b18184614861565b905092915050565b5f805f805f805f8060e0898b0312156148d5576148d4613f91565b5b5f6148e28b828c016142c5565b98505060206148f38b828c01613fbc565b97505060406149048b828c01614453565b96505060606149158b828c016142f8565b955050608089013567ffffffffffffffff81111561493657614935613f95565b5b6149428b828c01613fdc565b945094505060a06149558b828c0161405a565b92505060c089013567ffffffffffffffff81111561497657614975613f95565b5b6149828b828c0161476b565b9150509295985092959890939650565b5f80604083850312156149a8576149a7613f91565b5b5f6149b585828601613fbc565b92505060206149c685828601613fbc565b9150509250929050565b6149d98161429e565b82525050565b5f6020820190506149f25f8301846149d0565b92915050565b5f805f805f805f805f60e08a8c031215614a1557614a14613f91565b5b5f614a228c828d01613fbc565b9950506020614a338c828d01614453565b9850506040614a448c828d016142f8565b97505060608a013567ffffffffffffffff811115614a6557614a64613f95565b5b614a718c828d01613fdc565b96509650506080614a848c828d0161405a565b94505060a0614a958c828d0161447d565b93505060c08a013567ffffffffffffffff811115614ab657614ab5613f95565b5b614ac28c828d01613fdc565b92509250509295985092959850929598565b5f819050919050565b5f614af7614af2614aed8461427f565b614ad4565b61427f565b9050919050565b5f614b0882614add565b9050919050565b5f614b1982614afe565b9050919050565b614b2981614b0f565b82525050565b5f602082019050614b425f830184614b20565b92915050565b5f805f805f60808688031215614b6157614b60613f91565b5b5f614b6e88828901613fbc565b9550506020614b7f88828901613fbc565b9450506040614b90888289016142f8565b935050606086013567ffffffffffffffff811115614bb157614bb0613f95565b5b614bbd88828901613fdc565b92509250509295509295909350565b5f8060408385031215614be257614be1613f91565b5b5f614bef858286016142c5565b9250506020614c00858286016142c5565b9150509250929050565b5f805f60608486031215614c2157614c20613f91565b5b5f614c2e86828701613fbc565b9350506020614c3f86828701613fbc565b9250506040614c50868287016142f8565b9150509250925092565b5f805f805f805f805f806101008b8d031215614c7957614c78613f91565b5b5f614c868d828e01613fbc565b9a505060208b013567ffffffffffffffff811115614ca757614ca6613f95565b5b614cb38d828e01613fdc565b99509950506040614cc68d828e0161405a565b9750506060614cd78d828e01614453565b9650506080614ce88d828e016142c5565b95505060a0614cf98d828e016142f8565b94505060c08b013567ffffffffffffffff811115614d1a57614d19613f95565b5b614d268d828e01613fdc565b935093505060e0614d398d828e016142f8565b9150509295989b9194979a5092959850565b5f805f8060808587031215614d6357614d62613f91565b5b5f614d7087828801613fbc565b9450506020614d8187828801613fbc565b9350506040614d92878288016142c5565b9250506060614da3878288016142f8565b91505092959194509250565b7f4c7a4170703a20696e76616c696420656e64706f696e742063616c6c657200005f82015250565b5f614de3601e836141ce565b9150614dee82614daf565b602082019050919050565b5f6020820190508181035f830152614e1081614dd7565b9050919050565b7f4e487b71000000000000000000000000000000000000000000000000000000005f52602260045260245ffd5b5f6002820490506001821680614e5b57607f821691505b602082108103614e6e57614e6d614e17565b5b50919050565b5f81905092915050565b5f614e898385614e74565b9350614e96838584614657565b82840190509392505050565b5f614eae828486614e7e565b91508190509392505050565b7f4c7a4170703a20696e76616c696420736f757263652073656e64696e6720636f5f8201527f6e74726163740000000000000000000000000000000000000000000000000000602082015250565b5f614f146026836141ce565b9150614f1f82614eba565b604082019050919050565b5f6020820190508181035f830152614f4181614f08565b9050919050565b614f5181613f99565b82525050565b5f602082019050614f6a5f830184614f48565b92915050565b7f4e487b71000000000000000000000000000000000000000000000000000000005f52601160045260245ffd5b5f614fa7826142d9565b9150614fb2836142d9565b9250828201905080821115614fca57614fc9614f70565b5b92915050565b5f614fdb8385614851565b9350614fe8838584614657565b614ff1836141ec565b840190509392505050565b5f60408201905061500f5f830186614f48565b8181036020830152615022818486614fd0565b9050949350505050565b7f4e6f6e626c6f636b696e674c7a4170703a2063616c6c6572206d7573742062655f8201527f204c7a4170700000000000000000000000000000000000000000000000000000602082015250565b5f6150866026836141ce565b91506150918261502c565b604082019050919050565b5f6020820190508181035f8301526150b38161507a565b9050919050565b5f6150c48261427f565b9050919050565b6150d4816150ba565b81146150de575f80fd5b50565b5f813590506150ef816150cb565b92915050565b5f6020828403121561510a57615109613f91565b5b5f615117848285016150e1565b91505092915050565b5f80fd5b5f80fd5b5f80fd5b5f808335600160200384360303811261514857615147615120565b5b80840192508235915067ffffffffffffffff82111561516a57615169615124565b5b60208301925060018202360383131561518657615185615128565b5b509250929050565b7f4c7a4170703a206e6f20747275737465642070617468207265636f72640000005f82015250565b5f6151c2601d836141ce565b91506151cd8261518e565b602082019050919050565b5f6020820190508181035f8301526151ef816151b6565b9050919050565b5f615200826142d9565b915061520b836142d9565b925082820390508181111561522357615222614f70565b5b92915050565b7f45524332303a2064656372656173656420616c6c6f77616e63652062656c6f775f8201527f207a65726f000000000000000000000000000000000000000000000000000000602082015250565b5f6152836025836141ce565b915061528e82615229565b604082019050919050565b5f6020820190508181035f8301526152b081615277565b9050919050565b5f8160601b9050919050565b5f6152cd826152b7565b9050919050565b5f6152de826152c3565b9050919050565b6152f66152f18261429e565b6152d4565b82525050565b5f615308828587614e7e565b915061531482846152e5565b601482019150819050949350505050565b5f819050815f5260205f209050919050565b5f6020601f8301049050919050565b5f82821b905092915050565b5f600883026153817fffffffffffffffffffffffffffffffffffffffffffffffffffffffffffffffff82615346565b61538b8683615346565b95508019841693508086168417925050509392505050565b5f6153bd6153b86153b3846142d9565b614ad4565b6142d9565b9050919050565b5f819050919050565b6153d6836153a3565b6153ea6153e2826153c4565b848454615352565b825550505050565b5f90565b6153fe6153f2565b6154098184846153cd565b505050565b5b8181101561542c576154215f826153f6565b60018101905061540f565b5050565b601f8211156154715761544281615325565b61544b84615337565b8101602085101561545a578190505b61546e61546685615337565b83018261540e565b50505b505050565b5f82821c905092915050565b5f6154915f1984600802615476565b1980831691505092915050565b5f6154a98383615482565b9150826002028217905092915050565b6154c282614847565b67ffffffffffffffff8111156154db576154da6145af565b5b6154e58254614e44565b6154f0828285615430565b5f60209050601f831160018114615521575f841561550f578287015190505b615519858261549e565b865550615580565b601f19841661552f86615325565b5f5b8281101561555657848901518255600182019150602085019450602081019050615531565b86831015615573578489015161556f601f891682615482565b8355505b6001600288020188555050505b505050505050565b5f60808201905061559b5f830188614f48565b6155a86020830187614f48565b6155b56040830186614388565b81810360608301526155c8818486614fd0565b90509695505050505050565b7f4e6f6e626c6f636b696e674c7a4170703a206e6f2073746f726564206d6573735f8201527f6167650000000000000000000000000000000000000000000000000000000000602082015250565b5f61562e6023836141ce565b9150615639826155d4565b604082019050919050565b5f6020820190508181035f83015261565b81615622565b9050919050565b7f4e6f6e626c6f636b696e674c7a4170703a20696e76616c6964207061796c6f615f8201527f6400000000000000000000000000000000000000000000000000000000000000602082015250565b5f6156bc6021836141ce565b91506156c782615662565b604082019050919050565b5f6020820190508181035f8301526156e9816156b0565b9050919050565b6156f981614031565b82525050565b5f6080820190506157125f830188614f48565b8181036020830152615725818688614fd0565b905061573460408301856156f0565b615741606083018461473f565b9695505050505050565b5f60608201905061575e5f830186614f48565b61576b6020830185614f48565b6157786040830184614388565b949350505050565b7f4f4654436f72653a2063616c6c6572206d757374206265204f4654436f7265005f82015250565b5f6157b4601f836141ce565b91506157bf82615780565b602082019050919050565b5f6020820190508181035f8301526157e1816157a8565b9050919050565b5f60c0820190506157fb5f83018b614f48565b818103602083015261580e81898b614fd0565b905061581d60408301886156f0565b61582a606083018761473f565b6158376080830186614388565b81810360a083015261584a818486614fd0565b90509998505050505050505050565b5f82905092915050565b61586d8383615859565b67ffffffffffffffff811115615886576158856145af565b5b6158908254614e44565b61589b828285615430565b5f601f8311600181146158c8575f84156158b6578287013590505b6158c0858261549e565b865550615927565b601f1984166158d686615325565b5f5b828110156158fd578489013582556001820191506020850194506020810190506158d8565b8683101561591a5784890135615916601f891682615482565b8355505b6001600288020188555050505b50505050505050565b7f4f776e61626c653a206e6577206f776e657220697320746865207a65726f20615f8201527f6464726573730000000000000000000000000000000000000000000000000000602082015250565b5f61598a6026836141ce565b915061599582615930565b604082019050919050565b5f6020820190508181035f8301526159b78161597e565b9050919050565b5f6080820190506159d15f830187614f48565b6159de6020830186614f48565b6159eb60408301856149d0565b6159f86060830184614388565b95945050505050565b5f615a13615a0e84614627565b61460d565b905082815260208101848484011115615a2f57615a2e6145ab565b5b615a3a8482856141de565b509392505050565b5f82601f830112615a5657615a55613fd0565b5b8151615a66848260208601615a01565b91505092915050565b5f60208284031215615a8457615a83613f91565b5b5f82015167ffffffffffffffff811115615aa157615aa0613f95565b5b615aad84828501615a42565b91505092915050565b5f608082019050615ac95f830187614f48565b8181036020830152615adb8186614861565b9050615aea60408301856156f0565b8181036060830152615afc8184614861565b905095945050505050565b7f4f776e61626c653a2063616c6c6572206973206e6f7420746865206f776e65725f82015250565b5f615b3b6020836141ce565b9150615b4682615b07565b602082019050919050565b5f6020820190508181035f830152615b6881615b2f565b9050919050565b7f45524332303a20617070726f76652066726f6d20746865207a65726f206164645f8201527f7265737300000000000000000000000000000000000000000000000000000000602082015250565b5f615bc96024836141ce565b9150615bd482615b6f565b604082019050919050565b5f6020820190508181035f830152615bf681615bbd565b9050919050565b7f45524332303a20617070726f766520746f20746865207a65726f2061646472655f8201527f7373000000000000000000000000000000000000000000000000000000000000602082015250565b5f615c576022836141ce565b9150615c6282615bfd565b604082019050919050565b5f6020820190508181035f830152615c8481615c4b565b9050919050565b7f45524332303a20696e73756666696369656e7420616c6c6f77616e63650000005f82015250565b5f615cbf601d836141ce565b9150615cca82615c8b565b602082019050919050565b5f6020820190508181035f830152615cec81615cb3565b9050919050565b7f45524332303a207472616e736665722066726f6d20746865207a65726f2061645f8201527f6472657373000000000000000000000000000000000000000000000000000000602082015250565b5f615d4d6025836141ce565b9150615d5882615cf3565b604082019050919050565b5f6020820190508181035f830152615d7a81615d41565b9050919050565b7f45524332303a207472616e7366657220746f20746865207a65726f20616464725f8201527f6573730000000000000000000000000000000000000000000000000000000000602082015250565b5f615ddb6023836141ce565b9150615de682615d81565b604082019050919050565b5f6020820190508181035f830152615e0881615dcf565b9050919050565b7f45524332303a207472616e7366657220616d6f756e74206578636565647320625f8201527f616c616e63650000000000000000000000000000000000000000000000000000602082015250565b5f615e696026836141ce565b9150615e7482615e0f565b604082019050919050565b5f6020820190508181035f830152615e9681615e5d565b9050919050565b5f60a082019050615eb05f830188614f48565b615ebd60208301876149d0565b8181036040830152615ecf8186614861565b9050615ede606083018561419c565b8181036080830152615ef08184614861565b90509695505050505050565b5f81519050615f0a816142e2565b92915050565b5f8060408385031215615f2657615f25613f91565b5b5f615f3385828601615efc565b9250506020615f4485828601615efc565b9150509250929050565b7f4f4654436f72653a20756e6b6e6f776e207061636b65742074797065000000005f82015250565b5f615f82601c836141ce565b9150615f8d82615f4e565b602082019050919050565b5f6020820190508181035f830152615faf81615f76565b9050919050565b7f4f4654436f72653a20616d6f756e7420746f6f20736d616c6c000000000000005f82015250565b5f615fea6019836141ce565b9150615ff582615fb6565b602082019050919050565b5f6020820190508181035f83015261601781615fde565b9050919050565b7f736c6963655f6f766572666c6f770000000000000000000000000000000000005f82015250565b5f616052600e836141ce565b915061605d8261601e565b602082019050919050565b5f6020820190508181035f83015261607f81616046565b9050919050565b7f736c6963655f6f75744f66426f756e64730000000000000000000000000000005f82015250565b5f6160ba6011836141ce565b91506160c582616086565b602082019050919050565b5f6020820190508181035f8301526160e7816160ae565b9050919050565b5f6160f882614847565b6161028185614e74565b93506161128185602086016141de565b80840191505092915050565b5f61612982846160ee565b915081905092915050565b5f60a0820190506161475f830188614f48565b81810360208301526161598187614861565b905061616860408301866156f0565b818103606083015261617a8185614861565b9050818103608083015261618e8184614861565b90509695505050505050565b7f4e487b71000000000000000000000000000000000000000000000000000000005f52601260045260245ffd5b5f6161d1826142d9565b91506161dc836142d9565b9250826161ec576161eb61619a565b5b828204905092915050565b7f4f4654436f72653a20616d6f756e745344206f766572666c6f770000000000005f82015250565b5f61622b601a836141ce565b9150616236826161f7565b602082019050919050565b5f6020820190508181035f8301526162588161621f565b9050919050565b5f8160f81b9050919050565b5f6162758261625f565b9050919050565b61628d61628882614400565b61626b565b82525050565b5f819050919050565b6162ad6162a882614434565b616293565b82525050565b5f8160c01b9050919050565b5f6162c9826162b3565b9050919050565b6162e16162dc82614031565b6162bf565b82525050565b5f6162f2828661627c565b600182019150616302828561629c565b60208201915061631282846162d0565b600882019150819050949350505050565b7f746f55696e74385f6f75744f66426f756e6473000000000000000000000000005f82015250565b5f6163576013836141ce565b915061636282616323565b602082019050919050565b5f6020820190508181035f8301526163848161634b565b9050919050565b5f6101008201905061639f5f83018b614f48565b81810360208301526163b1818a614861565b90506163c060408301896156f0565b6163cd606083018861473f565b6163da60808301876149d0565b6163e760a0830186614388565b81810360c08301526163f98185614861565b905061640860e0830184614388565b9998505050505050505050565b5f6060820190508181035f83015261642d8186614861565b905061643c60208301856156f0565b616449604083018461473f565b949350505050565b7f4c7a4170703a206d696e4761734c696d6974206e6f74207365740000000000005f82015250565b5f616485601a836141ce565b915061649082616451565b602082019050919050565b5f6020820190508181035f8301526164b281616479565b9050919050565b7f4c7a4170703a20676173206c696d697420697320746f6f206c6f7700000000005f82015250565b5f6164ed601b836141ce565b91506164f8826164b9565b602082019050919050565b5f6020820190508181035f83015261651a816164e1565b9050919050565b5f61652b826142d9565b9150616536836142d9565b9250826165465761654561619a565b5b828206905092915050565b7f4c7a4170703a2064657374696e6174696f6e20636861696e206973206e6f74205f8201527f61207472757374656420736f7572636500000000000000000000000000000000602082015250565b5f6165ab6030836141ce565b91506165b682616551565b604082019050919050565b5f6020820190508181035f8301526165d88161659f565b9050919050565b6165e8816150ba565b82525050565b5f60c0820190506166015f830189614f48565b81810360208301526166138188614861565b905081810360408301526166278187614861565b905061663660608301866165df565b61664360808301856149d0565b81810360a08301526166558184614861565b9050979650505050505050565b5f61666d828961627c565b60018201915061667d828861629c565b60208201915061668d82876162d0565b60088201915061669d828661629c565b6020820191506166ad82856162d0565b6008820191506166bd82846160ee565b9150819050979650505050505050565b7f4f4654436f72653a20696e76616c6964207061796c6f616400000000000000005f82015250565b5f6167016018836141ce565b915061670c826166cd565b602082019050919050565b5f6020820190508181035f83015261672e816166f5565b9050919050565b5f61673f826142d9565b915061674a836142d9565b9250828202616758816142d9565b9150828204841483151761676f5761676e614f70565b5b5092915050565b7f4c7a4170703a20696e76616c69642061646170746572506172616d73000000005f82015250565b5f6167aa601c836141ce565b91506167b582616776565b602082019050919050565b5f6020820190508181035f8301526167d78161679e565b9050919050565b7f45524332303a206275726e2066726f6d20746865207a65726f206164647265735f8201527f7300000000000000000000000000000000000000000000000000000000000000602082015250565b5f6168386021836141ce565b9150616843826167de565b604082019050919050565b5f6020820190508181035f8301526168658161682c565b9050919050565b7f45524332303a206275726e20616d6f756e7420657863656564732062616c616e5f8201527f6365000000000000000000000000000000000000000000000000000000000000602082015250565b5f6168c66022836141ce565b91506168d18261686c565b604082019050919050565b5f6020820190508181035f8301526168f3816168ba565b9050919050565b7f4c7a4170703a207061796c6f61642073697a6520697320746f6f206c617267655f82015250565b5f61692e6020836141ce565b9150616939826168fa565b602082019050919050565b5f6020820190508181035f83015261695b81616922565b9050919050565b7f746f416464726573735f6f75744f66426f756e647300000000000000000000005f82015250565b5f6169966015836141ce565b91506169a182616962565b602082019050919050565b5f6020820190508181035f8301526169c38161698a565b9050919050565b7f746f55696e7436345f6f75744f66426f756e64730000000000000000000000005f82015250565b5f6169fe6014836141ce565b9150616a09826169ca565b602082019050919050565b5f6020820190508181035f830152616a2b816169f2565b9050919050565b7f45524332303a206d696e7420746f20746865207a65726f2061646472657373005f82015250565b5f616a66601f836141ce565b9150616a7182616a32565b602082019050919050565b5f6020820190508181035f830152616a9381616a5a565b9050919050565b7f746f427974657333325f6f75744f66426f756e647300000000000000000000005f82015250565b5f616ace6015836141ce565b9150616ad982616a9a565b602082019050919050565b5f6020820190508181035f830152616afb81616ac2565b905091905056fea2646970667358221220e48fa84e55bc3edc46adfb372beb557cfda2667a15d0217f6c1ad5fb13fc70aa64736f6c634300081a0033","linkReferences":{}},"methodIdentifiers":{"DEFAULT_PAYLOAD_SIZE_LIMIT()":"c4461834","NO_EXTRA_GAS()":"44770515","PT_SEND()":"4c42899a","PT_SEND_AND_CALL()":"e6a20ae6","allowance(address,address)":"dd62ed3e","approve(address,uint256)":"095ea7b3","balanceOf(address)":"70a08231","callOnOFTReceived(uint16,bytes,uint64,bytes32,address,uint256,bytes,uint256)":"eaffd49a","circulatingSupply()":"9358928b","creditedPackets(uint16,bytes,uint64)":"9bdb9812","decimals()":"313ce567","decreaseAllowance(address,uint256)":"a457c2d7","estimateSendAndCallFee(uint16,bytes32,uint256,bytes,uint64,bool,bytes)":"a4c51df5","estimateSendFee(uint16,bytes32,uint256,bool,bytes)":"365260b4","failedMessages(uint16,bytes,uint64)":"5b8c41e6","forceResumeReceive(uint16,bytes)":"42d65a8d","getConfig(uint16,uint16,address,uint256)":"f5ecbdbc","getTrustedRemoteAddress(uint16)":"9f38369a","increaseAllowance(address,uint256)":"39509351","isTrustedRemote(uint16,bytes)":"3d8b38f6","lzEndpoint()":"b353aaa7","lzReceive(uint16,bytes,uint64,bytes)":"001d3567","minDstGasLookup(uint16,uint16)":"8cfd8f5c","name()":"06fdde03","nonblockingLzReceive(uint16,bytes,uint64,bytes)":"66ad5c8a","owner()":"8da5cb5b","payloadSizeLimitLookup(uint16)":"3f1f4fa4","precrime()":"950c8a74","renounceOwnership()":"715018a6","retryMessage(uint16,bytes,uint64,bytes)":"d1deba1f","sendAndCall(address,uint16,bytes32,uint256,bytes,uint64,(address,address,bytes))":"76203b48","sendFrom(address,uint16,bytes32,uint256,(address,address,bytes))":"695ef6bf","setConfig(uint16,uint16,uint256,bytes)":"cbed8b9c","setMinDstGas(uint16,uint16,uint256)":"df2a5b3b","setPayloadSizeLimit(uint16,uint256)":"0df37483","setPrecrime(address)":"baf3292d","setReceiveVersion(uint16)":"10ddb137","setSendVersion(uint16)":"07e0db17","setTrustedRemote(uint16,bytes)":"eb8d72b7","setTrustedRemoteAddress(uint16,bytes)":"a6c3d165","sharedDecimals()":"857749b0","supportsInterface(bytes4)":"01ffc9a7","symbol()":"95d89b41","token()":"fc0c546a","totalSupply()":"18160ddd","transfer(address,uint256)":"a9059cbb","transferFrom(address,address,uint256)":"23b872dd","transferOwnership(address)":"f2fde38b","trustedRemoteLookup(uint16)":"7533d788"},"id":27}