{"abi":[{"type":"constructor","inputs":[{"name":"name_","type":"string","internalType":"string"},{"name":"symbol_","type":"string","internalType":"string"},{"name":"endpoint_","type":"address","internalType":"address"},{"name":"defaultOptions","type":"bytes","internalType":"bytes"}],"stateMutability":"nonpayable"},{"type":"function","name":"allowInitializePath","inputs":[{"name":"_origin","type":"tuple","internalType":"struct Origin","components":[{"name":"srcEid","type":"uint32","internalType":"uint32"},{"name":"sender","type":"bytes32","internalType":"bytes32"},{"name":"nonce","type":"uint64","internalType":"uint64"}]}],"outputs":[{"name":"","type":"bool","internalType":"bool"}],"stateMutability":"view"},{"type":"function","name":"allowance","inputs":[{"name":"","type":"address","internalType":"address"},{"name":"","type":"address","internalType":"address"}],"outputs":[{"name":"","type":"uint256","internalType":"uint256"}],"stateMutability":"view"},{"type":"function","name":"approve","inputs":[{"name":"spender","type":"address","internalType":"address"},{"name":"value","type":"uint256","internalType":"uint256"}],"outputs":[{"name":"","type":"bool","internalType":"bool"}],"stateMutability":"nonpayable"},{"type":"function","name":"balanceOf","inputs":[{"name":"","type":"address","internalType":"address"}],"outputs":[{"name":"","type":"uint256","internalType":"uint256"}],"stateMutability":"view"},{"type":"function","name":"burnFrom","inputs":[{"name":"from","type":"address","internalType":"address"},{"name":"value","type":"uint256","internalType":"uint256"}],"outputs":[],"stateMutability":"nonpayable"},{"type":"function","name":"decimals","inputs":[],"outputs":[{"name":"","type":"uint8","internalType":"uint8"}],"stateMutability":"view"},{"type":"function","name":"defaultOptions","inputs":[],"outputs":[{"name":"","type":"bytes","internalType":"bytes"}],"stateMutability":"view"},{"type":"function","name":"endpoint","inputs":[],"outputs":[{"name":"","type":"address","internalType":"contract ILayerZeroEndpointV2"}],"stateMutability":"view"},{"type":"function","name":"inboundNonce","inputs":[{"name":"","type":"uint32","internalType":"uint32"},{"name":"","type":"bytes32","internalType":"bytes32"}],"outputs":[{"name":"","type":"uint64","internalType":"uint64"}],"stateMutability":"view"},{"type":"function","name":"lzReceive","inputs":[{"name":"_origin","type":"tuple","internalType":"struct Origin","components":[{"name":"srcEid","type":"uint32","internalType":"uint32"},{"name":"sender","type":"bytes32","internalType":"bytes32"},{"name":"nonce","type":"uint64","internalType":"uint64"}]},{"name":"_guid","type":"bytes32","internalType":"bytes32"},{"name":"_message","type":"bytes","internalType":"bytes"},{"name":"_executor","type":"address","internalType":"address"},{"name":"_extraData","type":"bytes","internalType":"bytes"}],"outputs":[],"stateMutability":"payable"},{"type":"function","name":"mint","inputs":[{"name":"to","type":"address","internalType":"address"},{"name":"value","type":"uint256","internalType":"uint256"}],"outputs":[],"stateMutability":"nonpayable"},{"type":"function","name":"minter","inputs":[],"outputs":[{"name":"","type":"address","internalType":"address"}],"stateMutability":"view"},{"type":"function","name":"name","inputs":[],"outputs":[{"name":"","type":"string","internalType":"string"}],"stateMutability":"view"},{"type":"function","name":"nextNonce","inputs":[{"name":"_eid","type":"uint32","internalType":"uint32"},{"name":"_sender","type":"bytes32","internalType":"bytes32"}],"outputs":[{"name":"","type":"uint64","internalType":"uint64"}],"stateMutability":"view"},{"type":"function","name":"owner","inputs":[],"outputs":[{"name":"","type":"address","internalType":"address"}],"stateMutability":"view"},{"type":"function","name":"ownerMint","inputs":[{"name":"to","type":"address","internalType":"address"},{"name":"value","type":"uint256","internalType":"uint256"}],"outputs":[],"stateMutability":"nonpayable"},{"type":"function","name":"peers","inputs":[{"name":"","type":"uint32","internalType":"uint32"}],"outputs":[{"name":"","type":"bytes32","internalType":"bytes32"}],"stateMutability":"view"},{"type":"function","name":"quoteSend","inputs":[{"name":"dstEid","type":"uint32","internalType":"uint32"},{"name":"to","type":"address","internalType":"address"},{"name":"amountLD","type":"uint256","internalType":"uint256"},{"name":"options","type":"bytes","internalType":"bytes"}],"outputs":[{"name":"","type":"tuple","internalType":"struct MessagingFee","components":[{"name":"nativeFee","type":"uint256","internalType":"uint256"},{"name":"lzTokenFee","type":"uint256","internalType":"uint256"}]}],"stateMutability":"view"},{"type":"function","name":"send","inputs":[{"name":"dstEid","type":"uint32","internalType":"uint32"},{"name":"to","type":"address","internalType":"address"},{"name":"amountLD","type":"uint256","internalType":"uint256"},{"name":"options","type":"bytes","internalType":"bytes"}],"outputs":[{"name":"","type":"tuple","internalType":"struct MessagingReceipt","components":[{"name":"guid","type":"bytes32","internalType":"bytes32"},{"name":"nonce","type":"uint64","internalType":"uint64"},{"name":"fee","type":"tuple","internalType":"struct MessagingFee","components":[{"name":"nativeFee","type":"uint256","internalType":"uint256"},{"name":"lzTokenFee","type":"uint256","internalType":"uint256"}]}]}],"stateMutability":"payable"},{"type":"function","name":"setDefaultOptions","inputs":[{"name":"options","type":"bytes","internalType":"bytes"}],"outputs":[],"stateMutability":"nonpayable"},{"type":"function","name":"setMinter","inputs":[{"name":"_minter","type":"address","internalType":"address"}],"outputs":[],"stateMutability":"nonpayable"},{"type":"function","name":"setPeer","inputs":[{"name":"eid","type":"uint32","internalType":"uint32"},{"name":"peer","type":"bytes32","internalType":"bytes32"}],"outputs":[],"stateMutability":"nonpayable"},{"type":"function","name":"symbol","inputs":[],"outputs":[{"name":"","type":"string","internalType":"string"}],"stateMutability":"view"},{"type":"function","name":"totalSupply","inputs":[],"outputs":[{"name":"","type":"uint256","internalType":"uint256"}],"stateMutability":"view"},{"type":"function","name":"transfer","inputs":[{"name":"to","type":"address","internalType":"address"},{"name":"value","type":"uint256","internalType":"uint256"}],"outputs":[{"name":"","type":"bool","internalType":"bool"}],"stateMutability":"nonpayable"},{"type":"function","name":"transferFrom","inputs":[{"name":"from","type":"address","internalType":"address"},{"name":"to","type":"address","internalType":"address"},{"name":"value","type":"uint256","internalType":"uint256"}],"outputs":[{"name":"","type":"bool","internalType":"bool"}],"stateMutability":"nonpayable"},{"type":"function","name":"transferOwnership","inputs":[{"name":"newOwner","type":"address","internalType":"address"}],"outputs":[],"stateMutability":"nonpayable"},{"type":"event","name":"Approval","inputs":[{"name":"owner","type":"address","indexed":true,"internalType":"address"},{"name":"spender","type":"address","indexed":true,"internalType":"address"},{"name":"value","type":"uint256","indexed":false,"internalType":"uint256"}],"anonymous":false},{"type":"event","name":"DefaultOptionsSet","inputs":[{"name":"options","type":"bytes","indexed":false,"internalType":"bytes"}],"anonymous":false},{"type":"event","name":"MinterUpdated","inputs":[{"name":"minter","type":"address","indexed":true,"internalType":"address"}],"anonymous":false},{"type":"event","name":"OFTReceived","inputs":[{"name":"guid","type":"bytes32","indexed":false,"internalType":"bytes32"},{"name":"srcEid","type":"uint32","indexed":true,"internalType":"uint32"},{"name":"recipient","type":"address","indexed":true,"internalType":"address"},{"name":"amount","type":"uint256","indexed":false,"internalType":"uint256"}],"anonymous":false},{"type":"event","name":"OFTSent","inputs":[{"name":"guid","type":"bytes32","indexed":false,"internalType":"bytes32"},{"name":"dstEid","type":"uint32","indexed":true,"internalType":"uint32"},{"name":"sender","type":"address","indexed":true,"internalType":"address"},{"name":"recipient","type":"address","indexed":true,"internalType":"address"},{"name":"amount","type":"uint256","indexed":false,"internalType":"uint256"}],"anonymous":false},{"type":"event","name":"OwnershipTransferred","inputs":[{"name":"previousOwner","type":"address","indexed":true,"internalType":"address"},{"name":"newOwner","type":"address","indexed":true,"internalType":"address"}],"anonymous":false},{"type":"event","name":"PeerSet","inputs":[{"name":"eid","type":"uint32","indexed":true,"internalType":"uint32"},{"name":"peer","type":"bytes32","indexed":true,"internalType":"bytes32"}],"anonymous":false},{"type":"event","name":"Transfer","inputs":[{"name":"from","type":"address","indexed":true,"internalType":"address"},{"name":"to","type":"address","indexed":true,"internalType":"address"},{"name":"value","type":"uint256","indexed":false,"internalType":"uint256"}],"anonymous":false}],"bytecode":{"object":"0x60c080604052346104d757611f71803803809161001c82856104db565b833981016080828203126104d75781516001600160401b0381116104d75781610046918401610543565b60208301519092906001600160401b0381116104d75782610068918301610543565b604082015190926001600160a01b0382169290918390036104d7576060810151906001600160401b0382116104d757019080601f830112156104d75781516100b2926020016104fe565b5f80546001600160a01b031916339081178255919291907f8be0079c531659141344cd1fd0a4f28419497f9722a3daafe3b4186f6b6457e08180a3601260805283516001600160401b03811161033a5761010d600154610560565b601f8111610489575b50602094601f8211600114610426576101499293949582915f92610276575b50508160011b915f199060031b1c19161790565b6001555b82516001600160401b03811161033a57610168600254610560565b601f81116103d8575b506020601f82116001146103755781906101a19394955f926102765750508160011b915f199060031b1c19161790565b6002555b60a05280511561034e575b80516001600160401b03811161033a576101cb600754610560565b601f81116102e1575b50602091601f821160011461028157610202925f91836102765750508160011b915f199060031b1c19161790565b6007555b600680546001600160a01b03191630908117909155604051907fad0f299ec81a386c98df0ac27dae11dd020ed1b56963c53a7292e7a3a314539a5f80a26119c290816105af823960805181610eb5015260a05181818161035c015281816106b001528181610d2201526110380152f35b015190505f80610135565b601f1982169260075f52805f20915f5b8581106102c9575083600195106102b1575b505050811b01600755610206565b01515f1960f88460031b161c191690555f80806102a3565b91926020600181928685015181550194019201610291565b60075f5261032a907fa66cc928b5edb82af9bd49922954155ab7b0942694bea4ce44661d9a8736c688601f840160051c81019160208510610330575b601f0160051c0190610598565b5f6101d4565b909150819061031d565b634e487b7160e01b5f52604160045260245ffd5b5060405162030d4060208201525f6040820152604081526103706060826104db565b6101b0565b601f1982169060025f52805f20915f5b8181106103c0575095836001959697106103a8575b505050811b016002556101a5565b01515f1960f88460031b161c191690555f808061039a565b9192602060018192868b015181550194019201610385565b60025f52610420907f405787fa12a823e0f2b7631cc41b3ba8828b3321ca811111fa75cd3aa3bb5ace601f840160051c8101916020851061033057601f0160051c0190610598565b5f610171565b601f1982169560015f52805f20915f5b88811061047157508360019596979810610459575b505050811b0160015561014d565b01515f1960f88460031b161c191690555f808061044b565b91926020600181928685015181550194019201610436565b60015f526104d1907fb10e2d527612073b26eecdfd717e6a320cf44b4afac2b0732d9fcbe2b7fa0cf6601f840160051c8101916020851061033057601f0160051c0190610598565b5f610116565b5f80fd5b601f909101601f19168101906001600160401b0382119082101761033a57604052565b9192916001600160401b03821161033a5760405191610527601f8201601f1916602001846104db565b8294818452818301116104d7578281602093845f96015e010152565b9080601f830112156104d757815161055d926020016104fe565b90565b90600182811c9216801561058e575b602083101461057a57565b634e487b7160e01b5f52602260045260245ffd5b91607f169161056f565b8181106105a3575050565b5f815560010161059856fe60806040526004361015610011575f80fd5b5f803560e01c806306fdde03146112e157806307546172146112b9578063095ea7b31461124057806313137d6514610fd757806318160ddd14610fb957806323b872dd14610ed9578063313ce56714610e9b5780633400288b14610e2e57806340c10f1914610dea578063412e68fb14610dce578063484b973c14610d515780635e280f1114610d0c578063632284fd14610cc457806370a0823114610c8b57806379cc679014610ba95780637d25a05e14610b2e5780637fc94d461461092e57806384c1ee99146105cf5780638da5cb5b146105a857806395d89b41146104c1578063a9059cbb1461048f578063bb0b6a531461045a578063dd62ed3e14610407578063e0eda6fd146102bf578063f2fde38b146101f3578063fca3b5aa1461017f5763ff7bd03d14610143575f80fd5b3461017c57606036600319011261017c5760209060409063ffffffff61016761160b565b16815260088352205460405190602435148152f35b80fd5b503461017c57602036600319011261017c5761019961148d565b6101ad60018060a01b038354163314611684565b600680546001600160a01b0319166001600160a01b039290921691821790557fad0f299ec81a386c98df0ac27dae11dd020ed1b56963c53a7292e7a3a314539a8280a280f35b503461017c57602036600319011261017c5761020d61148d565b81546001600160a01b03811691610225338414611684565b6001600160a01b031691821561026b5782907f8be0079c531659141344cd1fd0a4f28419497f9722a3daafe3b4186f6b6457e08580a36001600160a01b03191617815580f35b60405162461bcd60e51b815260206004820152602660248201527f4f776e61626c653a206e6577206f776e657220697320746865207a65726f206160448201526564647265737360d01b6064820152608490fd5b503461017c5761035860406102e86102d6366115b3565b949190926102e261171c565b5061191f565b9280156103f25763ffffffff9161030091369161161e565b915b169182865260086020528386205461031b811515611734565b84519361032785611412565b84526020840152838301526060820152836080820152815180938192631bb8518b60e31b835230906004840161179c565b03817f00000000000000000000000000000000000000000000000000000000000000006001600160a01b03165afa9081156103e75782916103a9575b60408260208251918051835201516020820152f35b905060403d6040116103e0575b6103c08183611448565b81019160408284031261017c57506040916103da91611774565b5f610394565b503d6103b6565b6040513d84823e3d90fd5b505063ffffffff61040161150f565b91610302565b503461017c57604036600319011261017c57604061042361148d565b9161042c6114b9565b9260018060a01b031681526005602052209060018060a01b03165f52602052602060405f2054604051908152f35b503461017c57602036600319011261017c57604060209163ffffffff61047e6114fc565b168152600883522054604051908152f35b503461017c57604036600319011261017c576104b66104ac61148d565b602435903361180a565b602060405160018152f35b503461017c578060031936011261017c576040519080600254906104e4826113ab565b80855291600181169081156105815750600114610524575b6105208461050c81860382611448565b604051918291602083526020830190611469565b0390f35b600281527f405787fa12a823e0f2b7631cc41b3ba8828b3321ca811111fa75cd3aa3bb5ace939250905b8082106105675750909150810160200161050c826104fc565b91926001816020925483858801015201910190929161054e565b60ff191660208087019190915292151560051b8501909201925061050c91508390506104fc565b503461017c578060031936011261017c57546040516001600160a01b039091168152602090f35b506105d9366115b3565b9392906040516105e8816113e3565b86815286602082015260408051916105ff8361142d565b5f83525f60208401520152303b1561092a5760405163079cc67960e41b8152336004820152602481018490528690818160448183305af180156103e757610915575b505061064d838361191f565b9480156109005763ffffffff9161066591369161161e565b935b16928386526008602052604086205494610682861515611734565b6040519561068f87611412565b85875260208701526040860152606085015284608085015260018060a01b037f00000000000000000000000000000000000000000000000000000000000000001660405190631bb8518b60e31b8252604082806106f0308a6004840161179c565b0381845afa9182156108f55787926108b6575b5081513410610879576107336080918351976040519889809481936302637a4560e41b835233906004840161179c565b03925af194851561086e5786956107f7575b50518034116107bf575b5060809450835191604051928352602083015260018060a01b0316917ffee03d2028f11d41b964c6fed3a33c76237a845a10877fafa8c0495016764dfe60403393a460206040805192805184526001600160401b0383820151168385015201518051604084015201516060820152f35b8580806107cd819434611663565b8181156107ee575b3390f1156107e3578461074f565b6040513d86823e3d90fd5b506108fc6107d5565b90945060803d608011610867575b61080f8183611448565b8101906080818303126108635760405191610829836113e3565b8151835260208201516001600160401b038116810361085f57602084015261085391604001611774565b6040820152935f610745565b8880fd5b8680fd5b503d610805565b6040513d88823e3d90fd5b60405162461bcd60e51b81526020600482015260156024820152744f46543a20696e73756666696369656e742066656560581b6044820152606490fd5b90915060403d6040116108ee575b6108ce8183611448565b81016040828203126108ea576108e391611774565b905f610703565b8780fd5b503d6108c4565b6040513d89823e3d90fd5b505063ffffffff61090f61150f565b93610667565b8161091f91611448565b61092a57855f610641565b8580fd5b503461017c57602036600319011261017c576004356001600160401b038111610b2a5761095f9036906004016114cf565b9061097460018060a01b038454163314611684565b6001600160401b038211610b165761098d6007546113ab565b601f8111610aae575b5082601f8311600114610a1c5782917f23597c7b612ff9a2cc8d3377b64611e3e3bface8fa42003bae39ed846f46d6d5936040928691610a11575b508360011b905f198560031b1c1916176007555b82825193849260208452816020850152848401378181018301869052601f01601f19168101030190a180f35b90508101355f6109d1565b600784525f8051602061194d83398151915290601f198416855b818110610a965750918493917f23597c7b612ff9a2cc8d3377b64611e3e3bface8fa42003bae39ed846f46d6d59560409410610a7d575b5050600183811b016007556109e5565b8201355f19600386901b60f8161c191690555f80610a6d565b91926020600181928688013581550194019201610a36565b60078452601f830160051c5f8051602061194d833981519152019060208410610b01575b601f0160051c5f8051602061194d83398151915201905b818110610af65750610996565b848155600101610ae9565b5f8051602061194d8339815191529150610ad2565b634e487b7160e01b83526041600452602483fd5b5080fd5b503461017c57604036600319011261017c5763ffffffff610b4d6114fc565b168152600960205260408120602435825260205260016001600160401b0360408320541601906001600160401b038211610b95576020826001600160401b0360405191168152f35b634e487b7160e01b81526011600452602490fd5b503461017c57604036600319011261017c57610bc361148d565b60243590610bdc60018060a01b036006541633146116cf565b6001600160a01b03168083526004602052604083205491808310610c3b57602081610c165f8051602061196d833981519152938796611663565b848652600483526040862055610c2e81600354611663565b600355604051908152a380f35b60405162461bcd60e51b815260206004820152602260248201527f45524332303a206275726e20616d6f756e7420657863656564732062616c616e604482015261636560f01b6064820152608490fd5b503461017c57602036600319011261017c576020906040906001600160a01b03610cb361148d565b168152600483522054604051908152f35b503461017c57604036600319011261017c576001600160401b03604060209263ffffffff610cf06114fc565b1681526009845281812060243582528452205416604051908152f35b503461017c578060031936011261017c576040517f00000000000000000000000000000000000000000000000000000000000000006001600160a01b03168152602090f35b503461017c57604036600319011261017c57610d6b61148d565b815f8051602061196d833981519152602060243593610d9460018060a01b038554163314611684565b610da08560035461170f565b60035560018060a01b0316938484526004825260408420610dc282825461170f565b9055604051908152a380f35b503461017c578060031936011261017c5761052061050c61150f565b503461017c57604036600319011261017c57610e0461148d565b815f8051602061196d833981519152602060243593610d9460018060a01b036006541633146116cf565b503461017c57604036600319011261017c57610e486114fc565b63ffffffff60243591610e6560018060a01b038554163314611684565b1680835260086020528160408420557f238399d427b947898edb290f5ff0f9109849b1c3ba196a42e35f00c50a54b98b8380a380f35b503461017c578060031936011261017c57602060405160ff7f0000000000000000000000000000000000000000000000000000000000000000168152f35b503461017c57606036600319011261017c57610ef361148d565b610efb6114b9565b6001600160a01b038216808452600560209081526040808620335f9081529252902054604435939190848110610f74576104b695859160018101610f43575b5050505061180a565b604092610f4f91611663565b92815260056020522060018060a01b0333165f5260205260405f20555f838180610f3a565b60405162461bcd60e51b815260206004820152601d60248201527f45524332303a20696e73756666696369656e7420616c6c6f77616e63650000006044820152606490fd5b503461017c578060031936011261017c576020600354604051908152f35b50366003190160e081126111bb576060136111bb576084356001600160401b0381116111bb5761100b9036906004016114cf565b906110146114a3565b5060c4356001600160401b0381116111bb576110349036906004016114cf565b50507f00000000000000000000000000000000000000000000000000000000000000006001600160a01b031633036112035763ffffffff61107361160b565b165f52600860205260405f2054916024358093036111c8576044356001600160401b0381168091036111bb576110dd9363ffffffff6110b061160b565b165f52600960205260405f20905f5260205260405f20906001600160401b0319825416179055369161161e565b6040818051810103126111bb5760208101516001600160a01b03811691908290036111bb576040015161110e61160b565b508182156111bf575b303b156111bb576040516340c10f1960e01b81526001600160a01b03919091166004820152602481018290525f8160448183305af180156111b05761119b575b507fefed6d3500546b29533b128a29e3a94d70788727f0507505ac12eaf2e578fd9c604063ffffffff61118861160b565b169281519060643582526020820152a380f35b6111a89193505f90611448565b5f915f611157565b6040513d5f823e3d90fd5b5f80fd5b5061dead611117565b60405162461bcd60e51b815260206004820152601360248201527227a32a1d1034b73b30b634b21039b2b73232b960691b6044820152606490fd5b60405162461bcd60e51b815260206004820152601560248201527413d1950e881a5b9d985b1a5908195b991c1bda5b9d605a1b6044820152606490fd5b346111bb5760403660031901126111bb5761125961148d565b335f8181526005602090815260408083206001600160a01b03909516808452948252918290206024359081905591519182527f8c5be1e5ebec7d5bd14f71427d1e84f3dd0314c0f7b2291e5b200ac8c7c3b92591a3602060405160018152f35b346111bb575f3660031901126111bb576006546040516001600160a01b039091168152602090f35b346111bb575f3660031901126111bb576040515f600154611301816113ab565b80845290600181169081156113875750600114611329575b6105208361050c81850382611448565b60015f9081527fb10e2d527612073b26eecdfd717e6a320cf44b4afac2b0732d9fcbe2b7fa0cf6939250905b80821061136d5750909150810160200161050c611319565b919260018160209254838588010152019101909291611355565b60ff191660208086019190915291151560051b8401909101915061050c9050611319565b90600182811c921680156113d9575b60208310146113c557565b634e487b7160e01b5f52602260045260245ffd5b91607f16916113ba565b606081019081106001600160401b038211176113fe57604052565b634e487b7160e01b5f52604160045260245ffd5b60a081019081106001600160401b038211176113fe57604052565b604081019081106001600160401b038211176113fe57604052565b90601f801991011681019081106001600160401b038211176113fe57604052565b805180835260209291819084018484015e5f828201840152601f01601f1916010190565b600435906001600160a01b03821682036111bb57565b60a435906001600160a01b03821682036111bb57565b602435906001600160a01b03821682036111bb57565b9181601f840112156111bb578235916001600160401b0383116111bb57602083818601950101116111bb57565b6004359063ffffffff821682036111bb57565b604051905f8260075491611522836113ab565b80835292600181169081156115945750600114611548575b61154692500383611448565b565b5060075f90815290915f8051602061194d8339815191525b8183106115785750509060206115469282010161153a565b6020919350806001915483858901015201910190918492611560565b6020925061154694915060ff191682840152151560051b82010161153a565b9060806003198301126111bb5760043563ffffffff811681036111bb57916024356001600160a01b03811681036111bb579160443591606435906001600160401b0382116111bb57611607916004016114cf565b9091565b60043563ffffffff811681036111bb5790565b9291926001600160401b0382116113fe5760405191611647601f8201601f191660200184611448565b8294818452818301116111bb578281602093845f960137010152565b9190820391821161167057565b634e487b7160e01b5f52601160045260245ffd5b1561168b57565b606460405162461bcd60e51b815260206004820152602060248201527f4f776e61626c653a2063616c6c6572206973206e6f7420746865206f776e65726044820152fd5b156116d657565b60405162461bcd60e51b815260206004820152601160248201527022a92199181d103737ba1036b4b73a32b960791b6044820152606490fd5b9190820180921161167057565b604051906117298261142d565b5f6020838281520152565b1561173b57565b60405162461bcd60e51b815260206004820152601160248201527013d1950e881c19595c881b9bdd081cd95d607a1b6044820152606490fd5b91908260409103126111bb5760405161178c8161142d565b6020808294805184520151910152565b906020909392936040835263ffffffff815116604084015281810151606084015260806117f06117da604084015160a08488015260e0870190611469565b6060840151868203603f190160a0880152611469565b910151151560c08401526001600160a01b03909416910152565b6001600160a01b03909116919082156118da576001600160a01b03165f8181526004602052604090205490919081811061188657816118595f8051602061196d83398151915293602093611663565b845f526004835260405f2055845f526004825260405f2061187b82825461170f565b9055604051908152a3565b60405162461bcd60e51b815260206004820152602660248201527f45524332303a207472616e7366657220616d6f756e7420657863656564732062604482015265616c616e636560d01b6064820152608490fd5b60405162461bcd60e51b815260206004820152601760248201527f45524332303a207472616e7366657220746f207a65726f0000000000000000006044820152606490fd5b604080516001600160a01b0392909216602083015281810192909252908152611949606082611448565b9056fea66cc928b5edb82af9bd49922954155ab7b0942694bea4ce44661d9a8736c688ddf252ad1be2c89b69c2b068fc378daa952ba7f163c4a11628f55a4df523b3efa264697066735822122095acf7f72cb63aa12f7748e6d85e26cdd58bc83a78207110c93c869ea886f20e64736f6c634300081a0033","linkReferences":{}},"methodIdentifiers":{"allowInitializePath((uint32,bytes32,uint64))":"ff7bd03d","allowance(address,address)":"dd62ed3e","approve(address,uint256)":"095ea7b3","balanceOf(address)":"70a08231","burnFrom(address,uint256)":"79cc6790","decimals()":"313ce567","defaultOptions()":"412e68fb","endpoint()":"5e280f11","inboundNonce(uint32,bytes32)":"632284fd","lzReceive((uint32,bytes32,uint64),bytes32,bytes,address,bytes)":"13137d65","mint(address,uint256)":"40c10f19","minter()":"07546172","name()":"06fdde03","nextNonce(uint32,bytes32)":"7d25a05e","owner()":"8da5cb5b","ownerMint(address,uint256)":"484b973c","peers(uint32)":"bb0b6a53","quoteSend(uint32,address,uint256,bytes)":"e0eda6fd","send(uint32,address,uint256,bytes)":"84c1ee99","setDefaultOptions(bytes)":"7fc94d46","setMinter(address)":"fca3b5aa","setPeer(uint32,bytes32)":"3400288b","symbol()":"95d89b41","totalSupply()":"18160ddd","transfer(address,uint256)":"a9059cbb","transferFrom(address,address,uint256)":"23b872dd","transferOwnership(address)":"f2fde38b"},"id":8}