{"abi":[{"type":"constructor","inputs":[{"name":"_token","type":"address","internalType":"address"},{"name":"_sharedDecimals","type":"uint8","internalType":"uint8"},{"name":"_lzEndpoint","type":"address","internalType":"address"}],"stateMutability":"nonpayable"},{"type":"function","name":"DEFAULT_PAYLOAD_SIZE_LIMIT","inputs":[],"outputs":[{"name":"","type":"uint256","internalType":"uint256"}],"stateMutability":"view"},{"type":"function","name":"NO_EXTRA_GAS","inputs":[],"outputs":[{"name":"","type":"uint256","internalType":"uint256"}],"stateMutability":"view"},{"type":"function","name":"PT_SEND","inputs":[],"outputs":[{"name":"","type":"uint8","internalType":"uint8"}],"stateMutability":"view"},{"type":"function","name":"PT_SEND_AND_CALL","inputs":[],"outputs":[{"name":"","type":"uint8","internalType":"uint8"}],"stateMutability":"view"},{"type":"function","name":"callOnOFTReceived","inputs":[{"name":"_srcChainId","type":"uint16","internalType":"uint16"},{"name":"_srcAddress","type":"bytes","internalType":"bytes"},{"name":"_nonce","type":"uint64","internalType":"uint64"},{"name":"_from","type":"bytes32","internalType":"bytes32"},{"name":"_to","type":"address","internalType":"address"},{"name":"_amount","type":"uint256","internalType":"uint256"},{"name":"_payload","type":"bytes","internalType":"bytes"},{"name":"_gasForCall","type":"uint256","internalType":"uint256"}],"outputs":[],"stateMutability":"nonpayable"},{"type":"function","name":"circulatingSupply","inputs":[],"outputs":[{"name":"","type":"uint256","internalType":"uint256"}],"stateMutability":"view"},{"type":"function","name":"creditedPackets","inputs":[{"name":"","type":"uint16","internalType":"uint16"},{"name":"","type":"bytes","internalType":"bytes"},{"name":"","type":"uint64","internalType":"uint64"}],"outputs":[{"name":"","type":"bool","internalType":"bool"}],"stateMutability":"view"},{"type":"function","name":"estimateSendAndCallFee","inputs":[{"name":"_dstChainId","type":"uint16","internalType":"uint16"},{"name":"_toAddress","type":"bytes32","internalType":"bytes32"},{"name":"_amount","type":"uint256","internalType":"uint256"},{"name":"_payload","type":"bytes","internalType":"bytes"},{"name":"_dstGasForCall","type":"uint64","internalType":"uint64"},{"name":"_useZro","type":"bool","internalType":"bool"},{"name":"_adapterParams","type":"bytes","internalType":"bytes"}],"outputs":[{"name":"nativeFee","type":"uint256","internalType":"uint256"},{"name":"zroFee","type":"uint256","internalType":"uint256"}],"stateMutability":"view"},{"type":"function","name":"estimateSendFee","inputs":[{"name":"_dstChainId","type":"uint16","internalType":"uint16"},{"name":"_toAddress","type":"bytes32","internalType":"bytes32"},{"name":"_amount","type":"uint256","internalType":"uint256"},{"name":"_useZro","type":"bool","internalType":"bool"},{"name":"_adapterParams","type":"bytes","internalType":"bytes"}],"outputs":[{"name":"nativeFee","type":"uint256","internalType":"uint256"},{"name":"zroFee","type":"uint256","internalType":"uint256"}],"stateMutability":"view"},{"type":"function","name":"failedMessages","inputs":[{"name":"","type":"uint16","internalType":"uint16"},{"name":"","type":"bytes","internalType":"bytes"},{"name":"","type":"uint64","internalType":"uint64"}],"outputs":[{"name":"","type":"bytes32","internalType":"bytes32"}],"stateMutability":"view"},{"type":"function","name":"forceResumeReceive","inputs":[{"name":"_srcChainId","type":"uint16","internalType":"uint16"},{"name":"_srcAddress","type":"bytes","internalType":"bytes"}],"outputs":[],"stateMutability":"nonpayable"},{"type":"function","name":"getConfig","inputs":[{"name":"_version","type":"uint16","internalType":"uint16"},{"name":"_chainId","type":"uint16","internalType":"uint16"},{"name":"","type":"address","internalType":"address"},{"name":"_configType","type":"uint256","internalType":"uint256"}],"outputs":[{"name":"","type":"bytes","internalType":"bytes"}],"stateMutability":"view"},{"type":"function","name":"getTrustedRemoteAddress","inputs":[{"name":"_remoteChainId","type":"uint16","internalType":"uint16"}],"outputs":[{"name":"","type":"bytes","internalType":"bytes"}],"stateMutability":"view"},{"type":"function","name":"isTrustedRemote","inputs":[{"name":"_srcChainId","type":"uint16","internalType":"uint16"},{"name":"_srcAddress","type":"bytes","internalType":"bytes"}],"outputs":[{"name":"","type":"bool","internalType":"bool"}],"stateMutability":"view"},{"type":"function","name":"lzEndpoint","inputs":[],"outputs":[{"name":"","type":"address","internalType":"contract ILayerZeroEndpoint"}],"stateMutability":"view"},{"type":"function","name":"lzReceive","inputs":[{"name":"_srcChainId","type":"uint16","internalType":"uint16"},{"name":"_srcAddress","type":"bytes","internalType":"bytes"},{"name":"_nonce","type":"uint64","internalType":"uint64"},{"name":"_payload","type":"bytes","internalType":"bytes"}],"outputs":[],"stateMutability":"nonpayable"},{"type":"function","name":"minDstGasLookup","inputs":[{"name":"","type":"uint16","internalType":"uint16"},{"name":"","type":"uint16","internalType":"uint16"}],"outputs":[{"name":"","type":"uint256","internalType":"uint256"}],"stateMutability":"view"},{"type":"function","name":"nonblockingLzReceive","inputs":[{"name":"_srcChainId","type":"uint16","internalType":"uint16"},{"name":"_srcAddress","type":"bytes","internalType":"bytes"},{"name":"_nonce","type":"uint64","internalType":"uint64"},{"name":"_payload","type":"bytes","internalType":"bytes"}],"outputs":[],"stateMutability":"nonpayable"},{"type":"function","name":"outboundAmount","inputs":[],"outputs":[{"name":"","type":"uint256","internalType":"uint256"}],"stateMutability":"view"},{"type":"function","name":"owner","inputs":[],"outputs":[{"name":"","type":"address","internalType":"address"}],"stateMutability":"view"},{"type":"function","name":"payloadSizeLimitLookup","inputs":[{"name":"","type":"uint16","internalType":"uint16"}],"outputs":[{"name":"","type":"uint256","internalType":"uint256"}],"stateMutability":"view"},{"type":"function","name":"precrime","inputs":[],"outputs":[{"name":"","type":"address","internalType":"address"}],"stateMutability":"view"},{"type":"function","name":"renounceOwnership","inputs":[],"outputs":[],"stateMutability":"nonpayable"},{"type":"function","name":"retryMessage","inputs":[{"name":"_srcChainId","type":"uint16","internalType":"uint16"},{"name":"_srcAddress","type":"bytes","internalType":"bytes"},{"name":"_nonce","type":"uint64","internalType":"uint64"},{"name":"_payload","type":"bytes","internalType":"bytes"}],"outputs":[],"stateMutability":"payable"},{"type":"function","name":"sendAndCall","inputs":[{"name":"_from","type":"address","internalType":"address"},{"name":"_dstChainId","type":"uint16","internalType":"uint16"},{"name":"_toAddress","type":"bytes32","internalType":"bytes32"},{"name":"_amount","type":"uint256","internalType":"uint256"},{"name":"_payload","type":"bytes","internalType":"bytes"},{"name":"_dstGasForCall","type":"uint64","internalType":"uint64"},{"name":"_callParams","type":"tuple","internalType":"struct ICommonOFT.LzCallParams","components":[{"name":"refundAddress","type":"address","internalType":"address payable"},{"name":"zroPaymentAddress","type":"address","internalType":"address"},{"name":"adapterParams","type":"bytes","internalType":"bytes"}]}],"outputs":[],"stateMutability":"payable"},{"type":"function","name":"sendFrom","inputs":[{"name":"_from","type":"address","internalType":"address"},{"name":"_dstChainId","type":"uint16","internalType":"uint16"},{"name":"_toAddress","type":"bytes32","internalType":"bytes32"},{"name":"_amount","type":"uint256","internalType":"uint256"},{"name":"_callParams","type":"tuple","internalType":"struct ICommonOFT.LzCallParams","components":[{"name":"refundAddress","type":"address","internalType":"address payable"},{"name":"zroPaymentAddress","type":"address","internalType":"address"},{"name":"adapterParams","type":"bytes","internalType":"bytes"}]}],"outputs":[],"stateMutability":"payable"},{"type":"function","name":"setConfig","inputs":[{"name":"_version","type":"uint16","internalType":"uint16"},{"name":"_chainId","type":"uint16","internalType":"uint16"},{"name":"_configType","type":"uint256","internalType":"uint256"},{"name":"_config","type":"bytes","internalType":"bytes"}],"outputs":[],"stateMutability":"nonpayable"},{"type":"function","name":"setMinDstGas","inputs":[{"name":"_dstChainId","type":"uint16","internalType":"uint16"},{"name":"_packetType","type":"uint16","internalType":"uint16"},{"name":"_minGas","type":"uint256","internalType":"uint256"}],"outputs":[],"stateMutability":"nonpayable"},{"type":"function","name":"setPayloadSizeLimit","inputs":[{"name":"_dstChainId","type":"uint16","internalType":"uint16"},{"name":"_size","type":"uint256","internalType":"uint256"}],"outputs":[],"stateMutability":"nonpayable"},{"type":"function","name":"setPrecrime","inputs":[{"name":"_precrime","type":"address","internalType":"address"}],"outputs":[],"stateMutability":"nonpayable"},{"type":"function","name":"setReceiveVersion","inputs":[{"name":"_version","type":"uint16","internalType":"uint16"}],"outputs":[],"stateMutability":"nonpayable"},{"type":"function","name":"setSendVersion","inputs":[{"name":"_version","type":"uint16","internalType":"uint16"}],"outputs":[],"stateMutability":"nonpayable"},{"type":"function","name":"setTrustedRemote","inputs":[{"name":"_remoteChainId","type":"uint16","internalType":"uint16"},{"name":"_path","type":"bytes","internalType":"bytes"}],"outputs":[],"stateMutability":"nonpayable"},{"type":"function","name":"setTrustedRemoteAddress","inputs":[{"name":"_remoteChainId","type":"uint16","internalType":"uint16"},{"name":"_remoteAddress","type":"bytes","internalType":"bytes"}],"outputs":[],"stateMutability":"nonpayable"},{"type":"function","name":"sharedDecimals","inputs":[],"outputs":[{"name":"","type":"uint8","internalType":"uint8"}],"stateMutability":"view"},{"type":"function","name":"supportsInterface","inputs":[{"name":"interfaceId","type":"bytes4","internalType":"bytes4"}],"outputs":[{"name":"","type":"bool","internalType":"bool"}],"stateMutability":"view"},{"type":"function","name":"token","inputs":[],"outputs":[{"name":"","type":"address","internalType":"address"}],"stateMutability":"view"},{"type":"function","name":"transferOwnership","inputs":[{"name":"newOwner","type":"address","internalType":"address"}],"outputs":[],"stateMutability":"nonpayable"},{"type":"function","name":"trustedRemoteLookup","inputs":[{"name":"","type":"uint16","internalType":"uint16"}],"outputs":[{"name":"","type":"bytes","internalType":"bytes"}],"stateMutability":"view"},{"type":"event","name":"CallOFTReceivedSuccess","inputs":[{"name":"_srcChainId","type":"uint16","indexed":true,"internalType":"uint16"},{"name":"_srcAddress","type":"bytes","indexed":false,"internalType":"bytes"},{"name":"_nonce","type":"uint64","indexed":false,"internalType":"uint64"},{"name":"_hash","type":"bytes32","indexed":false,"internalType":"bytes32"}],"anonymous":false},{"type":"event","name":"MessageFailed","inputs":[{"name":"_srcChainId","type":"uint16","indexed":false,"internalType":"uint16"},{"name":"_srcAddress","type":"bytes","indexed":false,"internalType":"bytes"},{"name":"_nonce","type":"uint64","indexed":false,"internalType":"uint64"},{"name":"_payload","type":"bytes","indexed":false,"internalType":"bytes"},{"name":"_reason","type":"bytes","indexed":false,"internalType":"bytes"}],"anonymous":false},{"type":"event","name":"NonContractAddress","inputs":[{"name":"_address","type":"address","indexed":false,"internalType":"address"}],"anonymous":false},{"type":"event","name":"OwnershipTransferred","inputs":[{"name":"previousOwner","type":"address","indexed":true,"internalType":"address"},{"name":"newOwner","type":"address","indexed":true,"internalType":"address"}],"anonymous":false},{"type":"event","name":"ReceiveFromChain","inputs":[{"name":"_srcChainId","type":"uint16","indexed":true,"internalType":"uint16"},{"name":"_to","type":"address","indexed":true,"internalType":"address"},{"name":"_amount","type":"uint256","indexed":false,"internalType":"uint256"}],"anonymous":false},{"type":"event","name":"RetryMessageSuccess","inputs":[{"name":"_srcChainId","type":"uint16","indexed":false,"internalType":"uint16"},{"name":"_srcAddress","type":"bytes","indexed":false,"internalType":"bytes"},{"name":"_nonce","type":"uint64","indexed":false,"internalType":"uint64"},{"name":"_payloadHash","type":"bytes32","indexed":false,"internalType":"bytes32"}],"anonymous":false},{"type":"event","name":"SendToChain","inputs":[{"name":"_dstChainId","type":"uint16","indexed":true,"internalType":"uint16"},{"name":"_from","type":"address","indexed":true,"internalType":"address"},{"name":"_toAddress","type":"bytes32","indexed":true,"internalType":"bytes32"},{"name":"_amount","type":"uint256","indexed":false,"internalType":"uint256"}],"anonymous":false},{"type":"event","name":"SetMinDstGas","inputs":[{"name":"_dstChainId","type":"uint16","indexed":false,"internalType":"uint16"},{"name":"_type","type":"uint16","indexed":false,"internalType":"uint16"},{"name":"_minDstGas","type":"uint256","indexed":false,"internalType":"uint256"}],"anonymous":false},{"type":"event","name":"SetPrecrime","inputs":[{"name":"precrime","type":"address","indexed":false,"internalType":"address"}],"anonymous":false},{"type":"event","name":"SetTrustedRemote","inputs":[{"name":"_remoteChainId","type":"uint16","indexed":false,"internalType":"uint16"},{"name":"_path","type":"bytes","indexed":false,"internalType":"bytes"}],"anonymous":false},{"type":"event","name":"SetTrustedRemoteAddress","inputs":[{"name":"_remoteChainId","type":"uint16","indexed":false,"internalType":"uint16"},{"name":"_remoteAddress","type":"bytes","indexed":false,"internalType":"bytes"}],"anonymous":false}],"bytecode":{"object":"0x610100806040523461025b5760608161351d803803809161002082856102cf565b83398101031261025b575f80610035836102f2565b61004d604061004660208701610306565b95016102f2565b8254336001600160a01b031982168117855560405192916001600160a01b03167f8be0079c531659141344cd1fd0a4f28419497f9722a3daafe3b4186f6b6457e08680a36001600160a01b0390811660805260a0869052821660c05263313ce56760e01b6020820190815260048252906100c86024826102cf565b51915afa3d156102c7573d906001600160401b0382116102b357604051916100fa601f8201601f1916602001846102cf565b82523d5f602084013e5b1561025f5760208180518101031261025b5760ff6101256020829301610306565b16911690808211610201570360ff81116101ed5760ff16604d81116101ed57600a0a60e05260405161320890816103158239608051818181610376015281816104ed015281816105bb015281816106ad015281816107fd0152818161126e015281816113780152818161190201528181611c770152612c27015260a05181610de3015260c051818181610e9901528181611981015281816123ec0152612b22015260e051818181612131015281816125f1015281816127ca01528181612a150152612ae60152f35b634e487b7160e01b5f52601160045260245ffd5b60405162461bcd60e51b815260206004820152602c60248201527f50726f78794f46543a20736861726564446563696d616c73206d75737420626560448201526b203c3d20646563696d616c7360a01b6064820152608490fd5b5f80fd5b60405162461bcd60e51b815260206004820152602660248201527f50726f78794f46543a206661696c656420746f2067657420746f6b656e20646560448201526563696d616c7360d01b6064820152608490fd5b634e487b7160e01b5f52604160045260245ffd5b606090610104565b601f909101601f19168101906001600160401b038211908210176102b357604052565b51906001600160a01b038216820361025b57565b519060ff8216820361025b5756fe60806040526004361015610011575f80fd5b5f3560e01c80621d35671461027e57806301ffc9a71461027957806307e0db17146102745780630df374831461026f57806310ddb1371461026a578063365260b4146102655780633d8b38f6146102605780633f1f4fa41461025b57806342d65a8d1461025657806344770515146102515780634c42899a146102515780635b8c41e61461024c57806366ad5c8a14610247578063695ef6bf14610242578063715018a61461023d5780637533d7881461023857806376203b4814610233578063857749b01461022e5780638cfd8f5c146102295780638da5cb5b146102245780639358928b1461021f578063950c8a741461021a5780639689cb05146102155780639bdb9812146102105780639f38369a1461020b578063a4c51df514610206578063a6c3d16514610201578063b353aaa7146101fc578063baf3292d146101f7578063c4461834146101f2578063cbed8b9c146101ed578063d1deba1f146101e8578063df2a5b3b146101e3578063e6a20ae6146101de578063eaffd49a146101d9578063eb8d72b7146101d4578063f2fde38b146101cf578063f5ecbdbc146101ca5763fc0c546a146101c5575f80fd5b61196c565b6118a2565b6117d4565b61169e565b61160e565b6115f3565b611565565b611410565b611329565b61130d565b61129d565b611259565b6110da565b611048565b610fa4565b610f62565b610f45565b610f1d565b610e74565b610e4d565b610e07565b610dca565b610d46565b610cff565b610b98565b610aa2565b6109fd565b6109a3565b61086d565b6107e5565b6107b2565b610769565b610625565b610597565b61055e565b6104c9565b610473565b61035f565b6004359061ffff8216820361029457565b5f80fd5b6024359061ffff8216820361029457565b9181601f84011215610294578235916001600160401b038311610294576020838186019501011161029457565b608435906001600160401b038216820361029457565b60806003198201126102945760043561ffff8116810361029457916024356001600160401b0381116102945782610325916004016102a9565b929092916044356001600160401b03811681036102945791606435906001600160401b0382116102945761035b916004016102a9565b9091565b346102945761036d366102ec565b929493919291907f00000000000000000000000000000000000000000000000000000000000000006001600160a01b0316330361042e576103f16103f9926103ff976103ea6103d06103cb8a61ffff165f52600160205260405f2090565b610c27565b8051908184149182610424575b5081610401575b506119b0565b36916108dc565b9236916108dc565b92611f60565b005b905061040e3684866108dc565b602081519101209060208151910120145f6103e4565b151591505f6103dd565b60405162461bcd60e51b815260206004820152601e60248201527f4c7a4170703a20696e76616c696420656e64706f696e742063616c6c657200006044820152606490fd5b346102945760203660031901126102945760043563ffffffff60e01b811680910361029457602090631f7ecdf760e01b81149081156104b8575b506040519015158152f35b6301ffc9a760e01b1490505f6104ad565b34610294575f6020366003190112610294576104e3610283565b6104eb611ff4565b7f00000000000000000000000000000000000000000000000000000000000000006001600160a01b031690813b156102945761ffff60245f928360405195869485936307e0db1760e01b85521660048401525af180156105595761054d575080f35b6103ff91505f9061089b565b611a0b565b3461029457604036600319011261029457610577610283565b61ffff60243591610586611ff4565b165f52600360205260405f20555f80f35b34610294575f6020366003190112610294576105b1610283565b6105b9611ff4565b7f00000000000000000000000000000000000000000000000000000000000000006001600160a01b031690813b156102945761ffff60245f928360405195869485936310ddb13760e01b85521660048401525af180156105595761054d575080f35b8015150361029457565b346102945760a03660031901126102945761063e610283565b602435604435606435926106518461061b565b608435926001600160401b0384116102945761068c6106a9916106866106806103ea60409836906004016102a9565b956125ef565b9061267c565b928451958694859463040a7bb160e41b8652309060048701612061565b03817f00000000000000000000000000000000000000000000000000000000000000006001600160a01b03165afa908115610559575f905f926106fd575b50604080519182526020820192909252f35b0390f35b9050610721915060403d604011610728575b610719818361089b565b81019061204b565b905f6106e7565b503d61070f565b9060406003198301126102945760043561ffff811681036102945791602435906001600160401b0382116102945761035b916004016102a9565b3461029457602061ffff6107a361077f3661072f565b939091165f526001845261079560405f20610c27565b8481519101209236916108dc565b82815191012014604051908152f35b346102945760203660031901126102945761ffff6107ce610283565b165f526003602052602060405f2054604051908152f35b34610294576107f33661072f565b6107fb611ff4565b7f00000000000000000000000000000000000000000000000000000000000000006001600160a01b031692833b156102945761084b5f926040519485936342d65a8d60e01b855260048501611a36565b93818381819703925af180156105595761054d575080f35b5f91031261029457565b34610294575f3660031901126102945760206040515f8152f35b634e487b7160e01b5f52604160045260245ffd5b90601f801991011681019081106001600160401b038211176108bc57604052565b610887565b6001600160401b0381116108bc57601f01601f191660200190565b9291926108e8826108c1565b916108f6604051938461089b565b829481845281830111610294578281602093845f960137010152565b9060606003198301126102945760043561ffff811681036102945791602435906001600160401b03821161029457806023830112156102945781602461095d936004013591016108dc565b906044356001600160401b03811681036102945790565b805191908290602001825e015f815290565b6020906109999260405193848093610974565b9081520301902090565b346102945760206109f461ffff6109d7836109bd36610912565b949091165f526005825260405f2060405193848093610974565b90815203019020906001600160401b03165f5260205260405f2090565b54604051908152f35b3461029457610a0b366102ec565b9192949390303303610a2f576103f1610a29926103ff9736916108dc565b926120a5565b60405162461bcd60e51b815260206004820152602660248201527f4e6f6e626c6f636b696e674c7a4170703a2063616c6c6572206d7573742062656044820152650204c7a4170760d41b6064820152608490fd5b6001600160a01b0381160361029457565b908160609103126102945790565b60a036600319011261029457600435610aba81610a83565b610ac2610298565b6044359160643590608435906001600160401b0382116102945761ffff602091610b83610b147fd81fc9b8523134ed613870ed029d6170cbb73aa6a6bc311b9a642689fb9df59a953690600401610a94565b95863590610b2182610a83565b610b5c610b55610b456103ea898c01359b610b3b8d610a83565b6040810190611a51565b92610b50848d6129c8565b612a13565b5085612aa0565b97610b688915156121de565b610b7a610b748a6125ef565b8c61267c565b9234938b612bf6565b6040519485526001600160a01b0316941692a4005b34610294575f36600319011261029457610bb0611ff4565b5f80546001600160a01b0319811682556001600160a01b03167f8be0079c531659141344cd1fd0a4f28419497f9722a3daafe3b4186f6b6457e08280a3005b90600182811c92168015610c1d575b6020831014610c0957565b634e487b7160e01b5f52602260045260245ffd5b91607f1691610bfe565b9060405191825f825492610c3a84610bef565b8084529360018116908115610ca55750600114610c61575b50610c5f9250038361089b565b565b90505f9291925260205f20905f915b818310610c89575050906020610c5f928201015f610c52565b6020919350806001915483858901015201910190918492610c70565b905060209250610c5f94915060ff191682840152151560051b8201015f610c52565b805180835260209291819084018484015e5f828201840152601f01601f1916010190565b906020610cfc928181520190610cc7565b90565b346102945760203660031901126102945761ffff610d1b610283565b165f5260016020526106f9610d3260405f20610c27565b604051918291602083526020830190610cc7565b60e036600319011261029457600435610d5e81610a83565b610d66610298565b906044356064356084356001600160401b03811161029457610d8c9036906004016102a9565b9160a435936001600160401b03851685036102945760c435966001600160401b03881161029457610dc46103ff983690600401610a94565b96611a83565b34610294575f36600319011261029457602060405160ff7f0000000000000000000000000000000000000000000000000000000000000000168152f35b346102945760403660031901126102945760206109f4610e25610283565b61ffff610e30610298565b91165f526002835260405f209061ffff165f5260205260405f2090565b34610294575f366003190112610294575f546040516001600160a01b039091168152602090f35b34610294575f366003190112610294576040516318160ddd60e01b81526020816004817f00000000000000000000000000000000000000000000000000000000000000006001600160a01b03165afa908115610559575f91610eee575b506007548103908111610ee957604051908152602090f35b611bf0565b610f10915060203d602011610f16575b610f08818361089b565b810190611be1565b5f610ed1565b503d610efe565b34610294575f366003190112610294576004546040516001600160a01b039091168152602090f35b34610294575f366003190112610294576020600754604051908152f35b3461029457602060ff610f9861ffff6109d784610f7e36610912565b949091165f526006825260405f2060405193848093610974565b54166040519015158152f35b346102945760203660031901126102945761ffff610fc0610283565b165f526001602052610fd460405f20610c27565b805115611003578051601319810191908211610ee9576106f991610ff7916122c2565b60405191829182610ceb565b60405162461bcd60e51b815260206004820152601d60248201527f4c7a4170703a206e6f20747275737465642070617468207265636f72640000006044820152606490fd5b346102945760e036600319011261029457611061610283565b602435604435916064356001600160401b038111610294576110879036906004016102a9565b61108f6102d6565b9060a4359261109d8461061b565b60c435966001600160401b038811610294576110c06110c89836906004016102a9565b979096611c20565b60408051928352602083019190915290f35b34610294576110e83661072f565b916110f1611ff4565b6040518383602083013761111e60146020838781013060601b838201520301600b1981018452018261089b565b61ffff82165f52600160205260405f20908051906001600160401b0382116108bc576111548261114e8554610bef565b85611cd1565b602090601f83116001146111c957827f8c0400cfe2d1199b1a725c78960bcc2a344d869b80590d0f2bd005db15a572ce97936111b995936111aa935f926111be575b50508160011b915f199060031b1c19161790565b90555b60405193849384611a36565b0390a1005b015190505f80611196565b90601f198316916111dd855f5260205f2090565b925f5b81811061124157509260019285927f8c0400cfe2d1199b1a725c78960bcc2a344d869b80590d0f2bd005db15a572ce9a966111b9989610611229575b505050811b0190556111ad565b01515f1960f88460031b161c191690555f808061121c565b929360206001819287860151815501950193016111e0565b34610294575f366003190112610294576040517f00000000000000000000000000000000000000000000000000000000000000006001600160a01b03168152602090f35b34610294576020366003190112610294577f5db758e995a17ec1ad84bdef7e8c3293a0bd6179bcce400dff5d4c3d87db726b60206004356112dd81610a83565b6112e5611ff4565b600480546001600160a01b0319166001600160a01b03929092169182179055604051908152a1005b34610294575f3660031901126102945760206040516127108152f35b3461029457608036600319011261029457611342610283565b61134a610298565b604435906064356001600160401b0381116102945761136d9036906004016102a9565b90611376611ff4565b7f00000000000000000000000000000000000000000000000000000000000000006001600160a01b031691823b156102945761ffff956113ec87935f979388946040519a8b998a9889976332fb62e760e21b89521660048801521660248601526044850152608060648501526084840191611a16565b03925af18015610559576113fc57005b8061140a5f6103ff9361089b565b80610863565b611419366102ec565b9161ffff86949296165f52600560205261145c8160405f2060206040518092878b833787820190815203019020906001600160401b03165f5260205260405f2090565b549182156115145761150884836115017fc264d91f3adc5588250e1551f547752ca0cfa8f6b530d243b9f9f4cab10ea8e59a5f6114ed846114d78e8a8f6111b99f908f6114bf906114b26114d19436908d6108dc565b6020815191012014611d39565b61ffff165f52600560205260405f2090565b91611d20565b906001600160401b03165f5260205260405f2090565b556114f936878d6108dc565b9336916108dc565b91886120a5565b60405195869586611d8f565b60405162461bcd60e51b815260206004820152602360248201527f4e6f6e626c6f636b696e674c7a4170703a206e6f2073746f726564206d65737360448201526261676560e81b6064820152608490fd5b34610294576060366003190112610294577f9d5c7c0b934da8fefa9c7760c98383778a12dfbfc0c3b3106518f43fb9508ac060606115a1610283565b6115a9610298565b9061ffff80604435926115ba611ff4565b1692835f526002602052826115de8260405f209061ffff165f5260205260405f2090565b556040519384521660208301526040820152a1005b34610294575f36600319011261029457602060405160018152f35b346102945761010036600319011261029457611628610283565b6024356001600160401b038111610294576116479036906004016102a9565b60443592916001600160401b03841684036102945760643560843561166b81610a83565b60a4359160c435966001600160401b038811610294576116926103ff9836906004016102a9565b96909560e43598611e12565b34610294576116ac3661072f565b916116b5611ff4565b61ffff81165f52600160205260405f20926001600160401b0381116108bc576116e8816116e28654610bef565b86611cd1565b5f93601f821160011461174657906111b9916111aa82807ffa41487ad5d6728f0b19276fa1eddc16558578f5109fc39d2dc33c3230470dab985f9161173b575b508160011b915f199060031b1c19161790565b90508701355f611728565b601f19821694611759825f5260205f2090565b955f5b8181106117bc5750958392916111b9947ffa41487ad5d6728f0b19276fa1eddc16558578f5109fc39d2dc33c3230470dab98106117a3575b5050600182811b0190556111ad565b8601355f19600385901b60f8161c191690555f80611794565b8683013588556001909701966020928301920161175c565b34610294576020366003190112610294576004356117f181610a83565b6117f9611ff4565b6001600160a01b0381161561184e575f80546001600160a01b039283166001600160a01b03198216811783559216907f8be0079c531659141344cd1fd0a4f28419497f9722a3daafe3b4186f6b6457e09080a3005b60405162461bcd60e51b815260206004820152602660248201527f4f776e61626c653a206e6577206f776e657220697320746865207a65726f206160448201526564647265737360d01b6064820152608490fd5b34610294576080366003190112610294576118bb610283565b6118c3610298565b6118ce604435610a83565b61ffff606435604051633d7b2f6f60e21b815293821660048501529116602483015230604483015260648201525f816084817f00000000000000000000000000000000000000000000000000000000000000006001600160a01b03165afa8015610559576106f9915f9161194a575b5060405191829182610ceb565b61196691503d805f833e61195e818361089b565b810190611efe565b5f61193d565b34610294575f366003190112610294576040517f00000000000000000000000000000000000000000000000000000000000000006001600160a01b03168152602090f35b156119b757565b60405162461bcd60e51b815260206004820152602660248201527f4c7a4170703a20696e76616c696420736f757263652073656e64696e6720636f6044820152651b9d1c9858dd60d21b6064820152608490fd5b6040513d5f823e3d90fd5b908060209392818452848401375f828201840152601f01601f1916010190565b60409061ffff610cfc95931681528160208201520191611a16565b903590601e198136030182121561029457018035906001600160401b0382116102945760200191813603831361029457565b93959092949196611ac0813593611a9985610a83565b611ab8611aae602085013594610b3b86610a83565b9a909236916108dc565b9836916108dc565b916022835110611b9c57889060228401519761ffff871698895f52600260205260405f206001611afb919061ffff165f5260205260405f2090565b54611b07811515612930565b6001600160401b038416611b1a91612238565b1115611b259061297c565b611b2e90612a13565b50611b399088612aa0565b98611b458a15156121de565b611b4e8a6125ef565b611b589333612ce8565b923493611b6495612bf6565b6040519283526001600160a01b0316917fd81fc9b8523134ed613870ed029d6170cbb73aa6a6bc311b9a642689fb9df59a90602090a4565b60405162461bcd60e51b815260206004820152601c60248201527f4c7a4170703a20696e76616c69642061646170746572506172616d73000000006044820152606490fd5b90816020910312610294575190565b634e487b7160e01b5f52601160045260245ffd5b605019810191908211610ee957565b91908203918211610ee957565b949195989790611c4f611c49604099611c41611c5697611c739936916108dc565b9436916108dc565b976125ef565b9033612ce8565b928451968794859463040a7bb160e41b8652309060048701612061565b03817f00000000000000000000000000000000000000000000000000000000000000006001600160a01b03165afa918215610559575f905f93611cb557509190565b905061035b91925060403d60401161072857610719818361089b565b601f8211611cde57505050565b5f5260205f20906020601f840160051c83019310611d16575b601f0160051c01905b818110611d0b575050565b5f8155600101611d00565b9091508190611cf7565b6020919283604051948593843782019081520301902090565b15611d4057565b60405162461bcd60e51b815260206004820152602160248201527f4e6f6e626c6f636b696e674c7a4170703a20696e76616c6964207061796c6f616044820152601960fa1b6064820152608490fd5b91611dbb9060609461ffff6001600160401b039499989799168552608060208601526080850191611a16565b951660408201520152565b93969491611df490610cfc99979461ffff6001600160401b039416875260c0602088015260c0870191611a16565b961660408401526060830152608082015260a0818503910152611a16565b91969792989594939094303303611eb957611e2e9085306123c8565b60405181815290946001600160a01b03169390849061ffff8516907fbf551ec93859b170f9b2141bd9298bf3f64322c6f7beb2543a0cb669834118bf90602090a3833b15610294575f988995611e9b936040519c8d9b8c9a8b98633fe79aed60e11b8a5260048a01611dc6565b0393f1801561055957611eab5750565b8061140a5f610c5f9361089b565b60405162461bcd60e51b815260206004820152601f60248201527f4f4654436f72653a2063616c6c6572206d757374206265204f4654436f7265006044820152606490fd5b602081830312610294578051906001600160401b038211610294570181601f8201121561029457805190611f31826108c1565b92611f3f604051948561089b565b8284526020838301011161029457815f9260208093018386015e8301015290565b929091611fd25a604051633356ae4560e11b602082015261ffff871660248201526080604482015290611fcc82611fbe611f9d60a483018a610cc7565b6001600160401b038816606484015282810360231901608484015288610cc7565b03601f19810184528361089b565b306124e4565b939015611fe1575b5050505050565b611fea94612534565b5f80808080611fda565b5f546001600160a01b0316330361200757565b606460405162461bcd60e51b815260206004820152602060248201527f4f776e61626c653a2063616c6c6572206973206e6f7420746865206f776e65726044820152fd5b9190826040910312610294576020825192015190565b9192610cfc959361ffff6120909316845260018060a01b0316602084015260a0604084015260a0830190610cc7565b92151560608201526080818403910152610cc7565b92919060ff6120b3846126b0565b16806121895750505060ff6120c7826126b0565b16158061217e575b6120d890612dd5565b6120ea6120e4826130d5565b91613125565b6001600160a01b03821615612174575b602061ffff61215d6121577fbf551ec93859b170f9b2141bd9298bf3f64322c6f7beb2543a0cb669834118bf946001600160401b037f00000000000000000000000000000000000000000000000000000000000000009116612efa565b85612f0d565b6040519081526001600160a01b03909416941692a3565b61dead91506120fa565b5080516029146120cf565b60010361219957610c5f93612789565b60405162461bcd60e51b815260206004820152601c60248201527f4f4654436f72653a20756e6b6e6f776e207061636b65742074797065000000006044820152606490fd5b156121e557565b60405162461bcd60e51b815260206004820152601960248201527f4f4654436f72653a20616d6f756e7420746f6f20736d616c6c000000000000006044820152606490fd5b90601f8201809211610ee957565b91908201809211610ee957565b1561224c57565b60405162461bcd60e51b815260206004820152600e60248201526d736c6963655f6f766572666c6f7760901b6044820152606490fd5b1561228957565b60405162461bcd60e51b8152602060048201526011602482015270736c6963655f6f75744f66426f756e647360781b6044820152606490fd5b6122d6826122cf8161222a565b1015612245565b6122ec81516122e5845f612238565b1115612282565b816123035750506040515f81526020810160405290565b60405191601f811691821560051b808486010193838501920101905b8084106123375750508252601f01601f191660405290565b909260208091855181520193019061231f565b612357826122cf8161222a565b61236781516122e5846051612238565b8161237e5750506040515f81526020810160405290565b60405191601f8116916051831560051b80858701019484860193010101905b8084106123b55750508252601f01601f191660405290565b909260208091855181520193019061239d565b6040516370a0823160e01b81526001600160a01b03838116600483015290939192907f000000000000000000000000000000000000000000000000000000000000000090811690602086602481855afa9384156105595761247a965f956124c2575b5093946020949084906001600160a01b03811630036124b4575061244d92612d9a565b6040516370a0823160e01b81526001600160a01b0390921660048301529093849190829081906024820190565b03915afa801561055957610cfc925f91612495575b50611c13565b6124ae915060203d602011610f1657610f08818361089b565b5f61248f565b6124bd93612d51565b61244d565b602095506124dd8591873d8911610f1657610f08818361089b565b955061242a565b604051939260c09291906124f8848761089b565b609686525f928380936020890196601f190136883760208451940192f1903d906096821161252b575b5f908286523e9190565b60969150612521565b91936125c87fe183f33de2837795525b4792ca4cd60535bd77c53b7e7030060bfcf5734d6b0c956125d6939561ffff81516020830120961695865f52600560205261258f836109d760208b60405f2060405193848093610974565b556001600160401b036125b4604051988998895260a060208a015260a0890190610cc7565b921660408701528582036060870152610cc7565b908382036080850152610cc7565b0390a1565b634e487b7160e01b5f52601260045260245ffd5b7f000000000000000000000000000000000000000000000000000000000000000090811561267757046001600160401b038111612632576001600160401b031690565b60405162461bcd60e51b815260206004820152601a60248201527f4f4654436f72653a20616d6f756e745344206f766572666c6f770000000000006044820152606490fd5b6125db565b90604051915f602084015260218301526001600160401b0360c01b9060c01b16604182015260298152610cfc60498261089b565b60018151106126c0576001015190565b60405162461bcd60e51b8152602060048201526013602482015272746f55696e74385f6f75744f66426f756e647360681b6044820152606490fd5b98979692936001600160401b0361272d60e0989461010060208e61ffff6127599c9816815201526101008d0190610cc7565b951660408b015260608a01526001600160a01b0316608089015260a088015286820360c0880152610cc7565b930152565b6001600160401b0361277e60409396959496606084526060840190610cc7565b951660208201520152565b909161279484612e21565b6127f86127c76127c0886114d76127ba8c98979861ffff165f52600660205260405f2090565b8d610986565b5460ff1690565b927f0000000000000000000000000000000000000000000000000000000000000000906001600160401b0316612efa565b9180156128f2575b843b156128a85788946128419694611fcc948a94611fbe945f1461289957505a925b5a978b6040519a8b9863757fea4d60e11b60208b015260248a016126fb565b901561288e57509061288961ffff928560207fb8890edbfc1c74692f527444645f95489c3703cc2df42e4a366f5d06fa6cd8849697519101209060405194859416968461275e565b0390a2565b92610c5f9492612534565b6001600160401b031692612822565b50506040516001600160a01b039093168352507f9aedf5fdba8716db3b6705ca00150643309995d4f818a249ed6dde6677e7792d9650909450849350506020830191506125d69050565b916128fd9030612f0d565b9161292b61291e886114d76127ba8c61ffff165f52600660205260405f2090565b805460ff19166001179055565b612800565b1561293757565b60405162461bcd60e51b815260206004820152601a60248201527f4c7a4170703a206d696e4761734c696d6974206e6f74207365740000000000006044820152606490fd5b1561298357565b60405162461bcd60e51b815260206004820152601b60248201527f4c7a4170703a20676173206c696d697420697320746f6f206c6f7700000000006044820152606490fd5b6022825110611b9c5761ffff6022610c5f93015191165f52600260205260405f2061ffff5f165f52602052612a0c5f6040812054612a07811515612930565b612238565b111561297c565b7f0000000000000000000000000000000000000000000000000000000000000000801561267757810690818103908111610ee95791565b15612a5157565b60405162461bcd60e51b815260206004820152602160248201527f50726f78794f46543a206f7574626f756e64416d6f756e74206f766572666c6f6044820152607760f81b6064820152608490fd5b90336001600160a01b03831603612b4d57610b50612abf9130846123c8565b80929192612b1c575b5050612ade612ad982600754612238565b600755565b610cfc612b127f00000000000000000000000000000000000000000000000000000000000000006001600160401b03612efa565b6007541115612a4a565b612b46917f0000000000000000000000000000000000000000000000000000000000000000612d9a565b5f80612ac8565b60405162461bcd60e51b815260206004820152602260248201527f50726f78794f46543a206f776e6572206973206e6f742073656e642063616c6c60448201526132b960f11b6064820152608490fd5b92612bc3610cfc9795969361ffff612bd19416865260c0602087015260c0860190610cc7565b908482036040860152610cc7565b6001600160a01b0394851660608401529316608082015280830360a090910152610cc7565b9092919461ffff82165f526001602052612c1260405f20610c27565b91825115612c8a57612c25855182612f3c565b7f00000000000000000000000000000000000000000000000000000000000000006001600160a01b031693843b15610294575f96612c7991604051998a988997889662c5803160e81b885260048801612b9d565b03925af1801561055957611eab5750565b60405162461bcd60e51b815260206004820152603060248201527f4c7a4170703a2064657374696e6174696f6e20636861696e206973206e6f742060448201526f61207472757374656420736f7572636560801b6064820152608490fd5b604051600160f81b6020820152602181019290925260c092831b6001600160c01b031990811660418401526001600160a01b0390911660498301529390911b9092166069830152610cfc908290612d43906071830190610974565b03601f19810183528261089b565b6040516323b872dd60e01b60208201526001600160a01b039283166024820152929091166044830152606480830193909352918152610c5f91612d9560848361089b565b61301d565b60405163a9059cbb60e01b60208201526001600160a01b039092166024830152604480830193909352918152610c5f91612d9560648361089b565b15612ddc57565b60405162461bcd60e51b815260206004820152601860248201527f4f4654436f72653a20696e76616c6964207061796c6f616400000000000000006044820152606490fd5b90612e39600160ff612e32856126b0565b1614612dd5565b612e42826130d5565b90612e4c83613125565b906049845110612ebd576049840151936051815110612e8157612e7e605182015191612e788151611c04565b9061234a565b91565b60405162461bcd60e51b8152602060048201526014602482015273746f55696e7436345f6f75744f66426f756e647360601b6044820152606490fd5b60405162461bcd60e51b8152602060048201526015602482015274746f427974657333325f6f75744f66426f756e647360581b6044820152606490fd5b81810292918115918404141715610ee957565b600754828103908111610ee9576007556001600160a01b0381163014612f385790610cfc91306123c8565b5090565b61ffff165f52600360205260405f2054908115612f9f575b11612f5b57565b606460405162461bcd60e51b815260206004820152602060248201527f4c7a4170703a207061796c6f61642073697a6520697320746f6f206c617267656044820152fd5b6127109150612f54565b908160209103126102945751610cfc8161061b565b15612fc557565b60405162461bcd60e51b815260206004820152602a60248201527f5361666545524332303a204552433230206f7065726174696f6e20646964206e6044820152691bdd081cdd58d8d9595960b21b6064820152608490fd5b610c5f9161309f9160018060a01b03165f806040519361303e60408661089b565b602085527f5361666545524332303a206c6f772d6c6576656c2063616c6c206661696c6564602086015260208151910182855af13d156130cd573d91613083836108c1565b92613091604051948561089b565b83523d5f602085013e613135565b80519081159182156130b3575b5050612fbe565b6130c69250602080918301019101612fa9565b5f806130ac565b606091613135565b60218151106130e857602d015160601c90565b60405162461bcd60e51b8152602060048201526015602482015274746f416464726573735f6f75744f66426f756e647360581b6044820152606490fd5b6029815110612e81576029015190565b919290156131975750815115613149575090565b3b156131525790565b60405162461bcd60e51b815260206004820152601d60248201527f416464726573733a2063616c6c20746f206e6f6e2d636f6e74726163740000006044820152606490fd5b8251909150156131aa5750805190602001fd5b60405162461bcd60e51b8152602060048201529081906131ce906024830190610cc7565b0390fdfea2646970667358221220a980c8edeb1f5ae0c189ddf7726f9b419478ff445ada06fcf59dac096a28487164736f6c634300081a0033","linkReferences":{}},"methodIdentifiers":{"DEFAULT_PAYLOAD_SIZE_LIMIT()":"c4461834","NO_EXTRA_GAS()":"44770515","PT_SEND()":"4c42899a","PT_SEND_AND_CALL()":"e6a20ae6","callOnOFTReceived(uint16,bytes,uint64,bytes32,address,uint256,bytes,uint256)":"eaffd49a","circulatingSupply()":"9358928b","creditedPackets(uint16,bytes,uint64)":"9bdb9812","estimateSendAndCallFee(uint16,bytes32,uint256,bytes,uint64,bool,bytes)":"a4c51df5","estimateSendFee(uint16,bytes32,uint256,bool,bytes)":"365260b4","failedMessages(uint16,bytes,uint64)":"5b8c41e6","forceResumeReceive(uint16,bytes)":"42d65a8d","getConfig(uint16,uint16,address,uint256)":"f5ecbdbc","getTrustedRemoteAddress(uint16)":"9f38369a","isTrustedRemote(uint16,bytes)":"3d8b38f6","lzEndpoint()":"b353aaa7","lzReceive(uint16,bytes,uint64,bytes)":"001d3567","minDstGasLookup(uint16,uint16)":"8cfd8f5c","nonblockingLzReceive(uint16,bytes,uint64,bytes)":"66ad5c8a","outboundAmount()":"9689cb05","owner()":"8da5cb5b","payloadSizeLimitLookup(uint16)":"3f1f4fa4","precrime()":"950c8a74","renounceOwnership()":"715018a6","retryMessage(uint16,bytes,uint64,bytes)":"d1deba1f","sendAndCall(address,uint16,bytes32,uint256,bytes,uint64,(address,address,bytes))":"76203b48","sendFrom(address,uint16,bytes32,uint256,(address,address,bytes))":"695ef6bf","setConfig(uint16,uint16,uint256,bytes)":"cbed8b9c","setMinDstGas(uint16,uint16,uint256)":"df2a5b3b","setPayloadSizeLimit(uint16,uint256)":"0df37483","setPrecrime(address)":"baf3292d","setReceiveVersion(uint16)":"10ddb137","setSendVersion(uint16)":"07e0db17","setTrustedRemote(uint16,bytes)":"eb8d72b7","setTrustedRemoteAddress(uint16,bytes)":"a6c3d165","sharedDecimals()":"857749b0","supportsInterface(bytes4)":"01ffc9a7","token()":"fc0c546a","transferOwnership(address)":"f2fde38b","trustedRemoteLookup(uint16)":"7533d788"},"id":21}