{"abi":[{"type":"constructor","inputs":[{"name":"_token","type":"address","internalType":"address"},{"name":"_sharedDecimals","type":"uint8","internalType":"uint8"},{"name":"_lzEndpoint","type":"address","internalType":"address"}],"stateMutability":"nonpayable"},{"type":"function","name":"DEFAULT_PAYLOAD_SIZE_LIMIT","inputs":[],"outputs":[{"name":"","type":"uint256","internalType":"uint256"}],"stateMutability":"view"},{"type":"function","name":"NO_EXTRA_GAS","inputs":[],"outputs":[{"name":"","type":"uint256","internalType":"uint256"}],"stateMutability":"view"},{"type":"function","name":"PT_SEND","inputs":[],"outputs":[{"name":"","type":"uint8","internalType":"uint8"}],"stateMutability":"view"},{"type":"function","name":"PT_SEND_AND_CALL","inputs":[],"outputs":[{"name":"","type":"uint8","internalType":"uint8"}],"stateMutability":"view"},{"type":"function","name":"callOnOFTReceived","inputs":[{"name":"_srcChainId","type":"uint16","internalType":"uint16"},{"name":"_srcAddress","type":"bytes","internalType":"bytes"},{"name":"_nonce","type":"uint64","internalType":"uint64"},{"name":"_from","type":"bytes32","internalType":"bytes32"},{"name":"_to","type":"address","internalType":"address"},{"name":"_amount","type":"uint256","internalType":"uint256"},{"name":"_payload","type":"bytes","internalType":"bytes"},{"name":"_gasForCall","type":"uint256","internalType":"uint256"}],"outputs":[],"stateMutability":"nonpayable"},{"type":"function","name":"circulatingSupply","inputs":[],"outputs":[{"name":"","type":"uint256","internalType":"uint256"}],"stateMutability":"view"},{"type":"function","name":"creditedPackets","inputs":[{"name":"","type":"uint16","internalType":"uint16"},{"name":"","type":"bytes","internalType":"bytes"},{"name":"","type":"uint64","internalType":"uint64"}],"outputs":[{"name":"","type":"bool","internalType":"bool"}],"stateMutability":"view"},{"type":"function","name":"estimateSendAndCallFee","inputs":[{"name":"_dstChainId","type":"uint16","internalType":"uint16"},{"name":"_toAddress","type":"bytes32","internalType":"bytes32"},{"name":"_amount","type":"uint256","internalType":"uint256"},{"name":"_payload","type":"bytes","internalType":"bytes"},{"name":"_dstGasForCall","type":"uint64","internalType":"uint64"},{"name":"_useZro","type":"bool","internalType":"bool"},{"name":"_adapterParams","type":"bytes","internalType":"bytes"}],"outputs":[{"name":"nativeFee","type":"uint256","internalType":"uint256"},{"name":"zroFee","type":"uint256","internalType":"uint256"}],"stateMutability":"view"},{"type":"function","name":"estimateSendFee","inputs":[{"name":"_dstChainId","type":"uint16","internalType":"uint16"},{"name":"_toAddress","type":"bytes32","internalType":"bytes32"},{"name":"_amount","type":"uint256","internalType":"uint256"},{"name":"_useZro","type":"bool","internalType":"bool"},{"name":"_adapterParams","type":"bytes","internalType":"bytes"}],"outputs":[{"name":"nativeFee","type":"uint256","internalType":"uint256"},{"name":"zroFee","type":"uint256","internalType":"uint256"}],"stateMutability":"view"},{"type":"function","name":"failedMessages","inputs":[{"name":"","type":"uint16","internalType":"uint16"},{"name":"","type":"bytes","internalType":"bytes"},{"name":"","type":"uint64","internalType":"uint64"}],"outputs":[{"name":"","type":"bytes32","internalType":"bytes32"}],"stateMutability":"view"},{"type":"function","name":"forceResumeReceive","inputs":[{"name":"_srcChainId","type":"uint16","internalType":"uint16"},{"name":"_srcAddress","type":"bytes","internalType":"bytes"}],"outputs":[],"stateMutability":"nonpayable"},{"type":"function","name":"getConfig","inputs":[{"name":"_version","type":"uint16","internalType":"uint16"},{"name":"_chainId","type":"uint16","internalType":"uint16"},{"name":"","type":"address","internalType":"address"},{"name":"_configType","type":"uint256","internalType":"uint256"}],"outputs":[{"name":"","type":"bytes","internalType":"bytes"}],"stateMutability":"view"},{"type":"function","name":"getTrustedRemoteAddress","inputs":[{"name":"_remoteChainId","type":"uint16","internalType":"uint16"}],"outputs":[{"name":"","type":"bytes","internalType":"bytes"}],"stateMutability":"view"},{"type":"function","name":"isTrustedRemote","inputs":[{"name":"_srcChainId","type":"uint16","internalType":"uint16"},{"name":"_srcAddress","type":"bytes","internalType":"bytes"}],"outputs":[{"name":"","type":"bool","internalType":"bool"}],"stateMutability":"view"},{"type":"function","name":"lzEndpoint","inputs":[],"outputs":[{"name":"","type":"address","internalType":"contract ILayerZeroEndpoint"}],"stateMutability":"view"},{"type":"function","name":"lzReceive","inputs":[{"name":"_srcChainId","type":"uint16","internalType":"uint16"},{"name":"_srcAddress","type":"bytes","internalType":"bytes"},{"name":"_nonce","type":"uint64","internalType":"uint64"},{"name":"_payload","type":"bytes","internalType":"bytes"}],"outputs":[],"stateMutability":"nonpayable"},{"type":"function","name":"minDstGasLookup","inputs":[{"name":"","type":"uint16","internalType":"uint16"},{"name":"","type":"uint16","internalType":"uint16"}],"outputs":[{"name":"","type":"uint256","internalType":"uint256"}],"stateMutability":"view"},{"type":"function","name":"nonblockingLzReceive","inputs":[{"name":"_srcChainId","type":"uint16","internalType":"uint16"},{"name":"_srcAddress","type":"bytes","internalType":"bytes"},{"name":"_nonce","type":"uint64","internalType":"uint64"},{"name":"_payload","type":"bytes","internalType":"bytes"}],"outputs":[],"stateMutability":"nonpayable"},{"type":"function","name":"outboundAmount","inputs":[],"outputs":[{"name":"","type":"uint256","internalType":"uint256"}],"stateMutability":"view"},{"type":"function","name":"owner","inputs":[],"outputs":[{"name":"","type":"address","internalType":"address"}],"stateMutability":"view"},{"type":"function","name":"payloadSizeLimitLookup","inputs":[{"name":"","type":"uint16","internalType":"uint16"}],"outputs":[{"name":"","type":"uint256","internalType":"uint256"}],"stateMutability":"view"},{"type":"function","name":"precrime","inputs":[],"outputs":[{"name":"","type":"address","internalType":"address"}],"stateMutability":"view"},{"type":"function","name":"renounceOwnership","inputs":[],"outputs":[],"stateMutability":"nonpayable"},{"type":"function","name":"retryMessage","inputs":[{"name":"_srcChainId","type":"uint16","internalType":"uint16"},{"name":"_srcAddress","type":"bytes","internalType":"bytes"},{"name":"_nonce","type":"uint64","internalType":"uint64"},{"name":"_payload","type":"bytes","internalType":"bytes"}],"outputs":[],"stateMutability":"payable"},{"type":"function","name":"sendAndCall","inputs":[{"name":"_from","type":"address","internalType":"address"},{"name":"_dstChainId","type":"uint16","internalType":"uint16"},{"name":"_toAddress","type":"bytes32","internalType":"bytes32"},{"name":"_amount","type":"uint256","internalType":"uint256"},{"name":"_payload","type":"bytes","internalType":"bytes"},{"name":"_dstGasForCall","type":"uint64","internalType":"uint64"},{"name":"_callParams","type":"tuple","internalType":"struct ICommonOFT.LzCallParams","components":[{"name":"refundAddress","type":"address","internalType":"address payable"},{"name":"zroPaymentAddress","type":"address","internalType":"address"},{"name":"adapterParams","type":"bytes","internalType":"bytes"}]}],"outputs":[],"stateMutability":"payable"},{"type":"function","name":"sendFrom","inputs":[{"name":"_from","type":"address","internalType":"address"},{"name":"_dstChainId","type":"uint16","internalType":"uint16"},{"name":"_toAddress","type":"bytes32","internalType":"bytes32"},{"name":"_amount","type":"uint256","internalType":"uint256"},{"name":"_callParams","type":"tuple","internalType":"struct ICommonOFT.LzCallParams","components":[{"name":"refundAddress","type":"address","internalType":"address payable"},{"name":"zroPaymentAddress","type":"address","internalType":"address"},{"name":"adapterParams","type":"bytes","internalType":"bytes"}]}],"outputs":[],"stateMutability":"payable"},{"type":"function","name":"setConfig","inputs":[{"name":"_version","type":"uint16","internalType":"uint16"},{"name":"_chainId","type":"uint16","internalType":"uint16"},{"name":"_configType","type":"uint256","internalType":"uint256"},{"name":"_config","type":"bytes","internalType":"bytes"}],"outputs":[],"stateMutability":"nonpayable"},{"type":"function","name":"setMinDstGas","inputs":[{"name":"_dstChainId","type":"uint16","internalType":"uint16"},{"name":"_packetType","type":"uint16","internalType":"uint16"},{"name":"_minGas","type":"uint256","internalType":"uint256"}],"outputs":[],"stateMutability":"nonpayable"},{"type":"function","name":"setPayloadSizeLimit","inputs":[{"name":"_dstChainId","type":"uint16","internalType":"uint16"},{"name":"_size","type":"uint256","internalType":"uint256"}],"outputs":[],"stateMutability":"nonpayable"},{"type":"function","name":"setPrecrime","inputs":[{"name":"_precrime","type":"address","internalType":"address"}],"outputs":[],"stateMutability":"nonpayable"},{"type":"function","name":"setReceiveVersion","inputs":[{"name":"_version","type":"uint16","internalType":"uint16"}],"outputs":[],"stateMutability":"nonpayable"},{"type":"function","name":"setSendVersion","inputs":[{"name":"_version","type":"uint16","internalType":"uint16"}],"outputs":[],"stateMutability":"nonpayable"},{"type":"function","name":"setTrustedRemote","inputs":[{"name":"_remoteChainId","type":"uint16","internalType":"uint16"},{"name":"_path","type":"bytes","internalType":"bytes"}],"outputs":[],"stateMutability":"nonpayable"},{"type":"function","name":"setTrustedRemoteAddress","inputs":[{"name":"_remoteChainId","type":"uint16","internalType":"uint16"},{"name":"_remoteAddress","type":"bytes","internalType":"bytes"}],"outputs":[],"stateMutability":"nonpayable"},{"type":"function","name":"sharedDecimals","inputs":[],"outputs":[{"name":"","type":"uint8","internalType":"uint8"}],"stateMutability":"view"},{"type":"function","name":"supportsInterface","inputs":[{"name":"interfaceId","type":"bytes4","internalType":"bytes4"}],"outputs":[{"name":"","type":"bool","internalType":"bool"}],"stateMutability":"view"},{"type":"function","name":"token","inputs":[],"outputs":[{"name":"","type":"address","internalType":"address"}],"stateMutability":"view"},{"type":"function","name":"transferOwnership","inputs":[{"name":"newOwner","type":"address","internalType":"address"}],"outputs":[],"stateMutability":"nonpayable"},{"type":"function","name":"trustedRemoteLookup","inputs":[{"name":"","type":"uint16","internalType":"uint16"}],"outputs":[{"name":"","type":"bytes","internalType":"bytes"}],"stateMutability":"view"},{"type":"event","name":"CallOFTReceivedSuccess","inputs":[{"name":"_srcChainId","type":"uint16","indexed":true,"internalType":"uint16"},{"name":"_srcAddress","type":"bytes","indexed":false,"internalType":"bytes"},{"name":"_nonce","type":"uint64","indexed":false,"internalType":"uint64"},{"name":"_hash","type":"bytes32","indexed":false,"internalType":"bytes32"}],"anonymous":false},{"type":"event","name":"MessageFailed","inputs":[{"name":"_srcChainId","type":"uint16","indexed":false,"internalType":"uint16"},{"name":"_srcAddress","type":"bytes","indexed":false,"internalType":"bytes"},{"name":"_nonce","type":"uint64","indexed":false,"internalType":"uint64"},{"name":"_payload","type":"bytes","indexed":false,"internalType":"bytes"},{"name":"_reason","type":"bytes","indexed":false,"internalType":"bytes"}],"anonymous":false},{"type":"event","name":"NonContractAddress","inputs":[{"name":"_address","type":"address","indexed":false,"internalType":"address"}],"anonymous":false},{"type":"event","name":"OwnershipTransferred","inputs":[{"name":"previousOwner","type":"address","indexed":true,"internalType":"address"},{"name":"newOwner","type":"address","indexed":true,"internalType":"address"}],"anonymous":false},{"type":"event","name":"ReceiveFromChain","inputs":[{"name":"_srcChainId","type":"uint16","indexed":true,"internalType":"uint16"},{"name":"_to","type":"address","indexed":true,"internalType":"address"},{"name":"_amount","type":"uint256","indexed":false,"internalType":"uint256"}],"anonymous":false},{"type":"event","name":"RetryMessageSuccess","inputs":[{"name":"_srcChainId","type":"uint16","indexed":false,"internalType":"uint16"},{"name":"_srcAddress","type":"bytes","indexed":false,"internalType":"bytes"},{"name":"_nonce","type":"uint64","indexed":false,"internalType":"uint64"},{"name":"_payloadHash","type":"bytes32","indexed":false,"internalType":"bytes32"}],"anonymous":false},{"type":"event","name":"SendToChain","inputs":[{"name":"_dstChainId","type":"uint16","indexed":true,"internalType":"uint16"},{"name":"_from","type":"address","indexed":true,"internalType":"address"},{"name":"_toAddress","type":"bytes32","indexed":true,"internalType":"bytes32"},{"name":"_amount","type":"uint256","indexed":false,"internalType":"uint256"}],"anonymous":false},{"type":"event","name":"SetMinDstGas","inputs":[{"name":"_dstChainId","type":"uint16","indexed":false,"internalType":"uint16"},{"name":"_type","type":"uint16","indexed":false,"internalType":"uint16"},{"name":"_minDstGas","type":"uint256","indexed":false,"internalType":"uint256"}],"anonymous":false},{"type":"event","name":"SetPrecrime","inputs":[{"name":"precrime","type":"address","indexed":false,"internalType":"address"}],"anonymous":false},{"type":"event","name":"SetTrustedRemote","inputs":[{"name":"_remoteChainId","type":"uint16","indexed":false,"internalType":"uint16"},{"name":"_path","type":"bytes","indexed":false,"internalType":"bytes"}],"anonymous":false},{"type":"event","name":"SetTrustedRemoteAddress","inputs":[{"name":"_remoteChainId","type":"uint16","indexed":false,"internalType":"uint16"},{"name":"_remoteAddress","type":"bytes","indexed":false,"internalType":"bytes"}],"anonymous":false}],"bytecode":{"object":"0x610100604052348015610010575f80fd5b50604051616a99380380616a99833981810160405281019061003291906103e1565b81818181808061005461004961028560201b60201c565b61028c60201b60201c565b8073ffffffffffffffffffffffffffffffffffffffff1660808173ffffffffffffffffffffffffffffffffffffffff168152505050508160ff1660a08160ff1681525050505050508273ffffffffffffffffffffffffffffffffffffffff1660c08173ffffffffffffffffffffffffffffffffffffffff16815250505f808473ffffffffffffffffffffffffffffffffffffffff166040516024016040516020818303038152906040527f313ce567000000000000000000000000000000000000000000000000000000007bffffffffffffffffffffffffffffffffffffffffffffffffffffffff19166020820180517bffffffffffffffffffffffffffffffffffffffffffffffffffffffff83818316178352505050506040516101799190610483565b5f60405180830381855afa9150503d805f81146101b1576040519150601f19603f3d011682016040523d82523d5f602084013e6101b6565b606091505b5091509150816101fb576040517f08c379a00000000000000000000000000000000000000000000000000000000081526004016101f290610519565b60405180910390fd5b5f818060200190518101906102109190610537565b90508060ff168560ff16111561025b576040517f08c379a0000000000000000000000000000000000000000000000000000000008152600401610252906105d2565b60405180910390fd5b8481610267919061061d565b600a6102739190610789565b60e081815250505050505050506107d3565b5f33905090565b5f805f9054906101000a900473ffffffffffffffffffffffffffffffffffffffff169050815f806101000a81548173ffffffffffffffffffffffffffffffffffffffff021916908373ffffffffffffffffffffffffffffffffffffffff1602179055508173ffffffffffffffffffffffffffffffffffffffff168173ffffffffffffffffffffffffffffffffffffffff167f8be0079c531659141344cd1fd0a4f28419497f9722a3daafe3b4186f6b6457e060405160405180910390a35050565b5f80fd5b5f73ffffffffffffffffffffffffffffffffffffffff82169050919050565b5f61037a82610351565b9050919050565b61038a81610370565b8114610394575f80fd5b50565b5f815190506103a581610381565b92915050565b5f60ff82169050919050565b6103c0816103ab565b81146103ca575f80fd5b50565b5f815190506103db816103b7565b92915050565b5f805f606084860312156103f8576103f761034d565b5b5f61040586828701610397565b9350506020610416868287016103cd565b925050604061042786828701610397565b9150509250925092565b5f81519050919050565b5f81905092915050565b8281835e5f83830152505050565b5f61045d82610431565b610467818561043b565b9350610477818560208601610445565b80840191505092915050565b5f61048e8284610453565b915081905092915050565b5f82825260208201905092915050565b7f50726f78794f46543a206661696c656420746f2067657420746f6b656e2064655f8201527f63696d616c730000000000000000000000000000000000000000000000000000602082015250565b5f610503602683610499565b915061050e826104a9565b604082019050919050565b5f6020820190508181035f830152610530816104f7565b9050919050565b5f6020828403121561054c5761054b61034d565b5b5f610559848285016103cd565b91505092915050565b7f50726f78794f46543a20736861726564446563696d616c73206d7573742062655f8201527f203c3d20646563696d616c730000000000000000000000000000000000000000602082015250565b5f6105bc602c83610499565b91506105c782610562565b604082019050919050565b5f6020820190508181035f8301526105e9816105b0565b9050919050565b7f4e487b71000000000000000000000000000000000000000000000000000000005f52601160045260245ffd5b5f610627826103ab565b9150610632836103ab565b9250828203905060ff81111561064b5761064a6105f0565b5b92915050565b5f8160011c9050919050565b5f808291508390505b60018511156106a657808604811115610682576106816105f0565b5b60018516156106915780820291505b808102905061069f85610651565b9450610666565b94509492505050565b5f826106be5760019050610779565b816106cb575f9050610779565b81600181146106e157600281146106eb5761071a565b6001915050610779565b60ff8411156106fd576106fc6105f0565b5b8360020a915084821115610714576107136105f0565b5b50610779565b5060208310610133831016604e8410600b841016171561074f5782820a90508381111561074a576107496105f0565b5b610779565b61075c848484600161065d565b92509050818404811115610773576107726105f0565b5b81810290505b9392505050565b5f819050919050565b5f61079382610780565b915061079e836103ab565b92506107cb7fffffffffffffffffffffffffffffffffffffffffffffffffffffffffffffffff84846106af565b905092915050565b60805160a05160c05160e05161622a61086f5f395f61321e01525f81816112ce01528181611d28015281816124fc015281816125ce0152818161261f015281816126680152612e7c01525f61125f01525f818161090a01528181610bd901528181610c9401528181610e6a0152818161162f015281816116e301528181611c7c01528181611f1d0152818161244a0152613033015261622a5ff3fe60806040526004361061022e575f3560e01c80638da5cb5b1161012d578063c4461834116100aa578063eaffd49a1161006e578063eaffd49a1461082a578063eb8d72b714610852578063f2fde38b1461087a578063f5ecbdbc146108a2578063fc0c546a146108de5761022e565b8063c44618341461076a578063cbed8b9c14610794578063d1deba1f146107bc578063df2a5b3b146107d8578063e6a20ae6146108005761022e565b80639f38369a116100f15780639f38369a14610677578063a4c51df5146106b3578063a6c3d165146106f0578063b353aaa714610718578063baf3292d146107425761022e565b80638da5cb5b146105935780639358928b146105bd578063950c8a74146105e75780639689cb05146106115780639bdb98121461063b5761022e565b806344770515116101bb578063715018a61161017f578063715018a6146104bf5780637533d788146104d557806376203b4814610511578063857749b01461052d5780638cfd8f5c146105575761022e565b806344770515146103eb5780634c42899a146104155780635b8c41e61461043f57806366ad5c8a1461047b578063695ef6bf146104a35761022e565b806310ddb1371161020257806310ddb137146102e6578063365260b41461030e5780633d8b38f61461034b5780633f1f4fa41461038757806342d65a8d146103c35761022e565b80621d35671461023257806301ffc9a71461025a57806307e0db17146102965780630df37483146102be575b5f80fd5b34801561023d575f80fd5b5061025860048036038101906102539190613a06565b610908565b005b348015610265575f80fd5b50610280600480360381019061027b9190613afe565b610b56565b60405161028d9190613b43565b60405180910390f35b3480156102a1575f80fd5b506102bc60048036038101906102b79190613b5c565b610bcf565b005b3480156102c9575f80fd5b506102e460048036038101906102df9190613bba565b610c60565b005b3480156102f1575f80fd5b5061030c60048036038101906103079190613b5c565b610c8a565b005b348015610319575f80fd5b50610334600480360381019061032f9190613c55565b610d1b565b604051610342929190613cfa565b60405180910390f35b348015610356575f80fd5b50610371600480360381019061036c9190613d21565b610d7c565b60405161037e9190613b43565b60405180910390f35b348015610392575f80fd5b506103ad60048036038101906103a89190613b5c565b610e4b565b6040516103ba9190613d7e565b60405180910390f35b3480156103ce575f80fd5b506103e960048036038101906103e49190613d21565b610e60565b005b3480156103f6575f80fd5b506103ff610ef7565b60405161040c9190613d7e565b60405180910390f35b348015610420575f80fd5b50610429610efb565b6040516104369190613db2565b60405180910390f35b34801561044a575f80fd5b5061046560048036038101906104609190613f03565b610eff565b6040516104729190613f7e565b60405180910390f35b348015610486575f80fd5b506104a1600480360381019061049c9190613a06565b610f42565b005b6104bd60048036038101906104b89190614013565b611051565b005b3480156104ca575f80fd5b506104d36110dc565b005b3480156104e0575f80fd5b506104fb60048036038101906104f69190613b5c565b6110ef565b6040516105089190614106565b60405180910390f35b61052b60048036038101906105269190614126565b61118a565b005b348015610538575f80fd5b5061054161125d565b60405161054e9190613db2565b60405180910390f35b348015610562575f80fd5b5061057d600480360381019061057891906141ff565b611281565b60405161058a9190613d7e565b60405180910390f35b34801561059e575f80fd5b506105a76112a1565b6040516105b4919061424c565b60405180910390f35b3480156105c8575f80fd5b506105d16112c8565b6040516105de9190613d7e565b60405180910390f35b3480156105f2575f80fd5b506105fb611368565b604051610608919061424c565b60405180910390f35b34801561061c575f80fd5b5061062561138d565b6040516106329190613d7e565b60405180910390f35b348015610646575f80fd5b50610661600480360381019061065c9190613f03565b611393565b60405161066e9190613b43565b60405180910390f35b348015610682575f80fd5b5061069d60048036038101906106989190613b5c565b6113e0565b6040516106aa9190614106565b60405180910390f35b3480156106be575f80fd5b506106d960048036038101906106d49190614265565b6114f2565b6040516106e7929190613cfa565b60405180910390f35b3480156106fb575f80fd5b5061071660048036038101906107119190613d21565b61159b565b005b348015610723575f80fd5b5061072c61162d565b604051610739919061439c565b60405180910390f35b34801561074d575f80fd5b50610768600480360381019061076391906143b5565b611651565b005b348015610775575f80fd5b5061077e6116d3565b60405161078b9190613d7e565b60405180910390f35b34801561079f575f80fd5b506107ba60048036038101906107b591906143e0565b6116d9565b005b6107d660048036038101906107d19190613a06565b611776565b005b3480156107e3575f80fd5b506107fe60048036038101906107f99190614464565b6119ac565b005b34801561080b575f80fd5b50610814611a29565b6040516108219190613db2565b60405180910390f35b348015610835575f80fd5b50610850600480360381019061084b91906144b4565b611a2e565b005b34801561085d575f80fd5b5061087860048036038101906108739190613d21565b611b85565b005b348015610885575f80fd5b506108a0600480360381019061089b91906143b5565b611bf6565b005b3480156108ad575f80fd5b506108c860048036038101906108c391906145a5565b611c78565b6040516108d59190614106565b60405180910390f35b3480156108e9575f80fd5b506108f2611d25565b6040516108ff919061424c565b60405180910390f35b7f000000000000000000000000000000000000000000000000000000000000000073ffffffffffffffffffffffffffffffffffffffff16610947611d4c565b73ffffffffffffffffffffffffffffffffffffffff161461099d576040517f08c379a000000000000000000000000000000000000000000000000000000000815260040161099490614663565b60405180910390fd5b5f60015f8861ffff1661ffff1681526020019081526020015f2080546109c2906146ae565b80601f01602080910402602001604051908101604052809291908181526020018280546109ee906146ae565b8015610a395780601f10610a1057610100808354040283529160200191610a39565b820191905f5260205f20905b815481529060010190602001808311610a1c57829003601f168201915b50505050509050805186869050148015610a5357505f8151115b8015610a7c575080805190602001208686604051610a7292919061470c565b6040518091039020145b610abb576040517f08c379a0000000000000000000000000000000000000000000000000000000008152600401610ab290614794565b60405180910390fd5b610b4d8787878080601f0160208091040260200160405190810160405280939291908181526020018383808284375f81840152601f19601f820116905080830192505050505050508686868080601f0160208091040260200160405190810160405280939291908181526020018383808284375f81840152601f19601f82011690508083019250505050505050611d53565b50505050505050565b5f7f1f7ecdf7000000000000000000000000000000000000000000000000000000007bffffffffffffffffffffffffffffffffffffffffffffffffffffffff1916827bffffffffffffffffffffffffffffffffffffffffffffffffffffffff19161480610bc85750610bc782611e1d565b5b9050919050565b610bd7611e86565b7f000000000000000000000000000000000000000000000000000000000000000073ffffffffffffffffffffffffffffffffffffffff166307e0db17826040518263ffffffff1660e01b8152600401610c3091906147c1565b5f604051808303815f87803b158015610c47575f80fd5b505af1158015610c59573d5f803e3d5ffd5b5050505050565b610c68611e86565b8060035f8461ffff1661ffff1681526020019081526020015f20819055505050565b610c92611e86565b7f000000000000000000000000000000000000000000000000000000000000000073ffffffffffffffffffffffffffffffffffffffff166310ddb137826040518263ffffffff1660e01b8152600401610ceb91906147c1565b5f604051808303815f87803b158015610d02575f80fd5b505af1158015610d14573d5f803e3d5ffd5b5050505050565b5f80610d6d8888888888888080601f0160208091040260200160405190810160405280939291908181526020018383808284375f81840152601f19601f82011690508083019250505050505050611f04565b91509150965096945050505050565b5f8060015f8661ffff1661ffff1681526020019081526020015f208054610da2906146ae565b80601f0160208091040260200160405190810160405280929190818152602001828054610dce906146ae565b8015610e195780601f10610df057610100808354040283529160200191610e19565b820191905f5260205f20905b815481529060010190602001808311610dfc57829003601f168201915b505050505090508383604051610e3092919061470c565b60405180910390208180519060200120149150509392505050565b6003602052805f5260405f205f915090505481565b610e68611e86565b7f000000000000000000000000000000000000000000000000000000000000000073ffffffffffffffffffffffffffffffffffffffff166342d65a8d8484846040518463ffffffff1660e01b8152600401610ec593929190614806565b5f604051808303815f87803b158015610edc575f80fd5b505af1158015610eee573d5f803e3d5ffd5b50505050505050565b5f81565b5f81565b6005602052825f5260405f2082805160208101820180518482526020830160208501208183528095505050505050602052805f5260405f205f9250925050505481565b3073ffffffffffffffffffffffffffffffffffffffff16610f61611d4c565b73ffffffffffffffffffffffffffffffffffffffff1614610fb7576040517f08c379a0000000000000000000000000000000000000000000000000000000008152600401610fae906148a6565b60405180910390fd5b6110498686868080601f0160208091040260200160405190810160405280939291908181526020018383808284375f81840152601f19601f820116905080830192505050505050508585858080601f0160208091040260200160405190810160405280939291908181526020018383808284375f81840152601f19601f82011690508083019250505050505050611fc9565b505050505050565b6110d485858585855f01602081019061106a91906148ff565b86602001602081019061107d91906143b5565b87806040019061108d9190614936565b8080601f0160208091040260200160405190810160405280939291908181526020018383808284375f81840152601f19601f8201169050808301925050505050505061205f565b505050505050565b6110e4611e86565b6110ed5f612150565b565b6001602052805f5260405f205f91509050805461110b906146ae565b80601f0160208091040260200160405190810160405280929190818152602001828054611137906146ae565b80156111825780601f1061115957610100808354040283529160200191611182565b820191905f5260205f20905b81548152906001019060200180831161116557829003601f168201915b505050505081565b6112528888888888888080601f0160208091040260200160405190810160405280939291908181526020018383808284375f81840152601f19601f8201169050808301925050505050505087875f0160208101906111e891906148ff565b8860200160208101906111fb91906143b5565b89806040019061120b9190614936565b8080601f0160208091040260200160405190810160405280939291908181526020018383808284375f81840152601f19601f82011690508083019250505050505050612211565b505050505050505050565b7f000000000000000000000000000000000000000000000000000000000000000081565b6002602052815f5260405f20602052805f5260405f205f91509150505481565b5f805f9054906101000a900473ffffffffffffffffffffffffffffffffffffffff16905090565b5f6007547f000000000000000000000000000000000000000000000000000000000000000073ffffffffffffffffffffffffffffffffffffffff166318160ddd6040518163ffffffff1660e01b8152600401602060405180830381865afa158015611335573d5f803e3d5ffd5b505050506040513d601f19601f8201168201806040525081019061135991906149ac565b6113639190614a04565b905090565b60045f9054906101000a900473ffffffffffffffffffffffffffffffffffffffff1681565b60075481565b6006602052825f5260405f2082805160208101820180518482526020830160208501208183528095505050505050602052805f5260405f205f92509250509054906101000a900460ff1681565b60605f60015f8461ffff1661ffff1681526020019081526020015f208054611407906146ae565b80601f0160208091040260200160405190810160405280929190818152602001828054611433906146ae565b801561147e5780601f106114555761010080835404028352916020019161147e565b820191905f5260205f20905b81548152906001019060200180831161146157829003601f168201915b505050505090505f8151036114c8576040517f08c379a00000000000000000000000000000000000000000000000000000000081526004016114bf90614a81565b60405180910390fd5b6114ea5f601483516114da9190614a04565b836123129092919063ffffffff16565b915050919050565b5f806115898b8b8b8b8b8080601f0160208091040260200160405190810160405280939291908181526020018383808284375f81840152601f19601f820116905080830192505050505050508a8a8a8a8080601f0160208091040260200160405190810160405280939291908181526020018383808284375f81840152601f19601f8201169050808301925050505050505061242e565b91509150995099975050505050505050565b6115a3611e86565b8181306040516020016115b893929190614ae4565b60405160208183030381529060405260015f8561ffff1661ffff1681526020019081526020015f2090816115ec9190614ca1565b507f8c0400cfe2d1199b1a725c78960bcc2a344d869b80590d0f2bd005db15a572ce83838360405161162093929190614806565b60405180910390a1505050565b7f000000000000000000000000000000000000000000000000000000000000000081565b611659611e86565b8060045f6101000a81548173ffffffffffffffffffffffffffffffffffffffff021916908373ffffffffffffffffffffffffffffffffffffffff1602179055507f5db758e995a17ec1ad84bdef7e8c3293a0bd6179bcce400dff5d4c3d87db726b816040516116c8919061424c565b60405180910390a150565b61271081565b6116e1611e86565b7f000000000000000000000000000000000000000000000000000000000000000073ffffffffffffffffffffffffffffffffffffffff1663cbed8b9c86868686866040518663ffffffff1660e01b8152600401611742959493929190614d70565b5f604051808303815f87803b158015611759575f80fd5b505af115801561176b573d5f803e3d5ffd5b505050505050505050565b5f60055f8861ffff1661ffff1681526020019081526020015f2086866040516117a092919061470c565b90815260200160405180910390205f8567ffffffffffffffff1667ffffffffffffffff1681526020019081526020015f205490505f801b8103611818576040517f08c379a000000000000000000000000000000000000000000000000000000000815260040161180f90614e2c565b60405180910390fd5b80838360405161182992919061470c565b604051809103902014611871576040517f08c379a000000000000000000000000000000000000000000000000000000000815260040161186890614eba565b60405180910390fd5b5f801b60055f8961ffff1661ffff1681526020019081526020015f20878760405161189d92919061470c565b90815260200160405180910390205f8667ffffffffffffffff1667ffffffffffffffff1681526020019081526020015f20819055506119648787878080601f0160208091040260200160405190810160405280939291908181526020018383808284375f81840152601f19601f820116905080830192505050505050508686868080601f0160208091040260200160405190810160405280939291908181526020018383808284375f81840152601f19601f82011690508083019250505050505050611fc9565b7fc264d91f3adc5588250e1551f547752ca0cfa8f6b530d243b9f9f4cab10ea8e5878787878560405161199b959493929190614ee7565b60405180910390a150505050505050565b6119b4611e86565b8060025f8561ffff1661ffff1681526020019081526020015f205f8461ffff1661ffff1681526020019081526020015f20819055507f9d5c7c0b934da8fefa9c7760c98383778a12dfbfc0c3b3106518f43fb9508ac0838383604051611a1c93929190614f33565b60405180910390a1505050565b600181565b3073ffffffffffffffffffffffffffffffffffffffff16611a4d611d4c565b73ffffffffffffffffffffffffffffffffffffffff1614611aa3576040517f08c379a0000000000000000000000000000000000000000000000000000000008152600401611a9a90614fb2565b60405180910390fd5b611aae3086866124f8565b93508473ffffffffffffffffffffffffffffffffffffffff168a61ffff167fbf551ec93859b170f9b2141bd9298bf3f64322c6f7beb2543a0cb669834118bf86604051611afb9190613d7e565b60405180910390a38473ffffffffffffffffffffffffffffffffffffffff16637fcf35da828c8c8c8c8c8b8b8b6040518a63ffffffff1660e01b8152600401611b4b989796959493929190614fd0565b5f604051808303815f88803b158015611b62575f80fd5b5087f1158015611b74573d5f803e3d5ffd5b505050505050505050505050505050565b611b8d611e86565b818160015f8661ffff1661ffff1681526020019081526020015f209182611bb592919061504b565b507ffa41487ad5d6728f0b19276fa1eddc16558578f5109fc39d2dc33c3230470dab838383604051611be993929190614806565b60405180910390a1505050565b611bfe611e86565b5f73ffffffffffffffffffffffffffffffffffffffff168173ffffffffffffffffffffffffffffffffffffffff1603611c6c576040517f08c379a0000000000000000000000000000000000000000000000000000000008152600401611c6390615188565b60405180910390fd5b611c7581612150565b50565b60607f000000000000000000000000000000000000000000000000000000000000000073ffffffffffffffffffffffffffffffffffffffff1663f5ecbdbc868630866040518563ffffffff1660e01b8152600401611cd994939291906151a6565b5f60405180830381865afa158015611cf3573d5f803e3d5ffd5b505050506040513d5f823e3d601f19601f82011682018060405250810190611d1b9190615257565b9050949350505050565b5f7f0000000000000000000000000000000000000000000000000000000000000000905090565b5f33905090565b5f80611dfe5a60966366ad5c8a60e01b89898989604051602401611d7a949392919061529e565b604051602081830303815290604052907bffffffffffffffffffffffffffffffffffffffffffffffffffffffff19166020820180517bffffffffffffffffffffffffffffffffffffffffffffffffffffffff83818316178352505050503073ffffffffffffffffffffffffffffffffffffffff16612712909392919063ffffffff16565b9150915081611e1557611e1486868686856127a4565b5b505050505050565b5f7f01ffc9a7000000000000000000000000000000000000000000000000000000007bffffffffffffffffffffffffffffffffffffffffffffffffffffffff1916827bffffffffffffffffffffffffffffffffffffffffffffffffffffffff1916149050919050565b611e8e611d4c565b73ffffffffffffffffffffffffffffffffffffffff16611eac6112a1565b73ffffffffffffffffffffffffffffffffffffffff1614611f02576040517f08c379a0000000000000000000000000000000000000000000000000000000008152600401611ef990615339565b60405180910390fd5b565b5f805f611f1987611f148861284e565b6128bb565b90507f000000000000000000000000000000000000000000000000000000000000000073ffffffffffffffffffffffffffffffffffffffff166340a7bb1089308489896040518663ffffffff1660e01b8152600401611f7c959493929190615357565b6040805180830381865afa158015611f96573d5f803e3d5ffd5b505050506040513d601f19601f82011682018060405250810190611fba91906153b6565b92509250509550959350505050565b5f611fdd5f836128e990919063ffffffff16565b90505f60ff168160ff1603611ffd57611ff88585858561294e565b612058565b600160ff168160ff160361201c5761201785858585612a0b565b612057565b6040517f08c379a000000000000000000000000000000000000000000000000000000000815260040161204e9061543e565b60405180910390fd5b5b5050505050565b5f61206f875f60ff16845f612cd9565b61207885612db1565b508091505061208988888884612ddb565b90505f81116120cd576040517f08c379a00000000000000000000000000000000000000000000000000000000081526004016120c4906154a6565b60405180910390fd5b5f6120e0876120db8461284e565b6128bb565b90506120f0888287878734612f40565b868973ffffffffffffffffffffffffffffffffffffffff168961ffff167fd81fc9b8523134ed613870ed029d6170cbb73aa6a6bc311b9a642689fb9df59a8560405161213c9190613d7e565b60405180910390a450979650505050505050565b5f805f9054906101000a900473ffffffffffffffffffffffffffffffffffffffff169050815f806101000a81548173ffffffffffffffffffffffffffffffffffffffff021916908373ffffffffffffffffffffffffffffffffffffffff1602179055508173ffffffffffffffffffffffffffffffffffffffff168173ffffffffffffffffffffffffffffffffffffffff167f8be0079c531659141344cd1fd0a4f28419497f9722a3daafe3b4186f6b6457e060405160405180910390a35050565b5f61222c89600160ff16848867ffffffffffffffff16612cd9565b61223587612db1565b50809150506122468a8a8a84612ddb565b90505f811161228a576040517f08c379a0000000000000000000000000000000000000000000000000000000008152600401612281906154a6565b60405180910390fd5b5f6122a0338a6122998561284e565b8a8a6130cc565b90506122b08a8287878734612f40565b888b73ffffffffffffffffffffffffffffffffffffffff168b61ffff167fd81fc9b8523134ed613870ed029d6170cbb73aa6a6bc311b9a642689fb9df59a856040516122fc9190613d7e565b60405180910390a4509998505050505050505050565b606081601f8361232291906154c4565b1015612363576040517f08c379a000000000000000000000000000000000000000000000000000000000815260040161235a90615541565b60405180910390fd5b818361236f91906154c4565b845110156123b2576040517f08c379a00000000000000000000000000000000000000000000000000000000081526004016123a9906155a9565b60405180910390fd5b606082155f81146123d15760405191505f825260208201604052612422565b6040519150601f8416801560200281840101858101878315602002848b0101015b8183101561240f57805183526020830192506020810190506123f2565b50868552601f19601f8301166040525050505b50809150509392505050565b5f805f612446338a61243f8b61284e565b8a8a6130cc565b90507f000000000000000000000000000000000000000000000000000000000000000073ffffffffffffffffffffffffffffffffffffffff166340a7bb108b308489896040518663ffffffff1660e01b81526004016124a9959493929190615357565b6040805180830381865afa1580156124c3573d5f803e3d5ffd5b505050506040513d601f19601f820116820180604052508101906124e791906153b6565b925092505097509795505050505050565b5f807f000000000000000000000000000000000000000000000000000000000000000073ffffffffffffffffffffffffffffffffffffffff166370a08231856040518263ffffffff1660e01b8152600401612553919061424c565b602060405180830381865afa15801561256e573d5f803e3d5ffd5b505050506040513d601f19601f8201168201806040525081019061259291906149ac565b90503073ffffffffffffffffffffffffffffffffffffffff168573ffffffffffffffffffffffffffffffffffffffff16036126175761261284847f000000000000000000000000000000000000000000000000000000000000000073ffffffffffffffffffffffffffffffffffffffff1661310c9092919063ffffffff16565b612665565b6126648585857f000000000000000000000000000000000000000000000000000000000000000073ffffffffffffffffffffffffffffffffffffffff16613192909392919063ffffffff16565b5b807f000000000000000000000000000000000000000000000000000000000000000073ffffffffffffffffffffffffffffffffffffffff166370a08231866040518263ffffffff1660e01b81526004016126bf919061424c565b602060405180830381865afa1580156126da573d5f803e3d5ffd5b505050506040513d601f19601f820116820180604052508101906126fe91906149ac565b6127089190614a04565b9150509392505050565b5f60605f805f8661ffff1667ffffffffffffffff81111561273657612735613ddf565b5b6040519080825280601f01601f1916602001820160405280156127685781602001600182028036833780820191505090505b5090505f808751602089015f8d8df191503d925086831115612788578692505b828152825f602083013e81819450945050505094509492505050565b818051906020012060055f8761ffff1661ffff1681526020019081526020015f20856040516127d391906155f7565b90815260200160405180910390205f8567ffffffffffffffff1667ffffffffffffffff1681526020019081526020015f20819055507fe183f33de2837795525b4792ca4cd60535bd77c53b7e7030060bfcf5734d6b0c858585858560405161283f95949392919061560d565b60405180910390a15050505050565b5f8061285861321b565b8361286391906156a0565b905067ffffffffffffffff80168111156128b2576040517f08c379a00000000000000000000000000000000000000000000000000000000081526004016128a99061571a565b60405180910390fd5b80915050919050565b60605f83836040516020016128d2939291906157c0565b604051602081830303815290604052905092915050565b5f6001826128f791906154c4565b8351101561293a576040517f08c379a000000000000000000000000000000000000000000000000000000000815260040161293190615846565b60405180910390fd5b5f8260018501015190508091505092915050565b5f8061295983613242565b915091505f73ffffffffffffffffffffffffffffffffffffffff168273ffffffffffffffffffffffffffffffffffffffff16036129965761dead91505b5f6129a0826132dc565b90506129ad878483613301565b90508273ffffffffffffffffffffffffffffffffffffffff168761ffff167fbf551ec93859b170f9b2141bd9298bf3f64322c6f7beb2543a0cb669834118bf836040516129fa9190613d7e565b60405180910390a350505050505050565b5f805f805f612a198661336a565b945094509450945094505f60065f8b61ffff1661ffff1681526020019081526020015f2089604051612a4b91906155f7565b90815260200160405180910390205f8967ffffffffffffffff1667ffffffffffffffff1681526020019081526020015f205f9054906101000a900460ff1690505f612a95856132dc565b905081612b1a57612aa78b3083613301565b9050600160065f8d61ffff1661ffff1681526020019081526020015f208b604051612ad291906155f7565b90815260200160405180910390205f8b67ffffffffffffffff1667ffffffffffffffff1681526020019081526020015f205f6101000a81548160ff0219169083151502179055505b612b2386613450565b612b6a577f9aedf5fdba8716db3b6705ca00150643309995d4f818a249ed6dde6677e7792d86604051612b56919061424c565b60405180910390a150505050505050612cd3565b5f8b90505f8b90505f8b90505f8b90505f8b90505f8b90505f8790505f8b90505f8a612ba0578b67ffffffffffffffff16612ba2565b5a5b90505f80612c575a609663eaffd49a60e01b8e8e8e8d8d8d8d8d604051602401612bd3989796959493929190615864565b604051602081830303815290604052907bffffffffffffffffffffffffffffffffffffffffffffffffffffffff19166020820180517bffffffffffffffffffffffffffffffffffffffffffffffffffffffff83818316178352505050503073ffffffffffffffffffffffffffffffffffffffff16612712909392919063ffffffff16565b915091508115612cb2575f888051906020012090508b61ffff167fb8890edbfc1c74692f527444645f95489c3703cc2df42e4a366f5d06fa6cd8848c8c84604051612ca4939291906158ee565b60405180910390a250612cc0565b612cbf8b8b8b8b856127a4565b5b5050505050505050505050505050505050505b50505050565b5f612ce383613472565b90505f60025f8761ffff1661ffff1681526020019081526020015f205f8661ffff1661ffff1681526020019081526020015f205490505f8111612d5b576040517f08c379a0000000000000000000000000000000000000000000000000000000008152600401612d5290615974565b60405180910390fd5b8281612d6791906154c4565b821015612da9576040517f08c379a0000000000000000000000000000000000000000000000000000000008152600401612da0906159dc565b60405180910390fd5b505050505050565b5f80612dbb61321b565b83612dc691906159fa565b90508083612dd49190614a04565b9150915091565b5f612de4611d4c565b73ffffffffffffffffffffffffffffffffffffffff168573ffffffffffffffffffffffffffffffffffffffff1614612e51576040517f08c379a0000000000000000000000000000000000000000000000000000000008152600401612e4890615a9a565b60405180910390fd5b612e5c8530846124f8565b91505f80612e6984612db1565b915091505f811115612ec157612ec087827f000000000000000000000000000000000000000000000000000000000000000073ffffffffffffffffffffffffffffffffffffffff1661310c9092919063ffffffff16565b5b8160075f828254612ed291906154c4565b925050819055505f612eeb67ffffffffffffffff6132dc565b9050600754811015612f32576040517f08c379a0000000000000000000000000000000000000000000000000000000008152600401612f2990615b28565b60405180910390fd5b829350505050949350505050565b5f60015f8861ffff1661ffff1681526020019081526020015f208054612f65906146ae565b80601f0160208091040260200160405190810160405280929190818152602001828054612f91906146ae565b8015612fdc5780601f10612fb357610100808354040283529160200191612fdc565b820191905f5260205f20905b815481529060010190602001808311612fbf57829003601f168201915b505050505090505f815103613026576040517f08c379a000000000000000000000000000000000000000000000000000000000815260040161301d90615bb6565b60405180910390fd5b6130318787516134c4565b7f000000000000000000000000000000000000000000000000000000000000000073ffffffffffffffffffffffffffffffffffffffff1663c58031008389848a8a8a8a6040518863ffffffff1660e01b815260040161309596959493929190615be3565b5f604051808303818588803b1580156130ac575f80fd5b505af11580156130be573d5f803e3d5ffd5b505050505050505050505050565b6060600185856130db89613536565b85876040516020016130f296959493929190615c57565b604051602081830303815290604052905095945050505050565b61318d8363a9059cbb60e01b848460405160240161312b929190615cc2565b604051602081830303815290604052907bffffffffffffffffffffffffffffffffffffffffffffffffffffffff19166020820180517bffffffffffffffffffffffffffffffffffffffffffffffffffffffff8381831617835250505050613557565b505050565b613215846323b872dd60e01b8585856040516024016131b393929190615ce9565b604051602081830303815290604052907bffffffffffffffffffffffffffffffffffffffffffffffffffffffff19166020820180517bffffffffffffffffffffffffffffffffffffffffffffffffffffffff8381831617835250505050613557565b50505050565b5f7f0000000000000000000000000000000000000000000000000000000000000000905090565b5f805f60ff1661325b5f856128e990919063ffffffff16565b60ff1614801561326c575060298351145b6132ab576040517f08c379a00000000000000000000000000000000000000000000000000000000081526004016132a290615d68565b60405180910390fd5b6132bf600d8461361d90919063ffffffff16565b91506132d560218461369190919063ffffffff16565b9050915091565b5f6132e561321b565b8267ffffffffffffffff166132fa9190615d86565b9050919050565b5f8160075f8282546133139190614a04565b925050819055503073ffffffffffffffffffffffffffffffffffffffff168373ffffffffffffffffffffffffffffffffffffffff160361335557819050613363565b6133603084846124f8565b90505b9392505050565b5f805f60605f600160ff166133885f886128e990919063ffffffff16565b60ff16146133cb576040517f08c379a00000000000000000000000000000000000000000000000000000000081526004016133c290615d68565b60405180910390fd5b6133df600d8761361d90919063ffffffff16565b93506133f560218761369190919063ffffffff16565b925061340b6029876136f690919063ffffffff16565b945061342160498761369190919063ffffffff16565b905061344560518088516134359190614a04565b886123129092919063ffffffff16565b915091939590929450565b5f808273ffffffffffffffffffffffffffffffffffffffff163b119050919050565b5f6022825110156134b8576040517f08c379a00000000000000000000000000000000000000000000000000000000081526004016134af90615e11565b60405180910390fd5b60228201519050919050565b5f60035f8461ffff1661ffff1681526020019081526020015f205490505f81036134ee5761271090505b80821115613531576040517f08c379a000000000000000000000000000000000000000000000000000000000815260040161352890615e79565b60405180910390fd5b505050565b5f8173ffffffffffffffffffffffffffffffffffffffff165f1b9050919050565b5f6135b8826040518060400160405280602081526020017f5361666545524332303a206c6f772d6c6576656c2063616c6c206661696c65648152508573ffffffffffffffffffffffffffffffffffffffff1661375b9092919063ffffffff16565b90505f815114806135d95750808060200190518101906135d89190615eab565b5b613618576040517f08c379a000000000000000000000000000000000000000000000000000000000815260040161360f90615f46565b60405180910390fd5b505050565b5f60148261362b91906154c4565b8351101561366e576040517f08c379a000000000000000000000000000000000000000000000000000000000815260040161366590615fae565b60405180910390fd5b5f6c01000000000000000000000000836020860101510490508091505092915050565b5f60088261369f91906154c4565b835110156136e2576040517f08c379a00000000000000000000000000000000000000000000000000000000081526004016136d990616016565b60405180910390fd5b5f8260088501015190508091505092915050565b5f60208261370491906154c4565b83511015613747576040517f08c379a000000000000000000000000000000000000000000000000000000000815260040161373e9061607e565b60405180910390fd5b5f8260208501015190508091505092915050565b606061376984845f85613772565b90509392505050565b6060824710156137b7576040517f08c379a00000000000000000000000000000000000000000000000000000000081526004016137ae9061610c565b60405180910390fd5b5f808673ffffffffffffffffffffffffffffffffffffffff1685876040516137df91906155f7565b5f6040518083038185875af1925050503d805f8114613819576040519150601f19603f3d011682016040523d82523d5f602084013e61381e565b606091505b509150915061382f8783838761383b565b92505050949350505050565b6060831561389c575f83510361389457613854856138af565b613893576040517f08c379a000000000000000000000000000000000000000000000000000000000815260040161388a90616174565b60405180910390fd5b5b8290506138a7565b6138a683836138d1565b5b949350505050565b5f808273ffffffffffffffffffffffffffffffffffffffff163b119050919050565b5f825111156138e35781518083602001fd5b806040517f08c379a000000000000000000000000000000000000000000000000000000000815260040161391791906161d4565b60405180910390fd5b5f604051905090565b5f80fd5b5f80fd5b5f61ffff82169050919050565b61394781613931565b8114613951575f80fd5b50565b5f813590506139628161393e565b92915050565b5f80fd5b5f80fd5b5f80fd5b5f8083601f84011261398957613988613968565b5b8235905067ffffffffffffffff8111156139a6576139a561396c565b5b6020830191508360018202830111156139c2576139c1613970565b5b9250929050565b5f67ffffffffffffffff82169050919050565b6139e5816139c9565b81146139ef575f80fd5b50565b5f81359050613a00816139dc565b92915050565b5f805f805f8060808789031215613a2057613a1f613929565b5b5f613a2d89828a01613954565b965050602087013567ffffffffffffffff811115613a4e57613a4d61392d565b5b613a5a89828a01613974565b95509550506040613a6d89828a016139f2565b935050606087013567ffffffffffffffff811115613a8e57613a8d61392d565b5b613a9a89828a01613974565b92509250509295509295509295565b5f7fffffffff0000000000000000000000000000000000000000000000000000000082169050919050565b613add81613aa9565b8114613ae7575f80fd5b50565b5f81359050613af881613ad4565b92915050565b5f60208284031215613b1357613b12613929565b5b5f613b2084828501613aea565b91505092915050565b5f8115159050919050565b613b3d81613b29565b82525050565b5f602082019050613b565f830184613b34565b92915050565b5f60208284031215613b7157613b70613929565b5b5f613b7e84828501613954565b91505092915050565b5f819050919050565b613b9981613b87565b8114613ba3575f80fd5b50565b5f81359050613bb481613b90565b92915050565b5f8060408385031215613bd057613bcf613929565b5b5f613bdd85828601613954565b9250506020613bee85828601613ba6565b9150509250929050565b5f819050919050565b613c0a81613bf8565b8114613c14575f80fd5b50565b5f81359050613c2581613c01565b92915050565b613c3481613b29565b8114613c3e575f80fd5b50565b5f81359050613c4f81613c2b565b92915050565b5f805f805f8060a08789031215613c6f57613c6e613929565b5b5f613c7c89828a01613954565b9650506020613c8d89828a01613c17565b9550506040613c9e89828a01613ba6565b9450506060613caf89828a01613c41565b935050608087013567ffffffffffffffff811115613cd057613ccf61392d565b5b613cdc89828a01613974565b92509250509295509295509295565b613cf481613b87565b82525050565b5f604082019050613d0d5f830185613ceb565b613d1a6020830184613ceb565b9392505050565b5f805f60408486031215613d3857613d37613929565b5b5f613d4586828701613954565b935050602084013567ffffffffffffffff811115613d6657613d6561392d565b5b613d7286828701613974565b92509250509250925092565b5f602082019050613d915f830184613ceb565b92915050565b5f60ff82169050919050565b613dac81613d97565b82525050565b5f602082019050613dc55f830184613da3565b92915050565b5f80fd5b5f601f19601f8301169050919050565b7f4e487b71000000000000000000000000000000000000000000000000000000005f52604160045260245ffd5b613e1582613dcf565b810181811067ffffffffffffffff82111715613e3457613e33613ddf565b5b80604052505050565b5f613e46613920565b9050613e528282613e0c565b919050565b5f67ffffffffffffffff821115613e7157613e70613ddf565b5b613e7a82613dcf565b9050602081019050919050565b828183375f83830152505050565b5f613ea7613ea284613e57565b613e3d565b905082815260208101848484011115613ec357613ec2613dcb565b5b613ece848285613e87565b509392505050565b5f82601f830112613eea57613ee9613968565b5b8135613efa848260208601613e95565b91505092915050565b5f805f60608486031215613f1a57613f19613929565b5b5f613f2786828701613954565b935050602084013567ffffffffffffffff811115613f4857613f4761392d565b5b613f5486828701613ed6565b9250506040613f65868287016139f2565b9150509250925092565b613f7881613bf8565b82525050565b5f602082019050613f915f830184613f6f565b92915050565b5f73ffffffffffffffffffffffffffffffffffffffff82169050919050565b5f613fc082613f97565b9050919050565b613fd081613fb6565b8114613fda575f80fd5b50565b5f81359050613feb81613fc7565b92915050565b5f80fd5b5f6060828403121561400a57614009613ff1565b5b81905092915050565b5f805f805f60a0868803121561402c5761402b613929565b5b5f61403988828901613fdd565b955050602061404a88828901613954565b945050604061405b88828901613c17565b935050606061406c88828901613ba6565b925050608086013567ffffffffffffffff81111561408d5761408c61392d565b5b61409988828901613ff5565b9150509295509295909350565b5f81519050919050565b5f82825260208201905092915050565b8281835e5f83830152505050565b5f6140d8826140a6565b6140e281856140b0565b93506140f28185602086016140c0565b6140fb81613dcf565b840191505092915050565b5f6020820190508181035f83015261411e81846140ce565b905092915050565b5f805f805f805f8060e0898b03121561414257614141613929565b5b5f61414f8b828c01613fdd565b98505060206141608b828c01613954565b97505060406141718b828c01613c17565b96505060606141828b828c01613ba6565b955050608089013567ffffffffffffffff8111156141a3576141a261392d565b5b6141af8b828c01613974565b945094505060a06141c28b828c016139f2565b92505060c089013567ffffffffffffffff8111156141e3576141e261392d565b5b6141ef8b828c01613ff5565b9150509295985092959890939650565b5f806040838503121561421557614214613929565b5b5f61422285828601613954565b925050602061423385828601613954565b9150509250929050565b61424681613fb6565b82525050565b5f60208201905061425f5f83018461423d565b92915050565b5f805f805f805f805f60e08a8c03121561428257614281613929565b5b5f61428f8c828d01613954565b99505060206142a08c828d01613c17565b98505060406142b18c828d01613ba6565b97505060608a013567ffffffffffffffff8111156142d2576142d161392d565b5b6142de8c828d01613974565b965096505060806142f18c828d016139f2565b94505060a06143028c828d01613c41565b93505060c08a013567ffffffffffffffff8111156143235761432261392d565b5b61432f8c828d01613974565b92509250509295985092959850929598565b5f819050919050565b5f61436461435f61435a84613f97565b614341565b613f97565b9050919050565b5f6143758261434a565b9050919050565b5f6143868261436b565b9050919050565b6143968161437c565b82525050565b5f6020820190506143af5f83018461438d565b92915050565b5f602082840312156143ca576143c9613929565b5b5f6143d784828501613fdd565b91505092915050565b5f805f805f608086880312156143f9576143f8613929565b5b5f61440688828901613954565b955050602061441788828901613954565b945050604061442888828901613ba6565b935050606086013567ffffffffffffffff8111156144495761444861392d565b5b61445588828901613974565b92509250509295509295909350565b5f805f6060848603121561447b5761447a613929565b5b5f61448886828701613954565b935050602061449986828701613954565b92505060406144aa86828701613ba6565b9150509250925092565b5f805f805f805f805f806101008b8d0312156144d3576144d2613929565b5b5f6144e08d828e01613954565b9a505060208b013567ffffffffffffffff8111156145015761450061392d565b5b61450d8d828e01613974565b995099505060406145208d828e016139f2565b97505060606145318d828e01613c17565b96505060806145428d828e01613fdd565b95505060a06145538d828e01613ba6565b94505060c08b013567ffffffffffffffff8111156145745761457361392d565b5b6145808d828e01613974565b935093505060e06145938d828e01613ba6565b9150509295989b9194979a5092959850565b5f805f80608085870312156145bd576145bc613929565b5b5f6145ca87828801613954565b94505060206145db87828801613954565b93505060406145ec87828801613fdd565b92505060606145fd87828801613ba6565b91505092959194509250565b5f82825260208201905092915050565b7f4c7a4170703a20696e76616c696420656e64706f696e742063616c6c657200005f82015250565b5f61464d601e83614609565b915061465882614619565b602082019050919050565b5f6020820190508181035f83015261467a81614641565b9050919050565b7f4e487b71000000000000000000000000000000000000000000000000000000005f52602260045260245ffd5b5f60028204905060018216806146c557607f821691505b6020821081036146d8576146d7614681565b5b50919050565b5f81905092915050565b5f6146f383856146de565b9350614700838584613e87565b82840190509392505050565b5f6147188284866146e8565b91508190509392505050565b7f4c7a4170703a20696e76616c696420736f757263652073656e64696e6720636f5f8201527f6e74726163740000000000000000000000000000000000000000000000000000602082015250565b5f61477e602683614609565b915061478982614724565b604082019050919050565b5f6020820190508181035f8301526147ab81614772565b9050919050565b6147bb81613931565b82525050565b5f6020820190506147d45f8301846147b2565b92915050565b5f6147e583856140b0565b93506147f2838584613e87565b6147fb83613dcf565b840190509392505050565b5f6040820190506148195f8301866147b2565b818103602083015261482c8184866147da565b9050949350505050565b7f4e6f6e626c6f636b696e674c7a4170703a2063616c6c6572206d7573742062655f8201527f204c7a4170700000000000000000000000000000000000000000000000000000602082015250565b5f614890602683614609565b915061489b82614836565b604082019050919050565b5f6020820190508181035f8301526148bd81614884565b9050919050565b5f6148ce82613f97565b9050919050565b6148de816148c4565b81146148e8575f80fd5b50565b5f813590506148f9816148d5565b92915050565b5f6020828403121561491457614913613929565b5b5f614921848285016148eb565b91505092915050565b5f80fd5b5f80fd5b5f80fd5b5f80833560016020038436030381126149525761495161492a565b5b80840192508235915067ffffffffffffffff8211156149745761497361492e565b5b6020830192506001820236038313156149905761498f614932565b5b509250929050565b5f815190506149a681613b90565b92915050565b5f602082840312156149c1576149c0613929565b5b5f6149ce84828501614998565b91505092915050565b7f4e487b71000000000000000000000000000000000000000000000000000000005f52601160045260245ffd5b5f614a0e82613b87565b9150614a1983613b87565b9250828203905081811115614a3157614a306149d7565b5b92915050565b7f4c7a4170703a206e6f20747275737465642070617468207265636f72640000005f82015250565b5f614a6b601d83614609565b9150614a7682614a37565b602082019050919050565b5f6020820190508181035f830152614a9881614a5f565b9050919050565b5f8160601b9050919050565b5f614ab582614a9f565b9050919050565b5f614ac682614aab565b9050919050565b614ade614ad982613fb6565b614abc565b82525050565b5f614af08285876146e8565b9150614afc8284614acd565b601482019150819050949350505050565b5f819050815f5260205f209050919050565b5f6020601f8301049050919050565b5f82821b905092915050565b5f60088302614b697fffffffffffffffffffffffffffffffffffffffffffffffffffffffffffffffff82614b2e565b614b738683614b2e565b95508019841693508086168417925050509392505050565b5f614ba5614ba0614b9b84613b87565b614341565b613b87565b9050919050565b5f819050919050565b614bbe83614b8b565b614bd2614bca82614bac565b848454614b3a565b825550505050565b5f90565b614be6614bda565b614bf1818484614bb5565b505050565b5b81811015614c1457614c095f82614bde565b600181019050614bf7565b5050565b601f821115614c5957614c2a81614b0d565b614c3384614b1f565b81016020851015614c42578190505b614c56614c4e85614b1f565b830182614bf6565b50505b505050565b5f82821c905092915050565b5f614c795f1984600802614c5e565b1980831691505092915050565b5f614c918383614c6a565b9150826002028217905092915050565b614caa826140a6565b67ffffffffffffffff811115614cc357614cc2613ddf565b5b614ccd82546146ae565b614cd8828285614c18565b5f60209050601f831160018114614d09575f8415614cf7578287015190505b614d018582614c86565b865550614d68565b601f198416614d1786614b0d565b5f5b82811015614d3e57848901518255600182019150602085019450602081019050614d19565b86831015614d5b5784890151614d57601f891682614c6a565b8355505b6001600288020188555050505b505050505050565b5f608082019050614d835f8301886147b2565b614d9060208301876147b2565b614d9d6040830186613ceb565b8181036060830152614db08184866147da565b90509695505050505050565b7f4e6f6e626c6f636b696e674c7a4170703a206e6f2073746f726564206d6573735f8201527f6167650000000000000000000000000000000000000000000000000000000000602082015250565b5f614e16602383614609565b9150614e2182614dbc565b604082019050919050565b5f6020820190508181035f830152614e4381614e0a565b9050919050565b7f4e6f6e626c6f636b696e674c7a4170703a20696e76616c6964207061796c6f615f8201527f6400000000000000000000000000000000000000000000000000000000000000602082015250565b5f614ea4602183614609565b9150614eaf82614e4a565b604082019050919050565b5f6020820190508181035f830152614ed181614e98565b9050919050565b614ee1816139c9565b82525050565b5f608082019050614efa5f8301886147b2565b8181036020830152614f0d8186886147da565b9050614f1c6040830185614ed8565b614f296060830184613f6f565b9695505050505050565b5f606082019050614f465f8301866147b2565b614f5360208301856147b2565b614f606040830184613ceb565b949350505050565b7f4f4654436f72653a2063616c6c6572206d757374206265204f4654436f7265005f82015250565b5f614f9c601f83614609565b9150614fa782614f68565b602082019050919050565b5f6020820190508181035f830152614fc981614f90565b9050919050565b5f60c082019050614fe35f83018b6147b2565b8181036020830152614ff681898b6147da565b90506150056040830188614ed8565b6150126060830187613f6f565b61501f6080830186613ceb565b81810360a08301526150328184866147da565b90509998505050505050505050565b5f82905092915050565b6150558383615041565b67ffffffffffffffff81111561506e5761506d613ddf565b5b61507882546146ae565b615083828285614c18565b5f601f8311600181146150b0575f841561509e578287013590505b6150a88582614c86565b86555061510f565b601f1984166150be86614b0d565b5f5b828110156150e5578489013582556001820191506020850194506020810190506150c0565b8683101561510257848901356150fe601f891682614c6a565b8355505b6001600288020188555050505b50505050505050565b7f4f776e61626c653a206e6577206f776e657220697320746865207a65726f20615f8201527f6464726573730000000000000000000000000000000000000000000000000000602082015250565b5f615172602683614609565b915061517d82615118565b604082019050919050565b5f6020820190508181035f83015261519f81615166565b9050919050565b5f6080820190506151b95f8301876147b2565b6151c660208301866147b2565b6151d3604083018561423d565b6151e06060830184613ceb565b95945050505050565b5f6151fb6151f684613e57565b613e3d565b90508281526020810184848401111561521757615216613dcb565b5b6152228482856140c0565b509392505050565b5f82601f83011261523e5761523d613968565b5b815161524e8482602086016151e9565b91505092915050565b5f6020828403121561526c5761526b613929565b5b5f82015167ffffffffffffffff8111156152895761528861392d565b5b6152958482850161522a565b91505092915050565b5f6080820190506152b15f8301876147b2565b81810360208301526152c381866140ce565b90506152d26040830185614ed8565b81810360608301526152e481846140ce565b905095945050505050565b7f4f776e61626c653a2063616c6c6572206973206e6f7420746865206f776e65725f82015250565b5f615323602083614609565b915061532e826152ef565b602082019050919050565b5f6020820190508181035f83015261535081615317565b9050919050565b5f60a08201905061536a5f8301886147b2565b615377602083018761423d565b818103604083015261538981866140ce565b90506153986060830185613b34565b81810360808301526153aa81846140ce565b90509695505050505050565b5f80604083850312156153cc576153cb613929565b5b5f6153d985828601614998565b92505060206153ea85828601614998565b9150509250929050565b7f4f4654436f72653a20756e6b6e6f776e207061636b65742074797065000000005f82015250565b5f615428601c83614609565b9150615433826153f4565b602082019050919050565b5f6020820190508181035f8301526154558161541c565b9050919050565b7f4f4654436f72653a20616d6f756e7420746f6f20736d616c6c000000000000005f82015250565b5f615490601983614609565b915061549b8261545c565b602082019050919050565b5f6020820190508181035f8301526154bd81615484565b9050919050565b5f6154ce82613b87565b91506154d983613b87565b92508282019050808211156154f1576154f06149d7565b5b92915050565b7f736c6963655f6f766572666c6f770000000000000000000000000000000000005f82015250565b5f61552b600e83614609565b9150615536826154f7565b602082019050919050565b5f6020820190508181035f8301526155588161551f565b9050919050565b7f736c6963655f6f75744f66426f756e64730000000000000000000000000000005f82015250565b5f615593601183614609565b915061559e8261555f565b602082019050919050565b5f6020820190508181035f8301526155c081615587565b9050919050565b5f6155d1826140a6565b6155db81856146de565b93506155eb8185602086016140c0565b80840191505092915050565b5f61560282846155c7565b915081905092915050565b5f60a0820190506156205f8301886147b2565b818103602083015261563281876140ce565b90506156416040830186614ed8565b818103606083015261565381856140ce565b9050818103608083015261566781846140ce565b90509695505050505050565b7f4e487b71000000000000000000000000000000000000000000000000000000005f52601260045260245ffd5b5f6156aa82613b87565b91506156b583613b87565b9250826156c5576156c4615673565b5b828204905092915050565b7f4f4654436f72653a20616d6f756e745344206f766572666c6f770000000000005f82015250565b5f615704601a83614609565b915061570f826156d0565b602082019050919050565b5f6020820190508181035f830152615731816156f8565b9050919050565b5f8160f81b9050919050565b5f61574e82615738565b9050919050565b61576661576182613d97565b615744565b82525050565b5f819050919050565b61578661578182613bf8565b61576c565b82525050565b5f8160c01b9050919050565b5f6157a28261578c565b9050919050565b6157ba6157b5826139c9565b615798565b82525050565b5f6157cb8286615755565b6001820191506157db8285615775565b6020820191506157eb82846157a9565b600882019150819050949350505050565b7f746f55696e74385f6f75744f66426f756e6473000000000000000000000000005f82015250565b5f615830601383614609565b915061583b826157fc565b602082019050919050565b5f6020820190508181035f83015261585d81615824565b9050919050565b5f610100820190506158785f83018b6147b2565b818103602083015261588a818a6140ce565b90506158996040830189614ed8565b6158a66060830188613f6f565b6158b3608083018761423d565b6158c060a0830186613ceb565b81810360c08301526158d281856140ce565b90506158e160e0830184613ceb565b9998505050505050505050565b5f6060820190508181035f83015261590681866140ce565b90506159156020830185614ed8565b6159226040830184613f6f565b949350505050565b7f4c7a4170703a206d696e4761734c696d6974206e6f74207365740000000000005f82015250565b5f61595e601a83614609565b91506159698261592a565b602082019050919050565b5f6020820190508181035f83015261598b81615952565b9050919050565b7f4c7a4170703a20676173206c696d697420697320746f6f206c6f7700000000005f82015250565b5f6159c6601b83614609565b91506159d182615992565b602082019050919050565b5f6020820190508181035f8301526159f3816159ba565b9050919050565b5f615a0482613b87565b9150615a0f83613b87565b925082615a1f57615a1e615673565b5b828206905092915050565b7f50726f78794f46543a206f776e6572206973206e6f742073656e642063616c6c5f8201527f6572000000000000000000000000000000000000000000000000000000000000602082015250565b5f615a84602283614609565b9150615a8f82615a2a565b604082019050919050565b5f6020820190508181035f830152615ab181615a78565b9050919050565b7f50726f78794f46543a206f7574626f756e64416d6f756e74206f766572666c6f5f8201527f7700000000000000000000000000000000000000000000000000000000000000602082015250565b5f615b12602183614609565b9150615b1d82615ab8565b604082019050919050565b5f6020820190508181035f830152615b3f81615b06565b9050919050565b7f4c7a4170703a2064657374696e6174696f6e20636861696e206973206e6f74205f8201527f61207472757374656420736f7572636500000000000000000000000000000000602082015250565b5f615ba0603083614609565b9150615bab82615b46565b604082019050919050565b5f6020820190508181035f830152615bcd81615b94565b9050919050565b615bdd816148c4565b82525050565b5f60c082019050615bf65f8301896147b2565b8181036020830152615c0881886140ce565b90508181036040830152615c1c81876140ce565b9050615c2b6060830186615bd4565b615c38608083018561423d565b81810360a0830152615c4a81846140ce565b9050979650505050505050565b5f615c628289615755565b600182019150615c728288615775565b602082019150615c8282876157a9565b600882019150615c928286615775565b602082019150615ca282856157a9565b600882019150615cb282846155c7565b9150819050979650505050505050565b5f604082019050615cd55f83018561423d565b615ce26020830184613ceb565b9392505050565b5f606082019050615cfc5f83018661423d565b615d09602083018561423d565b615d166040830184613ceb565b949350505050565b7f4f4654436f72653a20696e76616c6964207061796c6f616400000000000000005f82015250565b5f615d52601883614609565b9150615d5d82615d1e565b602082019050919050565b5f6020820190508181035f830152615d7f81615d46565b9050919050565b5f615d9082613b87565b9150615d9b83613b87565b9250828202615da981613b87565b91508282048414831517615dc057615dbf6149d7565b5b5092915050565b7f4c7a4170703a20696e76616c69642061646170746572506172616d73000000005f82015250565b5f615dfb601c83614609565b9150615e0682615dc7565b602082019050919050565b5f6020820190508181035f830152615e2881615def565b9050919050565b7f4c7a4170703a207061796c6f61642073697a6520697320746f6f206c617267655f82015250565b5f615e63602083614609565b9150615e6e82615e2f565b602082019050919050565b5f6020820190508181035f830152615e9081615e57565b9050919050565b5f81519050615ea581613c2b565b92915050565b5f60208284031215615ec057615ebf613929565b5b5f615ecd84828501615e97565b91505092915050565b7f5361666545524332303a204552433230206f7065726174696f6e20646964206e5f8201527f6f74207375636365656400000000000000000000000000000000000000000000602082015250565b5f615f30602a83614609565b9150615f3b82615ed6565b604082019050919050565b5f6020820190508181035f830152615f5d81615f24565b9050919050565b7f746f416464726573735f6f75744f66426f756e647300000000000000000000005f82015250565b5f615f98601583614609565b9150615fa382615f64565b602082019050919050565b5f6020820190508181035f830152615fc581615f8c565b9050919050565b7f746f55696e7436345f6f75744f66426f756e64730000000000000000000000005f82015250565b5f616000601483614609565b915061600b82615fcc565b602082019050919050565b5f6020820190508181035f83015261602d81615ff4565b9050919050565b7f746f427974657333325f6f75744f66426f756e647300000000000000000000005f82015250565b5f616068601583614609565b915061607382616034565b602082019050919050565b5f6020820190508181035f8301526160958161605c565b9050919050565b7f416464726573733a20696e73756666696369656e742062616c616e636520666f5f8201527f722063616c6c0000000000000000000000000000000000000000000000000000602082015250565b5f6160f6602683614609565b91506161018261609c565b604082019050919050565b5f6020820190508181035f830152616123816160ea565b9050919050565b7f416464726573733a2063616c6c20746f206e6f6e2d636f6e74726163740000005f82015250565b5f61615e601d83614609565b91506161698261612a565b602082019050919050565b5f6020820190508181035f83015261618b81616152565b9050919050565b5f81519050919050565b5f6161a682616192565b6161b08185614609565b93506161c08185602086016140c0565b6161c981613dcf565b840191505092915050565b5f6020820190508181035f8301526161ec818461619c565b90509291505056fea2646970667358221220818e63039f8533aeaf278134f05a143c23dcb4d658d8cfa8e37350f6d335152e64736f6c634300081a0033","linkReferences":{}},"methodIdentifiers":{"DEFAULT_PAYLOAD_SIZE_LIMIT()":"c4461834","NO_EXTRA_GAS()":"44770515","PT_SEND()":"4c42899a","PT_SEND_AND_CALL()":"e6a20ae6","callOnOFTReceived(uint16,bytes,uint64,bytes32,address,uint256,bytes,uint256)":"eaffd49a","circulatingSupply()":"9358928b","creditedPackets(uint16,bytes,uint64)":"9bdb9812","estimateSendAndCallFee(uint16,bytes32,uint256,bytes,uint64,bool,bytes)":"a4c51df5","estimateSendFee(uint16,bytes32,uint256,bool,bytes)":"365260b4","failedMessages(uint16,bytes,uint64)":"5b8c41e6","forceResumeReceive(uint16,bytes)":"42d65a8d","getConfig(uint16,uint16,address,uint256)":"f5ecbdbc","getTrustedRemoteAddress(uint16)":"9f38369a","isTrustedRemote(uint16,bytes)":"3d8b38f6","lzEndpoint()":"b353aaa7","lzReceive(uint16,bytes,uint64,bytes)":"001d3567","minDstGasLookup(uint16,uint16)":"8cfd8f5c","nonblockingLzReceive(uint16,bytes,uint64,bytes)":"66ad5c8a","outboundAmount()":"9689cb05","owner()":"8da5cb5b","payloadSizeLimitLookup(uint16)":"3f1f4fa4","precrime()":"950c8a74","renounceOwnership()":"715018a6","retryMessage(uint16,bytes,uint64,bytes)":"d1deba1f","sendAndCall(address,uint16,bytes32,uint256,bytes,uint64,(address,address,bytes))":"76203b48","sendFrom(address,uint16,bytes32,uint256,(address,address,bytes))":"695ef6bf","setConfig(uint16,uint16,uint256,bytes)":"cbed8b9c","setMinDstGas(uint16,uint16,uint256)":"df2a5b3b","setPayloadSizeLimit(uint16,uint256)":"0df37483","setPrecrime(address)":"baf3292d","setReceiveVersion(uint16)":"10ddb137","setSendVersion(uint16)":"07e0db17","setTrustedRemote(uint16,bytes)":"eb8d72b7","setTrustedRemoteAddress(uint16,bytes)":"a6c3d165","sharedDecimals()":"857749b0","supportsInterface(bytes4)":"01ffc9a7","token()":"fc0c546a","transferOwnership(address)":"f2fde38b","trustedRemoteLookup(uint16)":"7533d788"},"id":22}