{"abi":[{"type":"constructor","inputs":[{"name":"_endpoint","type":"address","internalType":"address"},{"name":"_token","type":"address","internalType":"address"}],"stateMutability":"nonpayable"},{"type":"function","name":"endpoint","inputs":[],"outputs":[{"name":"","type":"address","internalType":"contract ILZEndpoint"}],"stateMutability":"view"},{"type":"function","name":"lzReceive","inputs":[{"name":"srcChainId","type":"uint16","internalType":"uint16"},{"name":"srcOFT","type":"address","internalType":"address"},{"name":"payload","type":"bytes","internalType":"bytes"}],"outputs":[],"stateMutability":"nonpayable"},{"type":"function","name":"owner","inputs":[],"outputs":[{"name":"","type":"address","internalType":"address"}],"stateMutability":"view"},{"type":"function","name":"sendToChain","inputs":[{"name":"dstChainId","type":"uint16","internalType":"uint16"},{"name":"to","type":"address","internalType":"address"},{"name":"amount","type":"uint256","internalType":"uint256"}],"outputs":[],"stateMutability":"nonpayable"},{"type":"function","name":"setEndpoint","inputs":[{"name":"_endpoint","type":"address","internalType":"address"}],"outputs":[],"stateMutability":"nonpayable"},{"type":"function","name":"setTrustedRemote","inputs":[{"name":"chainId","type":"uint16","internalType":"uint16"},{"name":"remote","type":"address","internalType":"address"}],"outputs":[],"stateMutability":"nonpayable"},{"type":"function","name":"token","inputs":[],"outputs":[{"name":"","type":"address","internalType":"contract ISimpleERC20"}],"stateMutability":"view"},{"type":"function","name":"transferOwnership","inputs":[{"name":"newOwner","type":"address","internalType":"address"}],"outputs":[],"stateMutability":"nonpayable"},{"type":"function","name":"trustedRemoteOFT","inputs":[{"name":"","type":"uint16","internalType":"uint16"}],"outputs":[{"name":"","type":"address","internalType":"address"}],"stateMutability":"view"},{"type":"event","name":"EndpointUpdated","inputs":[{"name":"endpoint","type":"address","indexed":true,"internalType":"address"}],"anonymous":false},{"type":"event","name":"OwnershipTransferred","inputs":[{"name":"previousOwner","type":"address","indexed":true,"internalType":"address"},{"name":"newOwner","type":"address","indexed":true,"internalType":"address"}],"anonymous":false},{"type":"event","name":"TrustedRemoteSet","inputs":[{"name":"chainId","type":"uint16","indexed":true,"internalType":"uint16"},{"name":"remote","type":"address","indexed":true,"internalType":"address"}],"anonymous":false}],"bytecode":{"object":"0x608060405234801561000f575f80fd5b5060405161123e38038061123e833981810160405281019061003191906101af565b335f806101000a81548173ffffffffffffffffffffffffffffffffffffffff021916908373ffffffffffffffffffffffffffffffffffffffff1602179055503373ffffffffffffffffffffffffffffffffffffffff165f73ffffffffffffffffffffffffffffffffffffffff167f8be0079c531659141344cd1fd0a4f28419497f9722a3daafe3b4186f6b6457e060405160405180910390a38160015f6101000a81548173ffffffffffffffffffffffffffffffffffffffff021916908373ffffffffffffffffffffffffffffffffffffffff1602179055508060025f6101000a81548173ffffffffffffffffffffffffffffffffffffffff021916908373ffffffffffffffffffffffffffffffffffffffff16021790555050506101ed565b5f80fd5b5f73ffffffffffffffffffffffffffffffffffffffff82169050919050565b5f61017e82610155565b9050919050565b61018e81610174565b8114610198575f80fd5b50565b5f815190506101a981610185565b92915050565b5f80604083850312156101c5576101c4610151565b5b5f6101d28582860161019b565b92505060206101e38582860161019b565b9150509250929050565b611044806101fa5f395ff3fe608060405234801561000f575f80fd5b5060043610610091575f3560e01c80638da5cb5b116100645780638da5cb5b1461011b578063a35d276514610139578063dbbb415514610155578063f2fde38b14610171578063fc0c546a1461018d57610091565b8063282c884f1461009557806333faa762146100c55780635c2d36f3146100e15780635e280f11146100fd575b5f80fd5b6100af60048036038101906100aa91906109b6565b6101ab565b6040516100bc9190610a20565b60405180910390f35b6100df60048036038101906100da9190610a63565b6101db565b005b6100fb60048036038101906100f69190610ad4565b61030b565b005b6101056104f5565b6040516101129190610b7f565b60405180910390f35b61012361051a565b6040516101309190610a20565b60405180910390f35b610153600480360381019061014e9190610bf9565b61053d565b005b61016f600480360381019061016a9190610c6a565b610689565b005b61018b60048036038101906101869190610c6a565b61079c565b005b610195610952565b6040516101a29190610cb5565b60405180910390f35b6003602052805f5260405f205f915054906101000a900473ffffffffffffffffffffffffffffffffffffffff1681565b5f8054906101000a900473ffffffffffffffffffffffffffffffffffffffff1673ffffffffffffffffffffffffffffffffffffffff163373ffffffffffffffffffffffffffffffffffffffff1614610268576040517f08c379a000000000000000000000000000000000000000000000000000000000815260040161025f90610d28565b60405180910390fd5b8060035f8461ffff1661ffff1681526020019081526020015f205f6101000a81548173ffffffffffffffffffffffffffffffffffffffff021916908373ffffffffffffffffffffffffffffffffffffffff1602179055508073ffffffffffffffffffffffffffffffffffffffff168261ffff167f59435327d49a72520dfe4b21a8bbf20f54857f60e1fc90bb4dc0622f61970e4e60405160405180910390a35050565b5f60035f8561ffff1661ffff1681526020019081526020015f205f9054906101000a900473ffffffffffffffffffffffffffffffffffffffff1690505f73ffffffffffffffffffffffffffffffffffffffff168173ffffffffffffffffffffffffffffffffffffffff16036103b5576040517f08c379a00000000000000000000000000000000000000000000000000000000081526004016103ac90610d90565b60405180910390fd5b60025f9054906101000a900473ffffffffffffffffffffffffffffffffffffffff1673ffffffffffffffffffffffffffffffffffffffff166379cc679033846040518363ffffffff1660e01b8152600401610411929190610dbd565b5f604051808303815f87803b158015610428575f80fd5b505af115801561043a573d5f803e3d5ffd5b505050505f8383604051602001610452929190610dbd565b604051602081830303815290604052905060015f9054906101000a900473ffffffffffffffffffffffffffffffffffffffff1673ffffffffffffffffffffffffffffffffffffffff1663b1d995dd8684846040518463ffffffff1660e01b81526004016104c193929190610e63565b5f604051808303815f87803b1580156104d8575f80fd5b505af11580156104ea573d5f803e3d5ffd5b505050505050505050565b60015f9054906101000a900473ffffffffffffffffffffffffffffffffffffffff1681565b5f8054906101000a900473ffffffffffffffffffffffffffffffffffffffff1681565b8273ffffffffffffffffffffffffffffffffffffffff1660035f8661ffff1661ffff1681526020019081526020015f205f9054906101000a900473ffffffffffffffffffffffffffffffffffffffff1673ffffffffffffffffffffffffffffffffffffffff16146105e3576040517f08c379a00000000000000000000000000000000000000000000000000000000081526004016105da90610ee9565b60405180910390fd5b5f8083838101906105f49190610f42565b9150915060025f9054906101000a900473ffffffffffffffffffffffffffffffffffffffff1673ffffffffffffffffffffffffffffffffffffffff166340c10f1983836040518363ffffffff1660e01b8152600401610654929190610dbd565b5f604051808303815f87803b15801561066b575f80fd5b505af115801561067d573d5f803e3d5ffd5b50505050505050505050565b5f8054906101000a900473ffffffffffffffffffffffffffffffffffffffff1673ffffffffffffffffffffffffffffffffffffffff163373ffffffffffffffffffffffffffffffffffffffff1614610716576040517f08c379a000000000000000000000000000000000000000000000000000000000815260040161070d90610d28565b60405180910390fd5b8060015f6101000a81548173ffffffffffffffffffffffffffffffffffffffff021916908373ffffffffffffffffffffffffffffffffffffffff1602179055508073ffffffffffffffffffffffffffffffffffffffff167ffbf944e82135f40e35842ccfa29dab42b6ec33f81d6e8df4bdcb7dab0fe72e0c60405160405180910390a250565b5f8054906101000a900473ffffffffffffffffffffffffffffffffffffffff1673ffffffffffffffffffffffffffffffffffffffff163373ffffffffffffffffffffffffffffffffffffffff1614610829576040517f08c379a000000000000000000000000000000000000000000000000000000000815260040161082090610d28565b60405180910390fd5b5f73ffffffffffffffffffffffffffffffffffffffff168173ffffffffffffffffffffffffffffffffffffffff1603610897576040517f08c379a000000000000000000000000000000000000000000000000000000000815260040161088e90610ff0565b60405180910390fd5b8073ffffffffffffffffffffffffffffffffffffffff165f8054906101000a900473ffffffffffffffffffffffffffffffffffffffff1673ffffffffffffffffffffffffffffffffffffffff167f8be0079c531659141344cd1fd0a4f28419497f9722a3daafe3b4186f6b6457e060405160405180910390a3805f806101000a81548173ffffffffffffffffffffffffffffffffffffffff021916908373ffffffffffffffffffffffffffffffffffffffff16021790555050565b60025f9054906101000a900473ffffffffffffffffffffffffffffffffffffffff1681565b5f80fd5b5f80fd5b5f61ffff82169050919050565b6109958161097f565b811461099f575f80fd5b50565b5f813590506109b08161098c565b92915050565b5f602082840312156109cb576109ca610977565b5b5f6109d8848285016109a2565b91505092915050565b5f73ffffffffffffffffffffffffffffffffffffffff82169050919050565b5f610a0a826109e1565b9050919050565b610a1a81610a00565b82525050565b5f602082019050610a335f830184610a11565b92915050565b610a4281610a00565b8114610a4c575f80fd5b50565b5f81359050610a5d81610a39565b92915050565b5f8060408385031215610a7957610a78610977565b5b5f610a86858286016109a2565b9250506020610a9785828601610a4f565b9150509250929050565b5f819050919050565b610ab381610aa1565b8114610abd575f80fd5b50565b5f81359050610ace81610aaa565b92915050565b5f805f60608486031215610aeb57610aea610977565b5b5f610af8868287016109a2565b9350506020610b0986828701610a4f565b9250506040610b1a86828701610ac0565b9150509250925092565b5f819050919050565b5f610b47610b42610b3d846109e1565b610b24565b6109e1565b9050919050565b5f610b5882610b2d565b9050919050565b5f610b6982610b4e565b9050919050565b610b7981610b5f565b82525050565b5f602082019050610b925f830184610b70565b92915050565b5f80fd5b5f80fd5b5f80fd5b5f8083601f840112610bb957610bb8610b98565b5b8235905067ffffffffffffffff811115610bd657610bd5610b9c565b5b602083019150836001820283011115610bf257610bf1610ba0565b5b9250929050565b5f805f8060608587031215610c1157610c10610977565b5b5f610c1e878288016109a2565b9450506020610c2f87828801610a4f565b935050604085013567ffffffffffffffff811115610c5057610c4f61097b565b5b610c5c87828801610ba4565b925092505092959194509250565b5f60208284031215610c7f57610c7e610977565b5b5f610c8c84828501610a4f565b91505092915050565b5f610c9f82610b4e565b9050919050565b610caf81610c95565b82525050565b5f602082019050610cc85f830184610ca6565b92915050565b5f82825260208201905092915050565b7f4f776e61626c653a2063616c6c6572206973206e6f7420746865206f776e65725f82015250565b5f610d12602083610cce565b9150610d1d82610cde565b602082019050919050565b5f6020820190508181035f830152610d3f81610d06565b9050919050565b7f4f46543a20756e747275737465642072656d6f746500000000000000000000005f82015250565b5f610d7a601583610cce565b9150610d8582610d46565b602082019050919050565b5f6020820190508181035f830152610da781610d6e565b9050919050565b610db781610aa1565b82525050565b5f604082019050610dd05f830185610a11565b610ddd6020830184610dae565b9392505050565b610ded8161097f565b82525050565b5f81519050919050565b5f82825260208201905092915050565b8281835e5f83830152505050565b5f601f19601f8301169050919050565b5f610e3582610df3565b610e3f8185610dfd565b9350610e4f818560208601610e0d565b610e5881610e1b565b840191505092915050565b5f606082019050610e765f830186610de4565b610e836020830185610a11565b8181036040830152610e958184610e2b565b9050949350505050565b7f4f46543a20696e76616c696420737263000000000000000000000000000000005f82015250565b5f610ed3601083610cce565b9150610ede82610e9f565b602082019050919050565b5f6020820190508181035f830152610f0081610ec7565b9050919050565b5f610f11826109e1565b9050919050565b610f2181610f07565b8114610f2b575f80fd5b50565b5f81359050610f3c81610f18565b92915050565b5f8060408385031215610f5857610f57610977565b5b5f610f6585828601610f2e565b9250506020610f7685828601610ac0565b9150509250929050565b7f4f776e61626c653a206e6577206f776e657220697320746865207a65726f20615f8201527f6464726573730000000000000000000000000000000000000000000000000000602082015250565b5f610fda602683610cce565b9150610fe582610f80565b604082019050919050565b5f6020820190508181035f83015261100781610fce565b905091905056fea26469706673582212208bd6f0f0524d96ad7f542d9260373835be150cf38ad6a92e84cd70c0bf4eb2d864736f6c634300081a0033","linkReferences":{}},"methodIdentifiers":{"endpoint()":"5e280f11","lzReceive(uint16,address,bytes)":"a35d2765","owner()":"8da5cb5b","sendToChain(uint16,address,uint256)":"5c2d36f3","setEndpoint(address)":"dbbb4155","setTrustedRemote(uint16,address)":"33faa762","token()":"fc0c546a","transferOwnership(address)":"f2fde38b","trustedRemoteOFT(uint16)":"282c884f"},"id":5}